{
	"contracts/TestERC.sol": {
		"SafeMath": {
			"abi": [
				{
					"inputs": [
						{
							"internalType": "uint256",
							"name": "a",
							"type": "uint256"
						},
						{
							"internalType": "uint256",
							"name": "b",
							"type": "uint256"
						}
					],
					"name": "safeAdd",
					"outputs": [
						{
							"internalType": "uint256",
							"name": "c",
							"type": "uint256"
						}
					],
					"stateMutability": "pure",
					"type": "function"
				},
				{
					"inputs": [
						{
							"internalType": "uint256",
							"name": "a",
							"type": "uint256"
						},
						{
							"internalType": "uint256",
							"name": "b",
							"type": "uint256"
						}
					],
					"name": "safeDiv",
					"outputs": [
						{
							"internalType": "uint256",
							"name": "c",
							"type": "uint256"
						}
					],
					"stateMutability": "pure",
					"type": "function"
				},
				{
					"inputs": [
						{
							"internalType": "uint256",
							"name": "a",
							"type": "uint256"
						},
						{
							"internalType": "uint256",
							"name": "b",
							"type": "uint256"
						}
					],
					"name": "safeMul",
					"outputs": [
						{
							"internalType": "uint256",
							"name": "c",
							"type": "uint256"
						}
					],
					"stateMutability": "pure",
					"type": "function"
				},
				{
					"inputs": [
						{
							"internalType": "uint256",
							"name": "a",
							"type": "uint256"
						},
						{
							"internalType": "uint256",
							"name": "b",
							"type": "uint256"
						}
					],
					"name": "safeSub",
					"outputs": [
						{
							"internalType": "uint256",
							"name": "c",
							"type": "uint256"
						}
					],
					"stateMutability": "pure",
					"type": "function"
				}
			],
			"devdoc": {
				"kind": "dev",
				"methods": {},
				"version": 1
			},
			"evm": {
				"assembly": "    /* \"contracts/TestERC.sol\":3099:3566  contract SafeMath {\r... */\n  mstore(0x40, 0x80)\n  callvalue\n  dup1\n  iszero\n  tag_1\n  jumpi\n  0x00\n  dup1\n  revert\ntag_1:\n  pop\n  dataSize(sub_0)\n  dup1\n  dataOffset(sub_0)\n  0x00\n  codecopy\n  0x00\n  return\nstop\n\nsub_0: assembly {\n        /* \"contracts/TestERC.sol\":3099:3566  contract SafeMath {\r... */\n      mstore(0x40, 0x80)\n      callvalue\n      dup1\n      iszero\n      tag_1\n      jumpi\n      0x00\n      dup1\n      revert\n    tag_1:\n      pop\n      jumpi(tag_2, lt(calldatasize, 0x04))\n      shr(0xe0, calldataload(0x00))\n      dup1\n      0xa293d1e8\n      eq\n      tag_3\n      jumpi\n      dup1\n      0xb5931f7c\n      eq\n      tag_4\n      jumpi\n      dup1\n      0xd05c78da\n      eq\n      tag_5\n      jumpi\n      dup1\n      0xe6cb9013\n      eq\n      tag_6\n      jumpi\n    tag_2:\n      0x00\n      dup1\n      revert\n        /* \"contracts/TestERC.sol\":3246:3348  function safeSub(uint a, uint b) public pure returns (uint c) {\r... */\n    tag_3:\n      tag_7\n      0x04\n      dup1\n      calldatasize\n      sub\n      0x40\n      dup2\n      lt\n      iszero\n      tag_8\n      jumpi\n      0x00\n      dup1\n      revert\n    tag_8:\n      pop\n      dup1\n      calldataload\n      swap1\n      0x20\n      add\n      calldataload\n      tag_9\n      jump\t// in\n    tag_7:\n      0x40\n      dup1\n      mload\n      swap2\n      dup3\n      mstore\n      mload\n      swap1\n      dup2\n      swap1\n      sub\n      0x20\n      add\n      swap1\n      return\n        /* \"contracts/TestERC.sol\":3457:3563  function safeDiv(uint a, uint b) public pure returns (uint c) { require(b > 0);\r... */\n    tag_4:\n      tag_7\n      0x04\n      dup1\n      calldatasize\n      sub\n      0x40\n      dup2\n      lt\n      iszero\n      tag_11\n      jumpi\n      0x00\n      dup1\n      revert\n    tag_11:\n      pop\n      dup1\n      calldataload\n      swap1\n      0x20\n      add\n      calldataload\n      tag_12\n      jump\t// in\n        /* \"contracts/TestERC.sol\":3349:3456  function safeMul(uint a, uint b) public pure returns (uint c) { c = a * b; require(a == 0 || c / a == b); } */\n    tag_5:\n      tag_7\n      0x04\n      dup1\n      calldatasize\n      sub\n      0x40\n      dup2\n      lt\n      iszero\n      tag_14\n      jumpi\n      0x00\n      dup1\n      revert\n    tag_14:\n      pop\n      dup1\n      calldataload\n      swap1\n      0x20\n      add\n      calldataload\n      tag_15\n      jump\t// in\n        /* \"contracts/TestERC.sol\":3124:3240  function safeAdd(uint a, uint b) public pure returns (uint c) {\r... */\n    tag_6:\n      tag_7\n      0x04\n      dup1\n      calldatasize\n      sub\n      0x40\n      dup2\n      lt\n      iszero\n      tag_17\n      jumpi\n      0x00\n      dup1\n      revert\n    tag_17:\n      pop\n      dup1\n      calldataload\n      swap1\n      0x20\n      add\n      calldataload\n      tag_18\n      jump\t// in\n        /* \"contracts/TestERC.sol\":3246:3348  function safeSub(uint a, uint b) public pure returns (uint c) {\r... */\n    tag_9:\n        /* \"contracts/TestERC.sol\":3300:3306  uint c */\n      0x00\n        /* \"contracts/TestERC.sol\":3332:3333  a */\n      dup3\n        /* \"contracts/TestERC.sol\":3327:3328  b */\n      dup3\n        /* \"contracts/TestERC.sol\":3327:3333  b <= a */\n      gt\n      iszero\n        /* \"contracts/TestERC.sol\":3319:3334  require(b <= a) */\n      tag_20\n      jumpi\n      0x00\n      dup1\n      revert\n    tag_20:\n      pop\n        /* \"contracts/TestERC.sol\":3340:3345  a - b */\n      swap1\n      sub\n      swap1\n        /* \"contracts/TestERC.sol\":3246:3348  function safeSub(uint a, uint b) public pure returns (uint c) {\r... */\n      jump\t// out\n        /* \"contracts/TestERC.sol\":3457:3563  function safeDiv(uint a, uint b) public pure returns (uint c) { require(b > 0);\r... */\n    tag_12:\n        /* \"contracts/TestERC.sol\":3511:3517  uint c */\n      0x00\n        /* \"contracts/TestERC.sol\":3533:3534  0 */\n      dup1\n        /* \"contracts/TestERC.sol\":3529:3530  b */\n      dup3\n        /* \"contracts/TestERC.sol\":3529:3534  b > 0 */\n      gt\n        /* \"contracts/TestERC.sol\":3521:3535  require(b > 0) */\n      tag_22\n      jumpi\n      0x00\n      dup1\n      revert\n    tag_22:\n        /* \"contracts/TestERC.sol\":3554:3555  b */\n      dup2\n        /* \"contracts/TestERC.sol\":3550:3551  a */\n      dup4\n        /* \"contracts/TestERC.sol\":3550:3555  a / b */\n      dup2\n      tag_23\n      jumpi\n      invalid\n    tag_23:\n      div\n      swap4\n        /* \"contracts/TestERC.sol\":3457:3563  function safeDiv(uint a, uint b) public pure returns (uint c) { require(b > 0);\r... */\n      swap3\n      pop\n      pop\n      pop\n      jump\t// out\n        /* \"contracts/TestERC.sol\":3349:3456  function safeMul(uint a, uint b) public pure returns (uint c) { c = a * b; require(a == 0 || c / a == b); } */\n    tag_15:\n        /* \"contracts/TestERC.sol\":3417:3422  a * b */\n      dup2\n      dup2\n      mul\n        /* \"contracts/TestERC.sol\":3432:3438  a == 0 */\n      dup3\n      iszero\n      dup1\n        /* \"contracts/TestERC.sol\":3432:3452  a == 0 || c / a == b */\n      tag_25\n      jumpi\n      pop\n        /* \"contracts/TestERC.sol\":3451:3452  b */\n      dup2\n        /* \"contracts/TestERC.sol\":3446:3447  a */\n      dup4\n        /* \"contracts/TestERC.sol\":3442:3443  c */\n      dup3\n        /* \"contracts/TestERC.sol\":3442:3447  c / a */\n      dup2\n      tag_26\n      jumpi\n      invalid\n    tag_26:\n      div\n        /* \"contracts/TestERC.sol\":3442:3452  c / a == b */\n      eq\n        /* \"contracts/TestERC.sol\":3432:3452  a == 0 || c / a == b */\n    tag_25:\n        /* \"contracts/TestERC.sol\":3424:3453  require(a == 0 || c / a == b) */\n      tag_27\n      jumpi\n      0x00\n      dup1\n      revert\n    tag_27:\n        /* \"contracts/TestERC.sol\":3349:3456  function safeMul(uint a, uint b) public pure returns (uint c) { c = a * b; require(a == 0 || c / a == b); } */\n      swap3\n      swap2\n      pop\n      pop\n      jump\t// out\n        /* \"contracts/TestERC.sol\":3124:3240  function safeAdd(uint a, uint b) public pure returns (uint c) {\r... */\n    tag_18:\n        /* \"contracts/TestERC.sol\":3201:3206  a + b */\n      dup2\n      dup2\n      add\n        /* \"contracts/TestERC.sol\":3225:3231  c >= a */\n      dup3\n      dup2\n      lt\n      iszero\n        /* \"contracts/TestERC.sol\":3217:3232  require(c >= a) */\n      tag_27\n      jumpi\n      0x00\n      dup1\n      revert\n\n    auxdata: 0xa2646970667358221220a5654201b2a322d15ef178ba3ca0d624cf771ad7ee7b732dd69adc56bf8e9ca264736f6c63430007060033\n}\n",
				"bytecode": {
					"linkReferences": {},
					"object": "608060405234801561001057600080fd5b50610190806100206000396000f3fe608060405234801561001057600080fd5b506004361061004c5760003560e01c8063a293d1e814610051578063b5931f7c14610086578063d05c78da146100a9578063e6cb9013146100cc575b600080fd5b6100746004803603604081101561006757600080fd5b50803590602001356100ef565b60408051918252519081900360200190f35b6100746004803603604081101561009c57600080fd5b5080359060200135610104565b610074600480360360408110156100bf57600080fd5b5080359060200135610123565b610074600480360360408110156100e257600080fd5b508035906020013561014a565b6000828211156100fe57600080fd5b50900390565b600080821161011257600080fd5b81838161011b57fe5b049392505050565b81810282158061013b57508183828161013857fe5b04145b61014457600080fd5b92915050565b8181018281101561014457600080fdfea2646970667358221220a5654201b2a322d15ef178ba3ca0d624cf771ad7ee7b732dd69adc56bf8e9ca264736f6c63430007060033",
					"opcodes": "PUSH1 0x80 PUSH1 0x40 MSTORE CALLVALUE DUP1 ISZERO PUSH2 0x10 JUMPI PUSH1 0x0 DUP1 REVERT JUMPDEST POP PUSH2 0x190 DUP1 PUSH2 0x20 PUSH1 0x0 CODECOPY PUSH1 0x0 RETURN INVALID PUSH1 0x80 PUSH1 0x40 MSTORE CALLVALUE DUP1 ISZERO PUSH2 0x10 JUMPI PUSH1 0x0 DUP1 REVERT JUMPDEST POP PUSH1 0x4 CALLDATASIZE LT PUSH2 0x4C JUMPI PUSH1 0x0 CALLDATALOAD PUSH1 0xE0 SHR DUP1 PUSH4 0xA293D1E8 EQ PUSH2 0x51 JUMPI DUP1 PUSH4 0xB5931F7C EQ PUSH2 0x86 JUMPI DUP1 PUSH4 0xD05C78DA EQ PUSH2 0xA9 JUMPI DUP1 PUSH4 0xE6CB9013 EQ PUSH2 0xCC JUMPI JUMPDEST PUSH1 0x0 DUP1 REVERT JUMPDEST PUSH2 0x74 PUSH1 0x4 DUP1 CALLDATASIZE SUB PUSH1 0x40 DUP2 LT ISZERO PUSH2 0x67 JUMPI PUSH1 0x0 DUP1 REVERT JUMPDEST POP DUP1 CALLDATALOAD SWAP1 PUSH1 0x20 ADD CALLDATALOAD PUSH2 0xEF JUMP JUMPDEST PUSH1 0x40 DUP1 MLOAD SWAP2 DUP3 MSTORE MLOAD SWAP1 DUP2 SWAP1 SUB PUSH1 0x20 ADD SWAP1 RETURN JUMPDEST PUSH2 0x74 PUSH1 0x4 DUP1 CALLDATASIZE SUB PUSH1 0x40 DUP2 LT ISZERO PUSH2 0x9C JUMPI PUSH1 0x0 DUP1 REVERT JUMPDEST POP DUP1 CALLDATALOAD SWAP1 PUSH1 0x20 ADD CALLDATALOAD PUSH2 0x104 JUMP JUMPDEST PUSH2 0x74 PUSH1 0x4 DUP1 CALLDATASIZE SUB PUSH1 0x40 DUP2 LT ISZERO PUSH2 0xBF JUMPI PUSH1 0x0 DUP1 REVERT JUMPDEST POP DUP1 CALLDATALOAD SWAP1 PUSH1 0x20 ADD CALLDATALOAD PUSH2 0x123 JUMP JUMPDEST PUSH2 0x74 PUSH1 0x4 DUP1 CALLDATASIZE SUB PUSH1 0x40 DUP2 LT ISZERO PUSH2 0xE2 JUMPI PUSH1 0x0 DUP1 REVERT JUMPDEST POP DUP1 CALLDATALOAD SWAP1 PUSH1 0x20 ADD CALLDATALOAD PUSH2 0x14A JUMP JUMPDEST PUSH1 0x0 DUP3 DUP3 GT ISZERO PUSH2 0xFE JUMPI PUSH1 0x0 DUP1 REVERT JUMPDEST POP SWAP1 SUB SWAP1 JUMP JUMPDEST PUSH1 0x0 DUP1 DUP3 GT PUSH2 0x112 JUMPI PUSH1 0x0 DUP1 REVERT JUMPDEST DUP2 DUP4 DUP2 PUSH2 0x11B JUMPI INVALID JUMPDEST DIV SWAP4 SWAP3 POP POP POP JUMP JUMPDEST DUP2 DUP2 MUL DUP3 ISZERO DUP1 PUSH2 0x13B JUMPI POP DUP2 DUP4 DUP3 DUP2 PUSH2 0x138 JUMPI INVALID JUMPDEST DIV EQ JUMPDEST PUSH2 0x144 JUMPI PUSH1 0x0 DUP1 REVERT JUMPDEST SWAP3 SWAP2 POP POP JUMP JUMPDEST DUP2 DUP2 ADD DUP3 DUP2 LT ISZERO PUSH2 0x144 JUMPI PUSH1 0x0 DUP1 REVERT INVALID LOG2 PUSH5 0x6970667358 0x22 SLT KECCAK256 0xA5 PUSH6 0x4201B2A322D1 0x5E CALL PUSH25 0xBA3CA0D624CF771AD7EE7B732DD69ADC56BF8E9CA264736F6C PUSH4 0x43000706 STOP CALLER "
				},
				"gasEstimates": {
					"creation": {
						"codeDepositCost": "80000",
						"executionCost": "129",
						"totalCost": "80129"
					},
					"external": {
						"safeAdd(uint256,uint256)": "338",
						"safeDiv(uint256,uint256)": "315",
						"safeMul(uint256,uint256)": "365",
						"safeSub(uint256,uint256)": "267"
					}
				},
				"methodIdentifiers": {
					"safeAdd(uint256,uint256)": "e6cb9013",
					"safeDiv(uint256,uint256)": "b5931f7c",
					"safeMul(uint256,uint256)": "d05c78da",
					"safeSub(uint256,uint256)": "a293d1e8"
				}
			},
			"storageLayout": {
				"storage": [],
				"types": null
			},
			"userdoc": {
				"kind": "user",
				"methods": {},
				"version": 1
			}
		}
	}
}