{
	"contracts/TestERC.sol": {
		"TestTokenFreeMintable": {
			"abi": [
				{
					"inputs": [
						{
							"internalType": "string",
							"name": "_name",
							"type": "string"
						},
						{
							"internalType": "string",
							"name": "_symbol",
							"type": "string"
						},
						{
							"internalType": "uint8",
							"name": "_decimals",
							"type": "uint8"
						},
						{
							"internalType": "uint256",
							"name": "totalSupply",
							"type": "uint256"
						}
					],
					"stateMutability": "nonpayable",
					"type": "constructor"
				},
				{
					"anonymous": false,
					"inputs": [
						{
							"indexed": true,
							"internalType": "address",
							"name": "tokenOwner",
							"type": "address"
						},
						{
							"indexed": true,
							"internalType": "address",
							"name": "spender",
							"type": "address"
						},
						{
							"indexed": false,
							"internalType": "uint256",
							"name": "tokens",
							"type": "uint256"
						}
					],
					"name": "Approval",
					"type": "event"
				},
				{
					"anonymous": false,
					"inputs": [
						{
							"indexed": true,
							"internalType": "address",
							"name": "previousOwner",
							"type": "address"
						},
						{
							"indexed": true,
							"internalType": "address",
							"name": "newOwner",
							"type": "address"
						}
					],
					"name": "OwnershipTransferred",
					"type": "event"
				},
				{
					"anonymous": false,
					"inputs": [
						{
							"indexed": true,
							"internalType": "address",
							"name": "from",
							"type": "address"
						},
						{
							"indexed": true,
							"internalType": "address",
							"name": "to",
							"type": "address"
						},
						{
							"indexed": false,
							"internalType": "uint256",
							"name": "tokens",
							"type": "uint256"
						}
					],
					"name": "Transfer",
					"type": "event"
				},
				{
					"inputs": [
						{
							"internalType": "uint256",
							"name": "amount",
							"type": "uint256"
						},
						{
							"internalType": "address",
							"name": "to",
							"type": "address"
						}
					],
					"name": "Mint",
					"outputs": [],
					"stateMutability": "nonpayable",
					"type": "function"
				},
				{
					"inputs": [],
					"name": "_totalSupply",
					"outputs": [
						{
							"internalType": "uint256",
							"name": "",
							"type": "uint256"
						}
					],
					"stateMutability": "view",
					"type": "function"
				},
				{
					"inputs": [
						{
							"internalType": "address",
							"name": "tokenOwner",
							"type": "address"
						},
						{
							"internalType": "address",
							"name": "spender",
							"type": "address"
						}
					],
					"name": "allowance",
					"outputs": [
						{
							"internalType": "uint256",
							"name": "remaining",
							"type": "uint256"
						}
					],
					"stateMutability": "view",
					"type": "function"
				},
				{
					"inputs": [
						{
							"internalType": "address",
							"name": "spender",
							"type": "address"
						},
						{
							"internalType": "uint256",
							"name": "tokens",
							"type": "uint256"
						}
					],
					"name": "approve",
					"outputs": [
						{
							"internalType": "bool",
							"name": "success",
							"type": "bool"
						}
					],
					"stateMutability": "nonpayable",
					"type": "function"
				},
				{
					"inputs": [
						{
							"internalType": "address",
							"name": "tokenOwner",
							"type": "address"
						}
					],
					"name": "balanceOf",
					"outputs": [
						{
							"internalType": "uint256",
							"name": "balance",
							"type": "uint256"
						}
					],
					"stateMutability": "view",
					"type": "function"
				},
				{
					"inputs": [],
					"name": "decimals",
					"outputs": [
						{
							"internalType": "uint8",
							"name": "",
							"type": "uint8"
						}
					],
					"stateMutability": "view",
					"type": "function"
				},
				{
					"inputs": [],
					"name": "name",
					"outputs": [
						{
							"internalType": "string",
							"name": "",
							"type": "string"
						}
					],
					"stateMutability": "view",
					"type": "function"
				},
				{
					"inputs": [],
					"name": "owner",
					"outputs": [
						{
							"internalType": "address",
							"name": "",
							"type": "address"
						}
					],
					"stateMutability": "view",
					"type": "function"
				},
				{
					"inputs": [],
					"name": "renounceOwnership",
					"outputs": [],
					"stateMutability": "nonpayable",
					"type": "function"
				},
				{
					"inputs": [
						{
							"internalType": "uint256",
							"name": "a",
							"type": "uint256"
						},
						{
							"internalType": "uint256",
							"name": "b",
							"type": "uint256"
						}
					],
					"name": "safeAdd",
					"outputs": [
						{
							"internalType": "uint256",
							"name": "c",
							"type": "uint256"
						}
					],
					"stateMutability": "pure",
					"type": "function"
				},
				{
					"inputs": [
						{
							"internalType": "uint256",
							"name": "a",
							"type": "uint256"
						},
						{
							"internalType": "uint256",
							"name": "b",
							"type": "uint256"
						}
					],
					"name": "safeDiv",
					"outputs": [
						{
							"internalType": "uint256",
							"name": "c",
							"type": "uint256"
						}
					],
					"stateMutability": "pure",
					"type": "function"
				},
				{
					"inputs": [
						{
							"internalType": "uint256",
							"name": "a",
							"type": "uint256"
						},
						{
							"internalType": "uint256",
							"name": "b",
							"type": "uint256"
						}
					],
					"name": "safeMul",
					"outputs": [
						{
							"internalType": "uint256",
							"name": "c",
							"type": "uint256"
						}
					],
					"stateMutability": "pure",
					"type": "function"
				},
				{
					"inputs": [
						{
							"internalType": "uint256",
							"name": "a",
							"type": "uint256"
						},
						{
							"internalType": "uint256",
							"name": "b",
							"type": "uint256"
						}
					],
					"name": "safeSub",
					"outputs": [
						{
							"internalType": "uint256",
							"name": "c",
							"type": "uint256"
						}
					],
					"stateMutability": "pure",
					"type": "function"
				},
				{
					"inputs": [],
					"name": "symbol",
					"outputs": [
						{
							"internalType": "string",
							"name": "",
							"type": "string"
						}
					],
					"stateMutability": "view",
					"type": "function"
				},
				{
					"inputs": [],
					"name": "totalSupply",
					"outputs": [
						{
							"internalType": "uint256",
							"name": "",
							"type": "uint256"
						}
					],
					"stateMutability": "view",
					"type": "function"
				},
				{
					"inputs": [
						{
							"internalType": "address",
							"name": "to",
							"type": "address"
						},
						{
							"internalType": "uint256",
							"name": "tokens",
							"type": "uint256"
						}
					],
					"name": "transfer",
					"outputs": [
						{
							"internalType": "bool",
							"name": "success",
							"type": "bool"
						}
					],
					"stateMutability": "nonpayable",
					"type": "function"
				},
				{
					"inputs": [
						{
							"internalType": "address",
							"name": "from",
							"type": "address"
						},
						{
							"internalType": "address",
							"name": "to",
							"type": "address"
						},
						{
							"internalType": "uint256",
							"name": "tokens",
							"type": "uint256"
						}
					],
					"name": "transferFrom",
					"outputs": [
						{
							"internalType": "bool",
							"name": "success",
							"type": "bool"
						}
					],
					"stateMutability": "nonpayable",
					"type": "function"
				},
				{
					"inputs": [
						{
							"internalType": "address",
							"name": "newOwner",
							"type": "address"
						}
					],
					"name": "transferOwnership",
					"outputs": [],
					"stateMutability": "nonpayable",
					"type": "function"
				}
			],
			"devdoc": {
				"kind": "dev",
				"methods": {
					"owner()": {
						"details": "Returns the address of the current owner."
					},
					"renounceOwnership()": {
						"details": "Leaves the contract without owner. It will not be possible to call `onlyOwner` functions anymore. Can only be called by the current owner. NOTE: Renouncing ownership will leave the contract without an owner, thereby removing any functionality that is only available to the owner."
					},
					"transferOwnership(address)": {
						"details": "Transfers ownership of the contract to a new account (`newOwner`). Can only be called by the current owner."
					}
				},
				"version": 1
			},
			"evm": {
				"assembly": "    /* \"contracts/TestERC.sol\":3570:5918  contract TestTokenFreeMintable is ERC20Interface, SafeMath, Ownable {\r... */\n  mstore(0x40, 0x80)\n    /* \"contracts/TestERC.sol\":4081:4455  constructor(\r... */\n  callvalue\n  dup1\n  iszero\n  tag_1\n  jumpi\n  0x00\n  dup1\n  revert\ntag_1:\n  pop\n  mload(0x40)\n  sub(codesize, bytecodeSize)\n  dup1\n  bytecodeSize\n  dup4\n  codecopy\n  dup2\n  dup2\n  add\n  0x40\n  mstore\n  0x80\n  dup2\n  lt\n  iszero\n  tag_2\n  jumpi\n  0x00\n  dup1\n  revert\ntag_2:\n  dup2\n  add\n  swap1\n  dup1\n  dup1\n  mload\n  mload(0x40)\n  swap4\n  swap3\n  swap2\n  swap1\n  dup5\n  0x0100000000\n  dup3\n  gt\n  iszero\n  tag_3\n  jumpi\n  0x00\n  dup1\n  revert\ntag_3:\n  swap1\n  dup4\n  add\n  swap1\n  0x20\n  dup3\n  add\n  dup6\n  dup2\n  gt\n  iszero\n  tag_4\n  jumpi\n  0x00\n  dup1\n  revert\ntag_4:\n  dup3\n  mload\n  0x0100000000\n  dup2\n  gt\n  dup3\n  dup3\n  add\n  dup9\n  lt\n  or\n  iszero\n  tag_5\n  jumpi\n  0x00\n  dup1\n  revert\ntag_5:\n  dup3\n  mstore\n  pop\n  dup2\n  mload\n  0x20\n  swap2\n  dup3\n  add\n  swap3\n  swap1\n  swap2\n  add\n  swap1\n  dup1\n  dup4\n  dup4\n  0x00\ntag_6:\n  dup4\n  dup2\n  lt\n  iszero\n  tag_8\n  jumpi\n  dup2\n  dup2\n  add\n  mload\n  dup4\n  dup3\n  add\n  mstore\n  0x20\n  add\n  jump(tag_6)\ntag_8:\n  pop\n  pop\n  pop\n  pop\n  swap1\n  pop\n  swap1\n  dup2\n  add\n  swap1\n  0x1f\n  and\n  dup1\n  iszero\n  tag_9\n  jumpi\n  dup1\n  dup3\n  sub\n  dup1\n  mload\n  0x01\n  dup4\n  0x20\n  sub\n  0x0100\n  exp\n  sub\n  not\n  and\n  dup2\n  mstore\n  0x20\n  add\n  swap2\n  pop\ntag_9:\n  pop\n  0x40\n  mstore\n  0x20\n  add\n  dup1\n  mload\n  mload(0x40)\n  swap4\n  swap3\n  swap2\n  swap1\n  dup5\n  0x0100000000\n  dup3\n  gt\n  iszero\n  tag_10\n  jumpi\n  0x00\n  dup1\n  revert\ntag_10:\n  swap1\n  dup4\n  add\n  swap1\n  0x20\n  dup3\n  add\n  dup6\n  dup2\n  gt\n  iszero\n  tag_11\n  jumpi\n  0x00\n  dup1\n  revert\ntag_11:\n  dup3\n  mload\n  0x0100000000\n  dup2\n  gt\n  dup3\n  dup3\n  add\n  dup9\n  lt\n  or\n  iszero\n  tag_12\n  jumpi\n  0x00\n  dup1\n  revert\ntag_12:\n  dup3\n  mstore\n  pop\n  dup2\n  mload\n  0x20\n  swap2\n  dup3\n  add\n  swap3\n  swap1\n  swap2\n  add\n  swap1\n  dup1\n  dup4\n  dup4\n  0x00\ntag_13:\n  dup4\n  dup2\n  lt\n  iszero\n  tag_15\n  jumpi\n  dup2\n  dup2\n  add\n  mload\n  dup4\n  dup3\n  add\n  mstore\n  0x20\n  add\n  jump(tag_13)\ntag_15:\n  pop\n  pop\n  pop\n  pop\n  swap1\n  pop\n  swap1\n  dup2\n  add\n  swap1\n  0x1f\n  and\n  dup1\n  iszero\n  tag_16\n  jumpi\n  dup1\n  dup3\n  sub\n  dup1\n  mload\n  0x01\n  dup4\n  0x20\n  sub\n  0x0100\n  exp\n  sub\n  not\n  and\n  dup2\n  mstore\n  0x20\n  add\n  swap2\n  pop\ntag_16:\n  pop\n  0x40\n  swap1\n  dup2\n  mstore\n  0x20\n  dup3\n  add\n  mload\n  swap2\n  add\n  mload\n  swap1\n  swap3\n  pop\n  swap1\n  pop\n    /* \"contracts/TestERC.sol\":770:793  _setOwner(_msgSender()) */\n  tag_20\n    /* \"contracts/TestERC.sol\":780:792  _msgSender() */\n  tag_21\n    /* \"contracts/TestERC.sol\":780:790  _msgSender */\n  tag_22\n    /* \"contracts/TestERC.sol\":780:792  _msgSender() */\n  jump\t// in\ntag_21:\n    /* \"contracts/TestERC.sol\":770:779  _setOwner */\n  tag_23\n    /* \"contracts/TestERC.sol\":770:793  _setOwner(_msgSender()) */\n  jump\t// in\ntag_20:\n    /* \"contracts/TestERC.sol\":4232:4244  name = _name */\n  dup4\n  mload\n  tag_25\n  swap1\n    /* \"contracts/TestERC.sol\":4232:4236  name */\n  0x01\n  swap1\n    /* \"contracts/TestERC.sol\":4232:4244  name = _name */\n  0x20\n  dup8\n  add\n  swap1\n  tag_26\n  jump\t// in\ntag_25:\n  pop\n    /* \"contracts/TestERC.sol\":4255:4271  symbol = _symbol */\n  dup3\n  mload\n  tag_27\n  swap1\n    /* \"contracts/TestERC.sol\":4255:4261  symbol */\n  0x02\n  swap1\n    /* \"contracts/TestERC.sol\":4255:4271  symbol = _symbol */\n  0x20\n  dup7\n  add\n  swap1\n  tag_26\n  jump\t// in\ntag_27:\n  pop\n    /* \"contracts/TestERC.sol\":4282:4290  decimals */\n  0x03\n    /* \"contracts/TestERC.sol\":4282:4302  decimals = _decimals */\n  dup1\n  sload\n  not(0xff)\n  and\n  0xff\n  dup5\n  and\n  or\n  swap1\n  sstore\n    /* \"contracts/TestERC.sol\":4313:4325  _totalSupply */\n  0x04\n    /* \"contracts/TestERC.sol\":4313:4339  _totalSupply = totalSupply */\n  dup2\n  swap1\n  sstore\n    /* \"contracts/TestERC.sol\":4359:4369  msg.sender */\n  caller\n  0x00\n    /* \"contracts/TestERC.sol\":4350:4370  balances[msg.sender] */\n  dup2\n  dup2\n  mstore\n    /* \"contracts/TestERC.sol\":4350:4358  balances */\n  0x05\n    /* \"contracts/TestERC.sol\":4350:4370  balances[msg.sender] */\n  0x20\n  swap1\n  dup2\n  mstore\n  0x40\n  dup1\n  dup4\n  keccak256\n    /* \"contracts/TestERC.sol\":4350:4385  balances[msg.sender] = _totalSupply */\n  dup6\n  swap1\n  sstore\n    /* \"contracts/TestERC.sol\":4401:4447  Transfer(address(0), msg.sender, _totalSupply) */\n  dup1\n  mload\n  dup6\n  dup2\n  mstore\n  swap1\n  mload\n  0xddf252ad1be2c89b69c2b068fc378daa952ba7f163c4a11628f55a4df523b3ef\n  swap3\n  swap2\n  dup2\n  swap1\n  sub\n  swap1\n  swap2\n  add\n  swap1\n  log3\n    /* \"contracts/TestERC.sol\":4081:4455  constructor(\r... */\n  pop\n  pop\n  pop\n  pop\n    /* \"contracts/TestERC.sol\":3570:5918  contract TestTokenFreeMintable is ERC20Interface, SafeMath, Ownable {\r... */\n  jump(tag_28)\n    /* \"contracts/TestERC.sol\":265:363  function _msgSender() internal view virtual returns (address) {\r... */\ntag_22:\n    /* \"contracts/TestERC.sol\":345:355  msg.sender */\n  caller\n    /* \"contracts/TestERC.sol\":265:363  function _msgSender() internal view virtual returns (address) {\r... */\n  swap1\n  jump\t// out\n    /* \"contracts/TestERC.sol\":1982:2155  function _setOwner(address newOwner) private {\r... */\ntag_23:\n    /* \"contracts/TestERC.sol\":2038:2054  address oldOwner */\n  0x00\n    /* \"contracts/TestERC.sol\":2057:2063  _owner */\n  dup1\n  sload\n  sub(shl(0xa0, 0x01), 0x01)\n    /* \"contracts/TestERC.sol\":2074:2091  _owner = newOwner */\n  dup4\n  dup2\n  and\n  not(sub(shl(0xa0, 0x01), 0x01))\n  dup4\n  and\n  dup2\n  or\n  dup5\n  sstore\n    /* \"contracts/TestERC.sol\":2107:2147  OwnershipTransferred(oldOwner, newOwner) */\n  mload(0x40)\n    /* \"contracts/TestERC.sol\":2057:2063  _owner */\n  swap2\n  swap1\n  swap3\n  and\n  swap3\n  dup4\n  swap2\n    /* \"contracts/TestERC.sol\":2107:2147  OwnershipTransferred(oldOwner, newOwner) */\n  0x8be0079c531659141344cd1fd0a4f28419497f9722a3daafe3b4186f6b6457e0\n  swap2\n    /* \"contracts/TestERC.sol\":2038:2054  address oldOwner */\n  swap1\n    /* \"contracts/TestERC.sol\":2107:2147  OwnershipTransferred(oldOwner, newOwner) */\n  log3\n    /* \"contracts/TestERC.sol\":1982:2155  function _setOwner(address newOwner) private {\r... */\n  pop\n  pop\n  jump\t// out\n    /* \"contracts/TestERC.sol\":3570:5918  contract TestTokenFreeMintable is ERC20Interface, SafeMath, Ownable {\r... */\ntag_26:\n  dup3\n  dup1\n  sload\n  0x01\n  dup2\n  0x01\n  and\n  iszero\n  0x0100\n  mul\n  sub\n  and\n  0x02\n  swap1\n  div\n  swap1\n  0x00\n  mstore\n  keccak256(0x00, 0x20)\n  swap1\n  0x1f\n  add\n  0x20\n  swap1\n  div\n  dup2\n  add\n  swap3\n  dup3\n  tag_32\n  jumpi\n  0x00\n  dup6\n  sstore\n  jump(tag_35)\ntag_32:\n  dup3\n  0x1f\n  lt\n  tag_33\n  jumpi\n  dup1\n  mload\n  not(0xff)\n  and\n  dup4\n  dup1\n  add\n  or\n  dup6\n  sstore\n  jump(tag_35)\ntag_33:\n  dup3\n  dup1\n  add\n  0x01\n  add\n  dup6\n  sstore\n  dup3\n  iszero\n  tag_35\n  jumpi\n  swap2\n  dup3\n  add\ntag_34:\n  dup3\n  dup2\n  gt\n  iszero\n  tag_35\n  jumpi\n  dup3\n  mload\n  dup3\n  sstore\n  swap2\n  0x20\n  add\n  swap2\n  swap1\n  0x01\n  add\n  swap1\n  jump(tag_34)\ntag_35:\n  pop\n  tag_36\n  swap3\n  swap2\n  pop\n  tag_37\n  jump\t// in\ntag_36:\n  pop\n  swap1\n  jump\t// out\ntag_37:\ntag_38:\n  dup1\n  dup3\n  gt\n  iszero\n  tag_36\n  jumpi\n  0x00\n  dup2\n  sstore\n  0x01\n  add\n  jump(tag_38)\ntag_28:\n  dataSize(sub_0)\n  dup1\n  dataOffset(sub_0)\n  0x00\n  codecopy\n  0x00\n  return\nstop\n\nsub_0: assembly {\n        /* \"contracts/TestERC.sol\":3570:5918  contract TestTokenFreeMintable is ERC20Interface, SafeMath, Ownable {\r... */\n      mstore(0x40, 0x80)\n      callvalue\n      dup1\n      iszero\n      tag_1\n      jumpi\n      0x00\n      dup1\n      revert\n    tag_1:\n      pop\n      jumpi(tag_2, lt(calldatasize, 0x04))\n      shr(0xe0, calldataload(0x00))\n      dup1\n      0x95d89b41\n      gt\n      tag_21\n      jumpi\n      dup1\n      0xd05c78da\n      gt\n      tag_22\n      jumpi\n      dup1\n      0xd05c78da\n      eq\n      tag_16\n      jumpi\n      dup1\n      0xdd62ed3e\n      eq\n      tag_17\n      jumpi\n      dup1\n      0xe6cb9013\n      eq\n      tag_18\n      jumpi\n      dup1\n      0xf2fde38b\n      eq\n      tag_19\n      jumpi\n      dup1\n      0xf3cea549\n      eq\n      tag_20\n      jumpi\n      jump(tag_2)\n    tag_22:\n      dup1\n      0x95d89b41\n      eq\n      tag_12\n      jumpi\n      dup1\n      0xa293d1e8\n      eq\n      tag_13\n      jumpi\n      dup1\n      0xa9059cbb\n      eq\n      tag_14\n      jumpi\n      dup1\n      0xb5931f7c\n      eq\n      tag_15\n      jumpi\n      jump(tag_2)\n    tag_21:\n      dup1\n      0x313ce567\n      gt\n      tag_23\n      jumpi\n      dup1\n      0x313ce567\n      eq\n      tag_7\n      jumpi\n      dup1\n      0x3eaaf86b\n      eq\n      tag_8\n      jumpi\n      dup1\n      0x70a08231\n      eq\n      tag_9\n      jumpi\n      dup1\n      0x715018a6\n      eq\n      tag_10\n      jumpi\n      dup1\n      0x8da5cb5b\n      eq\n      tag_11\n      jumpi\n      jump(tag_2)\n    tag_23:\n      dup1\n      0x06fdde03\n      eq\n      tag_3\n      jumpi\n      dup1\n      0x095ea7b3\n      eq\n      tag_4\n      jumpi\n      dup1\n      0x18160ddd\n      eq\n      tag_5\n      jumpi\n      dup1\n      0x23b872dd\n      eq\n      tag_6\n      jumpi\n    tag_2:\n      0x00\n      dup1\n      revert\n        /* \"contracts/TestERC.sol\":3647:3665  string public name */\n    tag_3:\n      tag_24\n      tag_25\n      jump\t// in\n    tag_24:\n      0x40\n      dup1\n      mload\n      0x20\n      dup1\n      dup3\n      mstore\n      dup4\n      mload\n      dup2\n      dup4\n      add\n      mstore\n      dup4\n      mload\n      swap2\n      swap3\n      dup4\n      swap3\n      swap1\n      dup4\n      add\n      swap2\n      dup6\n      add\n      swap1\n      dup1\n      dup4\n      dup4\n      0x00\n    tag_26:\n      dup4\n      dup2\n      lt\n      iszero\n      tag_28\n      jumpi\n      dup2\n      dup2\n      add\n      mload\n      dup4\n      dup3\n      add\n      mstore\n      0x20\n      add\n      jump(tag_26)\n    tag_28:\n      pop\n      pop\n      pop\n      pop\n      swap1\n      pop\n      swap1\n      dup2\n      add\n      swap1\n      0x1f\n      and\n      dup1\n      iszero\n      tag_29\n      jumpi\n      dup1\n      dup3\n      sub\n      dup1\n      mload\n      0x01\n      dup4\n      0x20\n      sub\n      0x0100\n      exp\n      sub\n      not\n      and\n      dup2\n      mstore\n      0x20\n      add\n      swap2\n      pop\n    tag_29:\n      pop\n      swap3\n      pop\n      pop\n      pop\n      mload(0x40)\n      dup1\n      swap2\n      sub\n      swap1\n      return\n        /* \"contracts/TestERC.sol\":5029:5246  function approve(address spender, uint tokens) public override returns (bool success) {\r... */\n    tag_4:\n      tag_30\n      0x04\n      dup1\n      calldatasize\n      sub\n      0x40\n      dup2\n      lt\n      iszero\n      tag_31\n      jumpi\n      0x00\n      dup1\n      revert\n    tag_31:\n      pop\n      sub(shl(0xa0, 0x01), 0x01)\n      dup2\n      calldataload\n      and\n      swap1\n      0x20\n      add\n      calldataload\n      tag_32\n      jump\t// in\n    tag_30:\n      0x40\n      dup1\n      mload\n      swap2\n      iszero\n      iszero\n      dup3\n      mstore\n      mload\n      swap1\n      dup2\n      swap1\n      sub\n      0x20\n      add\n      swap1\n      return\n        /* \"contracts/TestERC.sol\":4599:4720  function totalSupply() public override view returns (uint) {\r... */\n    tag_5:\n      tag_33\n      tag_34\n      jump\t// in\n    tag_33:\n      0x40\n      dup1\n      mload\n      swap2\n      dup3\n      mstore\n      mload\n      swap1\n      dup2\n      swap1\n      sub\n      0x20\n      add\n      swap1\n      return\n        /* \"contracts/TestERC.sol\":5548:5915  function transferFrom(address from, address to, uint tokens) public override returns (bool success) {\r... */\n    tag_6:\n      tag_30\n      0x04\n      dup1\n      calldatasize\n      sub\n      0x60\n      dup2\n      lt\n      iszero\n      tag_36\n      jumpi\n      0x00\n      dup1\n      revert\n    tag_36:\n      pop\n      sub(shl(0xa0, 0x01), 0x01)\n      dup2\n      calldataload\n      dup2\n      and\n      swap2\n      0x20\n      dup2\n      add\n      calldataload\n      swap1\n      swap2\n      and\n      swap1\n      0x40\n      add\n      calldataload\n      tag_37\n      jump\t// in\n        /* \"contracts/TestERC.sol\":3699:3720  uint8 public decimals */\n    tag_7:\n      tag_38\n      tag_39\n      jump\t// in\n    tag_38:\n      0x40\n      dup1\n      mload\n      0xff\n      swap1\n      swap3\n      and\n      dup3\n      mstore\n      mload\n      swap1\n      dup2\n      swap1\n      sub\n      0x20\n      add\n      swap1\n      return\n        /* \"contracts/TestERC.sol\":3803:3830  uint256 public _totalSupply */\n    tag_8:\n      tag_33\n      tag_41\n      jump\t// in\n        /* \"contracts/TestERC.sol\":4728:4857  function balanceOf(address tokenOwner) public override view returns (uint balance) {\r... */\n    tag_9:\n      tag_33\n      0x04\n      dup1\n      calldatasize\n      sub\n      0x20\n      dup2\n      lt\n      iszero\n      tag_43\n      jumpi\n      0x00\n      dup1\n      revert\n    tag_43:\n      pop\n      calldataload\n      sub(shl(0xa0, 0x01), 0x01)\n      and\n      tag_44\n      jump\t// in\n        /* \"contracts/TestERC.sol\":1533:1627  function renounceOwnership() public virtual onlyOwner {\r... */\n    tag_10:\n      tag_45\n      tag_46\n      jump\t// in\n    tag_45:\n      stop\n        /* \"contracts/TestERC.sol\":882:969  function owner() public view virtual returns (address) {\r... */\n    tag_11:\n      tag_47\n      tag_48\n      jump\t// in\n    tag_47:\n      0x40\n      dup1\n      mload\n      sub(shl(0xa0, 0x01), 0x01)\n      swap1\n      swap3\n      and\n      dup3\n      mstore\n      mload\n      swap1\n      dup2\n      swap1\n      sub\n      0x20\n      add\n      swap1\n      return\n        /* \"contracts/TestERC.sol\":3672:3692  string public symbol */\n    tag_12:\n      tag_24\n      tag_50\n      jump\t// in\n        /* \"contracts/TestERC.sol\":3246:3348  function safeSub(uint a, uint b) public pure returns (uint c) {\r... */\n    tag_13:\n      tag_33\n      0x04\n      dup1\n      calldatasize\n      sub\n      0x40\n      dup2\n      lt\n      iszero\n      tag_56\n      jumpi\n      0x00\n      dup1\n      revert\n    tag_56:\n      pop\n      dup1\n      calldataload\n      swap1\n      0x20\n      add\n      calldataload\n      tag_57\n      jump\t// in\n        /* \"contracts/TestERC.sol\":5254:5540  function transfer(address to, uint tokens) public override returns (bool success) {\r... */\n    tag_14:\n      tag_30\n      0x04\n      dup1\n      calldatasize\n      sub\n      0x40\n      dup2\n      lt\n      iszero\n      tag_59\n      jumpi\n      0x00\n      dup1\n      revert\n    tag_59:\n      pop\n      sub(shl(0xa0, 0x01), 0x01)\n      dup2\n      calldataload\n      and\n      swap1\n      0x20\n      add\n      calldataload\n      tag_60\n      jump\t// in\n        /* \"contracts/TestERC.sol\":3457:3563  function safeDiv(uint a, uint b) public pure returns (uint c) { require(b > 0);\r... */\n    tag_15:\n      tag_33\n      0x04\n      dup1\n      calldatasize\n      sub\n      0x40\n      dup2\n      lt\n      iszero\n      tag_62\n      jumpi\n      0x00\n      dup1\n      revert\n    tag_62:\n      pop\n      dup1\n      calldataload\n      swap1\n      0x20\n      add\n      calldataload\n      tag_63\n      jump\t// in\n        /* \"contracts/TestERC.sol\":3349:3456  function safeMul(uint a, uint b) public pure returns (uint c) { c = a * b; require(a == 0 || c / a == b); } */\n    tag_16:\n      tag_33\n      0x04\n      dup1\n      calldatasize\n      sub\n      0x40\n      dup2\n      lt\n      iszero\n      tag_65\n      jumpi\n      0x00\n      dup1\n      revert\n    tag_65:\n      pop\n      dup1\n      calldataload\n      swap1\n      0x20\n      add\n      calldataload\n      tag_66\n      jump\t// in\n        /* \"contracts/TestERC.sol\":4865:5021  function allowance(address tokenOwner, address spender) public override view returns (uint remaining) {\r... */\n    tag_17:\n      tag_33\n      0x04\n      dup1\n      calldatasize\n      sub\n      0x40\n      dup2\n      lt\n      iszero\n      tag_68\n      jumpi\n      0x00\n      dup1\n      revert\n    tag_68:\n      pop\n      sub(shl(0xa0, 0x01), 0x01)\n      dup2\n      calldataload\n      dup2\n      and\n      swap2\n      0x20\n      add\n      calldataload\n      and\n      tag_69\n      jump\t// in\n        /* \"contracts/TestERC.sol\":3124:3240  function safeAdd(uint a, uint b) public pure returns (uint c) {\r... */\n    tag_18:\n      tag_33\n      0x04\n      dup1\n      calldatasize\n      sub\n      0x40\n      dup2\n      lt\n      iszero\n      tag_71\n      jumpi\n      0x00\n      dup1\n      revert\n    tag_71:\n      pop\n      dup1\n      calldataload\n      swap1\n      0x20\n      add\n      calldataload\n      tag_72\n      jump\t// in\n        /* \"contracts/TestERC.sol\":1782:1974  function transferOwnership(address newOwner) public virtual onlyOwner {\r... */\n    tag_19:\n      tag_45\n      0x04\n      dup1\n      calldatasize\n      sub\n      0x20\n      dup2\n      lt\n      iszero\n      tag_74\n      jumpi\n      0x00\n      dup1\n      revert\n    tag_74:\n      pop\n      calldataload\n      sub(shl(0xa0, 0x01), 0x01)\n      and\n      tag_75\n      jump\t// in\n        /* \"contracts/TestERC.sol\":4501:4591  function Mint (uint amount, address to) external {\r... */\n    tag_20:\n      tag_45\n      0x04\n      dup1\n      calldatasize\n      sub\n      0x40\n      dup2\n      lt\n      iszero\n      tag_77\n      jumpi\n      0x00\n      dup1\n      revert\n    tag_77:\n      pop\n      dup1\n      calldataload\n      swap1\n      0x20\n      add\n      calldataload\n      sub(shl(0xa0, 0x01), 0x01)\n      and\n      tag_78\n      jump\t// in\n        /* \"contracts/TestERC.sol\":3647:3665  string public name */\n    tag_25:\n      0x01\n      dup1\n      sload\n      0x40\n      dup1\n      mload\n      0x20\n      0x02\n      dup5\n      dup7\n      and\n      iszero\n      0x0100\n      mul\n      not(0x00)\n      add\n      swap1\n      swap5\n      and\n      swap4\n      swap1\n      swap4\n      div\n      0x1f\n      dup2\n      add\n      dup5\n      swap1\n      div\n      dup5\n      mul\n      dup3\n      add\n      dup5\n      add\n      swap1\n      swap3\n      mstore\n      dup2\n      dup2\n      mstore\n      swap3\n      swap2\n      dup4\n      add\n      dup3\n      dup3\n      dup1\n      iszero\n      tag_79\n      jumpi\n      dup1\n      0x1f\n      lt\n      tag_80\n      jumpi\n      0x0100\n      dup1\n      dup4\n      sload\n      div\n      mul\n      dup4\n      mstore\n      swap2\n      0x20\n      add\n      swap2\n      jump(tag_79)\n    tag_80:\n      dup3\n      add\n      swap2\n      swap1\n      0x00\n      mstore\n      keccak256(0x00, 0x20)\n      swap1\n    tag_81:\n      dup2\n      sload\n      dup2\n      mstore\n      swap1\n      0x01\n      add\n      swap1\n      0x20\n      add\n      dup1\n      dup4\n      gt\n      tag_81\n      jumpi\n      dup3\n      swap1\n      sub\n      0x1f\n      and\n      dup3\n      add\n      swap2\n    tag_79:\n      pop\n      pop\n      pop\n      pop\n      pop\n      dup2\n      jump\t// out\n        /* \"contracts/TestERC.sol\":5029:5246  function approve(address spender, uint tokens) public override returns (bool success) {\r... */\n    tag_32:\n        /* \"contracts/TestERC.sol\":5134:5144  msg.sender */\n      caller\n        /* \"contracts/TestERC.sol\":5101:5113  bool success */\n      0x00\n        /* \"contracts/TestERC.sol\":5126:5145  allowed[msg.sender] */\n      dup2\n      dup2\n      mstore\n        /* \"contracts/TestERC.sol\":5126:5133  allowed */\n      0x06\n        /* \"contracts/TestERC.sol\":5126:5145  allowed[msg.sender] */\n      0x20\n      swap1\n      dup2\n      mstore\n      0x40\n      dup1\n      dup4\n      keccak256\n      sub(shl(0xa0, 0x01), 0x01)\n        /* \"contracts/TestERC.sol\":5126:5154  allowed[msg.sender][spender] */\n      dup8\n      and\n      dup1\n      dup6\n      mstore\n      swap1\n      dup4\n      mstore\n      dup2\n      dup5\n      keccak256\n        /* \"contracts/TestERC.sol\":5126:5163  allowed[msg.sender][spender] = tokens */\n      dup7\n      swap1\n      sstore\n        /* \"contracts/TestERC.sol\":5179:5216  Approval(msg.sender, spender, tokens) */\n      dup2\n      mload\n      dup7\n      dup2\n      mstore\n      swap2\n      mload\n        /* \"contracts/TestERC.sol\":5101:5113  bool success */\n      swap4\n      swap5\n        /* \"contracts/TestERC.sol\":5126:5154  allowed[msg.sender][spender] */\n      swap1\n      swap4\n        /* \"contracts/TestERC.sol\":5134:5144  msg.sender */\n      swap1\n      swap3\n        /* \"contracts/TestERC.sol\":5179:5216  Approval(msg.sender, spender, tokens) */\n      0x8c5be1e5ebec7d5bd14f71427d1e84f3dd0314c0f7b2291e5b200ac8c7c3b925\n      swap3\n      dup3\n      swap1\n      sub\n      add\n      swap1\n      log3\n      pop\n        /* \"contracts/TestERC.sol\":5234:5238  true */\n      0x01\n        /* \"contracts/TestERC.sol\":5029:5246  function approve(address spender, uint tokens) public override returns (bool success) {\r... */\n    tag_82:\n      swap3\n      swap2\n      pop\n      pop\n      jump\t// out\n        /* \"contracts/TestERC.sol\":4599:4720  function totalSupply() public override view returns (uint) {\r... */\n    tag_34:\n        /* \"contracts/TestERC.sol\":4652:4656  uint */\n      0x00\n        /* \"contracts/TestERC.sol\":4692:4712  balances[address(0)] */\n      dup1\n      mstore\n        /* \"contracts/TestERC.sol\":4692:4700  balances */\n      0x05\n        /* \"contracts/TestERC.sol\":4692:4712  balances[address(0)] */\n      0x20\n      mstore\n      sload(0x05b8ccbb9d4d8fb16ea74ce3c29a41f1b461fbdaff4714a0d9a8eb05499746bc)\n        /* \"contracts/TestERC.sol\":4676:4688  _totalSupply */\n      sload(0x04)\n        /* \"contracts/TestERC.sol\":4676:4712  _totalSupply  - balances[address(0)] */\n      sub\n        /* \"contracts/TestERC.sol\":4599:4720  function totalSupply() public override view returns (uint) {\r... */\n      swap1\n      jump\t// out\n        /* \"contracts/TestERC.sol\":5548:5915  function transferFrom(address from, address to, uint tokens) public override returns (bool success) {\r... */\n    tag_37:\n      sub(shl(0xa0, 0x01), 0x01)\n        /* \"contracts/TestERC.sol\":5684:5698  balances[from] */\n      dup4\n      and\n        /* \"contracts/TestERC.sol\":5634:5646  bool success */\n      0x00\n        /* \"contracts/TestERC.sol\":5684:5698  balances[from] */\n      swap1\n      dup2\n      mstore\n        /* \"contracts/TestERC.sol\":5684:5692  balances */\n      0x05\n        /* \"contracts/TestERC.sol\":5684:5698  balances[from] */\n      0x20\n      mstore\n      0x40\n      dup2\n      keccak256\n      sload\n        /* \"contracts/TestERC.sol\":5676:5707  safeSub(balances[from], tokens) */\n      tag_85\n      swap1\n        /* \"contracts/TestERC.sol\":5700:5706  tokens */\n      dup4\n        /* \"contracts/TestERC.sol\":5676:5683  safeSub */\n      tag_57\n        /* \"contracts/TestERC.sol\":5676:5707  safeSub(balances[from], tokens) */\n      jump\t// in\n    tag_85:\n      sub(shl(0xa0, 0x01), 0x01)\n        /* \"contracts/TestERC.sol\":5659:5673  balances[from] */\n      dup6\n      and\n      0x00\n      swap1\n      dup2\n      mstore\n        /* \"contracts/TestERC.sol\":5659:5667  balances */\n      0x05\n        /* \"contracts/TestERC.sol\":5659:5673  balances[from] */\n      0x20\n      swap1\n      dup2\n      mstore\n      0x40\n      dup1\n      dup4\n      keccak256\n        /* \"contracts/TestERC.sol\":5659:5707  balances[from] = safeSub(balances[from], tokens) */\n      swap4\n      swap1\n      swap4\n      sstore\n        /* \"contracts/TestERC.sol\":5754:5761  allowed */\n      0x06\n        /* \"contracts/TestERC.sol\":5754:5767  allowed[from] */\n      dup2\n      mstore\n      dup3\n      dup3\n      keccak256\n        /* \"contracts/TestERC.sol\":5768:5778  msg.sender */\n      caller\n        /* \"contracts/TestERC.sol\":5754:5779  allowed[from][msg.sender] */\n      dup4\n      mstore\n      swap1\n      mstore\n      keccak256\n      sload\n        /* \"contracts/TestERC.sol\":5746:5788  safeSub(allowed[from][msg.sender], tokens) */\n      tag_86\n      swap1\n        /* \"contracts/TestERC.sol\":5781:5787  tokens */\n      dup4\n        /* \"contracts/TestERC.sol\":5746:5753  safeSub */\n      tag_57\n        /* \"contracts/TestERC.sol\":5746:5788  safeSub(allowed[from][msg.sender], tokens) */\n      jump\t// in\n    tag_86:\n      sub(shl(0xa0, 0x01), 0x01)\n        /* \"contracts/TestERC.sol\":5718:5731  allowed[from] */\n      dup1\n      dup7\n      and\n      0x00\n      swap1\n      dup2\n      mstore\n        /* \"contracts/TestERC.sol\":5718:5725  allowed */\n      0x06\n        /* \"contracts/TestERC.sol\":5718:5731  allowed[from] */\n      0x20\n      swap1\n      dup2\n      mstore\n      0x40\n      dup1\n      dup4\n      keccak256\n        /* \"contracts/TestERC.sol\":5732:5742  msg.sender */\n      caller\n        /* \"contracts/TestERC.sol\":5718:5743  allowed[from][msg.sender] */\n      dup5\n      mstore\n      dup3\n      mstore\n      dup1\n      dup4\n      keccak256\n        /* \"contracts/TestERC.sol\":5718:5788  allowed[from][msg.sender] = safeSub(allowed[from][msg.sender], tokens) */\n      swap5\n      swap1\n      swap5\n      sstore\n        /* \"contracts/TestERC.sol\":5822:5834  balances[to] */\n      swap2\n      dup7\n      and\n      dup2\n      mstore\n        /* \"contracts/TestERC.sol\":5822:5830  balances */\n      0x05\n        /* \"contracts/TestERC.sol\":5822:5834  balances[to] */\n      swap1\n      swap2\n      mstore\n      keccak256\n      sload\n        /* \"contracts/TestERC.sol\":5814:5843  safeAdd(balances[to], tokens) */\n      tag_87\n      swap1\n        /* \"contracts/TestERC.sol\":5836:5842  tokens */\n      dup4\n        /* \"contracts/TestERC.sol\":5814:5821  safeAdd */\n      tag_72\n        /* \"contracts/TestERC.sol\":5814:5843  safeAdd(balances[to], tokens) */\n      jump\t// in\n    tag_87:\n      sub(shl(0xa0, 0x01), 0x01)\n        /* \"contracts/TestERC.sol\":5799:5811  balances[to] */\n      dup1\n      dup6\n      and\n      0x00\n      dup2\n      dup2\n      mstore\n        /* \"contracts/TestERC.sol\":5799:5807  balances */\n      0x05\n        /* \"contracts/TestERC.sol\":5799:5811  balances[to] */\n      0x20\n      swap1\n      dup2\n      mstore\n      0x40\n      swap2\n      dup3\n      swap1\n      keccak256\n        /* \"contracts/TestERC.sol\":5799:5843  balances[to] = safeAdd(balances[to], tokens) */\n      swap5\n      swap1\n      swap5\n      sstore\n        /* \"contracts/TestERC.sol\":5859:5885  Transfer(from, to, tokens) */\n      dup1\n      mload\n      dup7\n      dup2\n      mstore\n      swap1\n      mload\n        /* \"contracts/TestERC.sol\":5799:5811  balances[to] */\n      swap2\n      swap4\n        /* \"contracts/TestERC.sol\":5859:5885  Transfer(from, to, tokens) */\n      swap3\n      dup9\n      and\n      swap3\n      0xddf252ad1be2c89b69c2b068fc378daa952ba7f163c4a11628f55a4df523b3ef\n      swap3\n      swap2\n      dup3\n      swap1\n      sub\n      add\n      swap1\n      log3\n      pop\n        /* \"contracts/TestERC.sol\":5903:5907  true */\n      0x01\n        /* \"contracts/TestERC.sol\":5548:5915  function transferFrom(address from, address to, uint tokens) public override returns (bool success) {\r... */\n      swap4\n      swap3\n      pop\n      pop\n      pop\n      jump\t// out\n        /* \"contracts/TestERC.sol\":3699:3720  uint8 public decimals */\n    tag_39:\n      and(0xff, sload(0x03))\n      dup2\n      jump\t// out\n        /* \"contracts/TestERC.sol\":3803:3830  uint256 public _totalSupply */\n    tag_41:\n      sload(0x04)\n      dup2\n      jump\t// out\n        /* \"contracts/TestERC.sol\":4728:4857  function balanceOf(address tokenOwner) public override view returns (uint balance) {\r... */\n    tag_44:\n      sub(shl(0xa0, 0x01), 0x01)\n        /* \"contracts/TestERC.sol\":4829:4849  balances[tokenOwner] */\n      and\n        /* \"contracts/TestERC.sol\":4797:4809  uint balance */\n      0x00\n        /* \"contracts/TestERC.sol\":4829:4849  balances[tokenOwner] */\n      swap1\n      dup2\n      mstore\n        /* \"contracts/TestERC.sol\":4829:4837  balances */\n      0x05\n        /* \"contracts/TestERC.sol\":4829:4849  balances[tokenOwner] */\n      0x20\n      mstore\n      0x40\n      swap1\n      keccak256\n      sload\n      swap1\n        /* \"contracts/TestERC.sol\":4728:4857  function balanceOf(address tokenOwner) public override view returns (uint balance) {\r... */\n      jump\t// out\n        /* \"contracts/TestERC.sol\":1533:1627  function renounceOwnership() public virtual onlyOwner {\r... */\n    tag_46:\n        /* \"contracts/TestERC.sol\":1113:1125  _msgSender() */\n      tag_90\n        /* \"contracts/TestERC.sol\":1113:1123  _msgSender */\n      tag_91\n        /* \"contracts/TestERC.sol\":1113:1125  _msgSender() */\n      jump\t// in\n    tag_90:\n      sub(shl(0xa0, 0x01), 0x01)\n        /* \"contracts/TestERC.sol\":1102:1125  owner() == _msgSender() */\n      and\n        /* \"contracts/TestERC.sol\":1102:1109  owner() */\n      tag_92\n        /* \"contracts/TestERC.sol\":1102:1107  owner */\n      tag_48\n        /* \"contracts/TestERC.sol\":1102:1109  owner() */\n      jump\t// in\n    tag_92:\n      sub(shl(0xa0, 0x01), 0x01)\n        /* \"contracts/TestERC.sol\":1102:1125  owner() == _msgSender() */\n      and\n      eq\n        /* \"contracts/TestERC.sol\":1094:1162  require(owner() == _msgSender(), \"Ownable: caller is not the owner\") */\n      tag_93\n      jumpi\n      0x40\n      dup1\n      mload\n      shl(0xe5, 0x461bcd)\n      dup2\n      mstore\n      0x20\n      0x04\n      dup3\n      add\n      dup2\n      swap1\n      mstore\n      0x24\n      dup3\n      add\n      mstore\n      0x4f776e61626c653a2063616c6c6572206973206e6f7420746865206f776e6572\n      0x44\n      dup3\n      add\n      mstore\n      swap1\n      mload\n      swap1\n      dup2\n      swap1\n      sub\n      0x64\n      add\n      swap1\n      revert\n    tag_93:\n        /* \"contracts/TestERC.sol\":1598:1619  _setOwner(address(0)) */\n      tag_95\n        /* \"contracts/TestERC.sol\":1616:1617  0 */\n      0x00\n        /* \"contracts/TestERC.sol\":1598:1607  _setOwner */\n      tag_96\n        /* \"contracts/TestERC.sol\":1598:1619  _setOwner(address(0)) */\n      jump\t// in\n    tag_95:\n        /* \"contracts/TestERC.sol\":1533:1627  function renounceOwnership() public virtual onlyOwner {\r... */\n      jump\t// out\n        /* \"contracts/TestERC.sol\":882:969  function owner() public view virtual returns (address) {\r... */\n    tag_48:\n        /* \"contracts/TestERC.sol\":928:935  address */\n      0x00\n        /* \"contracts/TestERC.sol\":955:961  _owner */\n      sload\n      sub(shl(0xa0, 0x01), 0x01)\n      and\n        /* \"contracts/TestERC.sol\":882:969  function owner() public view virtual returns (address) {\r... */\n      swap1\n      jump\t// out\n        /* \"contracts/TestERC.sol\":3672:3692  string public symbol */\n    tag_50:\n      0x02\n      dup1\n      sload\n      0x40\n      dup1\n      mload\n      0x20\n      0x01\n      dup5\n      and\n      iszero\n      0x0100\n      mul\n      not(0x00)\n      add\n      swap1\n      swap4\n      and\n      dup5\n      swap1\n      div\n      0x1f\n      dup2\n      add\n      dup5\n      swap1\n      div\n      dup5\n      mul\n      dup3\n      add\n      dup5\n      add\n      swap1\n      swap3\n      mstore\n      dup2\n      dup2\n      mstore\n      swap3\n      swap2\n      dup4\n      add\n      dup3\n      dup3\n      dup1\n      iszero\n      tag_79\n      jumpi\n      dup1\n      0x1f\n      lt\n      tag_80\n      jumpi\n      0x0100\n      dup1\n      dup4\n      sload\n      div\n      mul\n      dup4\n      mstore\n      swap2\n      0x20\n      add\n      swap2\n      jump(tag_79)\n        /* \"contracts/TestERC.sol\":3246:3348  function safeSub(uint a, uint b) public pure returns (uint c) {\r... */\n    tag_57:\n        /* \"contracts/TestERC.sol\":3300:3306  uint c */\n      0x00\n        /* \"contracts/TestERC.sol\":3332:3333  a */\n      dup3\n        /* \"contracts/TestERC.sol\":3327:3328  b */\n      dup3\n        /* \"contracts/TestERC.sol\":3327:3333  b <= a */\n      gt\n      iszero\n        /* \"contracts/TestERC.sol\":3319:3334  require(b <= a) */\n      tag_102\n      jumpi\n      0x00\n      dup1\n      revert\n    tag_102:\n      pop\n        /* \"contracts/TestERC.sol\":3340:3345  a - b */\n      swap1\n      sub\n      swap1\n        /* \"contracts/TestERC.sol\":3246:3348  function safeSub(uint a, uint b) public pure returns (uint c) {\r... */\n      jump\t// out\n        /* \"contracts/TestERC.sol\":5254:5540  function transfer(address to, uint tokens) public override returns (bool success) {\r... */\n    tag_60:\n        /* \"contracts/TestERC.sol\":5387:5397  msg.sender */\n      caller\n        /* \"contracts/TestERC.sol\":5322:5334  bool success */\n      0x00\n        /* \"contracts/TestERC.sol\":5378:5398  balances[msg.sender] */\n      swap1\n      dup2\n      mstore\n        /* \"contracts/TestERC.sol\":5378:5386  balances */\n      0x05\n        /* \"contracts/TestERC.sol\":5378:5398  balances[msg.sender] */\n      0x20\n      mstore\n      0x40\n      dup2\n      keccak256\n      sload\n        /* \"contracts/TestERC.sol\":5370:5407  safeSub(balances[msg.sender], tokens) */\n      tag_104\n      swap1\n        /* \"contracts/TestERC.sol\":5400:5406  tokens */\n      dup4\n        /* \"contracts/TestERC.sol\":5370:5377  safeSub */\n      tag_57\n        /* \"contracts/TestERC.sol\":5370:5407  safeSub(balances[msg.sender], tokens) */\n      jump\t// in\n    tag_104:\n        /* \"contracts/TestERC.sol\":5356:5366  msg.sender */\n      caller\n        /* \"contracts/TestERC.sol\":5347:5367  balances[msg.sender] */\n      0x00\n      swap1\n      dup2\n      mstore\n        /* \"contracts/TestERC.sol\":5347:5355  balances */\n      0x05\n        /* \"contracts/TestERC.sol\":5347:5367  balances[msg.sender] */\n      0x20\n      mstore\n      0x40\n      dup1\n      dup3\n      keccak256\n        /* \"contracts/TestERC.sol\":5347:5407  balances[msg.sender] = safeSub(balances[msg.sender], tokens) */\n      swap3\n      swap1\n      swap3\n      sstore\n      sub(shl(0xa0, 0x01), 0x01)\n        /* \"contracts/TestERC.sol\":5441:5453  balances[to] */\n      dup6\n      and\n      dup2\n      mstore\n      keccak256\n      sload\n        /* \"contracts/TestERC.sol\":5433:5462  safeAdd(balances[to], tokens) */\n      tag_105\n      swap1\n        /* \"contracts/TestERC.sol\":5455:5461  tokens */\n      dup4\n        /* \"contracts/TestERC.sol\":5433:5440  safeAdd */\n      tag_72\n        /* \"contracts/TestERC.sol\":5433:5462  safeAdd(balances[to], tokens) */\n      jump\t// in\n    tag_105:\n      sub(shl(0xa0, 0x01), 0x01)\n        /* \"contracts/TestERC.sol\":5418:5430  balances[to] */\n      dup5\n      and\n      0x00\n      dup2\n      dup2\n      mstore\n        /* \"contracts/TestERC.sol\":5418:5426  balances */\n      0x05\n        /* \"contracts/TestERC.sol\":5418:5430  balances[to] */\n      0x20\n      swap1\n      dup2\n      mstore\n      0x40\n      swap2\n      dup3\n      swap1\n      keccak256\n        /* \"contracts/TestERC.sol\":5418:5462  balances[to] = safeAdd(balances[to], tokens) */\n      swap4\n      swap1\n      swap4\n      sstore\n        /* \"contracts/TestERC.sol\":5478:5510  Transfer(msg.sender, to, tokens) */\n      dup1\n      mload\n      dup6\n      dup2\n      mstore\n      swap1\n      mload\n        /* \"contracts/TestERC.sol\":5418:5430  balances[to] */\n      swap2\n      swap3\n        /* \"contracts/TestERC.sol\":5487:5497  msg.sender */\n      caller\n      swap3\n        /* \"contracts/TestERC.sol\":5478:5510  Transfer(msg.sender, to, tokens) */\n      0xddf252ad1be2c89b69c2b068fc378daa952ba7f163c4a11628f55a4df523b3ef\n      swap3\n      dup2\n      swap1\n      sub\n      swap1\n      swap2\n      add\n      swap1\n      log3\n      pop\n        /* \"contracts/TestERC.sol\":5528:5532  true */\n      0x01\n        /* \"contracts/TestERC.sol\":5254:5540  function transfer(address to, uint tokens) public override returns (bool success) {\r... */\n      swap3\n      swap2\n      pop\n      pop\n      jump\t// out\n        /* \"contracts/TestERC.sol\":3457:3563  function safeDiv(uint a, uint b) public pure returns (uint c) { require(b > 0);\r... */\n    tag_63:\n        /* \"contracts/TestERC.sol\":3511:3517  uint c */\n      0x00\n        /* \"contracts/TestERC.sol\":3533:3534  0 */\n      dup1\n        /* \"contracts/TestERC.sol\":3529:3530  b */\n      dup3\n        /* \"contracts/TestERC.sol\":3529:3534  b > 0 */\n      gt\n        /* \"contracts/TestERC.sol\":3521:3535  require(b > 0) */\n      tag_107\n      jumpi\n      0x00\n      dup1\n      revert\n    tag_107:\n        /* \"contracts/TestERC.sol\":3554:3555  b */\n      dup2\n        /* \"contracts/TestERC.sol\":3550:3551  a */\n      dup4\n        /* \"contracts/TestERC.sol\":3550:3555  a / b */\n      dup2\n      tag_108\n      jumpi\n      invalid\n    tag_108:\n      div\n      swap4\n        /* \"contracts/TestERC.sol\":3457:3563  function safeDiv(uint a, uint b) public pure returns (uint c) { require(b > 0);\r... */\n      swap3\n      pop\n      pop\n      pop\n      jump\t// out\n        /* \"contracts/TestERC.sol\":3349:3456  function safeMul(uint a, uint b) public pure returns (uint c) { c = a * b; require(a == 0 || c / a == b); } */\n    tag_66:\n        /* \"contracts/TestERC.sol\":3417:3422  a * b */\n      dup2\n      dup2\n      mul\n        /* \"contracts/TestERC.sol\":3432:3438  a == 0 */\n      dup3\n      iszero\n      dup1\n        /* \"contracts/TestERC.sol\":3432:3452  a == 0 || c / a == b */\n      tag_110\n      jumpi\n      pop\n        /* \"contracts/TestERC.sol\":3451:3452  b */\n      dup2\n        /* \"contracts/TestERC.sol\":3446:3447  a */\n      dup4\n        /* \"contracts/TestERC.sol\":3442:3443  c */\n      dup3\n        /* \"contracts/TestERC.sol\":3442:3447  c / a */\n      dup2\n      tag_111\n      jumpi\n      invalid\n    tag_111:\n      div\n        /* \"contracts/TestERC.sol\":3442:3452  c / a == b */\n      eq\n        /* \"contracts/TestERC.sol\":3432:3452  a == 0 || c / a == b */\n    tag_110:\n        /* \"contracts/TestERC.sol\":3424:3453  require(a == 0 || c / a == b) */\n      tag_82\n      jumpi\n      0x00\n      dup1\n      revert\n        /* \"contracts/TestERC.sol\":4865:5021  function allowance(address tokenOwner, address spender) public override view returns (uint remaining) {\r... */\n    tag_69:\n      sub(shl(0xa0, 0x01), 0x01)\n        /* \"contracts/TestERC.sol\":4985:5004  allowed[tokenOwner] */\n      swap2\n      dup3\n      and\n        /* \"contracts/TestERC.sol\":4951:4965  uint remaining */\n      0x00\n        /* \"contracts/TestERC.sol\":4985:5004  allowed[tokenOwner] */\n      swap1\n      dup2\n      mstore\n        /* \"contracts/TestERC.sol\":4985:4992  allowed */\n      0x06\n        /* \"contracts/TestERC.sol\":4985:5004  allowed[tokenOwner] */\n      0x20\n      swap1\n      dup2\n      mstore\n      0x40\n      dup1\n      dup4\n      keccak256\n        /* \"contracts/TestERC.sol\":4985:5013  allowed[tokenOwner][spender] */\n      swap4\n      swap1\n      swap5\n      and\n      dup3\n      mstore\n      swap2\n      swap1\n      swap2\n      mstore\n      keccak256\n      sload\n      swap1\n        /* \"contracts/TestERC.sol\":4865:5021  function allowance(address tokenOwner, address spender) public override view returns (uint remaining) {\r... */\n      jump\t// out\n        /* \"contracts/TestERC.sol\":3124:3240  function safeAdd(uint a, uint b) public pure returns (uint c) {\r... */\n    tag_72:\n        /* \"contracts/TestERC.sol\":3201:3206  a + b */\n      dup2\n      dup2\n      add\n        /* \"contracts/TestERC.sol\":3225:3231  c >= a */\n      dup3\n      dup2\n      lt\n      iszero\n        /* \"contracts/TestERC.sol\":3217:3232  require(c >= a) */\n      tag_82\n      jumpi\n      0x00\n      dup1\n      revert\n        /* \"contracts/TestERC.sol\":1782:1974  function transferOwnership(address newOwner) public virtual onlyOwner {\r... */\n    tag_75:\n        /* \"contracts/TestERC.sol\":1113:1125  _msgSender() */\n      tag_117\n        /* \"contracts/TestERC.sol\":1113:1123  _msgSender */\n      tag_91\n        /* \"contracts/TestERC.sol\":1113:1125  _msgSender() */\n      jump\t// in\n    tag_117:\n      sub(shl(0xa0, 0x01), 0x01)\n        /* \"contracts/TestERC.sol\":1102:1125  owner() == _msgSender() */\n      and\n        /* \"contracts/TestERC.sol\":1102:1109  owner() */\n      tag_118\n        /* \"contracts/TestERC.sol\":1102:1107  owner */\n      tag_48\n        /* \"contracts/TestERC.sol\":1102:1109  owner() */\n      jump\t// in\n    tag_118:\n      sub(shl(0xa0, 0x01), 0x01)\n        /* \"contracts/TestERC.sol\":1102:1125  owner() == _msgSender() */\n      and\n      eq\n        /* \"contracts/TestERC.sol\":1094:1162  require(owner() == _msgSender(), \"Ownable: caller is not the owner\") */\n      tag_119\n      jumpi\n      0x40\n      dup1\n      mload\n      shl(0xe5, 0x461bcd)\n      dup2\n      mstore\n      0x20\n      0x04\n      dup3\n      add\n      dup2\n      swap1\n      mstore\n      0x24\n      dup3\n      add\n      mstore\n      0x4f776e61626c653a2063616c6c6572206973206e6f7420746865206f776e6572\n      0x44\n      dup3\n      add\n      mstore\n      swap1\n      mload\n      swap1\n      dup2\n      swap1\n      sub\n      0x64\n      add\n      swap1\n      revert\n    tag_119:\n      sub(shl(0xa0, 0x01), 0x01)\n        /* \"contracts/TestERC.sol\":1871:1893  newOwner != address(0) */\n      dup2\n      and\n        /* \"contracts/TestERC.sol\":1863:1936  require(newOwner != address(0), \"Ownable: new owner is the zero address\") */\n      tag_121\n      jumpi\n      mload(0x40)\n      shl(0xe5, 0x461bcd)\n      dup2\n      mstore\n      0x04\n      add\n      dup1\n      dup1\n      0x20\n      add\n      dup3\n      dup2\n      sub\n      dup3\n      mstore\n      0x26\n      dup2\n      mstore\n      0x20\n      add\n      dup1\n      data_245f15ff17f551913a7a18385165551503906a406f905ac1c2437281a7cd0cfe\n      0x26\n      swap2\n      codecopy\n      0x40\n      add\n      swap2\n      pop\n      pop\n      mload(0x40)\n      dup1\n      swap2\n      sub\n      swap1\n      revert\n    tag_121:\n        /* \"contracts/TestERC.sol\":1947:1966  _setOwner(newOwner) */\n      tag_122\n        /* \"contracts/TestERC.sol\":1957:1965  newOwner */\n      dup2\n        /* \"contracts/TestERC.sol\":1947:1956  _setOwner */\n      tag_96\n        /* \"contracts/TestERC.sol\":1947:1966  _setOwner(newOwner) */\n      jump\t// in\n    tag_122:\n        /* \"contracts/TestERC.sol\":1782:1974  function transferOwnership(address newOwner) public virtual onlyOwner {\r... */\n      pop\n      jump\t// out\n        /* \"contracts/TestERC.sol\":4501:4591  function Mint (uint amount, address to) external {\r... */\n    tag_78:\n      sub(shl(0xa0, 0x01), 0x01)\n        /* \"contracts/TestERC.sol\":4561:4573  balances[to] */\n      and\n      0x00\n      swap1\n      dup2\n      mstore\n        /* \"contracts/TestERC.sol\":4561:4569  balances */\n      0x05\n        /* \"contracts/TestERC.sol\":4561:4573  balances[to] */\n      0x20\n      mstore\n      0x40\n      swap1\n      keccak256\n        /* \"contracts/TestERC.sol\":4561:4583  balances[to] += amount */\n      dup1\n      sload\n      swap1\n      swap2\n      add\n      swap1\n      sstore\n        /* \"contracts/TestERC.sol\":4501:4591  function Mint (uint amount, address to) external {\r... */\n      jump\t// out\n        /* \"contracts/TestERC.sol\":265:363  function _msgSender() internal view virtual returns (address) {\r... */\n    tag_91:\n        /* \"contracts/TestERC.sol\":345:355  msg.sender */\n      caller\n        /* \"contracts/TestERC.sol\":265:363  function _msgSender() internal view virtual returns (address) {\r... */\n      swap1\n      jump\t// out\n        /* \"contracts/TestERC.sol\":1982:2155  function _setOwner(address newOwner) private {\r... */\n    tag_96:\n        /* \"contracts/TestERC.sol\":2038:2054  address oldOwner */\n      0x00\n        /* \"contracts/TestERC.sol\":2057:2063  _owner */\n      dup1\n      sload\n      sub(shl(0xa0, 0x01), 0x01)\n        /* \"contracts/TestERC.sol\":2074:2091  _owner = newOwner */\n      dup4\n      dup2\n      and\n      not(sub(shl(0xa0, 0x01), 0x01))\n      dup4\n      and\n      dup2\n      or\n      dup5\n      sstore\n        /* \"contracts/TestERC.sol\":2107:2147  OwnershipTransferred(oldOwner, newOwner) */\n      mload(0x40)\n        /* \"contracts/TestERC.sol\":2057:2063  _owner */\n      swap2\n      swap1\n      swap3\n      and\n      swap3\n      dup4\n      swap2\n        /* \"contracts/TestERC.sol\":2107:2147  OwnershipTransferred(oldOwner, newOwner) */\n      0x8be0079c531659141344cd1fd0a4f28419497f9722a3daafe3b4186f6b6457e0\n      swap2\n        /* \"contracts/TestERC.sol\":2038:2054  address oldOwner */\n      swap1\n        /* \"contracts/TestERC.sol\":2107:2147  OwnershipTransferred(oldOwner, newOwner) */\n      log3\n        /* \"contracts/TestERC.sol\":1982:2155  function _setOwner(address newOwner) private {\r... */\n      pop\n      pop\n      jump\t// out\n    stop\n    data_245f15ff17f551913a7a18385165551503906a406f905ac1c2437281a7cd0cfe 4f776e61626c653a206e6577206f776e657220697320746865207a65726f2061646472657373\n\n    auxdata: 0xa2646970667358221220a8808664ca464e307d0933927915025aa5c7aa4b77e3037124100c04bfcd576464736f6c63430007060033\n}\n",
				"bytecode": {
					"linkReferences": {},
					"object": "60806040523480156200001157600080fd5b5060405162000d3b38038062000d3b833981810160405260808110156200003757600080fd5b81019080805160405193929190846401000000008211156200005857600080fd5b9083019060208201858111156200006e57600080fd5b82516401000000008111828201881017156200008957600080fd5b82525081516020918201929091019080838360005b83811015620000b85781810151838201526020016200009e565b50505050905090810190601f168015620000e65780820380516001836020036101000a031916815260200191505b50604052602001805160405193929190846401000000008211156200010a57600080fd5b9083019060208201858111156200012057600080fd5b82516401000000008111828201881017156200013b57600080fd5b82525081516020918201929091019080838360005b838110156200016a57818101518382015260200162000150565b50505050905090810190601f168015620001985780820380516001836020036101000a031916815260200191505b50604090815260208201519101519092509050620001bf620001b962000250565b62000254565b8351620001d4906001906020870190620002a4565b508251620001ea906002906020860190620002a4565b506003805460ff191660ff84161790556004819055336000818152600560209081526040808320859055805185815290517fddf252ad1be2c89b69c2b068fc378daa952ba7f163c4a11628f55a4df523b3ef929181900390910190a35050505062000350565b3390565b600080546001600160a01b038381166001600160a01b0319831681178455604051919092169283917f8be0079c531659141344cd1fd0a4f28419497f9722a3daafe3b4186f6b6457e09190a35050565b828054600181600116156101000203166002900490600052602060002090601f016020900481019282620002dc576000855562000327565b82601f10620002f757805160ff191683800117855562000327565b8280016001018555821562000327579182015b82811115620003275782518255916020019190600101906200030a565b506200033592915062000339565b5090565b5b808211156200033557600081556001016200033a565b6109db80620003606000396000f3fe608060405234801561001057600080fd5b50600436106101165760003560e01c806395d89b41116100a2578063d05c78da11610071578063d05c78da1461031c578063dd62ed3e1461033f578063e6cb90131461036d578063f2fde38b14610390578063f3cea549146103b657610116565b806395d89b41146102a2578063a293d1e8146102aa578063a9059cbb146102cd578063b5931f7c146102f957610116565b8063313ce567116100e9578063313ce567146102285780633eaaf86b1461024657806370a082311461024e578063715018a6146102745780638da5cb5b1461027e57610116565b806306fdde031461011b578063095ea7b31461019857806318160ddd146101d857806323b872dd146101f2575b600080fd5b6101236103e2565b6040805160208082528351818301528351919283929083019185019080838360005b8381101561015d578181015183820152602001610145565b50505050905090810190601f16801561018a5780820380516001836020036101000a031916815260200191505b509250505060405180910390f35b6101c4600480360360408110156101ae57600080fd5b506001600160a01b03813516906020013561046f565b604080519115158252519081900360200190f35b6101e06104d6565b60408051918252519081900360200190f35b6101c46004803603606081101561020857600080fd5b506001600160a01b03813581169160208101359091169060400135610508565b610230610601565b6040805160ff9092168252519081900360200190f35b6101e061060a565b6101e06004803603602081101561026457600080fd5b50356001600160a01b0316610610565b61027c61062b565b005b6102866106ab565b604080516001600160a01b039092168252519081900360200190f35b6101236106ba565b6101e0600480360360408110156102c057600080fd5b5080359060200135610712565b6101c4600480360360408110156102e357600080fd5b506001600160a01b038135169060200135610727565b6101e06004803603604081101561030f57600080fd5b50803590602001356107cb565b6101e06004803603604081101561033257600080fd5b50803590602001356107ea565b6101e06004803603604081101561035557600080fd5b506001600160a01b038135811691602001351661080b565b6101e06004803603604081101561038357600080fd5b5080359060200135610836565b61027c600480360360208110156103a657600080fd5b50356001600160a01b0316610846565b61027c600480360360408110156103cc57600080fd5b50803590602001356001600160a01b031661090b565b60018054604080516020600284861615610100026000190190941693909304601f810184900484028201840190925281815292918301828280156104675780601f1061043c57610100808354040283529160200191610467565b820191906000526020600020905b81548152906001019060200180831161044a57829003601f168201915b505050505081565b3360008181526006602090815260408083206001600160a01b038716808552908352818420869055815186815291519394909390927f8c5be1e5ebec7d5bd14f71427d1e84f3dd0314c0f7b2291e5b200ac8c7c3b925928290030190a35060015b92915050565b6000805260056020527f05b8ccbb9d4d8fb16ea74ce3c29a41f1b461fbdaff4714a0d9a8eb05499746bc546004540390565b6001600160a01b03831660009081526005602052604081205461052b9083610712565b6001600160a01b03851660009081526005602090815260408083209390935560068152828220338352905220546105629083610712565b6001600160a01b0380861660009081526006602090815260408083203384528252808320949094559186168152600590915220546105a09083610836565b6001600160a01b0380851660008181526005602090815260409182902094909455805186815290519193928816927fddf252ad1be2c89b69c2b068fc378daa952ba7f163c4a11628f55a4df523b3ef92918290030190a35060019392505050565b60035460ff1681565b60045481565b6001600160a01b031660009081526005602052604090205490565b61063361092b565b6001600160a01b03166106446106ab565b6001600160a01b03161461069f576040805162461bcd60e51b815260206004820181905260248201527f4f776e61626c653a2063616c6c6572206973206e6f7420746865206f776e6572604482015290519081900360640190fd5b6106a9600061092f565b565b6000546001600160a01b031690565b6002805460408051602060018416156101000260001901909316849004601f810184900484028201840190925281815292918301828280156104675780601f1061043c57610100808354040283529160200191610467565b60008282111561072157600080fd5b50900390565b336000908152600560205260408120546107419083610712565b33600090815260056020526040808220929092556001600160a01b0385168152205461076d9083610836565b6001600160a01b0384166000818152600560209081526040918290209390935580518581529051919233927fddf252ad1be2c89b69c2b068fc378daa952ba7f163c4a11628f55a4df523b3ef9281900390910190a350600192915050565b60008082116107d957600080fd5b8183816107e257fe5b049392505050565b8181028215806108025750818382816107ff57fe5b04145b6104d057600080fd5b6001600160a01b03918216600090815260066020908152604080832093909416825291909152205490565b818101828110156104d057600080fd5b61084e61092b565b6001600160a01b031661085f6106ab565b6001600160a01b0316146108ba576040805162461bcd60e51b815260206004820181905260248201527f4f776e61626c653a2063616c6c6572206973206e6f7420746865206f776e6572604482015290519081900360640190fd5b6001600160a01b0381166108ff5760405162461bcd60e51b81526004018080602001828103825260268152602001806109806026913960400191505060405180910390fd5b6109088161092f565b50565b6001600160a01b0316600090815260056020526040902080549091019055565b3390565b600080546001600160a01b038381166001600160a01b0319831681178455604051919092169283917f8be0079c531659141344cd1fd0a4f28419497f9722a3daafe3b4186f6b6457e09190a3505056fe4f776e61626c653a206e6577206f776e657220697320746865207a65726f2061646472657373a2646970667358221220a8808664ca464e307d0933927915025aa5c7aa4b77e3037124100c04bfcd576464736f6c63430007060033",
					"opcodes": "PUSH1 0x80 PUSH1 0x40 MSTORE CALLVALUE DUP1 ISZERO PUSH3 0x11 JUMPI PUSH1 0x0 DUP1 REVERT JUMPDEST POP PUSH1 0x40 MLOAD PUSH3 0xD3B CODESIZE SUB DUP1 PUSH3 0xD3B DUP4 CODECOPY DUP2 DUP2 ADD PUSH1 0x40 MSTORE PUSH1 0x80 DUP2 LT ISZERO PUSH3 0x37 JUMPI PUSH1 0x0 DUP1 REVERT JUMPDEST DUP2 ADD SWAP1 DUP1 DUP1 MLOAD PUSH1 0x40 MLOAD SWAP4 SWAP3 SWAP2 SWAP1 DUP5 PUSH5 0x100000000 DUP3 GT ISZERO PUSH3 0x58 JUMPI PUSH1 0x0 DUP1 REVERT JUMPDEST SWAP1 DUP4 ADD SWAP1 PUSH1 0x20 DUP3 ADD DUP6 DUP2 GT ISZERO PUSH3 0x6E JUMPI PUSH1 0x0 DUP1 REVERT JUMPDEST DUP3 MLOAD PUSH5 0x100000000 DUP2 GT DUP3 DUP3 ADD DUP9 LT OR ISZERO PUSH3 0x89 JUMPI PUSH1 0x0 DUP1 REVERT JUMPDEST DUP3 MSTORE POP DUP2 MLOAD PUSH1 0x20 SWAP2 DUP3 ADD SWAP3 SWAP1 SWAP2 ADD SWAP1 DUP1 DUP4 DUP4 PUSH1 0x0 JUMPDEST DUP4 DUP2 LT ISZERO PUSH3 0xB8 JUMPI DUP2 DUP2 ADD MLOAD DUP4 DUP3 ADD MSTORE PUSH1 0x20 ADD PUSH3 0x9E JUMP JUMPDEST POP POP POP POP SWAP1 POP SWAP1 DUP2 ADD SWAP1 PUSH1 0x1F AND DUP1 ISZERO PUSH3 0xE6 JUMPI DUP1 DUP3 SUB DUP1 MLOAD PUSH1 0x1 DUP4 PUSH1 0x20 SUB PUSH2 0x100 EXP SUB NOT AND DUP2 MSTORE PUSH1 0x20 ADD SWAP2 POP JUMPDEST POP PUSH1 0x40 MSTORE PUSH1 0x20 ADD DUP1 MLOAD PUSH1 0x40 MLOAD SWAP4 SWAP3 SWAP2 SWAP1 DUP5 PUSH5 0x100000000 DUP3 GT ISZERO PUSH3 0x10A JUMPI PUSH1 0x0 DUP1 REVERT JUMPDEST SWAP1 DUP4 ADD SWAP1 PUSH1 0x20 DUP3 ADD DUP6 DUP2 GT ISZERO PUSH3 0x120 JUMPI PUSH1 0x0 DUP1 REVERT JUMPDEST DUP3 MLOAD PUSH5 0x100000000 DUP2 GT DUP3 DUP3 ADD DUP9 LT OR ISZERO PUSH3 0x13B JUMPI PUSH1 0x0 DUP1 REVERT JUMPDEST DUP3 MSTORE POP DUP2 MLOAD PUSH1 0x20 SWAP2 DUP3 ADD SWAP3 SWAP1 SWAP2 ADD SWAP1 DUP1 DUP4 DUP4 PUSH1 0x0 JUMPDEST DUP4 DUP2 LT ISZERO PUSH3 0x16A JUMPI DUP2 DUP2 ADD MLOAD DUP4 DUP3 ADD MSTORE PUSH1 0x20 ADD PUSH3 0x150 JUMP JUMPDEST POP POP POP POP SWAP1 POP SWAP1 DUP2 ADD SWAP1 PUSH1 0x1F AND DUP1 ISZERO PUSH3 0x198 JUMPI DUP1 DUP3 SUB DUP1 MLOAD PUSH1 0x1 DUP4 PUSH1 0x20 SUB PUSH2 0x100 EXP SUB NOT AND DUP2 MSTORE PUSH1 0x20 ADD SWAP2 POP JUMPDEST POP PUSH1 0x40 SWAP1 DUP2 MSTORE PUSH1 0x20 DUP3 ADD MLOAD SWAP2 ADD MLOAD SWAP1 SWAP3 POP SWAP1 POP PUSH3 0x1BF PUSH3 0x1B9 PUSH3 0x250 JUMP JUMPDEST PUSH3 0x254 JUMP JUMPDEST DUP4 MLOAD PUSH3 0x1D4 SWAP1 PUSH1 0x1 SWAP1 PUSH1 0x20 DUP8 ADD SWAP1 PUSH3 0x2A4 JUMP JUMPDEST POP DUP3 MLOAD PUSH3 0x1EA SWAP1 PUSH1 0x2 SWAP1 PUSH1 0x20 DUP7 ADD SWAP1 PUSH3 0x2A4 JUMP JUMPDEST POP PUSH1 0x3 DUP1 SLOAD PUSH1 0xFF NOT AND PUSH1 0xFF DUP5 AND OR SWAP1 SSTORE PUSH1 0x4 DUP2 SWAP1 SSTORE CALLER PUSH1 0x0 DUP2 DUP2 MSTORE PUSH1 0x5 PUSH1 0x20 SWAP1 DUP2 MSTORE PUSH1 0x40 DUP1 DUP4 KECCAK256 DUP6 SWAP1 SSTORE DUP1 MLOAD DUP6 DUP2 MSTORE SWAP1 MLOAD PUSH32 0xDDF252AD1BE2C89B69C2B068FC378DAA952BA7F163C4A11628F55A4DF523B3EF SWAP3 SWAP2 DUP2 SWAP1 SUB SWAP1 SWAP2 ADD SWAP1 LOG3 POP POP POP POP PUSH3 0x350 JUMP JUMPDEST CALLER SWAP1 JUMP JUMPDEST PUSH1 0x0 DUP1 SLOAD PUSH1 0x1 PUSH1 0x1 PUSH1 0xA0 SHL SUB DUP4 DUP2 AND PUSH1 0x1 PUSH1 0x1 PUSH1 0xA0 SHL SUB NOT DUP4 AND DUP2 OR DUP5 SSTORE PUSH1 0x40 MLOAD SWAP2 SWAP1 SWAP3 AND SWAP3 DUP4 SWAP2 PUSH32 0x8BE0079C531659141344CD1FD0A4F28419497F9722A3DAAFE3B4186F6B6457E0 SWAP2 SWAP1 LOG3 POP POP JUMP JUMPDEST DUP3 DUP1 SLOAD PUSH1 0x1 DUP2 PUSH1 0x1 AND ISZERO PUSH2 0x100 MUL SUB AND PUSH1 0x2 SWAP1 DIV SWAP1 PUSH1 0x0 MSTORE PUSH1 0x20 PUSH1 0x0 KECCAK256 SWAP1 PUSH1 0x1F ADD PUSH1 0x20 SWAP1 DIV DUP2 ADD SWAP3 DUP3 PUSH3 0x2DC JUMPI PUSH1 0x0 DUP6 SSTORE PUSH3 0x327 JUMP JUMPDEST DUP3 PUSH1 0x1F LT PUSH3 0x2F7 JUMPI DUP1 MLOAD PUSH1 0xFF NOT AND DUP4 DUP1 ADD OR DUP6 SSTORE PUSH3 0x327 JUMP JUMPDEST DUP3 DUP1 ADD PUSH1 0x1 ADD DUP6 SSTORE DUP3 ISZERO PUSH3 0x327 JUMPI SWAP2 DUP3 ADD JUMPDEST DUP3 DUP2 GT ISZERO PUSH3 0x327 JUMPI DUP3 MLOAD DUP3 SSTORE SWAP2 PUSH1 0x20 ADD SWAP2 SWAP1 PUSH1 0x1 ADD SWAP1 PUSH3 0x30A JUMP JUMPDEST POP PUSH3 0x335 SWAP3 SWAP2 POP PUSH3 0x339 JUMP JUMPDEST POP SWAP1 JUMP JUMPDEST JUMPDEST DUP1 DUP3 GT ISZERO PUSH3 0x335 JUMPI PUSH1 0x0 DUP2 SSTORE PUSH1 0x1 ADD PUSH3 0x33A JUMP JUMPDEST PUSH2 0x9DB DUP1 PUSH3 0x360 PUSH1 0x0 CODECOPY PUSH1 0x0 RETURN INVALID PUSH1 0x80 PUSH1 0x40 MSTORE CALLVALUE DUP1 ISZERO PUSH2 0x10 JUMPI PUSH1 0x0 DUP1 REVERT JUMPDEST POP PUSH1 0x4 CALLDATASIZE LT PUSH2 0x116 JUMPI PUSH1 0x0 CALLDATALOAD PUSH1 0xE0 SHR DUP1 PUSH4 0x95D89B41 GT PUSH2 0xA2 JUMPI DUP1 PUSH4 0xD05C78DA GT PUSH2 0x71 JUMPI DUP1 PUSH4 0xD05C78DA EQ PUSH2 0x31C JUMPI DUP1 PUSH4 0xDD62ED3E EQ PUSH2 0x33F JUMPI DUP1 PUSH4 0xE6CB9013 EQ PUSH2 0x36D JUMPI DUP1 PUSH4 0xF2FDE38B EQ PUSH2 0x390 JUMPI DUP1 PUSH4 0xF3CEA549 EQ PUSH2 0x3B6 JUMPI PUSH2 0x116 JUMP JUMPDEST DUP1 PUSH4 0x95D89B41 EQ PUSH2 0x2A2 JUMPI DUP1 PUSH4 0xA293D1E8 EQ PUSH2 0x2AA JUMPI DUP1 PUSH4 0xA9059CBB EQ PUSH2 0x2CD JUMPI DUP1 PUSH4 0xB5931F7C EQ PUSH2 0x2F9 JUMPI PUSH2 0x116 JUMP JUMPDEST DUP1 PUSH4 0x313CE567 GT PUSH2 0xE9 JUMPI DUP1 PUSH4 0x313CE567 EQ PUSH2 0x228 JUMPI DUP1 PUSH4 0x3EAAF86B EQ PUSH2 0x246 JUMPI DUP1 PUSH4 0x70A08231 EQ PUSH2 0x24E JUMPI DUP1 PUSH4 0x715018A6 EQ PUSH2 0x274 JUMPI DUP1 PUSH4 0x8DA5CB5B EQ PUSH2 0x27E JUMPI PUSH2 0x116 JUMP JUMPDEST DUP1 PUSH4 0x6FDDE03 EQ PUSH2 0x11B JUMPI DUP1 PUSH4 0x95EA7B3 EQ PUSH2 0x198 JUMPI DUP1 PUSH4 0x18160DDD EQ PUSH2 0x1D8 JUMPI DUP1 PUSH4 0x23B872DD EQ PUSH2 0x1F2 JUMPI JUMPDEST PUSH1 0x0 DUP1 REVERT JUMPDEST PUSH2 0x123 PUSH2 0x3E2 JUMP JUMPDEST PUSH1 0x40 DUP1 MLOAD PUSH1 0x20 DUP1 DUP3 MSTORE DUP4 MLOAD DUP2 DUP4 ADD MSTORE DUP4 MLOAD SWAP2 SWAP3 DUP4 SWAP3 SWAP1 DUP4 ADD SWAP2 DUP6 ADD SWAP1 DUP1 DUP4 DUP4 PUSH1 0x0 JUMPDEST DUP4 DUP2 LT ISZERO PUSH2 0x15D JUMPI DUP2 DUP2 ADD MLOAD DUP4 DUP3 ADD MSTORE PUSH1 0x20 ADD PUSH2 0x145 JUMP JUMPDEST POP POP POP POP SWAP1 POP SWAP1 DUP2 ADD SWAP1 PUSH1 0x1F AND DUP1 ISZERO PUSH2 0x18A JUMPI DUP1 DUP3 SUB DUP1 MLOAD PUSH1 0x1 DUP4 PUSH1 0x20 SUB PUSH2 0x100 EXP SUB NOT AND DUP2 MSTORE PUSH1 0x20 ADD SWAP2 POP JUMPDEST POP SWAP3 POP POP POP PUSH1 0x40 MLOAD DUP1 SWAP2 SUB SWAP1 RETURN JUMPDEST PUSH2 0x1C4 PUSH1 0x4 DUP1 CALLDATASIZE SUB PUSH1 0x40 DUP2 LT ISZERO PUSH2 0x1AE JUMPI PUSH1 0x0 DUP1 REVERT JUMPDEST POP PUSH1 0x1 PUSH1 0x1 PUSH1 0xA0 SHL SUB DUP2 CALLDATALOAD AND SWAP1 PUSH1 0x20 ADD CALLDATALOAD PUSH2 0x46F JUMP JUMPDEST PUSH1 0x40 DUP1 MLOAD SWAP2 ISZERO ISZERO DUP3 MSTORE MLOAD SWAP1 DUP2 SWAP1 SUB PUSH1 0x20 ADD SWAP1 RETURN JUMPDEST PUSH2 0x1E0 PUSH2 0x4D6 JUMP JUMPDEST PUSH1 0x40 DUP1 MLOAD SWAP2 DUP3 MSTORE MLOAD SWAP1 DUP2 SWAP1 SUB PUSH1 0x20 ADD SWAP1 RETURN JUMPDEST PUSH2 0x1C4 PUSH1 0x4 DUP1 CALLDATASIZE SUB PUSH1 0x60 DUP2 LT ISZERO PUSH2 0x208 JUMPI PUSH1 0x0 DUP1 REVERT JUMPDEST POP PUSH1 0x1 PUSH1 0x1 PUSH1 0xA0 SHL SUB DUP2 CALLDATALOAD DUP2 AND SWAP2 PUSH1 0x20 DUP2 ADD CALLDATALOAD SWAP1 SWAP2 AND SWAP1 PUSH1 0x40 ADD CALLDATALOAD PUSH2 0x508 JUMP JUMPDEST PUSH2 0x230 PUSH2 0x601 JUMP JUMPDEST PUSH1 0x40 DUP1 MLOAD PUSH1 0xFF SWAP1 SWAP3 AND DUP3 MSTORE MLOAD SWAP1 DUP2 SWAP1 SUB PUSH1 0x20 ADD SWAP1 RETURN JUMPDEST PUSH2 0x1E0 PUSH2 0x60A JUMP JUMPDEST PUSH2 0x1E0 PUSH1 0x4 DUP1 CALLDATASIZE SUB PUSH1 0x20 DUP2 LT ISZERO PUSH2 0x264 JUMPI PUSH1 0x0 DUP1 REVERT JUMPDEST POP CALLDATALOAD PUSH1 0x1 PUSH1 0x1 PUSH1 0xA0 SHL SUB AND PUSH2 0x610 JUMP JUMPDEST PUSH2 0x27C PUSH2 0x62B JUMP JUMPDEST STOP JUMPDEST PUSH2 0x286 PUSH2 0x6AB JUMP JUMPDEST PUSH1 0x40 DUP1 MLOAD PUSH1 0x1 PUSH1 0x1 PUSH1 0xA0 SHL SUB SWAP1 SWAP3 AND DUP3 MSTORE MLOAD SWAP1 DUP2 SWAP1 SUB PUSH1 0x20 ADD SWAP1 RETURN JUMPDEST PUSH2 0x123 PUSH2 0x6BA JUMP JUMPDEST PUSH2 0x1E0 PUSH1 0x4 DUP1 CALLDATASIZE SUB PUSH1 0x40 DUP2 LT ISZERO PUSH2 0x2C0 JUMPI PUSH1 0x0 DUP1 REVERT JUMPDEST POP DUP1 CALLDATALOAD SWAP1 PUSH1 0x20 ADD CALLDATALOAD PUSH2 0x712 JUMP JUMPDEST PUSH2 0x1C4 PUSH1 0x4 DUP1 CALLDATASIZE SUB PUSH1 0x40 DUP2 LT ISZERO PUSH2 0x2E3 JUMPI PUSH1 0x0 DUP1 REVERT JUMPDEST POP PUSH1 0x1 PUSH1 0x1 PUSH1 0xA0 SHL SUB DUP2 CALLDATALOAD AND SWAP1 PUSH1 0x20 ADD CALLDATALOAD PUSH2 0x727 JUMP JUMPDEST PUSH2 0x1E0 PUSH1 0x4 DUP1 CALLDATASIZE SUB PUSH1 0x40 DUP2 LT ISZERO PUSH2 0x30F JUMPI PUSH1 0x0 DUP1 REVERT JUMPDEST POP DUP1 CALLDATALOAD SWAP1 PUSH1 0x20 ADD CALLDATALOAD PUSH2 0x7CB JUMP JUMPDEST PUSH2 0x1E0 PUSH1 0x4 DUP1 CALLDATASIZE SUB PUSH1 0x40 DUP2 LT ISZERO PUSH2 0x332 JUMPI PUSH1 0x0 DUP1 REVERT JUMPDEST POP DUP1 CALLDATALOAD SWAP1 PUSH1 0x20 ADD CALLDATALOAD PUSH2 0x7EA JUMP JUMPDEST PUSH2 0x1E0 PUSH1 0x4 DUP1 CALLDATASIZE SUB PUSH1 0x40 DUP2 LT ISZERO PUSH2 0x355 JUMPI PUSH1 0x0 DUP1 REVERT JUMPDEST POP PUSH1 0x1 PUSH1 0x1 PUSH1 0xA0 SHL SUB DUP2 CALLDATALOAD DUP2 AND SWAP2 PUSH1 0x20 ADD CALLDATALOAD AND PUSH2 0x80B JUMP JUMPDEST PUSH2 0x1E0 PUSH1 0x4 DUP1 CALLDATASIZE SUB PUSH1 0x40 DUP2 LT ISZERO PUSH2 0x383 JUMPI PUSH1 0x0 DUP1 REVERT JUMPDEST POP DUP1 CALLDATALOAD SWAP1 PUSH1 0x20 ADD CALLDATALOAD PUSH2 0x836 JUMP JUMPDEST PUSH2 0x27C PUSH1 0x4 DUP1 CALLDATASIZE SUB PUSH1 0x20 DUP2 LT ISZERO PUSH2 0x3A6 JUMPI PUSH1 0x0 DUP1 REVERT JUMPDEST POP CALLDATALOAD PUSH1 0x1 PUSH1 0x1 PUSH1 0xA0 SHL SUB AND PUSH2 0x846 JUMP JUMPDEST PUSH2 0x27C PUSH1 0x4 DUP1 CALLDATASIZE SUB PUSH1 0x40 DUP2 LT ISZERO PUSH2 0x3CC JUMPI PUSH1 0x0 DUP1 REVERT JUMPDEST POP DUP1 CALLDATALOAD SWAP1 PUSH1 0x20 ADD CALLDATALOAD PUSH1 0x1 PUSH1 0x1 PUSH1 0xA0 SHL SUB AND PUSH2 0x90B JUMP JUMPDEST PUSH1 0x1 DUP1 SLOAD PUSH1 0x40 DUP1 MLOAD PUSH1 0x20 PUSH1 0x2 DUP5 DUP7 AND ISZERO PUSH2 0x100 MUL PUSH1 0x0 NOT ADD SWAP1 SWAP5 AND SWAP4 SWAP1 SWAP4 DIV PUSH1 0x1F DUP2 ADD DUP5 SWAP1 DIV DUP5 MUL DUP3 ADD DUP5 ADD SWAP1 SWAP3 MSTORE DUP2 DUP2 MSTORE SWAP3 SWAP2 DUP4 ADD DUP3 DUP3 DUP1 ISZERO PUSH2 0x467 JUMPI DUP1 PUSH1 0x1F LT PUSH2 0x43C JUMPI PUSH2 0x100 DUP1 DUP4 SLOAD DIV MUL DUP4 MSTORE SWAP2 PUSH1 0x20 ADD SWAP2 PUSH2 0x467 JUMP JUMPDEST DUP3 ADD SWAP2 SWAP1 PUSH1 0x0 MSTORE PUSH1 0x20 PUSH1 0x0 KECCAK256 SWAP1 JUMPDEST DUP2 SLOAD DUP2 MSTORE SWAP1 PUSH1 0x1 ADD SWAP1 PUSH1 0x20 ADD DUP1 DUP4 GT PUSH2 0x44A JUMPI DUP3 SWAP1 SUB PUSH1 0x1F AND DUP3 ADD SWAP2 JUMPDEST POP POP POP POP POP DUP2 JUMP JUMPDEST CALLER PUSH1 0x0 DUP2 DUP2 MSTORE PUSH1 0x6 PUSH1 0x20 SWAP1 DUP2 MSTORE PUSH1 0x40 DUP1 DUP4 KECCAK256 PUSH1 0x1 PUSH1 0x1 PUSH1 0xA0 SHL SUB DUP8 AND DUP1 DUP6 MSTORE SWAP1 DUP4 MSTORE DUP2 DUP5 KECCAK256 DUP7 SWAP1 SSTORE DUP2 MLOAD DUP7 DUP2 MSTORE SWAP2 MLOAD SWAP4 SWAP5 SWAP1 SWAP4 SWAP1 SWAP3 PUSH32 0x8C5BE1E5EBEC7D5BD14F71427D1E84F3DD0314C0F7B2291E5B200AC8C7C3B925 SWAP3 DUP3 SWAP1 SUB ADD SWAP1 LOG3 POP PUSH1 0x1 JUMPDEST SWAP3 SWAP2 POP POP JUMP JUMPDEST PUSH1 0x0 DUP1 MSTORE PUSH1 0x5 PUSH1 0x20 MSTORE PUSH32 0x5B8CCBB9D4D8FB16EA74CE3C29A41F1B461FBDAFF4714A0D9A8EB05499746BC SLOAD PUSH1 0x4 SLOAD SUB SWAP1 JUMP JUMPDEST PUSH1 0x1 PUSH1 0x1 PUSH1 0xA0 SHL SUB DUP4 AND PUSH1 0x0 SWAP1 DUP2 MSTORE PUSH1 0x5 PUSH1 0x20 MSTORE PUSH1 0x40 DUP2 KECCAK256 SLOAD PUSH2 0x52B SWAP1 DUP4 PUSH2 0x712 JUMP JUMPDEST PUSH1 0x1 PUSH1 0x1 PUSH1 0xA0 SHL SUB DUP6 AND PUSH1 0x0 SWAP1 DUP2 MSTORE PUSH1 0x5 PUSH1 0x20 SWAP1 DUP2 MSTORE PUSH1 0x40 DUP1 DUP4 KECCAK256 SWAP4 SWAP1 SWAP4 SSTORE PUSH1 0x6 DUP2 MSTORE DUP3 DUP3 KECCAK256 CALLER DUP4 MSTORE SWAP1 MSTORE KECCAK256 SLOAD PUSH2 0x562 SWAP1 DUP4 PUSH2 0x712 JUMP JUMPDEST PUSH1 0x1 PUSH1 0x1 PUSH1 0xA0 SHL SUB DUP1 DUP7 AND PUSH1 0x0 SWAP1 DUP2 MSTORE PUSH1 0x6 PUSH1 0x20 SWAP1 DUP2 MSTORE PUSH1 0x40 DUP1 DUP4 KECCAK256 CALLER DUP5 MSTORE DUP3 MSTORE DUP1 DUP4 KECCAK256 SWAP5 SWAP1 SWAP5 SSTORE SWAP2 DUP7 AND DUP2 MSTORE PUSH1 0x5 SWAP1 SWAP2 MSTORE KECCAK256 SLOAD PUSH2 0x5A0 SWAP1 DUP4 PUSH2 0x836 JUMP JUMPDEST PUSH1 0x1 PUSH1 0x1 PUSH1 0xA0 SHL SUB DUP1 DUP6 AND PUSH1 0x0 DUP2 DUP2 MSTORE PUSH1 0x5 PUSH1 0x20 SWAP1 DUP2 MSTORE PUSH1 0x40 SWAP2 DUP3 SWAP1 KECCAK256 SWAP5 SWAP1 SWAP5 SSTORE DUP1 MLOAD DUP7 DUP2 MSTORE SWAP1 MLOAD SWAP2 SWAP4 SWAP3 DUP9 AND SWAP3 PUSH32 0xDDF252AD1BE2C89B69C2B068FC378DAA952BA7F163C4A11628F55A4DF523B3EF SWAP3 SWAP2 DUP3 SWAP1 SUB ADD SWAP1 LOG3 POP PUSH1 0x1 SWAP4 SWAP3 POP POP POP JUMP JUMPDEST PUSH1 0x3 SLOAD PUSH1 0xFF AND DUP2 JUMP JUMPDEST PUSH1 0x4 SLOAD DUP2 JUMP JUMPDEST PUSH1 0x1 PUSH1 0x1 PUSH1 0xA0 SHL SUB AND PUSH1 0x0 SWAP1 DUP2 MSTORE PUSH1 0x5 PUSH1 0x20 MSTORE PUSH1 0x40 SWAP1 KECCAK256 SLOAD SWAP1 JUMP JUMPDEST PUSH2 0x633 PUSH2 0x92B JUMP JUMPDEST PUSH1 0x1 PUSH1 0x1 PUSH1 0xA0 SHL SUB AND PUSH2 0x644 PUSH2 0x6AB JUMP JUMPDEST PUSH1 0x1 PUSH1 0x1 PUSH1 0xA0 SHL SUB AND EQ PUSH2 0x69F JUMPI PUSH1 0x40 DUP1 MLOAD PUSH3 0x461BCD PUSH1 0xE5 SHL DUP2 MSTORE PUSH1 0x20 PUSH1 0x4 DUP3 ADD DUP2 SWAP1 MSTORE PUSH1 0x24 DUP3 ADD MSTORE PUSH32 0x4F776E61626C653A2063616C6C6572206973206E6F7420746865206F776E6572 PUSH1 0x44 DUP3 ADD MSTORE SWAP1 MLOAD SWAP1 DUP2 SWAP1 SUB PUSH1 0x64 ADD SWAP1 REVERT JUMPDEST PUSH2 0x6A9 PUSH1 0x0 PUSH2 0x92F JUMP JUMPDEST JUMP JUMPDEST PUSH1 0x0 SLOAD PUSH1 0x1 PUSH1 0x1 PUSH1 0xA0 SHL SUB AND SWAP1 JUMP JUMPDEST PUSH1 0x2 DUP1 SLOAD PUSH1 0x40 DUP1 MLOAD PUSH1 0x20 PUSH1 0x1 DUP5 AND ISZERO PUSH2 0x100 MUL PUSH1 0x0 NOT ADD SWAP1 SWAP4 AND DUP5 SWAP1 DIV PUSH1 0x1F DUP2 ADD DUP5 SWAP1 DIV DUP5 MUL DUP3 ADD DUP5 ADD SWAP1 SWAP3 MSTORE DUP2 DUP2 MSTORE SWAP3 SWAP2 DUP4 ADD DUP3 DUP3 DUP1 ISZERO PUSH2 0x467 JUMPI DUP1 PUSH1 0x1F LT PUSH2 0x43C JUMPI PUSH2 0x100 DUP1 DUP4 SLOAD DIV MUL DUP4 MSTORE SWAP2 PUSH1 0x20 ADD SWAP2 PUSH2 0x467 JUMP JUMPDEST PUSH1 0x0 DUP3 DUP3 GT ISZERO PUSH2 0x721 JUMPI PUSH1 0x0 DUP1 REVERT JUMPDEST POP SWAP1 SUB SWAP1 JUMP JUMPDEST CALLER PUSH1 0x0 SWAP1 DUP2 MSTORE PUSH1 0x5 PUSH1 0x20 MSTORE PUSH1 0x40 DUP2 KECCAK256 SLOAD PUSH2 0x741 SWAP1 DUP4 PUSH2 0x712 JUMP JUMPDEST CALLER PUSH1 0x0 SWAP1 DUP2 MSTORE PUSH1 0x5 PUSH1 0x20 MSTORE PUSH1 0x40 DUP1 DUP3 KECCAK256 SWAP3 SWAP1 SWAP3 SSTORE PUSH1 0x1 PUSH1 0x1 PUSH1 0xA0 SHL SUB DUP6 AND DUP2 MSTORE KECCAK256 SLOAD PUSH2 0x76D SWAP1 DUP4 PUSH2 0x836 JUMP JUMPDEST PUSH1 0x1 PUSH1 0x1 PUSH1 0xA0 SHL SUB DUP5 AND PUSH1 0x0 DUP2 DUP2 MSTORE PUSH1 0x5 PUSH1 0x20 SWAP1 DUP2 MSTORE PUSH1 0x40 SWAP2 DUP3 SWAP1 KECCAK256 SWAP4 SWAP1 SWAP4 SSTORE DUP1 MLOAD DUP6 DUP2 MSTORE SWAP1 MLOAD SWAP2 SWAP3 CALLER SWAP3 PUSH32 0xDDF252AD1BE2C89B69C2B068FC378DAA952BA7F163C4A11628F55A4DF523B3EF SWAP3 DUP2 SWAP1 SUB SWAP1 SWAP2 ADD SWAP1 LOG3 POP PUSH1 0x1 SWAP3 SWAP2 POP POP JUMP JUMPDEST PUSH1 0x0 DUP1 DUP3 GT PUSH2 0x7D9 JUMPI PUSH1 0x0 DUP1 REVERT JUMPDEST DUP2 DUP4 DUP2 PUSH2 0x7E2 JUMPI INVALID JUMPDEST DIV SWAP4 SWAP3 POP POP POP JUMP JUMPDEST DUP2 DUP2 MUL DUP3 ISZERO DUP1 PUSH2 0x802 JUMPI POP DUP2 DUP4 DUP3 DUP2 PUSH2 0x7FF JUMPI INVALID JUMPDEST DIV EQ JUMPDEST PUSH2 0x4D0 JUMPI PUSH1 0x0 DUP1 REVERT JUMPDEST PUSH1 0x1 PUSH1 0x1 PUSH1 0xA0 SHL SUB SWAP2 DUP3 AND PUSH1 0x0 SWAP1 DUP2 MSTORE PUSH1 0x6 PUSH1 0x20 SWAP1 DUP2 MSTORE PUSH1 0x40 DUP1 DUP4 KECCAK256 SWAP4 SWAP1 SWAP5 AND DUP3 MSTORE SWAP2 SWAP1 SWAP2 MSTORE KECCAK256 SLOAD SWAP1 JUMP JUMPDEST DUP2 DUP2 ADD DUP3 DUP2 LT ISZERO PUSH2 0x4D0 JUMPI PUSH1 0x0 DUP1 REVERT JUMPDEST PUSH2 0x84E PUSH2 0x92B JUMP JUMPDEST PUSH1 0x1 PUSH1 0x1 PUSH1 0xA0 SHL SUB AND PUSH2 0x85F PUSH2 0x6AB JUMP JUMPDEST PUSH1 0x1 PUSH1 0x1 PUSH1 0xA0 SHL SUB AND EQ PUSH2 0x8BA JUMPI PUSH1 0x40 DUP1 MLOAD PUSH3 0x461BCD PUSH1 0xE5 SHL DUP2 MSTORE PUSH1 0x20 PUSH1 0x4 DUP3 ADD DUP2 SWAP1 MSTORE PUSH1 0x24 DUP3 ADD MSTORE PUSH32 0x4F776E61626C653A2063616C6C6572206973206E6F7420746865206F776E6572 PUSH1 0x44 DUP3 ADD MSTORE SWAP1 MLOAD SWAP1 DUP2 SWAP1 SUB PUSH1 0x64 ADD SWAP1 REVERT JUMPDEST PUSH1 0x1 PUSH1 0x1 PUSH1 0xA0 SHL SUB DUP2 AND PUSH2 0x8FF JUMPI PUSH1 0x40 MLOAD PUSH3 0x461BCD PUSH1 0xE5 SHL DUP2 MSTORE PUSH1 0x4 ADD DUP1 DUP1 PUSH1 0x20 ADD DUP3 DUP2 SUB DUP3 MSTORE PUSH1 0x26 DUP2 MSTORE PUSH1 0x20 ADD DUP1 PUSH2 0x980 PUSH1 0x26 SWAP2 CODECOPY PUSH1 0x40 ADD SWAP2 POP POP PUSH1 0x40 MLOAD DUP1 SWAP2 SUB SWAP1 REVERT JUMPDEST PUSH2 0x908 DUP2 PUSH2 0x92F JUMP JUMPDEST POP JUMP JUMPDEST PUSH1 0x1 PUSH1 0x1 PUSH1 0xA0 SHL SUB AND PUSH1 0x0 SWAP1 DUP2 MSTORE PUSH1 0x5 PUSH1 0x20 MSTORE PUSH1 0x40 SWAP1 KECCAK256 DUP1 SLOAD SWAP1 SWAP2 ADD SWAP1 SSTORE JUMP JUMPDEST CALLER SWAP1 JUMP JUMPDEST PUSH1 0x0 DUP1 SLOAD PUSH1 0x1 PUSH1 0x1 PUSH1 0xA0 SHL SUB DUP4 DUP2 AND PUSH1 0x1 PUSH1 0x1 PUSH1 0xA0 SHL SUB NOT DUP4 AND DUP2 OR DUP5 SSTORE PUSH1 0x40 MLOAD SWAP2 SWAP1 SWAP3 AND SWAP3 DUP4 SWAP2 PUSH32 0x8BE0079C531659141344CD1FD0A4F28419497F9722A3DAAFE3B4186F6B6457E0 SWAP2 SWAP1 LOG3 POP POP JUMP INVALID 0x4F PUSH24 0x6E61626C653A206E6577206F776E65722069732074686520 PUSH27 0x65726F2061646472657373A2646970667358221220A8808664CA46 0x4E ADDRESS PUSH30 0x933927915025AA5C7AA4B77E3037124100C04BFCD576464736F6C634300 SMOD MOD STOP CALLER "
				},
				"gasEstimates": {
					"creation": {
						"codeDepositCost": "504600",
						"executionCost": "infinite",
						"totalCost": "infinite"
					},
					"external": {
						"Mint(uint256,address)": "21231",
						"_totalSupply()": "1043",
						"allowance(address,address)": "1294",
						"approve(address,uint256)": "22324",
						"balanceOf(address)": "1209",
						"decimals()": "1036",
						"name()": "infinite",
						"owner()": "1148",
						"renounceOwnership()": "23593",
						"safeAdd(uint256,uint256)": "360",
						"safeDiv(uint256,uint256)": "404",
						"safeMul(uint256,uint256)": "365",
						"safeSub(uint256,uint256)": "334",
						"symbol()": "infinite",
						"totalSupply()": "1890",
						"transfer(address,uint256)": "44249",
						"transferFrom(address,address,uint256)": "infinite",
						"transferOwnership(address)": "infinite"
					}
				},
				"methodIdentifiers": {
					"Mint(uint256,address)": "f3cea549",
					"_totalSupply()": "3eaaf86b",
					"allowance(address,address)": "dd62ed3e",
					"approve(address,uint256)": "095ea7b3",
					"balanceOf(address)": "70a08231",
					"decimals()": "313ce567",
					"name()": "06fdde03",
					"owner()": "8da5cb5b",
					"renounceOwnership()": "715018a6",
					"safeAdd(uint256,uint256)": "e6cb9013",
					"safeDiv(uint256,uint256)": "b5931f7c",
					"safeMul(uint256,uint256)": "d05c78da",
					"safeSub(uint256,uint256)": "a293d1e8",
					"symbol()": "95d89b41",
					"totalSupply()": "18160ddd",
					"transfer(address,uint256)": "a9059cbb",
					"transferFrom(address,address,uint256)": "23b872dd",
					"transferOwnership(address)": "f2fde38b"
				}
			},
			"storageLayout": {
				"storage": [
					{
						"astId": 24,
						"contract": "contracts/TestERC.sol:TestTokenFreeMintable",
						"label": "_owner",
						"offset": 0,
						"slot": "0",
						"type": "t_address"
					},
					{
						"astId": 290,
						"contract": "contracts/TestERC.sol:TestTokenFreeMintable",
						"label": "name",
						"offset": 0,
						"slot": "1",
						"type": "t_string_storage"
					},
					{
						"astId": 292,
						"contract": "contracts/TestERC.sol:TestTokenFreeMintable",
						"label": "symbol",
						"offset": 0,
						"slot": "2",
						"type": "t_string_storage"
					},
					{
						"astId": 294,
						"contract": "contracts/TestERC.sol:TestTokenFreeMintable",
						"label": "decimals",
						"offset": 0,
						"slot": "3",
						"type": "t_uint8"
					},
					{
						"astId": 296,
						"contract": "contracts/TestERC.sol:TestTokenFreeMintable",
						"label": "_totalSupply",
						"offset": 0,
						"slot": "4",
						"type": "t_uint256"
					},
					{
						"astId": 300,
						"contract": "contracts/TestERC.sol:TestTokenFreeMintable",
						"label": "balances",
						"offset": 0,
						"slot": "5",
						"type": "t_mapping(t_address,t_uint256)"
					},
					{
						"astId": 306,
						"contract": "contracts/TestERC.sol:TestTokenFreeMintable",
						"label": "allowed",
						"offset": 0,
						"slot": "6",
						"type": "t_mapping(t_address,t_mapping(t_address,t_uint256))"
					}
				],
				"types": {
					"t_address": {
						"encoding": "inplace",
						"label": "address",
						"numberOfBytes": "20"
					},
					"t_mapping(t_address,t_mapping(t_address,t_uint256))": {
						"encoding": "mapping",
						"key": "t_address",
						"label": "mapping(address => mapping(address => uint256))",
						"numberOfBytes": "32",
						"value": "t_mapping(t_address,t_uint256)"
					},
					"t_mapping(t_address,t_uint256)": {
						"encoding": "mapping",
						"key": "t_address",
						"label": "mapping(address => uint256)",
						"numberOfBytes": "32",
						"value": "t_uint256"
					},
					"t_string_storage": {
						"encoding": "bytes",
						"label": "string",
						"numberOfBytes": "32"
					},
					"t_uint256": {
						"encoding": "inplace",
						"label": "uint256",
						"numberOfBytes": "32"
					},
					"t_uint8": {
						"encoding": "inplace",
						"label": "uint8",
						"numberOfBytes": "1"
					}
				}
			},
			"userdoc": {
				"kind": "user",
				"methods": {
					"constructor": {
						"notice": "Constrctor function Initializes contract with initial supply tokens to the creator of the contract"
					}
				},
				"version": 1
			}
		}
	}
}