{
	"contracts/creator.sol": {
		"PIEXCreator": {
			"abi": [
				{
					"inputs": [
						{
							"internalType": "address",
							"name": "_token",
							"type": "address"
						}
					],
					"stateMutability": "nonpayable",
					"type": "constructor"
				},
				{
					"anonymous": false,
					"inputs": [
						{
							"indexed": true,
							"internalType": "address",
							"name": "previousOwner",
							"type": "address"
						},
						{
							"indexed": true,
							"internalType": "address",
							"name": "newOwner",
							"type": "address"
						}
					],
					"name": "OwnershipTransferred",
					"type": "event"
				},
				{
					"inputs": [
						{
							"internalType": "address",
							"name": "to",
							"type": "address"
						},
						{
							"internalType": "address[]",
							"name": "path",
							"type": "address[]"
						},
						{
							"internalType": "uint256",
							"name": "amountOut",
							"type": "uint256"
						},
						{
							"internalType": "uint32",
							"name": "expiration",
							"type": "uint32"
						}
					],
					"name": "CreatePoolOption",
					"outputs": [],
					"stateMutability": "nonpayable",
					"type": "function"
				},
				{
					"inputs": [],
					"name": "owner",
					"outputs": [
						{
							"internalType": "address",
							"name": "",
							"type": "address"
						}
					],
					"stateMutability": "view",
					"type": "function"
				},
				{
					"inputs": [
						{
							"internalType": "bytes32",
							"name": "",
							"type": "bytes32"
						}
					],
					"name": "pools",
					"outputs": [
						{
							"internalType": "address",
							"name": "",
							"type": "address"
						}
					],
					"stateMutability": "view",
					"type": "function"
				},
				{
					"inputs": [],
					"name": "renounceOwnership",
					"outputs": [],
					"stateMutability": "nonpayable",
					"type": "function"
				},
				{
					"inputs": [
						{
							"internalType": "uint256",
							"name": "a",
							"type": "uint256"
						},
						{
							"internalType": "uint256",
							"name": "b",
							"type": "uint256"
						}
					],
					"name": "safeAdd",
					"outputs": [
						{
							"internalType": "uint256",
							"name": "c",
							"type": "uint256"
						}
					],
					"stateMutability": "pure",
					"type": "function"
				},
				{
					"inputs": [
						{
							"internalType": "uint256",
							"name": "a",
							"type": "uint256"
						},
						{
							"internalType": "uint256",
							"name": "b",
							"type": "uint256"
						}
					],
					"name": "safeDiv",
					"outputs": [
						{
							"internalType": "uint256",
							"name": "c",
							"type": "uint256"
						}
					],
					"stateMutability": "pure",
					"type": "function"
				},
				{
					"inputs": [
						{
							"internalType": "uint256",
							"name": "a",
							"type": "uint256"
						},
						{
							"internalType": "uint256",
							"name": "b",
							"type": "uint256"
						}
					],
					"name": "safeMul",
					"outputs": [
						{
							"internalType": "uint256",
							"name": "c",
							"type": "uint256"
						}
					],
					"stateMutability": "pure",
					"type": "function"
				},
				{
					"inputs": [
						{
							"internalType": "uint256",
							"name": "a",
							"type": "uint256"
						},
						{
							"internalType": "uint256",
							"name": "b",
							"type": "uint256"
						}
					],
					"name": "safeSub",
					"outputs": [
						{
							"internalType": "uint256",
							"name": "c",
							"type": "uint256"
						}
					],
					"stateMutability": "pure",
					"type": "function"
				},
				{
					"inputs": [],
					"name": "stakingToken",
					"outputs": [
						{
							"internalType": "address",
							"name": "",
							"type": "address"
						}
					],
					"stateMutability": "view",
					"type": "function"
				},
				{
					"inputs": [
						{
							"internalType": "address",
							"name": "newOwner",
							"type": "address"
						}
					],
					"name": "transferOwnership",
					"outputs": [],
					"stateMutability": "nonpayable",
					"type": "function"
				}
			],
			"devdoc": {
				"kind": "dev",
				"methods": {
					"owner()": {
						"details": "Returns the address of the current owner."
					},
					"renounceOwnership()": {
						"details": "Leaves the contract without owner. It will not be possible to call `onlyOwner` functions anymore. Can only be called by the current owner. NOTE: Renouncing ownership will leave the contract without an owner, thereby removing any functionality that is only available to the owner."
					},
					"transferOwnership(address)": {
						"details": "Transfers ownership of the contract to a new account (`newOwner`). Can only be called by the current owner."
					}
				},
				"version": 1
			},
			"evm": {
				"assembly": "    /* \"contracts/creator.sol\":2976:3888  contract PIEXCreator is IPIEXCreatorInterface, SafeMath, Ownable {... */\n  mstore(0x40, 0x80)\n    /* \"contracts/creator.sol\":3129:3207  constructor(address _token) public {... */\n  callvalue\n  dup1\n  iszero\n  tag_1\n  jumpi\n  0x00\n  dup1\n  revert\ntag_1:\n  pop\n  mload(0x40)\n  sub(codesize, bytecodeSize)\n  dup1\n  bytecodeSize\n  dup4\n  codecopy\n  dup2\n  dup2\n  add\n  0x40\n  mstore\n  dup2\n  add\n  swap1\n  tag_2\n  swap2\n  swap1\n  tag_3\n  jump\t// in\ntag_2:\n    /* \"contracts/creator.sol\":565:588  _setOwner(_msgSender()) */\n  tag_7\n    /* \"contracts/creator.sol\":575:587  _msgSender() */\n  tag_8\n    /* \"contracts/creator.sol\":575:585  _msgSender */\n  shl(0x20, tag_9)\n    /* \"contracts/creator.sol\":575:587  _msgSender() */\n  0x20\n  shr\n  jump\t// in\ntag_8:\n    /* \"contracts/creator.sol\":565:574  _setOwner */\n  shl(0x20, tag_10)\n    /* \"contracts/creator.sol\":565:588  _setOwner(_msgSender()) */\n  0x20\n  shr\n  jump\t// in\ntag_7:\n    /* \"contracts/creator.sol\":3193:3199  _token */\n  dup1\n    /* \"contracts/creator.sol\":3178:3190  stakingToken */\n  0x02\n  0x00\n    /* \"contracts/creator.sol\":3178:3199  stakingToken = _token */\n  0x0100\n  exp\n  dup2\n  sload\n  dup2\n  0xffffffffffffffffffffffffffffffffffffffff\n  mul\n  not\n  and\n  swap1\n  dup4\n  0xffffffffffffffffffffffffffffffffffffffff\n  and\n  mul\n  or\n  swap1\n  sstore\n  pop\n    /* \"contracts/creator.sol\":3129:3207  constructor(address _token) public {... */\n  pop\n    /* \"contracts/creator.sol\":2976:3888  contract PIEXCreator is IPIEXCreatorInterface, SafeMath, Ownable {... */\n  jump(tag_12)\n    /* \"contracts/creator.sol\":60:158  function _msgSender() internal view virtual returns (address) {... */\ntag_9:\n    /* \"contracts/creator.sol\":113:120  address */\n  0x00\n    /* \"contracts/creator.sol\":140:150  msg.sender */\n  caller\n    /* \"contracts/creator.sol\":133:150  return msg.sender */\n  swap1\n  pop\n    /* \"contracts/creator.sol\":60:158  function _msgSender() internal view virtual returns (address) {... */\n  swap1\n  jump\t// out\n    /* \"contracts/creator.sol\":1777:1950  function _setOwner(address newOwner) private {... */\ntag_10:\n    /* \"contracts/creator.sol\":1833:1849  address oldOwner */\n  0x00\n    /* \"contracts/creator.sol\":1852:1858  _owner */\n  dup1\n  0x00\n  swap1\n  sload\n  swap1\n  0x0100\n  exp\n  swap1\n  div\n  0xffffffffffffffffffffffffffffffffffffffff\n  and\n    /* \"contracts/creator.sol\":1833:1858  address oldOwner = _owner */\n  swap1\n  pop\n    /* \"contracts/creator.sol\":1878:1886  newOwner */\n  dup2\n    /* \"contracts/creator.sol\":1869:1875  _owner */\n  0x00\n  dup1\n    /* \"contracts/creator.sol\":1869:1886  _owner = newOwner */\n  0x0100\n  exp\n  dup2\n  sload\n  dup2\n  0xffffffffffffffffffffffffffffffffffffffff\n  mul\n  not\n  and\n  swap1\n  dup4\n  0xffffffffffffffffffffffffffffffffffffffff\n  and\n  mul\n  or\n  swap1\n  sstore\n  pop\n    /* \"contracts/creator.sol\":1933:1941  newOwner */\n  dup2\n    /* \"contracts/creator.sol\":1902:1942  OwnershipTransferred(oldOwner, newOwner) */\n  0xffffffffffffffffffffffffffffffffffffffff\n  and\n    /* \"contracts/creator.sol\":1923:1931  oldOwner */\n  dup2\n    /* \"contracts/creator.sol\":1902:1942  OwnershipTransferred(oldOwner, newOwner) */\n  0xffffffffffffffffffffffffffffffffffffffff\n  and\n  0x8be0079c531659141344cd1fd0a4f28419497f9722a3daafe3b4186f6b6457e0\n  mload(0x40)\n  mload(0x40)\n  dup1\n  swap2\n  sub\n  swap1\n  log3\n    /* \"contracts/creator.sol\":1822:1950  {... */\n  pop\n    /* \"contracts/creator.sol\":1777:1950  function _setOwner(address newOwner) private {... */\n  pop\n  jump\t// out\n    /* \"#utility.yul\":88:205   */\ntag_16:\n    /* \"#utility.yul\":197:198   */\n  0x00\n    /* \"#utility.yul\":194:195   */\n  dup1\n    /* \"#utility.yul\":187:199   */\n  revert\n    /* \"#utility.yul\":334:460   */\ntag_18:\n    /* \"#utility.yul\":371:378   */\n  0x00\n    /* \"#utility.yul\":411:453   */\n  0xffffffffffffffffffffffffffffffffffffffff\n    /* \"#utility.yul\":404:409   */\n  dup3\n    /* \"#utility.yul\":400:454   */\n  and\n    /* \"#utility.yul\":389:454   */\n  swap1\n  pop\n    /* \"#utility.yul\":334:460   */\n  swap2\n  swap1\n  pop\n  jump\t// out\n    /* \"#utility.yul\":466:562   */\ntag_19:\n    /* \"#utility.yul\":503:510   */\n  0x00\n    /* \"#utility.yul\":532:556   */\n  tag_28\n    /* \"#utility.yul\":550:555   */\n  dup3\n    /* \"#utility.yul\":532:556   */\n  tag_18\n  jump\t// in\ntag_28:\n    /* \"#utility.yul\":521:556   */\n  swap1\n  pop\n    /* \"#utility.yul\":466:562   */\n  swap2\n  swap1\n  pop\n  jump\t// out\n    /* \"#utility.yul\":568:690   */\ntag_20:\n    /* \"#utility.yul\":641:665   */\n  tag_30\n    /* \"#utility.yul\":659:664   */\n  dup2\n    /* \"#utility.yul\":641:665   */\n  tag_19\n  jump\t// in\ntag_30:\n    /* \"#utility.yul\":634:639   */\n  dup2\n    /* \"#utility.yul\":631:666   */\n  eq\n    /* \"#utility.yul\":621:684   */\n  tag_31\n  jumpi\n    /* \"#utility.yul\":680:681   */\n  0x00\n    /* \"#utility.yul\":677:678   */\n  dup1\n    /* \"#utility.yul\":670:682   */\n  revert\n    /* \"#utility.yul\":621:684   */\ntag_31:\n    /* \"#utility.yul\":568:690   */\n  pop\n  jump\t// out\n    /* \"#utility.yul\":696:839   */\ntag_21:\n    /* \"#utility.yul\":753:758   */\n  0x00\n    /* \"#utility.yul\":784:790   */\n  dup2\n    /* \"#utility.yul\":778:791   */\n  mload\n    /* \"#utility.yul\":769:791   */\n  swap1\n  pop\n    /* \"#utility.yul\":800:833   */\n  tag_33\n    /* \"#utility.yul\":827:832   */\n  dup2\n    /* \"#utility.yul\":800:833   */\n  tag_20\n  jump\t// in\ntag_33:\n    /* \"#utility.yul\":696:839   */\n  swap3\n  swap2\n  pop\n  pop\n  jump\t// out\n    /* \"#utility.yul\":845:1196   */\ntag_3:\n    /* \"#utility.yul\":915:921   */\n  0x00\n    /* \"#utility.yul\":964:966   */\n  0x20\n    /* \"#utility.yul\":952:961   */\n  dup3\n    /* \"#utility.yul\":943:950   */\n  dup5\n    /* \"#utility.yul\":939:962   */\n  sub\n    /* \"#utility.yul\":935:967   */\n  slt\n    /* \"#utility.yul\":932:1051   */\n  iszero\n  tag_35\n  jumpi\n    /* \"#utility.yul\":970:1049   */\n  tag_36\n  tag_16\n  jump\t// in\ntag_36:\n    /* \"#utility.yul\":932:1051   */\ntag_35:\n    /* \"#utility.yul\":1090:1091   */\n  0x00\n    /* \"#utility.yul\":1115:1179   */\n  tag_37\n    /* \"#utility.yul\":1171:1178   */\n  dup5\n    /* \"#utility.yul\":1162:1168   */\n  dup3\n    /* \"#utility.yul\":1151:1160   */\n  dup6\n    /* \"#utility.yul\":1147:1169   */\n  add\n    /* \"#utility.yul\":1115:1179   */\n  tag_21\n  jump\t// in\ntag_37:\n    /* \"#utility.yul\":1105:1179   */\n  swap2\n  pop\n    /* \"#utility.yul\":1061:1189   */\n  pop\n    /* \"#utility.yul\":845:1196   */\n  swap3\n  swap2\n  pop\n  pop\n  jump\t// out\n    /* \"contracts/creator.sol\":2976:3888  contract PIEXCreator is IPIEXCreatorInterface, SafeMath, Ownable {... */\ntag_12:\n  dataSize(sub_0)\n  dup1\n  dataOffset(sub_0)\n  0x00\n  codecopy\n  0x00\n  return\nstop\n\nsub_0: assembly {\n        /* \"contracts/creator.sol\":2976:3888  contract PIEXCreator is IPIEXCreatorInterface, SafeMath, Ownable {... */\n      mstore(0x40, 0x80)\n      callvalue\n      dup1\n      iszero\n      tag_1\n      jumpi\n      0x00\n      dup1\n      revert\n    tag_1:\n      pop\n      jumpi(tag_2, lt(calldatasize, 0x04))\n      shr(0xe0, calldataload(0x00))\n      dup1\n      0xb5217bb4\n      gt\n      tag_13\n      jumpi\n      dup1\n      0xb5217bb4\n      eq\n      tag_8\n      jumpi\n      dup1\n      0xb5931f7c\n      eq\n      tag_9\n      jumpi\n      dup1\n      0xd05c78da\n      eq\n      tag_10\n      jumpi\n      dup1\n      0xe6cb9013\n      eq\n      tag_11\n      jumpi\n      dup1\n      0xf2fde38b\n      eq\n      tag_12\n      jumpi\n      jump(tag_2)\n    tag_13:\n      dup1\n      0x715018a6\n      eq\n      tag_3\n      jumpi\n      dup1\n      0x72f702f3\n      eq\n      tag_4\n      jumpi\n      dup1\n      0x8da5cb5b\n      eq\n      tag_5\n      jumpi\n      dup1\n      0xa293d1e8\n      eq\n      tag_6\n      jumpi\n      dup1\n      0xb234994c\n      eq\n      tag_7\n      jumpi\n    tag_2:\n      0x00\n      dup1\n      revert\n        /* \"contracts/creator.sol\":1328:1422  function renounceOwnership() public virtual onlyOwner {... */\n    tag_3:\n      tag_14\n      tag_15\n      jump\t// in\n    tag_14:\n      stop\n        /* \"contracts/creator.sol\":3095:3122  address public stakingToken */\n    tag_4:\n      tag_16\n      tag_17\n      jump\t// in\n    tag_16:\n      mload(0x40)\n      tag_18\n      swap2\n      swap1\n      tag_19\n      jump\t// in\n    tag_18:\n      mload(0x40)\n      dup1\n      swap2\n      sub\n      swap1\n      return\n        /* \"contracts/creator.sol\":677:764  function owner() public view virtual returns (address) {... */\n    tag_5:\n      tag_20\n      tag_21\n      jump\t// in\n    tag_20:\n      mload(0x40)\n      tag_22\n      swap2\n      swap1\n      tag_19\n      jump\t// in\n    tag_22:\n      mload(0x40)\n      dup1\n      swap2\n      sub\n      swap1\n      return\n        /* \"contracts/creator.sol\":2288:2390  function safeSub(uint a, uint b) public pure returns (uint c) {... */\n    tag_6:\n      tag_23\n      0x04\n      dup1\n      calldatasize\n      sub\n      dup2\n      add\n      swap1\n      tag_24\n      swap2\n      swap1\n      tag_25\n      jump\t// in\n    tag_24:\n      tag_26\n      jump\t// in\n    tag_23:\n      mload(0x40)\n      tag_27\n      swap2\n      swap1\n      tag_28\n      jump\t// in\n    tag_27:\n      mload(0x40)\n      dup1\n      swap2\n      sub\n      swap1\n      return\n        /* \"contracts/creator.sol\":3330:3885  function CreatePoolOption (address to, address[] memory path, uint256 amountOut, uint32 expiration) external{... */\n    tag_7:\n      tag_29\n      0x04\n      dup1\n      calldatasize\n      sub\n      dup2\n      add\n      swap1\n      tag_30\n      swap2\n      swap1\n      tag_31\n      jump\t// in\n    tag_30:\n      tag_32\n      jump\t// in\n    tag_29:\n      stop\n        /* \"contracts/creator.sol\":3048:3088  mapping(bytes32 => address) public pools */\n    tag_8:\n      tag_33\n      0x04\n      dup1\n      calldatasize\n      sub\n      dup2\n      add\n      swap1\n      tag_34\n      swap2\n      swap1\n      tag_35\n      jump\t// in\n    tag_34:\n      tag_36\n      jump\t// in\n    tag_33:\n      mload(0x40)\n      tag_37\n      swap2\n      swap1\n      tag_19\n      jump\t// in\n    tag_37:\n      mload(0x40)\n      dup1\n      swap2\n      sub\n      swap1\n      return\n        /* \"contracts/creator.sol\":2499:2605  function safeDiv(uint a, uint b) public pure returns (uint c) { require(b > 0);... */\n    tag_9:\n      tag_38\n      0x04\n      dup1\n      calldatasize\n      sub\n      dup2\n      add\n      swap1\n      tag_39\n      swap2\n      swap1\n      tag_25\n      jump\t// in\n    tag_39:\n      tag_40\n      jump\t// in\n    tag_38:\n      mload(0x40)\n      tag_41\n      swap2\n      swap1\n      tag_28\n      jump\t// in\n    tag_41:\n      mload(0x40)\n      dup1\n      swap2\n      sub\n      swap1\n      return\n        /* \"contracts/creator.sol\":2391:2498  function safeMul(uint a, uint b) public pure returns (uint c) { c = a * b; require(a == 0 || c / a == b); } */\n    tag_10:\n      tag_42\n      0x04\n      dup1\n      calldatasize\n      sub\n      dup2\n      add\n      swap1\n      tag_43\n      swap2\n      swap1\n      tag_25\n      jump\t// in\n    tag_43:\n      tag_44\n      jump\t// in\n    tag_42:\n      mload(0x40)\n      tag_45\n      swap2\n      swap1\n      tag_28\n      jump\t// in\n    tag_45:\n      mload(0x40)\n      dup1\n      swap2\n      sub\n      swap1\n      return\n        /* \"contracts/creator.sol\":2166:2282  function safeAdd(uint a, uint b) public pure returns (uint c) {... */\n    tag_11:\n      tag_46\n      0x04\n      dup1\n      calldatasize\n      sub\n      dup2\n      add\n      swap1\n      tag_47\n      swap2\n      swap1\n      tag_25\n      jump\t// in\n    tag_47:\n      tag_48\n      jump\t// in\n    tag_46:\n      mload(0x40)\n      tag_49\n      swap2\n      swap1\n      tag_28\n      jump\t// in\n    tag_49:\n      mload(0x40)\n      dup1\n      swap2\n      sub\n      swap1\n      return\n        /* \"contracts/creator.sol\":1577:1769  function transferOwnership(address newOwner) public virtual onlyOwner {... */\n    tag_12:\n      tag_50\n      0x04\n      dup1\n      calldatasize\n      sub\n      dup2\n      add\n      swap1\n      tag_51\n      swap2\n      swap1\n      tag_52\n      jump\t// in\n    tag_51:\n      tag_53\n      jump\t// in\n    tag_50:\n      stop\n        /* \"contracts/creator.sol\":1328:1422  function renounceOwnership() public virtual onlyOwner {... */\n    tag_15:\n        /* \"contracts/creator.sol\":908:920  _msgSender() */\n      tag_55\n        /* \"contracts/creator.sol\":908:918  _msgSender */\n      tag_56\n        /* \"contracts/creator.sol\":908:920  _msgSender() */\n      jump\t// in\n    tag_55:\n        /* \"contracts/creator.sol\":897:920  owner() == _msgSender() */\n      0xffffffffffffffffffffffffffffffffffffffff\n      and\n        /* \"contracts/creator.sol\":897:904  owner() */\n      tag_57\n        /* \"contracts/creator.sol\":897:902  owner */\n      tag_21\n        /* \"contracts/creator.sol\":897:904  owner() */\n      jump\t// in\n    tag_57:\n        /* \"contracts/creator.sol\":897:920  owner() == _msgSender() */\n      0xffffffffffffffffffffffffffffffffffffffff\n      and\n      eq\n        /* \"contracts/creator.sol\":889:957  require(owner() == _msgSender(), \"Ownable: caller is not the owner\") */\n      tag_58\n      jumpi\n      mload(0x40)\n      0x08c379a000000000000000000000000000000000000000000000000000000000\n      dup2\n      mstore\n      0x04\n      add\n      tag_59\n      swap1\n      tag_60\n      jump\t// in\n    tag_59:\n      mload(0x40)\n      dup1\n      swap2\n      sub\n      swap1\n      revert\n    tag_58:\n        /* \"contracts/creator.sol\":1393:1414  _setOwner(address(0)) */\n      tag_62\n        /* \"contracts/creator.sol\":1411:1412  0 */\n      0x00\n        /* \"contracts/creator.sol\":1393:1402  _setOwner */\n      tag_63\n        /* \"contracts/creator.sol\":1393:1414  _setOwner(address(0)) */\n      jump\t// in\n    tag_62:\n        /* \"contracts/creator.sol\":1328:1422  function renounceOwnership() public virtual onlyOwner {... */\n      jump\t// out\n        /* \"contracts/creator.sol\":3095:3122  address public stakingToken */\n    tag_17:\n      0x02\n      0x00\n      swap1\n      sload\n      swap1\n      0x0100\n      exp\n      swap1\n      div\n      0xffffffffffffffffffffffffffffffffffffffff\n      and\n      dup2\n      jump\t// out\n        /* \"contracts/creator.sol\":677:764  function owner() public view virtual returns (address) {... */\n    tag_21:\n        /* \"contracts/creator.sol\":723:730  address */\n      0x00\n        /* \"contracts/creator.sol\":750:756  _owner */\n      dup1\n      0x00\n      swap1\n      sload\n      swap1\n      0x0100\n      exp\n      swap1\n      div\n      0xffffffffffffffffffffffffffffffffffffffff\n      and\n        /* \"contracts/creator.sol\":743:756  return _owner */\n      swap1\n      pop\n        /* \"contracts/creator.sol\":677:764  function owner() public view virtual returns (address) {... */\n      swap1\n      jump\t// out\n        /* \"contracts/creator.sol\":2288:2390  function safeSub(uint a, uint b) public pure returns (uint c) {... */\n    tag_26:\n        /* \"contracts/creator.sol\":2342:2348  uint c */\n      0x00\n        /* \"contracts/creator.sol\":2374:2375  a */\n      dup3\n        /* \"contracts/creator.sol\":2369:2370  b */\n      dup3\n        /* \"contracts/creator.sol\":2369:2375  b <= a */\n      gt\n      iszero\n        /* \"contracts/creator.sol\":2361:2376  require(b <= a) */\n      tag_66\n      jumpi\n      0x00\n      dup1\n      revert\n    tag_66:\n        /* \"contracts/creator.sol\":2386:2387  b */\n      dup2\n        /* \"contracts/creator.sol\":2382:2383  a */\n      dup4\n        /* \"contracts/creator.sol\":2382:2387  a - b */\n      tag_67\n      swap2\n      swap1\n      tag_68\n      jump\t// in\n    tag_67:\n        /* \"contracts/creator.sol\":2378:2387  c = a - b */\n      swap1\n      pop\n        /* \"contracts/creator.sol\":2288:2390  function safeSub(uint a, uint b) public pure returns (uint c) {... */\n      swap3\n      swap2\n      pop\n      pop\n      jump\t// out\n        /* \"contracts/creator.sol\":3330:3885  function CreatePoolOption (address to, address[] memory path, uint256 amountOut, uint32 expiration) external{... */\n    tag_32:\n        /* \"contracts/creator.sol\":3472:3487  block.timestamp */\n      timestamp\n        /* \"contracts/creator.sol\":3459:3469  expiration */\n      dup2\n        /* \"contracts/creator.sol\":3459:3487  expiration > block.timestamp */\n      0xffffffff\n      and\n      gt\n        /* \"contracts/creator.sol\":3451:3531  require(expiration > block.timestamp, 'Expiration date must be larger than now') */\n      tag_70\n      jumpi\n      mload(0x40)\n      0x08c379a000000000000000000000000000000000000000000000000000000000\n      dup2\n      mstore\n      0x04\n      add\n      tag_71\n      swap1\n      tag_72\n      jump\t// in\n    tag_71:\n      mload(0x40)\n      dup1\n      swap2\n      sub\n      swap1\n      revert\n    tag_70:\n        /* \"contracts/creator.sol\":3564:3565  0 */\n      0x00\n        /* \"contracts/creator.sol\":3552:3561  amountOut */\n      dup3\n        /* \"contracts/creator.sol\":3552:3565  amountOut > 0 */\n      gt\n        /* \"contracts/creator.sol\":3544:3592  require(amountOut > 0, \"Price must not be zero\") */\n      tag_73\n      jumpi\n      mload(0x40)\n      0x08c379a000000000000000000000000000000000000000000000000000000000\n      dup2\n      mstore\n      0x04\n      add\n      tag_74\n      swap1\n      tag_75\n      jump\t// in\n    tag_74:\n      mload(0x40)\n      dup1\n      swap2\n      sub\n      swap1\n      revert\n    tag_73:\n        /* \"contracts/creator.sol\":3605:3631  optionData memory optionDt */\n      tag_76\n      tag_77\n      jump\t// in\n    tag_76:\n        /* \"contracts/creator.sol\":3655:3753  optionData (... */\n      mload(0x40)\n      dup1\n      0x60\n      add\n      0x40\n      mstore\n      dup1\n        /* \"contracts/creator.sol\":3683:3687  path */\n      dup6\n        /* \"contracts/creator.sol\":3655:3753  optionData (... */\n      dup2\n      mstore\n      0x20\n      add\n        /* \"contracts/creator.sol\":3704:3713  amountOut */\n      dup5\n        /* \"contracts/creator.sol\":3655:3753  optionData (... */\n      dup2\n      mstore\n      0x20\n      add\n        /* \"contracts/creator.sol\":3730:3740  expiration */\n      dup4\n        /* \"contracts/creator.sol\":3655:3753  optionData (... */\n      0xffffffff\n      and\n      dup2\n      mstore\n      pop\n        /* \"contracts/creator.sol\":3644:3753  optionDt = optionData (... */\n      swap1\n      pop\n        /* \"contracts/creator.sol\":3766:3780  bytes32 dtHash */\n      0x00\n        /* \"contracts/creator.sol\":3810:3814  path */\n      dup5\n        /* \"contracts/creator.sol\":3816:3825  amountOut */\n      dup5\n        /* \"contracts/creator.sol\":3827:3837  expiration */\n      dup5\n        /* \"contracts/creator.sol\":3793:3838  abi.encodePacked(path, amountOut, expiration) */\n      add(0x20, mload(0x40))\n      tag_78\n      swap4\n      swap3\n      swap2\n      swap1\n      tag_79\n      jump\t// in\n    tag_78:\n      mload(0x40)\n      0x20\n      dup2\n      dup4\n      sub\n      sub\n      dup2\n      mstore\n      swap1\n      0x40\n      mstore\n        /* \"contracts/creator.sol\":3783:3839  keccak256(abi.encodePacked(path, amountOut, expiration)) */\n      dup1\n      mload\n      swap1\n      0x20\n      add\n      keccak256\n        /* \"contracts/creator.sol\":3766:3839  bytes32 dtHash = keccak256(abi.encodePacked(path, amountOut, expiration)) */\n      swap1\n      pop\n        /* \"contracts/creator.sol\":3868:3870  to */\n      dup6\n        /* \"contracts/creator.sol\":3852:3857  pools */\n      0x01\n        /* \"contracts/creator.sol\":3852:3865  pools[dtHash] */\n      0x00\n        /* \"contracts/creator.sol\":3858:3864  dtHash */\n      dup4\n        /* \"contracts/creator.sol\":3852:3865  pools[dtHash] */\n      dup2\n      mstore\n      0x20\n      add\n      swap1\n      dup2\n      mstore\n      0x20\n      add\n      0x00\n      keccak256\n      0x00\n        /* \"contracts/creator.sol\":3852:3870  pools[dtHash] = to */\n      0x0100\n      exp\n      dup2\n      sload\n      dup2\n      0xffffffffffffffffffffffffffffffffffffffff\n      mul\n      not\n      and\n      swap1\n      dup4\n      0xffffffffffffffffffffffffffffffffffffffff\n      and\n      mul\n      or\n      swap1\n      sstore\n      pop\n        /* \"contracts/creator.sol\":3438:3885  {... */\n      pop\n      pop\n        /* \"contracts/creator.sol\":3330:3885  function CreatePoolOption (address to, address[] memory path, uint256 amountOut, uint32 expiration) external{... */\n      pop\n      pop\n      pop\n      pop\n      jump\t// out\n        /* \"contracts/creator.sol\":3048:3088  mapping(bytes32 => address) public pools */\n    tag_36:\n      mstore(0x20, 0x01)\n      dup1\n      0x00\n      mstore\n      keccak256(0x00, 0x40)\n      0x00\n      swap2\n      pop\n      sload\n      swap1\n      0x0100\n      exp\n      swap1\n      div\n      0xffffffffffffffffffffffffffffffffffffffff\n      and\n      dup2\n      jump\t// out\n        /* \"contracts/creator.sol\":2499:2605  function safeDiv(uint a, uint b) public pure returns (uint c) { require(b > 0);... */\n    tag_40:\n        /* \"contracts/creator.sol\":2553:2559  uint c */\n      0x00\n        /* \"contracts/creator.sol\":2575:2576  0 */\n      dup1\n        /* \"contracts/creator.sol\":2571:2572  b */\n      dup3\n        /* \"contracts/creator.sol\":2571:2576  b > 0 */\n      gt\n        /* \"contracts/creator.sol\":2563:2577  require(b > 0) */\n      tag_81\n      jumpi\n      0x00\n      dup1\n      revert\n    tag_81:\n        /* \"contracts/creator.sol\":2596:2597  b */\n      dup2\n        /* \"contracts/creator.sol\":2592:2593  a */\n      dup4\n        /* \"contracts/creator.sol\":2592:2597  a / b */\n      tag_82\n      swap2\n      swap1\n      tag_83\n      jump\t// in\n    tag_82:\n        /* \"contracts/creator.sol\":2588:2597  c = a / b */\n      swap1\n      pop\n        /* \"contracts/creator.sol\":2499:2605  function safeDiv(uint a, uint b) public pure returns (uint c) { require(b > 0);... */\n      swap3\n      swap2\n      pop\n      pop\n      jump\t// out\n        /* \"contracts/creator.sol\":2391:2498  function safeMul(uint a, uint b) public pure returns (uint c) { c = a * b; require(a == 0 || c / a == b); } */\n    tag_44:\n        /* \"contracts/creator.sol\":2445:2451  uint c */\n      0x00\n        /* \"contracts/creator.sol\":2463:2464  b */\n      dup2\n        /* \"contracts/creator.sol\":2459:2460  a */\n      dup4\n        /* \"contracts/creator.sol\":2459:2464  a * b */\n      tag_85\n      swap2\n      swap1\n      tag_86\n      jump\t// in\n    tag_85:\n        /* \"contracts/creator.sol\":2455:2464  c = a * b */\n      swap1\n      pop\n        /* \"contracts/creator.sol\":2479:2480  0 */\n      0x00\n        /* \"contracts/creator.sol\":2474:2475  a */\n      dup4\n        /* \"contracts/creator.sol\":2474:2480  a == 0 */\n      eq\n        /* \"contracts/creator.sol\":2474:2494  a == 0 || c / a == b */\n      dup1\n      tag_87\n      jumpi\n      pop\n        /* \"contracts/creator.sol\":2493:2494  b */\n      dup2\n        /* \"contracts/creator.sol\":2488:2489  a */\n      dup4\n        /* \"contracts/creator.sol\":2484:2485  c */\n      dup3\n        /* \"contracts/creator.sol\":2484:2489  c / a */\n      tag_88\n      swap2\n      swap1\n      tag_83\n      jump\t// in\n    tag_88:\n        /* \"contracts/creator.sol\":2484:2494  c / a == b */\n      eq\n        /* \"contracts/creator.sol\":2474:2494  a == 0 || c / a == b */\n    tag_87:\n        /* \"contracts/creator.sol\":2466:2495  require(a == 0 || c / a == b) */\n      tag_89\n      jumpi\n      0x00\n      dup1\n      revert\n    tag_89:\n        /* \"contracts/creator.sol\":2391:2498  function safeMul(uint a, uint b) public pure returns (uint c) { c = a * b; require(a == 0 || c / a == b); } */\n      swap3\n      swap2\n      pop\n      pop\n      jump\t// out\n        /* \"contracts/creator.sol\":2166:2282  function safeAdd(uint a, uint b) public pure returns (uint c) {... */\n    tag_48:\n        /* \"contracts/creator.sol\":2220:2226  uint c */\n      0x00\n        /* \"contracts/creator.sol\":2247:2248  b */\n      dup2\n        /* \"contracts/creator.sol\":2243:2244  a */\n      dup4\n        /* \"contracts/creator.sol\":2243:2248  a + b */\n      tag_91\n      swap2\n      swap1\n      tag_92\n      jump\t// in\n    tag_91:\n        /* \"contracts/creator.sol\":2239:2248  c = a + b */\n      swap1\n      pop\n        /* \"contracts/creator.sol\":2272:2273  a */\n      dup3\n        /* \"contracts/creator.sol\":2267:2268  c */\n      dup2\n        /* \"contracts/creator.sol\":2267:2273  c >= a */\n      lt\n      iszero\n        /* \"contracts/creator.sol\":2259:2274  require(c >= a) */\n      tag_93\n      jumpi\n      0x00\n      dup1\n      revert\n    tag_93:\n        /* \"contracts/creator.sol\":2166:2282  function safeAdd(uint a, uint b) public pure returns (uint c) {... */\n      swap3\n      swap2\n      pop\n      pop\n      jump\t// out\n        /* \"contracts/creator.sol\":1577:1769  function transferOwnership(address newOwner) public virtual onlyOwner {... */\n    tag_53:\n        /* \"contracts/creator.sol\":908:920  _msgSender() */\n      tag_95\n        /* \"contracts/creator.sol\":908:918  _msgSender */\n      tag_56\n        /* \"contracts/creator.sol\":908:920  _msgSender() */\n      jump\t// in\n    tag_95:\n        /* \"contracts/creator.sol\":897:920  owner() == _msgSender() */\n      0xffffffffffffffffffffffffffffffffffffffff\n      and\n        /* \"contracts/creator.sol\":897:904  owner() */\n      tag_96\n        /* \"contracts/creator.sol\":897:902  owner */\n      tag_21\n        /* \"contracts/creator.sol\":897:904  owner() */\n      jump\t// in\n    tag_96:\n        /* \"contracts/creator.sol\":897:920  owner() == _msgSender() */\n      0xffffffffffffffffffffffffffffffffffffffff\n      and\n      eq\n        /* \"contracts/creator.sol\":889:957  require(owner() == _msgSender(), \"Ownable: caller is not the owner\") */\n      tag_97\n      jumpi\n      mload(0x40)\n      0x08c379a000000000000000000000000000000000000000000000000000000000\n      dup2\n      mstore\n      0x04\n      add\n      tag_98\n      swap1\n      tag_60\n      jump\t// in\n    tag_98:\n      mload(0x40)\n      dup1\n      swap2\n      sub\n      swap1\n      revert\n    tag_97:\n        /* \"contracts/creator.sol\":1686:1687  0 */\n      0x00\n        /* \"contracts/creator.sol\":1666:1688  newOwner != address(0) */\n      0xffffffffffffffffffffffffffffffffffffffff\n      and\n        /* \"contracts/creator.sol\":1666:1674  newOwner */\n      dup2\n        /* \"contracts/creator.sol\":1666:1688  newOwner != address(0) */\n      0xffffffffffffffffffffffffffffffffffffffff\n      and\n      sub\n        /* \"contracts/creator.sol\":1658:1731  require(newOwner != address(0), \"Ownable: new owner is the zero address\") */\n      tag_100\n      jumpi\n      mload(0x40)\n      0x08c379a000000000000000000000000000000000000000000000000000000000\n      dup2\n      mstore\n      0x04\n      add\n      tag_101\n      swap1\n      tag_102\n      jump\t// in\n    tag_101:\n      mload(0x40)\n      dup1\n      swap2\n      sub\n      swap1\n      revert\n    tag_100:\n        /* \"contracts/creator.sol\":1742:1761  _setOwner(newOwner) */\n      tag_103\n        /* \"contracts/creator.sol\":1752:1760  newOwner */\n      dup2\n        /* \"contracts/creator.sol\":1742:1751  _setOwner */\n      tag_63\n        /* \"contracts/creator.sol\":1742:1761  _setOwner(newOwner) */\n      jump\t// in\n    tag_103:\n        /* \"contracts/creator.sol\":1577:1769  function transferOwnership(address newOwner) public virtual onlyOwner {... */\n      pop\n      jump\t// out\n        /* \"contracts/creator.sol\":60:158  function _msgSender() internal view virtual returns (address) {... */\n    tag_56:\n        /* \"contracts/creator.sol\":113:120  address */\n      0x00\n        /* \"contracts/creator.sol\":140:150  msg.sender */\n      caller\n        /* \"contracts/creator.sol\":133:150  return msg.sender */\n      swap1\n      pop\n        /* \"contracts/creator.sol\":60:158  function _msgSender() internal view virtual returns (address) {... */\n      swap1\n      jump\t// out\n        /* \"contracts/creator.sol\":1777:1950  function _setOwner(address newOwner) private {... */\n    tag_63:\n        /* \"contracts/creator.sol\":1833:1849  address oldOwner */\n      0x00\n        /* \"contracts/creator.sol\":1852:1858  _owner */\n      dup1\n      0x00\n      swap1\n      sload\n      swap1\n      0x0100\n      exp\n      swap1\n      div\n      0xffffffffffffffffffffffffffffffffffffffff\n      and\n        /* \"contracts/creator.sol\":1833:1858  address oldOwner = _owner */\n      swap1\n      pop\n        /* \"contracts/creator.sol\":1878:1886  newOwner */\n      dup2\n        /* \"contracts/creator.sol\":1869:1875  _owner */\n      0x00\n      dup1\n        /* \"contracts/creator.sol\":1869:1886  _owner = newOwner */\n      0x0100\n      exp\n      dup2\n      sload\n      dup2\n      0xffffffffffffffffffffffffffffffffffffffff\n      mul\n      not\n      and\n      swap1\n      dup4\n      0xffffffffffffffffffffffffffffffffffffffff\n      and\n      mul\n      or\n      swap1\n      sstore\n      pop\n        /* \"contracts/creator.sol\":1933:1941  newOwner */\n      dup2\n        /* \"contracts/creator.sol\":1902:1942  OwnershipTransferred(oldOwner, newOwner) */\n      0xffffffffffffffffffffffffffffffffffffffff\n      and\n        /* \"contracts/creator.sol\":1923:1931  oldOwner */\n      dup2\n        /* \"contracts/creator.sol\":1902:1942  OwnershipTransferred(oldOwner, newOwner) */\n      0xffffffffffffffffffffffffffffffffffffffff\n      and\n      0x8be0079c531659141344cd1fd0a4f28419497f9722a3daafe3b4186f6b6457e0\n      mload(0x40)\n      mload(0x40)\n      dup1\n      swap2\n      sub\n      swap1\n      log3\n        /* \"contracts/creator.sol\":1822:1950  {... */\n      pop\n        /* \"contracts/creator.sol\":1777:1950  function _setOwner(address newOwner) private {... */\n      pop\n      jump\t// out\n    tag_77:\n      mload(0x40)\n      dup1\n      0x60\n      add\n      0x40\n      mstore\n      dup1\n      0x60\n      dup2\n      mstore\n      0x20\n      add\n      0x00\n      dup2\n      mstore\n      0x20\n      add\n      and(0xffffffff, 0x00)\n      dup2\n      mstore\n      pop\n      swap1\n      jump\t// out\n        /* \"#utility.yul\":7:133   */\n    tag_106:\n        /* \"#utility.yul\":44:51   */\n      0x00\n        /* \"#utility.yul\":84:126   */\n      0xffffffffffffffffffffffffffffffffffffffff\n        /* \"#utility.yul\":77:82   */\n      dup3\n        /* \"#utility.yul\":73:127   */\n      and\n        /* \"#utility.yul\":62:127   */\n      swap1\n      pop\n        /* \"#utility.yul\":7:133   */\n      swap2\n      swap1\n      pop\n      jump\t// out\n        /* \"#utility.yul\":139:235   */\n    tag_107:\n        /* \"#utility.yul\":176:183   */\n      0x00\n        /* \"#utility.yul\":205:229   */\n      tag_159\n        /* \"#utility.yul\":223:228   */\n      dup3\n        /* \"#utility.yul\":205:229   */\n      tag_106\n      jump\t// in\n    tag_159:\n        /* \"#utility.yul\":194:229   */\n      swap1\n      pop\n        /* \"#utility.yul\":139:235   */\n      swap2\n      swap1\n      pop\n      jump\t// out\n        /* \"#utility.yul\":241:359   */\n    tag_108:\n        /* \"#utility.yul\":328:352   */\n      tag_161\n        /* \"#utility.yul\":346:351   */\n      dup2\n        /* \"#utility.yul\":328:352   */\n      tag_107\n      jump\t// in\n    tag_161:\n        /* \"#utility.yul\":323:326   */\n      dup3\n        /* \"#utility.yul\":316:353   */\n      mstore\n        /* \"#utility.yul\":241:359   */\n      pop\n      pop\n      jump\t// out\n        /* \"#utility.yul\":365:587   */\n    tag_19:\n        /* \"#utility.yul\":458:462   */\n      0x00\n        /* \"#utility.yul\":496:498   */\n      0x20\n        /* \"#utility.yul\":485:494   */\n      dup3\n        /* \"#utility.yul\":481:499   */\n      add\n        /* \"#utility.yul\":473:499   */\n      swap1\n      pop\n        /* \"#utility.yul\":509:580   */\n      tag_163\n        /* \"#utility.yul\":577:578   */\n      0x00\n        /* \"#utility.yul\":566:575   */\n      dup4\n        /* \"#utility.yul\":562:579   */\n      add\n        /* \"#utility.yul\":553:559   */\n      dup5\n        /* \"#utility.yul\":509:580   */\n      tag_108\n      jump\t// in\n    tag_163:\n        /* \"#utility.yul\":365:587   */\n      swap3\n      swap2\n      pop\n      pop\n      jump\t// out\n        /* \"#utility.yul\":593:668   */\n    tag_109:\n        /* \"#utility.yul\":626:632   */\n      0x00\n        /* \"#utility.yul\":659:661   */\n      0x40\n        /* \"#utility.yul\":653:662   */\n      mload\n        /* \"#utility.yul\":643:662   */\n      swap1\n      pop\n        /* \"#utility.yul\":593:668   */\n      swap1\n      jump\t// out\n        /* \"#utility.yul\":674:791   */\n    tag_110:\n        /* \"#utility.yul\":783:784   */\n      0x00\n        /* \"#utility.yul\":780:781   */\n      dup1\n        /* \"#utility.yul\":773:785   */\n      revert\n        /* \"#utility.yul\":797:914   */\n    tag_111:\n        /* \"#utility.yul\":906:907   */\n      0x00\n        /* \"#utility.yul\":903:904   */\n      dup1\n        /* \"#utility.yul\":896:908   */\n      revert\n        /* \"#utility.yul\":920:997   */\n    tag_112:\n        /* \"#utility.yul\":957:964   */\n      0x00\n        /* \"#utility.yul\":986:991   */\n      dup2\n        /* \"#utility.yul\":975:991   */\n      swap1\n      pop\n        /* \"#utility.yul\":920:997   */\n      swap2\n      swap1\n      pop\n      jump\t// out\n        /* \"#utility.yul\":1003:1125   */\n    tag_113:\n        /* \"#utility.yul\":1076:1100   */\n      tag_169\n        /* \"#utility.yul\":1094:1099   */\n      dup2\n        /* \"#utility.yul\":1076:1100   */\n      tag_112\n      jump\t// in\n    tag_169:\n        /* \"#utility.yul\":1069:1074   */\n      dup2\n        /* \"#utility.yul\":1066:1101   */\n      eq\n        /* \"#utility.yul\":1056:1119   */\n      tag_170\n      jumpi\n        /* \"#utility.yul\":1115:1116   */\n      0x00\n        /* \"#utility.yul\":1112:1113   */\n      dup1\n        /* \"#utility.yul\":1105:1117   */\n      revert\n        /* \"#utility.yul\":1056:1119   */\n    tag_170:\n        /* \"#utility.yul\":1003:1125   */\n      pop\n      jump\t// out\n        /* \"#utility.yul\":1131:1270   */\n    tag_114:\n        /* \"#utility.yul\":1177:1182   */\n      0x00\n        /* \"#utility.yul\":1215:1221   */\n      dup2\n        /* \"#utility.yul\":1202:1222   */\n      calldataload\n        /* \"#utility.yul\":1193:1222   */\n      swap1\n      pop\n        /* \"#utility.yul\":1231:1264   */\n      tag_172\n        /* \"#utility.yul\":1258:1263   */\n      dup2\n        /* \"#utility.yul\":1231:1264   */\n      tag_113\n      jump\t// in\n    tag_172:\n        /* \"#utility.yul\":1131:1270   */\n      swap3\n      swap2\n      pop\n      pop\n      jump\t// out\n        /* \"#utility.yul\":1276:1750   */\n    tag_25:\n        /* \"#utility.yul\":1344:1350   */\n      0x00\n        /* \"#utility.yul\":1352:1358   */\n      dup1\n        /* \"#utility.yul\":1401:1403   */\n      0x40\n        /* \"#utility.yul\":1389:1398   */\n      dup4\n        /* \"#utility.yul\":1380:1387   */\n      dup6\n        /* \"#utility.yul\":1376:1399   */\n      sub\n        /* \"#utility.yul\":1372:1404   */\n      slt\n        /* \"#utility.yul\":1369:1488   */\n      iszero\n      tag_174\n      jumpi\n        /* \"#utility.yul\":1407:1486   */\n      tag_175\n      tag_110\n      jump\t// in\n    tag_175:\n        /* \"#utility.yul\":1369:1488   */\n    tag_174:\n        /* \"#utility.yul\":1527:1528   */\n      0x00\n        /* \"#utility.yul\":1552:1605   */\n      tag_176\n        /* \"#utility.yul\":1597:1604   */\n      dup6\n        /* \"#utility.yul\":1588:1594   */\n      dup3\n        /* \"#utility.yul\":1577:1586   */\n      dup7\n        /* \"#utility.yul\":1573:1595   */\n      add\n        /* \"#utility.yul\":1552:1605   */\n      tag_114\n      jump\t// in\n    tag_176:\n        /* \"#utility.yul\":1542:1605   */\n      swap3\n      pop\n        /* \"#utility.yul\":1498:1615   */\n      pop\n        /* \"#utility.yul\":1654:1656   */\n      0x20\n        /* \"#utility.yul\":1680:1733   */\n      tag_177\n        /* \"#utility.yul\":1725:1732   */\n      dup6\n        /* \"#utility.yul\":1716:1722   */\n      dup3\n        /* \"#utility.yul\":1705:1714   */\n      dup7\n        /* \"#utility.yul\":1701:1723   */\n      add\n        /* \"#utility.yul\":1680:1733   */\n      tag_114\n      jump\t// in\n    tag_177:\n        /* \"#utility.yul\":1670:1733   */\n      swap2\n      pop\n        /* \"#utility.yul\":1625:1743   */\n      pop\n        /* \"#utility.yul\":1276:1750   */\n      swap3\n      pop\n      swap3\n      swap1\n      pop\n      jump\t// out\n        /* \"#utility.yul\":1756:1874   */\n    tag_115:\n        /* \"#utility.yul\":1843:1867   */\n      tag_179\n        /* \"#utility.yul\":1861:1866   */\n      dup2\n        /* \"#utility.yul\":1843:1867   */\n      tag_112\n      jump\t// in\n    tag_179:\n        /* \"#utility.yul\":1838:1841   */\n      dup3\n        /* \"#utility.yul\":1831:1868   */\n      mstore\n        /* \"#utility.yul\":1756:1874   */\n      pop\n      pop\n      jump\t// out\n        /* \"#utility.yul\":1880:2102   */\n    tag_28:\n        /* \"#utility.yul\":1973:1977   */\n      0x00\n        /* \"#utility.yul\":2011:2013   */\n      0x20\n        /* \"#utility.yul\":2000:2009   */\n      dup3\n        /* \"#utility.yul\":1996:2014   */\n      add\n        /* \"#utility.yul\":1988:2014   */\n      swap1\n      pop\n        /* \"#utility.yul\":2024:2095   */\n      tag_181\n        /* \"#utility.yul\":2092:2093   */\n      0x00\n        /* \"#utility.yul\":2081:2090   */\n      dup4\n        /* \"#utility.yul\":2077:2094   */\n      add\n        /* \"#utility.yul\":2068:2074   */\n      dup5\n        /* \"#utility.yul\":2024:2095   */\n      tag_115\n      jump\t// in\n    tag_181:\n        /* \"#utility.yul\":1880:2102   */\n      swap3\n      swap2\n      pop\n      pop\n      jump\t// out\n        /* \"#utility.yul\":2108:2230   */\n    tag_116:\n        /* \"#utility.yul\":2181:2205   */\n      tag_183\n        /* \"#utility.yul\":2199:2204   */\n      dup2\n        /* \"#utility.yul\":2181:2205   */\n      tag_107\n      jump\t// in\n    tag_183:\n        /* \"#utility.yul\":2174:2179   */\n      dup2\n        /* \"#utility.yul\":2171:2206   */\n      eq\n        /* \"#utility.yul\":2161:2224   */\n      tag_184\n      jumpi\n        /* \"#utility.yul\":2220:2221   */\n      0x00\n        /* \"#utility.yul\":2217:2218   */\n      dup1\n        /* \"#utility.yul\":2210:2222   */\n      revert\n        /* \"#utility.yul\":2161:2224   */\n    tag_184:\n        /* \"#utility.yul\":2108:2230   */\n      pop\n      jump\t// out\n        /* \"#utility.yul\":2236:2375   */\n    tag_117:\n        /* \"#utility.yul\":2282:2287   */\n      0x00\n        /* \"#utility.yul\":2320:2326   */\n      dup2\n        /* \"#utility.yul\":2307:2327   */\n      calldataload\n        /* \"#utility.yul\":2298:2327   */\n      swap1\n      pop\n        /* \"#utility.yul\":2336:2369   */\n      tag_186\n        /* \"#utility.yul\":2363:2368   */\n      dup2\n        /* \"#utility.yul\":2336:2369   */\n      tag_116\n      jump\t// in\n    tag_186:\n        /* \"#utility.yul\":2236:2375   */\n      swap3\n      swap2\n      pop\n      pop\n      jump\t// out\n        /* \"#utility.yul\":2381:2498   */\n    tag_118:\n        /* \"#utility.yul\":2490:2491   */\n      0x00\n        /* \"#utility.yul\":2487:2488   */\n      dup1\n        /* \"#utility.yul\":2480:2492   */\n      revert\n        /* \"#utility.yul\":2504:2606   */\n    tag_119:\n        /* \"#utility.yul\":2545:2551   */\n      0x00\n        /* \"#utility.yul\":2596:2598   */\n      0x1f\n        /* \"#utility.yul\":2592:2599   */\n      not\n        /* \"#utility.yul\":2587:2589   */\n      0x1f\n        /* \"#utility.yul\":2580:2585   */\n      dup4\n        /* \"#utility.yul\":2576:2590   */\n      add\n        /* \"#utility.yul\":2572:2600   */\n      and\n        /* \"#utility.yul\":2562:2600   */\n      swap1\n      pop\n        /* \"#utility.yul\":2504:2606   */\n      swap2\n      swap1\n      pop\n      jump\t// out\n        /* \"#utility.yul\":2612:2792   */\n    tag_120:\n        /* \"#utility.yul\":2660:2737   */\n      0x4e487b7100000000000000000000000000000000000000000000000000000000\n        /* \"#utility.yul\":2657:2658   */\n      0x00\n        /* \"#utility.yul\":2650:2738   */\n      mstore\n        /* \"#utility.yul\":2757:2761   */\n      0x41\n        /* \"#utility.yul\":2754:2755   */\n      0x04\n        /* \"#utility.yul\":2747:2762   */\n      mstore\n        /* \"#utility.yul\":2781:2785   */\n      0x24\n        /* \"#utility.yul\":2778:2779   */\n      0x00\n        /* \"#utility.yul\":2771:2786   */\n      revert\n        /* \"#utility.yul\":2798:3079   */\n    tag_121:\n        /* \"#utility.yul\":2881:2908   */\n      tag_191\n        /* \"#utility.yul\":2903:2907   */\n      dup3\n        /* \"#utility.yul\":2881:2908   */\n      tag_119\n      jump\t// in\n    tag_191:\n        /* \"#utility.yul\":2873:2879   */\n      dup2\n        /* \"#utility.yul\":2869:2909   */\n      add\n        /* \"#utility.yul\":3011:3017   */\n      dup2\n        /* \"#utility.yul\":2999:3009   */\n      dup2\n        /* \"#utility.yul\":2996:3018   */\n      lt\n        /* \"#utility.yul\":2975:2993   */\n      0xffffffffffffffff\n        /* \"#utility.yul\":2963:2973   */\n      dup3\n        /* \"#utility.yul\":2960:2994   */\n      gt\n        /* \"#utility.yul\":2957:3019   */\n      or\n        /* \"#utility.yul\":2954:3042   */\n      iszero\n      tag_192\n      jumpi\n        /* \"#utility.yul\":3022:3040   */\n      tag_193\n      tag_120\n      jump\t// in\n    tag_193:\n        /* \"#utility.yul\":2954:3042   */\n    tag_192:\n        /* \"#utility.yul\":3062:3072   */\n      dup1\n        /* \"#utility.yul\":3058:3060   */\n      0x40\n        /* \"#utility.yul\":3051:3073   */\n      mstore\n        /* \"#utility.yul\":2841:3079   */\n      pop\n        /* \"#utility.yul\":2798:3079   */\n      pop\n      pop\n      jump\t// out\n        /* \"#utility.yul\":3085:3214   */\n    tag_122:\n        /* \"#utility.yul\":3119:3125   */\n      0x00\n        /* \"#utility.yul\":3146:3166   */\n      tag_195\n      tag_109\n      jump\t// in\n    tag_195:\n        /* \"#utility.yul\":3136:3166   */\n      swap1\n      pop\n        /* \"#utility.yul\":3175:3208   */\n      tag_196\n        /* \"#utility.yul\":3203:3207   */\n      dup3\n        /* \"#utility.yul\":3195:3201   */\n      dup3\n        /* \"#utility.yul\":3175:3208   */\n      tag_121\n      jump\t// in\n    tag_196:\n        /* \"#utility.yul\":3085:3214   */\n      swap2\n      swap1\n      pop\n      jump\t// out\n        /* \"#utility.yul\":3220:3531   */\n    tag_123:\n        /* \"#utility.yul\":3297:3301   */\n      0x00\n        /* \"#utility.yul\":3387:3405   */\n      0xffffffffffffffff\n        /* \"#utility.yul\":3379:3385   */\n      dup3\n        /* \"#utility.yul\":3376:3406   */\n      gt\n        /* \"#utility.yul\":3373:3429   */\n      iszero\n      tag_198\n      jumpi\n        /* \"#utility.yul\":3409:3427   */\n      tag_199\n      tag_120\n      jump\t// in\n    tag_199:\n        /* \"#utility.yul\":3373:3429   */\n    tag_198:\n        /* \"#utility.yul\":3459:3463   */\n      0x20\n        /* \"#utility.yul\":3451:3457   */\n      dup3\n        /* \"#utility.yul\":3447:3464   */\n      mul\n        /* \"#utility.yul\":3439:3464   */\n      swap1\n      pop\n        /* \"#utility.yul\":3519:3523   */\n      0x20\n        /* \"#utility.yul\":3513:3517   */\n      dup2\n        /* \"#utility.yul\":3509:3524   */\n      add\n        /* \"#utility.yul\":3501:3524   */\n      swap1\n      pop\n        /* \"#utility.yul\":3220:3531   */\n      swap2\n      swap1\n      pop\n      jump\t// out\n        /* \"#utility.yul\":3537:3654   */\n    tag_124:\n        /* \"#utility.yul\":3646:3647   */\n      0x00\n        /* \"#utility.yul\":3643:3644   */\n      dup1\n        /* \"#utility.yul\":3636:3648   */\n      revert\n        /* \"#utility.yul\":3677:4387   */\n    tag_125:\n        /* \"#utility.yul\":3773:3778   */\n      0x00\n        /* \"#utility.yul\":3798:3879   */\n      tag_202\n        /* \"#utility.yul\":3814:3878   */\n      tag_203\n        /* \"#utility.yul\":3871:3877   */\n      dup5\n        /* \"#utility.yul\":3814:3878   */\n      tag_123\n      jump\t// in\n    tag_203:\n        /* \"#utility.yul\":3798:3879   */\n      tag_122\n      jump\t// in\n    tag_202:\n        /* \"#utility.yul\":3789:3879   */\n      swap1\n      pop\n        /* \"#utility.yul\":3899:3904   */\n      dup1\n        /* \"#utility.yul\":3928:3934   */\n      dup4\n        /* \"#utility.yul\":3921:3926   */\n      dup3\n        /* \"#utility.yul\":3914:3935   */\n      mstore\n        /* \"#utility.yul\":3962:3966   */\n      0x20\n        /* \"#utility.yul\":3955:3960   */\n      dup3\n        /* \"#utility.yul\":3951:3967   */\n      add\n        /* \"#utility.yul\":3944:3967   */\n      swap1\n      pop\n        /* \"#utility.yul\":4015:4019   */\n      0x20\n        /* \"#utility.yul\":4007:4013   */\n      dup5\n        /* \"#utility.yul\":4003:4020   */\n      mul\n        /* \"#utility.yul\":3995:4001   */\n      dup4\n        /* \"#utility.yul\":3991:4021   */\n      add\n        /* \"#utility.yul\":4044:4047   */\n      dup6\n        /* \"#utility.yul\":4036:4042   */\n      dup2\n        /* \"#utility.yul\":4033:4048   */\n      gt\n        /* \"#utility.yul\":4030:4152   */\n      iszero\n      tag_204\n      jumpi\n        /* \"#utility.yul\":4063:4142   */\n      tag_205\n      tag_124\n      jump\t// in\n    tag_205:\n        /* \"#utility.yul\":4030:4152   */\n    tag_204:\n        /* \"#utility.yul\":4178:4184   */\n      dup4\n        /* \"#utility.yul\":4161:4381   */\n    tag_206:\n        /* \"#utility.yul\":4195:4201   */\n      dup2\n        /* \"#utility.yul\":4190:4193   */\n      dup2\n        /* \"#utility.yul\":4187:4202   */\n      lt\n        /* \"#utility.yul\":4161:4381   */\n      iszero\n      tag_208\n      jumpi\n        /* \"#utility.yul\":4270:4273   */\n      dup1\n        /* \"#utility.yul\":4299:4336   */\n      tag_209\n        /* \"#utility.yul\":4332:4335   */\n      dup9\n        /* \"#utility.yul\":4320:4330   */\n      dup3\n        /* \"#utility.yul\":4299:4336   */\n      tag_117\n      jump\t// in\n    tag_209:\n        /* \"#utility.yul\":4294:4297   */\n      dup5\n        /* \"#utility.yul\":4287:4337   */\n      mstore\n        /* \"#utility.yul\":4366:4370   */\n      0x20\n        /* \"#utility.yul\":4361:4364   */\n      dup5\n        /* \"#utility.yul\":4357:4371   */\n      add\n        /* \"#utility.yul\":4350:4371   */\n      swap4\n      pop\n        /* \"#utility.yul\":4237:4381   */\n      pop\n        /* \"#utility.yul\":4221:4225   */\n      0x20\n        /* \"#utility.yul\":4216:4219   */\n      dup2\n        /* \"#utility.yul\":4212:4226   */\n      add\n        /* \"#utility.yul\":4205:4226   */\n      swap1\n      pop\n        /* \"#utility.yul\":4161:4381   */\n      jump(tag_206)\n    tag_208:\n        /* \"#utility.yul\":4165:4186   */\n      pop\n        /* \"#utility.yul\":3779:4387   */\n      pop\n      pop\n        /* \"#utility.yul\":3677:4387   */\n      swap4\n      swap3\n      pop\n      pop\n      pop\n      jump\t// out\n        /* \"#utility.yul\":4410:4780   */\n    tag_126:\n        /* \"#utility.yul\":4481:4486   */\n      0x00\n        /* \"#utility.yul\":4530:4533   */\n      dup3\n        /* \"#utility.yul\":4523:4527   */\n      0x1f\n        /* \"#utility.yul\":4515:4521   */\n      dup4\n        /* \"#utility.yul\":4511:4528   */\n      add\n        /* \"#utility.yul\":4507:4534   */\n      slt\n        /* \"#utility.yul\":4497:4619   */\n      tag_211\n      jumpi\n        /* \"#utility.yul\":4538:4617   */\n      tag_212\n      tag_118\n      jump\t// in\n    tag_212:\n        /* \"#utility.yul\":4497:4619   */\n    tag_211:\n        /* \"#utility.yul\":4655:4661   */\n      dup2\n        /* \"#utility.yul\":4642:4662   */\n      calldataload\n        /* \"#utility.yul\":4680:4774   */\n      tag_213\n        /* \"#utility.yul\":4770:4773   */\n      dup5\n        /* \"#utility.yul\":4762:4768   */\n      dup3\n        /* \"#utility.yul\":4755:4759   */\n      0x20\n        /* \"#utility.yul\":4747:4753   */\n      dup7\n        /* \"#utility.yul\":4743:4760   */\n      add\n        /* \"#utility.yul\":4680:4774   */\n      tag_125\n      jump\t// in\n    tag_213:\n        /* \"#utility.yul\":4671:4774   */\n      swap2\n      pop\n        /* \"#utility.yul\":4487:4780   */\n      pop\n        /* \"#utility.yul\":4410:4780   */\n      swap3\n      swap2\n      pop\n      pop\n      jump\t// out\n        /* \"#utility.yul\":4786:4879   */\n    tag_127:\n        /* \"#utility.yul\":4822:4829   */\n      0x00\n        /* \"#utility.yul\":4862:4872   */\n      0xffffffff\n        /* \"#utility.yul\":4855:4860   */\n      dup3\n        /* \"#utility.yul\":4851:4873   */\n      and\n        /* \"#utility.yul\":4840:4873   */\n      swap1\n      pop\n        /* \"#utility.yul\":4786:4879   */\n      swap2\n      swap1\n      pop\n      jump\t// out\n        /* \"#utility.yul\":4885:5005   */\n    tag_128:\n        /* \"#utility.yul\":4957:4980   */\n      tag_216\n        /* \"#utility.yul\":4974:4979   */\n      dup2\n        /* \"#utility.yul\":4957:4980   */\n      tag_127\n      jump\t// in\n    tag_216:\n        /* \"#utility.yul\":4950:4955   */\n      dup2\n        /* \"#utility.yul\":4947:4981   */\n      eq\n        /* \"#utility.yul\":4937:4999   */\n      tag_217\n      jumpi\n        /* \"#utility.yul\":4995:4996   */\n      0x00\n        /* \"#utility.yul\":4992:4993   */\n      dup1\n        /* \"#utility.yul\":4985:4997   */\n      revert\n        /* \"#utility.yul\":4937:4999   */\n    tag_217:\n        /* \"#utility.yul\":4885:5005   */\n      pop\n      jump\t// out\n        /* \"#utility.yul\":5011:5148   */\n    tag_129:\n        /* \"#utility.yul\":5056:5061   */\n      0x00\n        /* \"#utility.yul\":5094:5100   */\n      dup2\n        /* \"#utility.yul\":5081:5101   */\n      calldataload\n        /* \"#utility.yul\":5072:5101   */\n      swap1\n      pop\n        /* \"#utility.yul\":5110:5142   */\n      tag_219\n        /* \"#utility.yul\":5136:5141   */\n      dup2\n        /* \"#utility.yul\":5110:5142   */\n      tag_128\n      jump\t// in\n    tag_219:\n        /* \"#utility.yul\":5011:5148   */\n      swap3\n      swap2\n      pop\n      pop\n      jump\t// out\n        /* \"#utility.yul\":5154:6127   */\n    tag_31:\n        /* \"#utility.yul\":5264:5270   */\n      0x00\n        /* \"#utility.yul\":5272:5278   */\n      dup1\n        /* \"#utility.yul\":5280:5286   */\n      0x00\n        /* \"#utility.yul\":5288:5294   */\n      dup1\n        /* \"#utility.yul\":5337:5340   */\n      0x80\n        /* \"#utility.yul\":5325:5334   */\n      dup6\n        /* \"#utility.yul\":5316:5323   */\n      dup8\n        /* \"#utility.yul\":5312:5335   */\n      sub\n        /* \"#utility.yul\":5308:5341   */\n      slt\n        /* \"#utility.yul\":5305:5425   */\n      iszero\n      tag_221\n      jumpi\n        /* \"#utility.yul\":5344:5423   */\n      tag_222\n      tag_110\n      jump\t// in\n    tag_222:\n        /* \"#utility.yul\":5305:5425   */\n    tag_221:\n        /* \"#utility.yul\":5464:5465   */\n      0x00\n        /* \"#utility.yul\":5489:5542   */\n      tag_223\n        /* \"#utility.yul\":5534:5541   */\n      dup8\n        /* \"#utility.yul\":5525:5531   */\n      dup3\n        /* \"#utility.yul\":5514:5523   */\n      dup9\n        /* \"#utility.yul\":5510:5532   */\n      add\n        /* \"#utility.yul\":5489:5542   */\n      tag_117\n      jump\t// in\n    tag_223:\n        /* \"#utility.yul\":5479:5542   */\n      swap5\n      pop\n        /* \"#utility.yul\":5435:5552   */\n      pop\n        /* \"#utility.yul\":5619:5621   */\n      0x20\n        /* \"#utility.yul\":5608:5617   */\n      dup6\n        /* \"#utility.yul\":5604:5622   */\n      add\n        /* \"#utility.yul\":5591:5623   */\n      calldataload\n        /* \"#utility.yul\":5650:5668   */\n      0xffffffffffffffff\n        /* \"#utility.yul\":5642:5648   */\n      dup2\n        /* \"#utility.yul\":5639:5669   */\n      gt\n        /* \"#utility.yul\":5636:5753   */\n      iszero\n      tag_224\n      jumpi\n        /* \"#utility.yul\":5672:5751   */\n      tag_225\n      tag_111\n      jump\t// in\n    tag_225:\n        /* \"#utility.yul\":5636:5753   */\n    tag_224:\n        /* \"#utility.yul\":5777:5855   */\n      tag_226\n        /* \"#utility.yul\":5847:5854   */\n      dup8\n        /* \"#utility.yul\":5838:5844   */\n      dup3\n        /* \"#utility.yul\":5827:5836   */\n      dup9\n        /* \"#utility.yul\":5823:5845   */\n      add\n        /* \"#utility.yul\":5777:5855   */\n      tag_126\n      jump\t// in\n    tag_226:\n        /* \"#utility.yul\":5767:5855   */\n      swap4\n      pop\n        /* \"#utility.yul\":5562:5865   */\n      pop\n        /* \"#utility.yul\":5904:5906   */\n      0x40\n        /* \"#utility.yul\":5930:5983   */\n      tag_227\n        /* \"#utility.yul\":5975:5982   */\n      dup8\n        /* \"#utility.yul\":5966:5972   */\n      dup3\n        /* \"#utility.yul\":5955:5964   */\n      dup9\n        /* \"#utility.yul\":5951:5973   */\n      add\n        /* \"#utility.yul\":5930:5983   */\n      tag_114\n      jump\t// in\n    tag_227:\n        /* \"#utility.yul\":5920:5983   */\n      swap3\n      pop\n        /* \"#utility.yul\":5875:5993   */\n      pop\n        /* \"#utility.yul\":6032:6034   */\n      0x60\n        /* \"#utility.yul\":6058:6110   */\n      tag_228\n        /* \"#utility.yul\":6102:6109   */\n      dup8\n        /* \"#utility.yul\":6093:6099   */\n      dup3\n        /* \"#utility.yul\":6082:6091   */\n      dup9\n        /* \"#utility.yul\":6078:6100   */\n      add\n        /* \"#utility.yul\":6058:6110   */\n      tag_129\n      jump\t// in\n    tag_228:\n        /* \"#utility.yul\":6048:6110   */\n      swap2\n      pop\n        /* \"#utility.yul\":6003:6120   */\n      pop\n        /* \"#utility.yul\":5154:6127   */\n      swap3\n      swap6\n      swap2\n      swap5\n      pop\n      swap3\n      pop\n      jump\t// out\n        /* \"#utility.yul\":6133:6210   */\n    tag_130:\n        /* \"#utility.yul\":6170:6177   */\n      0x00\n        /* \"#utility.yul\":6199:6204   */\n      dup2\n        /* \"#utility.yul\":6188:6204   */\n      swap1\n      pop\n        /* \"#utility.yul\":6133:6210   */\n      swap2\n      swap1\n      pop\n      jump\t// out\n        /* \"#utility.yul\":6216:6338   */\n    tag_131:\n        /* \"#utility.yul\":6289:6313   */\n      tag_231\n        /* \"#utility.yul\":6307:6312   */\n      dup2\n        /* \"#utility.yul\":6289:6313   */\n      tag_130\n      jump\t// in\n    tag_231:\n        /* \"#utility.yul\":6282:6287   */\n      dup2\n        /* \"#utility.yul\":6279:6314   */\n      eq\n        /* \"#utility.yul\":6269:6332   */\n      tag_232\n      jumpi\n        /* \"#utility.yul\":6328:6329   */\n      0x00\n        /* \"#utility.yul\":6325:6326   */\n      dup1\n        /* \"#utility.yul\":6318:6330   */\n      revert\n        /* \"#utility.yul\":6269:6332   */\n    tag_232:\n        /* \"#utility.yul\":6216:6338   */\n      pop\n      jump\t// out\n        /* \"#utility.yul\":6344:6483   */\n    tag_132:\n        /* \"#utility.yul\":6390:6395   */\n      0x00\n        /* \"#utility.yul\":6428:6434   */\n      dup2\n        /* \"#utility.yul\":6415:6435   */\n      calldataload\n        /* \"#utility.yul\":6406:6435   */\n      swap1\n      pop\n        /* \"#utility.yul\":6444:6477   */\n      tag_234\n        /* \"#utility.yul\":6471:6476   */\n      dup2\n        /* \"#utility.yul\":6444:6477   */\n      tag_131\n      jump\t// in\n    tag_234:\n        /* \"#utility.yul\":6344:6483   */\n      swap3\n      swap2\n      pop\n      pop\n      jump\t// out\n        /* \"#utility.yul\":6489:6818   */\n    tag_35:\n        /* \"#utility.yul\":6548:6554   */\n      0x00\n        /* \"#utility.yul\":6597:6599   */\n      0x20\n        /* \"#utility.yul\":6585:6594   */\n      dup3\n        /* \"#utility.yul\":6576:6583   */\n      dup5\n        /* \"#utility.yul\":6572:6595   */\n      sub\n        /* \"#utility.yul\":6568:6600   */\n      slt\n        /* \"#utility.yul\":6565:6684   */\n      iszero\n      tag_236\n      jumpi\n        /* \"#utility.yul\":6603:6682   */\n      tag_237\n      tag_110\n      jump\t// in\n    tag_237:\n        /* \"#utility.yul\":6565:6684   */\n    tag_236:\n        /* \"#utility.yul\":6723:6724   */\n      0x00\n        /* \"#utility.yul\":6748:6801   */\n      tag_238\n        /* \"#utility.yul\":6793:6800   */\n      dup5\n        /* \"#utility.yul\":6784:6790   */\n      dup3\n        /* \"#utility.yul\":6773:6782   */\n      dup6\n        /* \"#utility.yul\":6769:6791   */\n      add\n        /* \"#utility.yul\":6748:6801   */\n      tag_132\n      jump\t// in\n    tag_238:\n        /* \"#utility.yul\":6738:6801   */\n      swap2\n      pop\n        /* \"#utility.yul\":6694:6811   */\n      pop\n        /* \"#utility.yul\":6489:6818   */\n      swap3\n      swap2\n      pop\n      pop\n      jump\t// out\n        /* \"#utility.yul\":6824:7153   */\n    tag_52:\n        /* \"#utility.yul\":6883:6889   */\n      0x00\n        /* \"#utility.yul\":6932:6934   */\n      0x20\n        /* \"#utility.yul\":6920:6929   */\n      dup3\n        /* \"#utility.yul\":6911:6918   */\n      dup5\n        /* \"#utility.yul\":6907:6930   */\n      sub\n        /* \"#utility.yul\":6903:6935   */\n      slt\n        /* \"#utility.yul\":6900:7019   */\n      iszero\n      tag_240\n      jumpi\n        /* \"#utility.yul\":6938:7017   */\n      tag_241\n      tag_110\n      jump\t// in\n    tag_241:\n        /* \"#utility.yul\":6900:7019   */\n    tag_240:\n        /* \"#utility.yul\":7058:7059   */\n      0x00\n        /* \"#utility.yul\":7083:7136   */\n      tag_242\n        /* \"#utility.yul\":7128:7135   */\n      dup5\n        /* \"#utility.yul\":7119:7125   */\n      dup3\n        /* \"#utility.yul\":7108:7117   */\n      dup6\n        /* \"#utility.yul\":7104:7126   */\n      add\n        /* \"#utility.yul\":7083:7136   */\n      tag_117\n      jump\t// in\n    tag_242:\n        /* \"#utility.yul\":7073:7136   */\n      swap2\n      pop\n        /* \"#utility.yul\":7029:7146   */\n      pop\n        /* \"#utility.yul\":6824:7153   */\n      swap3\n      swap2\n      pop\n      pop\n      jump\t// out\n        /* \"#utility.yul\":7159:7328   */\n    tag_133:\n        /* \"#utility.yul\":7243:7254   */\n      0x00\n        /* \"#utility.yul\":7277:7283   */\n      dup3\n        /* \"#utility.yul\":7272:7275   */\n      dup3\n        /* \"#utility.yul\":7265:7284   */\n      mstore\n        /* \"#utility.yul\":7317:7321   */\n      0x20\n        /* \"#utility.yul\":7312:7315   */\n      dup3\n        /* \"#utility.yul\":7308:7322   */\n      add\n        /* \"#utility.yul\":7293:7322   */\n      swap1\n      pop\n        /* \"#utility.yul\":7159:7328   */\n      swap3\n      swap2\n      pop\n      pop\n      jump\t// out\n        /* \"#utility.yul\":7334:7516   */\n    tag_134:\n        /* \"#utility.yul\":7474:7508   */\n      0x4f776e61626c653a2063616c6c6572206973206e6f7420746865206f776e6572\n        /* \"#utility.yul\":7470:7471   */\n      0x00\n        /* \"#utility.yul\":7462:7468   */\n      dup3\n        /* \"#utility.yul\":7458:7472   */\n      add\n        /* \"#utility.yul\":7451:7509   */\n      mstore\n        /* \"#utility.yul\":7334:7516   */\n      pop\n      jump\t// out\n        /* \"#utility.yul\":7522:7888   */\n    tag_135:\n        /* \"#utility.yul\":7664:7667   */\n      0x00\n        /* \"#utility.yul\":7685:7752   */\n      tag_246\n        /* \"#utility.yul\":7749:7751   */\n      0x20\n        /* \"#utility.yul\":7744:7747   */\n      dup4\n        /* \"#utility.yul\":7685:7752   */\n      tag_133\n      jump\t// in\n    tag_246:\n        /* \"#utility.yul\":7678:7752   */\n      swap2\n      pop\n        /* \"#utility.yul\":7761:7854   */\n      tag_247\n        /* \"#utility.yul\":7850:7853   */\n      dup3\n        /* \"#utility.yul\":7761:7854   */\n      tag_134\n      jump\t// in\n    tag_247:\n        /* \"#utility.yul\":7879:7881   */\n      0x20\n        /* \"#utility.yul\":7874:7877   */\n      dup3\n        /* \"#utility.yul\":7870:7882   */\n      add\n        /* \"#utility.yul\":7863:7882   */\n      swap1\n      pop\n        /* \"#utility.yul\":7522:7888   */\n      swap2\n      swap1\n      pop\n      jump\t// out\n        /* \"#utility.yul\":7894:8313   */\n    tag_60:\n        /* \"#utility.yul\":8060:8064   */\n      0x00\n        /* \"#utility.yul\":8098:8100   */\n      0x20\n        /* \"#utility.yul\":8087:8096   */\n      dup3\n        /* \"#utility.yul\":8083:8101   */\n      add\n        /* \"#utility.yul\":8075:8101   */\n      swap1\n      pop\n        /* \"#utility.yul\":8147:8156   */\n      dup2\n        /* \"#utility.yul\":8141:8145   */\n      dup2\n        /* \"#utility.yul\":8137:8157   */\n      sub\n        /* \"#utility.yul\":8133:8134   */\n      0x00\n        /* \"#utility.yul\":8122:8131   */\n      dup4\n        /* \"#utility.yul\":8118:8135   */\n      add\n        /* \"#utility.yul\":8111:8158   */\n      mstore\n        /* \"#utility.yul\":8175:8306   */\n      tag_249\n        /* \"#utility.yul\":8301:8305   */\n      dup2\n        /* \"#utility.yul\":8175:8306   */\n      tag_135\n      jump\t// in\n    tag_249:\n        /* \"#utility.yul\":8167:8306   */\n      swap1\n      pop\n        /* \"#utility.yul\":7894:8313   */\n      swap2\n      swap1\n      pop\n      jump\t// out\n        /* \"#utility.yul\":8319:8499   */\n    tag_136:\n        /* \"#utility.yul\":8367:8444   */\n      0x4e487b7100000000000000000000000000000000000000000000000000000000\n        /* \"#utility.yul\":8364:8365   */\n      0x00\n        /* \"#utility.yul\":8357:8445   */\n      mstore\n        /* \"#utility.yul\":8464:8468   */\n      0x11\n        /* \"#utility.yul\":8461:8462   */\n      0x04\n        /* \"#utility.yul\":8454:8469   */\n      mstore\n        /* \"#utility.yul\":8488:8492   */\n      0x24\n        /* \"#utility.yul\":8485:8486   */\n      0x00\n        /* \"#utility.yul\":8478:8493   */\n      revert\n        /* \"#utility.yul\":8505:8699   */\n    tag_68:\n        /* \"#utility.yul\":8545:8549   */\n      0x00\n        /* \"#utility.yul\":8565:8585   */\n      tag_252\n        /* \"#utility.yul\":8583:8584   */\n      dup3\n        /* \"#utility.yul\":8565:8585   */\n      tag_112\n      jump\t// in\n    tag_252:\n        /* \"#utility.yul\":8560:8585   */\n      swap2\n      pop\n        /* \"#utility.yul\":8599:8619   */\n      tag_253\n        /* \"#utility.yul\":8617:8618   */\n      dup4\n        /* \"#utility.yul\":8599:8619   */\n      tag_112\n      jump\t// in\n    tag_253:\n        /* \"#utility.yul\":8594:8619   */\n      swap3\n      pop\n        /* \"#utility.yul\":8643:8644   */\n      dup3\n        /* \"#utility.yul\":8640:8641   */\n      dup3\n        /* \"#utility.yul\":8636:8645   */\n      sub\n        /* \"#utility.yul\":8628:8645   */\n      swap1\n      pop\n        /* \"#utility.yul\":8667:8668   */\n      dup2\n        /* \"#utility.yul\":8661:8665   */\n      dup2\n        /* \"#utility.yul\":8658:8669   */\n      gt\n        /* \"#utility.yul\":8655:8692   */\n      iszero\n      tag_254\n      jumpi\n        /* \"#utility.yul\":8672:8690   */\n      tag_255\n      tag_136\n      jump\t// in\n    tag_255:\n        /* \"#utility.yul\":8655:8692   */\n    tag_254:\n        /* \"#utility.yul\":8505:8699   */\n      swap3\n      swap2\n      pop\n      pop\n      jump\t// out\n        /* \"#utility.yul\":8705:8931   */\n    tag_137:\n        /* \"#utility.yul\":8845:8879   */\n      0x45787069726174696f6e2064617465206d757374206265206c61726765722074\n        /* \"#utility.yul\":8841:8842   */\n      0x00\n        /* \"#utility.yul\":8833:8839   */\n      dup3\n        /* \"#utility.yul\":8829:8843   */\n      add\n        /* \"#utility.yul\":8822:8880   */\n      mstore\n        /* \"#utility.yul\":8914:8923   */\n      0x68616e206e6f7700000000000000000000000000000000000000000000000000\n        /* \"#utility.yul\":8909:8911   */\n      0x20\n        /* \"#utility.yul\":8901:8907   */\n      dup3\n        /* \"#utility.yul\":8897:8912   */\n      add\n        /* \"#utility.yul\":8890:8924   */\n      mstore\n        /* \"#utility.yul\":8705:8931   */\n      pop\n      jump\t// out\n        /* \"#utility.yul\":8937:9303   */\n    tag_138:\n        /* \"#utility.yul\":9079:9082   */\n      0x00\n        /* \"#utility.yul\":9100:9167   */\n      tag_258\n        /* \"#utility.yul\":9164:9166   */\n      0x27\n        /* \"#utility.yul\":9159:9162   */\n      dup4\n        /* \"#utility.yul\":9100:9167   */\n      tag_133\n      jump\t// in\n    tag_258:\n        /* \"#utility.yul\":9093:9167   */\n      swap2\n      pop\n        /* \"#utility.yul\":9176:9269   */\n      tag_259\n        /* \"#utility.yul\":9265:9268   */\n      dup3\n        /* \"#utility.yul\":9176:9269   */\n      tag_137\n      jump\t// in\n    tag_259:\n        /* \"#utility.yul\":9294:9296   */\n      0x40\n        /* \"#utility.yul\":9289:9292   */\n      dup3\n        /* \"#utility.yul\":9285:9297   */\n      add\n        /* \"#utility.yul\":9278:9297   */\n      swap1\n      pop\n        /* \"#utility.yul\":8937:9303   */\n      swap2\n      swap1\n      pop\n      jump\t// out\n        /* \"#utility.yul\":9309:9728   */\n    tag_72:\n        /* \"#utility.yul\":9475:9479   */\n      0x00\n        /* \"#utility.yul\":9513:9515   */\n      0x20\n        /* \"#utility.yul\":9502:9511   */\n      dup3\n        /* \"#utility.yul\":9498:9516   */\n      add\n        /* \"#utility.yul\":9490:9516   */\n      swap1\n      pop\n        /* \"#utility.yul\":9562:9571   */\n      dup2\n        /* \"#utility.yul\":9556:9560   */\n      dup2\n        /* \"#utility.yul\":9552:9572   */\n      sub\n        /* \"#utility.yul\":9548:9549   */\n      0x00\n        /* \"#utility.yul\":9537:9546   */\n      dup4\n        /* \"#utility.yul\":9533:9550   */\n      add\n        /* \"#utility.yul\":9526:9573   */\n      mstore\n        /* \"#utility.yul\":9590:9721   */\n      tag_261\n        /* \"#utility.yul\":9716:9720   */\n      dup2\n        /* \"#utility.yul\":9590:9721   */\n      tag_138\n      jump\t// in\n    tag_261:\n        /* \"#utility.yul\":9582:9721   */\n      swap1\n      pop\n        /* \"#utility.yul\":9309:9728   */\n      swap2\n      swap1\n      pop\n      jump\t// out\n        /* \"#utility.yul\":9734:9906   */\n    tag_139:\n        /* \"#utility.yul\":9874:9898   */\n      0x5072696365206d757374206e6f74206265207a65726f00000000000000000000\n        /* \"#utility.yul\":9870:9871   */\n      0x00\n        /* \"#utility.yul\":9862:9868   */\n      dup3\n        /* \"#utility.yul\":9858:9872   */\n      add\n        /* \"#utility.yul\":9851:9899   */\n      mstore\n        /* \"#utility.yul\":9734:9906   */\n      pop\n      jump\t// out\n        /* \"#utility.yul\":9912:10278   */\n    tag_140:\n        /* \"#utility.yul\":10054:10057   */\n      0x00\n        /* \"#utility.yul\":10075:10142   */\n      tag_264\n        /* \"#utility.yul\":10139:10141   */\n      0x16\n        /* \"#utility.yul\":10134:10137   */\n      dup4\n        /* \"#utility.yul\":10075:10142   */\n      tag_133\n      jump\t// in\n    tag_264:\n        /* \"#utility.yul\":10068:10142   */\n      swap2\n      pop\n        /* \"#utility.yul\":10151:10244   */\n      tag_265\n        /* \"#utility.yul\":10240:10243   */\n      dup3\n        /* \"#utility.yul\":10151:10244   */\n      tag_139\n      jump\t// in\n    tag_265:\n        /* \"#utility.yul\":10269:10271   */\n      0x20\n        /* \"#utility.yul\":10264:10267   */\n      dup3\n        /* \"#utility.yul\":10260:10272   */\n      add\n        /* \"#utility.yul\":10253:10272   */\n      swap1\n      pop\n        /* \"#utility.yul\":9912:10278   */\n      swap2\n      swap1\n      pop\n      jump\t// out\n        /* \"#utility.yul\":10284:10703   */\n    tag_75:\n        /* \"#utility.yul\":10450:10454   */\n      0x00\n        /* \"#utility.yul\":10488:10490   */\n      0x20\n        /* \"#utility.yul\":10477:10486   */\n      dup3\n        /* \"#utility.yul\":10473:10491   */\n      add\n        /* \"#utility.yul\":10465:10491   */\n      swap1\n      pop\n        /* \"#utility.yul\":10537:10546   */\n      dup2\n        /* \"#utility.yul\":10531:10535   */\n      dup2\n        /* \"#utility.yul\":10527:10547   */\n      sub\n        /* \"#utility.yul\":10523:10524   */\n      0x00\n        /* \"#utility.yul\":10512:10521   */\n      dup4\n        /* \"#utility.yul\":10508:10525   */\n      add\n        /* \"#utility.yul\":10501:10548   */\n      mstore\n        /* \"#utility.yul\":10565:10696   */\n      tag_267\n        /* \"#utility.yul\":10691:10695   */\n      dup2\n        /* \"#utility.yul\":10565:10696   */\n      tag_140\n      jump\t// in\n    tag_267:\n        /* \"#utility.yul\":10557:10696   */\n      swap1\n      pop\n        /* \"#utility.yul\":10284:10703   */\n      swap2\n      swap1\n      pop\n      jump\t// out\n        /* \"#utility.yul\":10709:10823   */\n    tag_141:\n        /* \"#utility.yul\":10776:10782   */\n      0x00\n        /* \"#utility.yul\":10810:10815   */\n      dup2\n        /* \"#utility.yul\":10804:10816   */\n      mload\n        /* \"#utility.yul\":10794:10816   */\n      swap1\n      pop\n        /* \"#utility.yul\":10709:10823   */\n      swap2\n      swap1\n      pop\n      jump\t// out\n        /* \"#utility.yul\":10829:10992   */\n    tag_142:\n        /* \"#utility.yul\":10946:10957   */\n      0x00\n        /* \"#utility.yul\":10983:10986   */\n      dup2\n        /* \"#utility.yul\":10968:10986   */\n      swap1\n      pop\n        /* \"#utility.yul\":10829:10992   */\n      swap3\n      swap2\n      pop\n      pop\n      jump\t// out\n        /* \"#utility.yul\":10998:11130   */\n    tag_143:\n        /* \"#utility.yul\":11065:11069   */\n      0x00\n        /* \"#utility.yul\":11088:11091   */\n      dup2\n        /* \"#utility.yul\":11080:11091   */\n      swap1\n      pop\n        /* \"#utility.yul\":11118:11122   */\n      0x20\n        /* \"#utility.yul\":11113:11116   */\n      dup3\n        /* \"#utility.yul\":11109:11123   */\n      add\n        /* \"#utility.yul\":11101:11123   */\n      swap1\n      pop\n        /* \"#utility.yul\":10998:11130   */\n      swap2\n      swap1\n      pop\n      jump\t// out\n        /* \"#utility.yul\":11136:11252   */\n    tag_144:\n        /* \"#utility.yul\":11221:11245   */\n      tag_272\n        /* \"#utility.yul\":11239:11244   */\n      dup2\n        /* \"#utility.yul\":11221:11245   */\n      tag_107\n      jump\t// in\n    tag_272:\n        /* \"#utility.yul\":11216:11219   */\n      dup3\n        /* \"#utility.yul\":11209:11246   */\n      mstore\n        /* \"#utility.yul\":11136:11252   */\n      pop\n      pop\n      jump\t// out\n        /* \"#utility.yul\":11258:11453   */\n    tag_145:\n        /* \"#utility.yul\":11335:11345   */\n      0x00\n        /* \"#utility.yul\":11356:11410   */\n      tag_274\n        /* \"#utility.yul\":11406:11409   */\n      dup4\n        /* \"#utility.yul\":11398:11404   */\n      dup4\n        /* \"#utility.yul\":11356:11410   */\n      tag_144\n      jump\t// in\n    tag_274:\n        /* \"#utility.yul\":11442:11446   */\n      0x20\n        /* \"#utility.yul\":11437:11440   */\n      dup4\n        /* \"#utility.yul\":11433:11447   */\n      add\n        /* \"#utility.yul\":11419:11447   */\n      swap1\n      pop\n        /* \"#utility.yul\":11258:11453   */\n      swap3\n      swap2\n      pop\n      pop\n      jump\t// out\n        /* \"#utility.yul\":11459:11572   */\n    tag_146:\n        /* \"#utility.yul\":11529:11533   */\n      0x00\n        /* \"#utility.yul\":11561:11565   */\n      0x20\n        /* \"#utility.yul\":11556:11559   */\n      dup3\n        /* \"#utility.yul\":11552:11566   */\n      add\n        /* \"#utility.yul\":11544:11566   */\n      swap1\n      pop\n        /* \"#utility.yul\":11459:11572   */\n      swap2\n      swap1\n      pop\n      jump\t// out\n        /* \"#utility.yul\":11608:12384   */\n    tag_147:\n        /* \"#utility.yul\":11745:11748   */\n      0x00\n        /* \"#utility.yul\":11774:11828   */\n      tag_277\n        /* \"#utility.yul\":11822:11827   */\n      dup3\n        /* \"#utility.yul\":11774:11828   */\n      tag_141\n      jump\t// in\n    tag_277:\n        /* \"#utility.yul\":11844:11948   */\n      tag_278\n        /* \"#utility.yul\":11941:11947   */\n      dup2\n        /* \"#utility.yul\":11936:11939   */\n      dup6\n        /* \"#utility.yul\":11844:11948   */\n      tag_142\n      jump\t// in\n    tag_278:\n        /* \"#utility.yul\":11837:11948   */\n      swap4\n      pop\n        /* \"#utility.yul\":11972:12028   */\n      tag_279\n        /* \"#utility.yul\":12022:12027   */\n      dup4\n        /* \"#utility.yul\":11972:12028   */\n      tag_143\n      jump\t// in\n    tag_279:\n        /* \"#utility.yul\":12051:12058   */\n      dup1\n        /* \"#utility.yul\":12082:12083   */\n      0x00\n        /* \"#utility.yul\":12067:12359   */\n    tag_280:\n        /* \"#utility.yul\":12092:12098   */\n      dup4\n        /* \"#utility.yul\":12089:12090   */\n      dup2\n        /* \"#utility.yul\":12086:12099   */\n      lt\n        /* \"#utility.yul\":12067:12359   */\n      iszero\n      tag_282\n      jumpi\n        /* \"#utility.yul\":12168:12174   */\n      dup2\n        /* \"#utility.yul\":12162:12175   */\n      mload\n        /* \"#utility.yul\":12195:12266   */\n      tag_283\n        /* \"#utility.yul\":12262:12265   */\n      dup9\n        /* \"#utility.yul\":12247:12260   */\n      dup3\n        /* \"#utility.yul\":12195:12266   */\n      tag_145\n      jump\t// in\n    tag_283:\n        /* \"#utility.yul\":12188:12266   */\n      swap8\n      pop\n        /* \"#utility.yul\":12289:12349   */\n      tag_284\n        /* \"#utility.yul\":12342:12348   */\n      dup4\n        /* \"#utility.yul\":12289:12349   */\n      tag_146\n      jump\t// in\n    tag_284:\n        /* \"#utility.yul\":12279:12349   */\n      swap3\n      pop\n        /* \"#utility.yul\":12127:12359   */\n      pop\n        /* \"#utility.yul\":12114:12115   */\n      0x01\n        /* \"#utility.yul\":12111:12112   */\n      dup2\n        /* \"#utility.yul\":12107:12116   */\n      add\n        /* \"#utility.yul\":12102:12116   */\n      swap1\n      pop\n        /* \"#utility.yul\":12067:12359   */\n      jump(tag_280)\n    tag_282:\n        /* \"#utility.yul\":12071:12085   */\n      pop\n        /* \"#utility.yul\":12375:12378   */\n      dup6\n        /* \"#utility.yul\":12368:12378   */\n      swap4\n      pop\n        /* \"#utility.yul\":11750:12384   */\n      pop\n      pop\n      pop\n        /* \"#utility.yul\":11608:12384   */\n      swap3\n      swap2\n      pop\n      pop\n      jump\t// out\n        /* \"#utility.yul\":12390:12469   */\n    tag_148:\n        /* \"#utility.yul\":12429:12436   */\n      0x00\n        /* \"#utility.yul\":12458:12463   */\n      dup2\n        /* \"#utility.yul\":12447:12463   */\n      swap1\n      pop\n        /* \"#utility.yul\":12390:12469   */\n      swap2\n      swap1\n      pop\n      jump\t// out\n        /* \"#utility.yul\":12475:12632   */\n    tag_149:\n        /* \"#utility.yul\":12580:12625   */\n      tag_287\n        /* \"#utility.yul\":12600:12624   */\n      tag_288\n        /* \"#utility.yul\":12618:12623   */\n      dup3\n        /* \"#utility.yul\":12600:12624   */\n      tag_112\n      jump\t// in\n    tag_288:\n        /* \"#utility.yul\":12580:12625   */\n      tag_148\n      jump\t// in\n    tag_287:\n        /* \"#utility.yul\":12575:12578   */\n      dup3\n        /* \"#utility.yul\":12568:12626   */\n      mstore\n        /* \"#utility.yul\":12475:12632   */\n      pop\n      pop\n      jump\t// out\n        /* \"#utility.yul\":12638:12734   */\n    tag_150:\n        /* \"#utility.yul\":12672:12680   */\n      0x00\n        /* \"#utility.yul\":12721:12726   */\n      dup2\n        /* \"#utility.yul\":12716:12719   */\n      0xe0\n        /* \"#utility.yul\":12712:12727   */\n      shl\n        /* \"#utility.yul\":12691:12727   */\n      swap1\n      pop\n        /* \"#utility.yul\":12638:12734   */\n      swap2\n      swap1\n      pop\n      jump\t// out\n        /* \"#utility.yul\":12740:12834   */\n    tag_151:\n        /* \"#utility.yul\":12778:12785   */\n      0x00\n        /* \"#utility.yul\":12807:12828   */\n      tag_291\n        /* \"#utility.yul\":12822:12827   */\n      dup3\n        /* \"#utility.yul\":12807:12828   */\n      tag_150\n      jump\t// in\n    tag_291:\n        /* \"#utility.yul\":12796:12828   */\n      swap1\n      pop\n        /* \"#utility.yul\":12740:12834   */\n      swap2\n      swap1\n      pop\n      jump\t// out\n        /* \"#utility.yul\":12840:12993   */\n    tag_152:\n        /* \"#utility.yul\":12943:12986   */\n      tag_293\n        /* \"#utility.yul\":12962:12985   */\n      tag_294\n        /* \"#utility.yul\":12979:12984   */\n      dup3\n        /* \"#utility.yul\":12962:12985   */\n      tag_127\n      jump\t// in\n    tag_294:\n        /* \"#utility.yul\":12943:12986   */\n      tag_151\n      jump\t// in\n    tag_293:\n        /* \"#utility.yul\":12938:12941   */\n      dup3\n        /* \"#utility.yul\":12931:12987   */\n      mstore\n        /* \"#utility.yul\":12840:12993   */\n      pop\n      pop\n      jump\t// out\n        /* \"#utility.yul\":12999:13611   */\n    tag_79:\n        /* \"#utility.yul\":13215:13218   */\n      0x00\n        /* \"#utility.yul\":13237:13362   */\n      tag_296\n        /* \"#utility.yul\":13358:13361   */\n      dup3\n        /* \"#utility.yul\":13349:13355   */\n      dup7\n        /* \"#utility.yul\":13237:13362   */\n      tag_147\n      jump\t// in\n    tag_296:\n        /* \"#utility.yul\":13230:13362   */\n      swap2\n      pop\n        /* \"#utility.yul\":13372:13447   */\n      tag_297\n        /* \"#utility.yul\":13443:13446   */\n      dup3\n        /* \"#utility.yul\":13434:13440   */\n      dup6\n        /* \"#utility.yul\":13372:13447   */\n      tag_149\n      jump\t// in\n    tag_297:\n        /* \"#utility.yul\":13472:13474   */\n      0x20\n        /* \"#utility.yul\":13467:13470   */\n      dup3\n        /* \"#utility.yul\":13463:13475   */\n      add\n        /* \"#utility.yul\":13456:13475   */\n      swap2\n      pop\n        /* \"#utility.yul\":13485:13558   */\n      tag_298\n        /* \"#utility.yul\":13554:13557   */\n      dup3\n        /* \"#utility.yul\":13545:13551   */\n      dup5\n        /* \"#utility.yul\":13485:13558   */\n      tag_152\n      jump\t// in\n    tag_298:\n        /* \"#utility.yul\":13583:13584   */\n      0x04\n        /* \"#utility.yul\":13578:13581   */\n      dup3\n        /* \"#utility.yul\":13574:13585   */\n      add\n        /* \"#utility.yul\":13567:13585   */\n      swap2\n      pop\n        /* \"#utility.yul\":13602:13605   */\n      dup2\n        /* \"#utility.yul\":13595:13605   */\n      swap1\n      pop\n        /* \"#utility.yul\":12999:13611   */\n      swap5\n      swap4\n      pop\n      pop\n      pop\n      pop\n      jump\t// out\n        /* \"#utility.yul\":13617:13797   */\n    tag_153:\n        /* \"#utility.yul\":13665:13742   */\n      0x4e487b7100000000000000000000000000000000000000000000000000000000\n        /* \"#utility.yul\":13662:13663   */\n      0x00\n        /* \"#utility.yul\":13655:13743   */\n      mstore\n        /* \"#utility.yul\":13762:13766   */\n      0x12\n        /* \"#utility.yul\":13759:13760   */\n      0x04\n        /* \"#utility.yul\":13752:13767   */\n      mstore\n        /* \"#utility.yul\":13786:13790   */\n      0x24\n        /* \"#utility.yul\":13783:13784   */\n      0x00\n        /* \"#utility.yul\":13776:13791   */\n      revert\n        /* \"#utility.yul\":13803:13988   */\n    tag_83:\n        /* \"#utility.yul\":13843:13844   */\n      0x00\n        /* \"#utility.yul\":13860:13880   */\n      tag_301\n        /* \"#utility.yul\":13878:13879   */\n      dup3\n        /* \"#utility.yul\":13860:13880   */\n      tag_112\n      jump\t// in\n    tag_301:\n        /* \"#utility.yul\":13855:13880   */\n      swap2\n      pop\n        /* \"#utility.yul\":13894:13914   */\n      tag_302\n        /* \"#utility.yul\":13912:13913   */\n      dup4\n        /* \"#utility.yul\":13894:13914   */\n      tag_112\n      jump\t// in\n    tag_302:\n        /* \"#utility.yul\":13889:13914   */\n      swap3\n      pop\n        /* \"#utility.yul\":13933:13934   */\n      dup3\n        /* \"#utility.yul\":13923:13958   */\n      tag_303\n      jumpi\n        /* \"#utility.yul\":13938:13956   */\n      tag_304\n      tag_153\n      jump\t// in\n    tag_304:\n        /* \"#utility.yul\":13923:13958   */\n    tag_303:\n        /* \"#utility.yul\":13980:13981   */\n      dup3\n        /* \"#utility.yul\":13977:13978   */\n      dup3\n        /* \"#utility.yul\":13973:13982   */\n      div\n        /* \"#utility.yul\":13968:13982   */\n      swap1\n      pop\n        /* \"#utility.yul\":13803:13988   */\n      swap3\n      swap2\n      pop\n      pop\n      jump\t// out\n        /* \"#utility.yul\":13994:14404   */\n    tag_86:\n        /* \"#utility.yul\":14034:14041   */\n      0x00\n        /* \"#utility.yul\":14057:14077   */\n      tag_306\n        /* \"#utility.yul\":14075:14076   */\n      dup3\n        /* \"#utility.yul\":14057:14077   */\n      tag_112\n      jump\t// in\n    tag_306:\n        /* \"#utility.yul\":14052:14077   */\n      swap2\n      pop\n        /* \"#utility.yul\":14091:14111   */\n      tag_307\n        /* \"#utility.yul\":14109:14110   */\n      dup4\n        /* \"#utility.yul\":14091:14111   */\n      tag_112\n      jump\t// in\n    tag_307:\n        /* \"#utility.yul\":14086:14111   */\n      swap3\n      pop\n        /* \"#utility.yul\":14146:14147   */\n      dup3\n        /* \"#utility.yul\":14143:14144   */\n      dup3\n        /* \"#utility.yul\":14139:14148   */\n      mul\n        /* \"#utility.yul\":14168:14198   */\n      tag_308\n        /* \"#utility.yul\":14186:14197   */\n      dup2\n        /* \"#utility.yul\":14168:14198   */\n      tag_112\n      jump\t// in\n    tag_308:\n        /* \"#utility.yul\":14157:14198   */\n      swap2\n      pop\n        /* \"#utility.yul\":14347:14348   */\n      dup3\n        /* \"#utility.yul\":14338:14345   */\n      dup3\n        /* \"#utility.yul\":14334:14349   */\n      div\n        /* \"#utility.yul\":14331:14332   */\n      dup5\n        /* \"#utility.yul\":14328:14350   */\n      eq\n        /* \"#utility.yul\":14308:14309   */\n      dup4\n        /* \"#utility.yul\":14301:14310   */\n      iszero\n        /* \"#utility.yul\":14281:14364   */\n      or\n        /* \"#utility.yul\":14258:14397   */\n      tag_309\n      jumpi\n        /* \"#utility.yul\":14377:14395   */\n      tag_310\n      tag_136\n      jump\t// in\n    tag_310:\n        /* \"#utility.yul\":14258:14397   */\n    tag_309:\n        /* \"#utility.yul\":14042:14404   */\n      pop\n        /* \"#utility.yul\":13994:14404   */\n      swap3\n      swap2\n      pop\n      pop\n      jump\t// out\n        /* \"#utility.yul\":14410:14601   */\n    tag_92:\n        /* \"#utility.yul\":14450:14453   */\n      0x00\n        /* \"#utility.yul\":14469:14489   */\n      tag_312\n        /* \"#utility.yul\":14487:14488   */\n      dup3\n        /* \"#utility.yul\":14469:14489   */\n      tag_112\n      jump\t// in\n    tag_312:\n        /* \"#utility.yul\":14464:14489   */\n      swap2\n      pop\n        /* \"#utility.yul\":14503:14523   */\n      tag_313\n        /* \"#utility.yul\":14521:14522   */\n      dup4\n        /* \"#utility.yul\":14503:14523   */\n      tag_112\n      jump\t// in\n    tag_313:\n        /* \"#utility.yul\":14498:14523   */\n      swap3\n      pop\n        /* \"#utility.yul\":14546:14547   */\n      dup3\n        /* \"#utility.yul\":14543:14544   */\n      dup3\n        /* \"#utility.yul\":14539:14548   */\n      add\n        /* \"#utility.yul\":14532:14548   */\n      swap1\n      pop\n        /* \"#utility.yul\":14567:14570   */\n      dup1\n        /* \"#utility.yul\":14564:14565   */\n      dup3\n        /* \"#utility.yul\":14561:14571   */\n      gt\n        /* \"#utility.yul\":14558:14594   */\n      iszero\n      tag_314\n      jumpi\n        /* \"#utility.yul\":14574:14592   */\n      tag_315\n      tag_136\n      jump\t// in\n    tag_315:\n        /* \"#utility.yul\":14558:14594   */\n    tag_314:\n        /* \"#utility.yul\":14410:14601   */\n      swap3\n      swap2\n      pop\n      pop\n      jump\t// out\n        /* \"#utility.yul\":14607:14832   */\n    tag_154:\n        /* \"#utility.yul\":14747:14781   */\n      0x4f776e61626c653a206e6577206f776e657220697320746865207a65726f2061\n        /* \"#utility.yul\":14743:14744   */\n      0x00\n        /* \"#utility.yul\":14735:14741   */\n      dup3\n        /* \"#utility.yul\":14731:14745   */\n      add\n        /* \"#utility.yul\":14724:14782   */\n      mstore\n        /* \"#utility.yul\":14816:14824   */\n      0x6464726573730000000000000000000000000000000000000000000000000000\n        /* \"#utility.yul\":14811:14813   */\n      0x20\n        /* \"#utility.yul\":14803:14809   */\n      dup3\n        /* \"#utility.yul\":14799:14814   */\n      add\n        /* \"#utility.yul\":14792:14825   */\n      mstore\n        /* \"#utility.yul\":14607:14832   */\n      pop\n      jump\t// out\n        /* \"#utility.yul\":14838:15204   */\n    tag_155:\n        /* \"#utility.yul\":14980:14983   */\n      0x00\n        /* \"#utility.yul\":15001:15068   */\n      tag_318\n        /* \"#utility.yul\":15065:15067   */\n      0x26\n        /* \"#utility.yul\":15060:15063   */\n      dup4\n        /* \"#utility.yul\":15001:15068   */\n      tag_133\n      jump\t// in\n    tag_318:\n        /* \"#utility.yul\":14994:15068   */\n      swap2\n      pop\n        /* \"#utility.yul\":15077:15170   */\n      tag_319\n        /* \"#utility.yul\":15166:15169   */\n      dup3\n        /* \"#utility.yul\":15077:15170   */\n      tag_154\n      jump\t// in\n    tag_319:\n        /* \"#utility.yul\":15195:15197   */\n      0x40\n        /* \"#utility.yul\":15190:15193   */\n      dup3\n        /* \"#utility.yul\":15186:15198   */\n      add\n        /* \"#utility.yul\":15179:15198   */\n      swap1\n      pop\n        /* \"#utility.yul\":14838:15204   */\n      swap2\n      swap1\n      pop\n      jump\t// out\n        /* \"#utility.yul\":15210:15629   */\n    tag_102:\n        /* \"#utility.yul\":15376:15380   */\n      0x00\n        /* \"#utility.yul\":15414:15416   */\n      0x20\n        /* \"#utility.yul\":15403:15412   */\n      dup3\n        /* \"#utility.yul\":15399:15417   */\n      add\n        /* \"#utility.yul\":15391:15417   */\n      swap1\n      pop\n        /* \"#utility.yul\":15463:15472   */\n      dup2\n        /* \"#utility.yul\":15457:15461   */\n      dup2\n        /* \"#utility.yul\":15453:15473   */\n      sub\n        /* \"#utility.yul\":15449:15450   */\n      0x00\n        /* \"#utility.yul\":15438:15447   */\n      dup4\n        /* \"#utility.yul\":15434:15451   */\n      add\n        /* \"#utility.yul\":15427:15474   */\n      mstore\n        /* \"#utility.yul\":15491:15622   */\n      tag_321\n        /* \"#utility.yul\":15617:15621   */\n      dup2\n        /* \"#utility.yul\":15491:15622   */\n      tag_155\n      jump\t// in\n    tag_321:\n        /* \"#utility.yul\":15483:15622   */\n      swap1\n      pop\n        /* \"#utility.yul\":15210:15629   */\n      swap2\n      swap1\n      pop\n      jump\t// out\n\n    auxdata: 0xa2646970667358221220945e255ef2c8d24743470507a17aacf0a6e5c5423b22ab4bd701298e92adf30064736f6c63430008120033\n}\n",
				"bytecode": {
					"linkReferences": {},
					"object": "60806040523480156200001157600080fd5b50604051620011a3380380620011a38339818101604052810190620000379190620001d5565b620000576200004b6200009f60201b60201c565b620000a760201b60201c565b80600260006101000a81548173ffffffffffffffffffffffffffffffffffffffff021916908373ffffffffffffffffffffffffffffffffffffffff1602179055505062000207565b600033905090565b60008060009054906101000a900473ffffffffffffffffffffffffffffffffffffffff169050816000806101000a81548173ffffffffffffffffffffffffffffffffffffffff021916908373ffffffffffffffffffffffffffffffffffffffff1602179055508173ffffffffffffffffffffffffffffffffffffffff168173ffffffffffffffffffffffffffffffffffffffff167f8be0079c531659141344cd1fd0a4f28419497f9722a3daafe3b4186f6b6457e060405160405180910390a35050565b600080fd5b600073ffffffffffffffffffffffffffffffffffffffff82169050919050565b60006200019d8262000170565b9050919050565b620001af8162000190565b8114620001bb57600080fd5b50565b600081519050620001cf81620001a4565b92915050565b600060208284031215620001ee57620001ed6200016b565b5b6000620001fe84828501620001be565b91505092915050565b610f8c80620002176000396000f3fe608060405234801561001057600080fd5b506004361061009e5760003560e01c8063b5217bb411610066578063b5217bb414610135578063b5931f7c14610165578063d05c78da14610195578063e6cb9013146101c5578063f2fde38b146101f55761009e565b8063715018a6146100a357806372f702f3146100ad5780638da5cb5b146100cb578063a293d1e8146100e9578063b234994c14610119575b600080fd5b6100ab610211565b005b6100b5610299565b6040516100c29190610725565b60405180910390f35b6100d36102bf565b6040516100e09190610725565b60405180910390f35b61010360048036038101906100fe919061078a565b6102e8565b60405161011091906107d9565b60405180910390f35b610133600480360381019061012e91906109b5565b61030b565b005b61014f600480360381019061014a9190610a6e565b61044a565b60405161015c9190610725565b60405180910390f35b61017f600480360381019061017a919061078a565b61047d565b60405161018c91906107d9565b60405180910390f35b6101af60048036038101906101aa919061078a565b61049f565b6040516101bc91906107d9565b60405180910390f35b6101df60048036038101906101da919061078a565b6104d7565b6040516101ec91906107d9565b60405180910390f35b61020f600480360381019061020a9190610a9b565b6104fa565b005b6102196105f1565b73ffffffffffffffffffffffffffffffffffffffff166102376102bf565b73ffffffffffffffffffffffffffffffffffffffff161461028d576040517f08c379a000000000000000000000000000000000000000000000000000000000815260040161028490610b25565b60405180910390fd5b61029760006105f9565b565b600260009054906101000a900473ffffffffffffffffffffffffffffffffffffffff1681565b60008060009054906101000a900473ffffffffffffffffffffffffffffffffffffffff16905090565b6000828211156102f757600080fd5b81836103039190610b74565b905092915050565b428163ffffffff1611610353576040517f08c379a000000000000000000000000000000000000000000000000000000000815260040161034a90610c1a565b60405180910390fd5b60008211610396576040517f08c379a000000000000000000000000000000000000000000000000000000000815260040161038d90610c86565b60405180910390fd5b61039e6106bd565b60405180606001604052808581526020018481526020018363ffffffff16815250905060008484846040516020016103d893929190610db5565b604051602081830303815290604052805190602001209050856001600083815260200190815260200160002060006101000a81548173ffffffffffffffffffffffffffffffffffffffff021916908373ffffffffffffffffffffffffffffffffffffffff160217905550505050505050565b60016020528060005260406000206000915054906101000a900473ffffffffffffffffffffffffffffffffffffffff1681565b600080821161048b57600080fd5b81836104979190610e1d565b905092915050565b600081836104ad9190610e4e565b905060008314806104c857508183826104c69190610e1d565b145b6104d157600080fd5b92915050565b600081836104e59190610e90565b9050828110156104f457600080fd5b92915050565b6105026105f1565b73ffffffffffffffffffffffffffffffffffffffff166105206102bf565b73ffffffffffffffffffffffffffffffffffffffff1614610576576040517f08c379a000000000000000000000000000000000000000000000000000000000815260040161056d90610b25565b60405180910390fd5b600073ffffffffffffffffffffffffffffffffffffffff168173ffffffffffffffffffffffffffffffffffffffff16036105e5576040517f08c379a00000000000000000000000000000000000000000000000000000000081526004016105dc90610f36565b60405180910390fd5b6105ee816105f9565b50565b600033905090565b60008060009054906101000a900473ffffffffffffffffffffffffffffffffffffffff169050816000806101000a81548173ffffffffffffffffffffffffffffffffffffffff021916908373ffffffffffffffffffffffffffffffffffffffff1602179055508173ffffffffffffffffffffffffffffffffffffffff168173ffffffffffffffffffffffffffffffffffffffff167f8be0079c531659141344cd1fd0a4f28419497f9722a3daafe3b4186f6b6457e060405160405180910390a35050565b60405180606001604052806060815260200160008152602001600063ffffffff1681525090565b600073ffffffffffffffffffffffffffffffffffffffff82169050919050565b600061070f826106e4565b9050919050565b61071f81610704565b82525050565b600060208201905061073a6000830184610716565b92915050565b6000604051905090565b600080fd5b600080fd5b6000819050919050565b61076781610754565b811461077257600080fd5b50565b6000813590506107848161075e565b92915050565b600080604083850312156107a1576107a061074a565b5b60006107af85828601610775565b92505060206107c085828601610775565b9150509250929050565b6107d381610754565b82525050565b60006020820190506107ee60008301846107ca565b92915050565b6107fd81610704565b811461080857600080fd5b50565b60008135905061081a816107f4565b92915050565b600080fd5b6000601f19601f8301169050919050565b7f4e487b7100000000000000000000000000000000000000000000000000000000600052604160045260246000fd5b61086e82610825565b810181811067ffffffffffffffff8211171561088d5761088c610836565b5b80604052505050565b60006108a0610740565b90506108ac8282610865565b919050565b600067ffffffffffffffff8211156108cc576108cb610836565b5b602082029050602081019050919050565b600080fd5b60006108f56108f0846108b1565b610896565b90508083825260208201905060208402830185811115610918576109176108dd565b5b835b81811015610941578061092d888261080b565b84526020840193505060208101905061091a565b5050509392505050565b600082601f8301126109605761095f610820565b5b81356109708482602086016108e2565b91505092915050565b600063ffffffff82169050919050565b61099281610979565b811461099d57600080fd5b50565b6000813590506109af81610989565b92915050565b600080600080608085870312156109cf576109ce61074a565b5b60006109dd8782880161080b565b945050602085013567ffffffffffffffff8111156109fe576109fd61074f565b5b610a0a8782880161094b565b9350506040610a1b87828801610775565b9250506060610a2c878288016109a0565b91505092959194509250565b6000819050919050565b610a4b81610a38565b8114610a5657600080fd5b50565b600081359050610a6881610a42565b92915050565b600060208284031215610a8457610a8361074a565b5b6000610a9284828501610a59565b91505092915050565b600060208284031215610ab157610ab061074a565b5b6000610abf8482850161080b565b91505092915050565b600082825260208201905092915050565b7f4f776e61626c653a2063616c6c6572206973206e6f7420746865206f776e6572600082015250565b6000610b0f602083610ac8565b9150610b1a82610ad9565b602082019050919050565b60006020820190508181036000830152610b3e81610b02565b9050919050565b7f4e487b7100000000000000000000000000000000000000000000000000000000600052601160045260246000fd5b6000610b7f82610754565b9150610b8a83610754565b9250828203905081811115610ba257610ba1610b45565b5b92915050565b7f45787069726174696f6e2064617465206d757374206265206c6172676572207460008201527f68616e206e6f7700000000000000000000000000000000000000000000000000602082015250565b6000610c04602783610ac8565b9150610c0f82610ba8565b604082019050919050565b60006020820190508181036000830152610c3381610bf7565b9050919050565b7f5072696365206d757374206e6f74206265207a65726f00000000000000000000600082015250565b6000610c70601683610ac8565b9150610c7b82610c3a565b602082019050919050565b60006020820190508181036000830152610c9f81610c63565b9050919050565b600081519050919050565b600081905092915050565b6000819050602082019050919050565b610cd581610704565b82525050565b6000610ce78383610ccc565b60208301905092915050565b6000602082019050919050565b6000610d0b82610ca6565b610d158185610cb1565b9350610d2083610cbc565b8060005b83811015610d51578151610d388882610cdb565b9750610d4383610cf3565b925050600181019050610d24565b5085935050505092915050565b6000819050919050565b610d79610d7482610754565b610d5e565b82525050565b60008160e01b9050919050565b6000610d9782610d7f565b9050919050565b610daf610daa82610979565b610d8c565b82525050565b6000610dc18286610d00565b9150610dcd8285610d68565b602082019150610ddd8284610d9e565b600482019150819050949350505050565b7f4e487b7100000000000000000000000000000000000000000000000000000000600052601260045260246000fd5b6000610e2882610754565b9150610e3383610754565b925082610e4357610e42610dee565b5b828204905092915050565b6000610e5982610754565b9150610e6483610754565b9250828202610e7281610754565b91508282048414831517610e8957610e88610b45565b5b5092915050565b6000610e9b82610754565b9150610ea683610754565b9250828201905080821115610ebe57610ebd610b45565b5b92915050565b7f4f776e61626c653a206e6577206f776e657220697320746865207a65726f206160008201527f6464726573730000000000000000000000000000000000000000000000000000602082015250565b6000610f20602683610ac8565b9150610f2b82610ec4565b604082019050919050565b60006020820190508181036000830152610f4f81610f13565b905091905056fea2646970667358221220945e255ef2c8d24743470507a17aacf0a6e5c5423b22ab4bd701298e92adf30064736f6c63430008120033",
					"opcodes": "PUSH1 0x80 PUSH1 0x40 MSTORE CALLVALUE DUP1 ISZERO PUSH3 0x11 JUMPI PUSH1 0x0 DUP1 REVERT JUMPDEST POP PUSH1 0x40 MLOAD PUSH3 0x11A3 CODESIZE SUB DUP1 PUSH3 0x11A3 DUP4 CODECOPY DUP2 DUP2 ADD PUSH1 0x40 MSTORE DUP2 ADD SWAP1 PUSH3 0x37 SWAP2 SWAP1 PUSH3 0x1D5 JUMP JUMPDEST PUSH3 0x57 PUSH3 0x4B PUSH3 0x9F PUSH1 0x20 SHL PUSH1 0x20 SHR JUMP JUMPDEST PUSH3 0xA7 PUSH1 0x20 SHL PUSH1 0x20 SHR JUMP JUMPDEST DUP1 PUSH1 0x2 PUSH1 0x0 PUSH2 0x100 EXP DUP2 SLOAD DUP2 PUSH20 0xFFFFFFFFFFFFFFFFFFFFFFFFFFFFFFFFFFFFFFFF MUL NOT AND SWAP1 DUP4 PUSH20 0xFFFFFFFFFFFFFFFFFFFFFFFFFFFFFFFFFFFFFFFF AND MUL OR SWAP1 SSTORE POP POP PUSH3 0x207 JUMP JUMPDEST PUSH1 0x0 CALLER SWAP1 POP SWAP1 JUMP JUMPDEST PUSH1 0x0 DUP1 PUSH1 0x0 SWAP1 SLOAD SWAP1 PUSH2 0x100 EXP SWAP1 DIV PUSH20 0xFFFFFFFFFFFFFFFFFFFFFFFFFFFFFFFFFFFFFFFF AND SWAP1 POP DUP2 PUSH1 0x0 DUP1 PUSH2 0x100 EXP DUP2 SLOAD DUP2 PUSH20 0xFFFFFFFFFFFFFFFFFFFFFFFFFFFFFFFFFFFFFFFF MUL NOT AND SWAP1 DUP4 PUSH20 0xFFFFFFFFFFFFFFFFFFFFFFFFFFFFFFFFFFFFFFFF AND MUL OR SWAP1 SSTORE POP DUP2 PUSH20 0xFFFFFFFFFFFFFFFFFFFFFFFFFFFFFFFFFFFFFFFF AND DUP2 PUSH20 0xFFFFFFFFFFFFFFFFFFFFFFFFFFFFFFFFFFFFFFFF AND PUSH32 0x8BE0079C531659141344CD1FD0A4F28419497F9722A3DAAFE3B4186F6B6457E0 PUSH1 0x40 MLOAD PUSH1 0x40 MLOAD DUP1 SWAP2 SUB SWAP1 LOG3 POP POP JUMP JUMPDEST PUSH1 0x0 DUP1 REVERT JUMPDEST PUSH1 0x0 PUSH20 0xFFFFFFFFFFFFFFFFFFFFFFFFFFFFFFFFFFFFFFFF DUP3 AND SWAP1 POP SWAP2 SWAP1 POP JUMP JUMPDEST PUSH1 0x0 PUSH3 0x19D DUP3 PUSH3 0x170 JUMP JUMPDEST SWAP1 POP SWAP2 SWAP1 POP JUMP JUMPDEST PUSH3 0x1AF DUP2 PUSH3 0x190 JUMP JUMPDEST DUP2 EQ PUSH3 0x1BB JUMPI PUSH1 0x0 DUP1 REVERT JUMPDEST POP JUMP JUMPDEST PUSH1 0x0 DUP2 MLOAD SWAP1 POP PUSH3 0x1CF DUP2 PUSH3 0x1A4 JUMP JUMPDEST SWAP3 SWAP2 POP POP JUMP JUMPDEST PUSH1 0x0 PUSH1 0x20 DUP3 DUP5 SUB SLT ISZERO PUSH3 0x1EE JUMPI PUSH3 0x1ED PUSH3 0x16B JUMP JUMPDEST JUMPDEST PUSH1 0x0 PUSH3 0x1FE DUP5 DUP3 DUP6 ADD PUSH3 0x1BE JUMP JUMPDEST SWAP2 POP POP SWAP3 SWAP2 POP POP JUMP JUMPDEST PUSH2 0xF8C DUP1 PUSH3 0x217 PUSH1 0x0 CODECOPY PUSH1 0x0 RETURN INVALID PUSH1 0x80 PUSH1 0x40 MSTORE CALLVALUE DUP1 ISZERO PUSH2 0x10 JUMPI PUSH1 0x0 DUP1 REVERT JUMPDEST POP PUSH1 0x4 CALLDATASIZE LT PUSH2 0x9E JUMPI PUSH1 0x0 CALLDATALOAD PUSH1 0xE0 SHR DUP1 PUSH4 0xB5217BB4 GT PUSH2 0x66 JUMPI DUP1 PUSH4 0xB5217BB4 EQ PUSH2 0x135 JUMPI DUP1 PUSH4 0xB5931F7C EQ PUSH2 0x165 JUMPI DUP1 PUSH4 0xD05C78DA EQ PUSH2 0x195 JUMPI DUP1 PUSH4 0xE6CB9013 EQ PUSH2 0x1C5 JUMPI DUP1 PUSH4 0xF2FDE38B EQ PUSH2 0x1F5 JUMPI PUSH2 0x9E JUMP JUMPDEST DUP1 PUSH4 0x715018A6 EQ PUSH2 0xA3 JUMPI DUP1 PUSH4 0x72F702F3 EQ PUSH2 0xAD JUMPI DUP1 PUSH4 0x8DA5CB5B EQ PUSH2 0xCB JUMPI DUP1 PUSH4 0xA293D1E8 EQ PUSH2 0xE9 JUMPI DUP1 PUSH4 0xB234994C EQ PUSH2 0x119 JUMPI JUMPDEST PUSH1 0x0 DUP1 REVERT JUMPDEST PUSH2 0xAB PUSH2 0x211 JUMP JUMPDEST STOP JUMPDEST PUSH2 0xB5 PUSH2 0x299 JUMP JUMPDEST PUSH1 0x40 MLOAD PUSH2 0xC2 SWAP2 SWAP1 PUSH2 0x725 JUMP JUMPDEST PUSH1 0x40 MLOAD DUP1 SWAP2 SUB SWAP1 RETURN JUMPDEST PUSH2 0xD3 PUSH2 0x2BF JUMP JUMPDEST PUSH1 0x40 MLOAD PUSH2 0xE0 SWAP2 SWAP1 PUSH2 0x725 JUMP JUMPDEST PUSH1 0x40 MLOAD DUP1 SWAP2 SUB SWAP1 RETURN JUMPDEST PUSH2 0x103 PUSH1 0x4 DUP1 CALLDATASIZE SUB DUP2 ADD SWAP1 PUSH2 0xFE SWAP2 SWAP1 PUSH2 0x78A JUMP JUMPDEST PUSH2 0x2E8 JUMP JUMPDEST PUSH1 0x40 MLOAD PUSH2 0x110 SWAP2 SWAP1 PUSH2 0x7D9 JUMP JUMPDEST PUSH1 0x40 MLOAD DUP1 SWAP2 SUB SWAP1 RETURN JUMPDEST PUSH2 0x133 PUSH1 0x4 DUP1 CALLDATASIZE SUB DUP2 ADD SWAP1 PUSH2 0x12E SWAP2 SWAP1 PUSH2 0x9B5 JUMP JUMPDEST PUSH2 0x30B JUMP JUMPDEST STOP JUMPDEST PUSH2 0x14F PUSH1 0x4 DUP1 CALLDATASIZE SUB DUP2 ADD SWAP1 PUSH2 0x14A SWAP2 SWAP1 PUSH2 0xA6E JUMP JUMPDEST PUSH2 0x44A JUMP JUMPDEST PUSH1 0x40 MLOAD PUSH2 0x15C SWAP2 SWAP1 PUSH2 0x725 JUMP JUMPDEST PUSH1 0x40 MLOAD DUP1 SWAP2 SUB SWAP1 RETURN JUMPDEST PUSH2 0x17F PUSH1 0x4 DUP1 CALLDATASIZE SUB DUP2 ADD SWAP1 PUSH2 0x17A SWAP2 SWAP1 PUSH2 0x78A JUMP JUMPDEST PUSH2 0x47D JUMP JUMPDEST PUSH1 0x40 MLOAD PUSH2 0x18C SWAP2 SWAP1 PUSH2 0x7D9 JUMP JUMPDEST PUSH1 0x40 MLOAD DUP1 SWAP2 SUB SWAP1 RETURN JUMPDEST PUSH2 0x1AF PUSH1 0x4 DUP1 CALLDATASIZE SUB DUP2 ADD SWAP1 PUSH2 0x1AA SWAP2 SWAP1 PUSH2 0x78A JUMP JUMPDEST PUSH2 0x49F JUMP JUMPDEST PUSH1 0x40 MLOAD PUSH2 0x1BC SWAP2 SWAP1 PUSH2 0x7D9 JUMP JUMPDEST PUSH1 0x40 MLOAD DUP1 SWAP2 SUB SWAP1 RETURN JUMPDEST PUSH2 0x1DF PUSH1 0x4 DUP1 CALLDATASIZE SUB DUP2 ADD SWAP1 PUSH2 0x1DA SWAP2 SWAP1 PUSH2 0x78A JUMP JUMPDEST PUSH2 0x4D7 JUMP JUMPDEST PUSH1 0x40 MLOAD PUSH2 0x1EC SWAP2 SWAP1 PUSH2 0x7D9 JUMP JUMPDEST PUSH1 0x40 MLOAD DUP1 SWAP2 SUB SWAP1 RETURN JUMPDEST PUSH2 0x20F PUSH1 0x4 DUP1 CALLDATASIZE SUB DUP2 ADD SWAP1 PUSH2 0x20A SWAP2 SWAP1 PUSH2 0xA9B JUMP JUMPDEST PUSH2 0x4FA JUMP JUMPDEST STOP JUMPDEST PUSH2 0x219 PUSH2 0x5F1 JUMP JUMPDEST PUSH20 0xFFFFFFFFFFFFFFFFFFFFFFFFFFFFFFFFFFFFFFFF AND PUSH2 0x237 PUSH2 0x2BF JUMP JUMPDEST PUSH20 0xFFFFFFFFFFFFFFFFFFFFFFFFFFFFFFFFFFFFFFFF AND EQ PUSH2 0x28D JUMPI PUSH1 0x40 MLOAD PUSH32 0x8C379A000000000000000000000000000000000000000000000000000000000 DUP2 MSTORE PUSH1 0x4 ADD PUSH2 0x284 SWAP1 PUSH2 0xB25 JUMP JUMPDEST PUSH1 0x40 MLOAD DUP1 SWAP2 SUB SWAP1 REVERT JUMPDEST PUSH2 0x297 PUSH1 0x0 PUSH2 0x5F9 JUMP JUMPDEST JUMP JUMPDEST PUSH1 0x2 PUSH1 0x0 SWAP1 SLOAD SWAP1 PUSH2 0x100 EXP SWAP1 DIV PUSH20 0xFFFFFFFFFFFFFFFFFFFFFFFFFFFFFFFFFFFFFFFF AND DUP2 JUMP JUMPDEST PUSH1 0x0 DUP1 PUSH1 0x0 SWAP1 SLOAD SWAP1 PUSH2 0x100 EXP SWAP1 DIV PUSH20 0xFFFFFFFFFFFFFFFFFFFFFFFFFFFFFFFFFFFFFFFF AND SWAP1 POP SWAP1 JUMP JUMPDEST PUSH1 0x0 DUP3 DUP3 GT ISZERO PUSH2 0x2F7 JUMPI PUSH1 0x0 DUP1 REVERT JUMPDEST DUP2 DUP4 PUSH2 0x303 SWAP2 SWAP1 PUSH2 0xB74 JUMP JUMPDEST SWAP1 POP SWAP3 SWAP2 POP POP JUMP JUMPDEST TIMESTAMP DUP2 PUSH4 0xFFFFFFFF AND GT PUSH2 0x353 JUMPI PUSH1 0x40 MLOAD PUSH32 0x8C379A000000000000000000000000000000000000000000000000000000000 DUP2 MSTORE PUSH1 0x4 ADD PUSH2 0x34A SWAP1 PUSH2 0xC1A JUMP JUMPDEST PUSH1 0x40 MLOAD DUP1 SWAP2 SUB SWAP1 REVERT JUMPDEST PUSH1 0x0 DUP3 GT PUSH2 0x396 JUMPI PUSH1 0x40 MLOAD PUSH32 0x8C379A000000000000000000000000000000000000000000000000000000000 DUP2 MSTORE PUSH1 0x4 ADD PUSH2 0x38D SWAP1 PUSH2 0xC86 JUMP JUMPDEST PUSH1 0x40 MLOAD DUP1 SWAP2 SUB SWAP1 REVERT JUMPDEST PUSH2 0x39E PUSH2 0x6BD JUMP JUMPDEST PUSH1 0x40 MLOAD DUP1 PUSH1 0x60 ADD PUSH1 0x40 MSTORE DUP1 DUP6 DUP2 MSTORE PUSH1 0x20 ADD DUP5 DUP2 MSTORE PUSH1 0x20 ADD DUP4 PUSH4 0xFFFFFFFF AND DUP2 MSTORE POP SWAP1 POP PUSH1 0x0 DUP5 DUP5 DUP5 PUSH1 0x40 MLOAD PUSH1 0x20 ADD PUSH2 0x3D8 SWAP4 SWAP3 SWAP2 SWAP1 PUSH2 0xDB5 JUMP JUMPDEST PUSH1 0x40 MLOAD PUSH1 0x20 DUP2 DUP4 SUB SUB DUP2 MSTORE SWAP1 PUSH1 0x40 MSTORE DUP1 MLOAD SWAP1 PUSH1 0x20 ADD KECCAK256 SWAP1 POP DUP6 PUSH1 0x1 PUSH1 0x0 DUP4 DUP2 MSTORE PUSH1 0x20 ADD SWAP1 DUP2 MSTORE PUSH1 0x20 ADD PUSH1 0x0 KECCAK256 PUSH1 0x0 PUSH2 0x100 EXP DUP2 SLOAD DUP2 PUSH20 0xFFFFFFFFFFFFFFFFFFFFFFFFFFFFFFFFFFFFFFFF MUL NOT AND SWAP1 DUP4 PUSH20 0xFFFFFFFFFFFFFFFFFFFFFFFFFFFFFFFFFFFFFFFF AND MUL OR SWAP1 SSTORE POP POP POP POP POP POP POP JUMP JUMPDEST PUSH1 0x1 PUSH1 0x20 MSTORE DUP1 PUSH1 0x0 MSTORE PUSH1 0x40 PUSH1 0x0 KECCAK256 PUSH1 0x0 SWAP2 POP SLOAD SWAP1 PUSH2 0x100 EXP SWAP1 DIV PUSH20 0xFFFFFFFFFFFFFFFFFFFFFFFFFFFFFFFFFFFFFFFF AND DUP2 JUMP JUMPDEST PUSH1 0x0 DUP1 DUP3 GT PUSH2 0x48B JUMPI PUSH1 0x0 DUP1 REVERT JUMPDEST DUP2 DUP4 PUSH2 0x497 SWAP2 SWAP1 PUSH2 0xE1D JUMP JUMPDEST SWAP1 POP SWAP3 SWAP2 POP POP JUMP JUMPDEST PUSH1 0x0 DUP2 DUP4 PUSH2 0x4AD SWAP2 SWAP1 PUSH2 0xE4E JUMP JUMPDEST SWAP1 POP PUSH1 0x0 DUP4 EQ DUP1 PUSH2 0x4C8 JUMPI POP DUP2 DUP4 DUP3 PUSH2 0x4C6 SWAP2 SWAP1 PUSH2 0xE1D JUMP JUMPDEST EQ JUMPDEST PUSH2 0x4D1 JUMPI PUSH1 0x0 DUP1 REVERT JUMPDEST SWAP3 SWAP2 POP POP JUMP JUMPDEST PUSH1 0x0 DUP2 DUP4 PUSH2 0x4E5 SWAP2 SWAP1 PUSH2 0xE90 JUMP JUMPDEST SWAP1 POP DUP3 DUP2 LT ISZERO PUSH2 0x4F4 JUMPI PUSH1 0x0 DUP1 REVERT JUMPDEST SWAP3 SWAP2 POP POP JUMP JUMPDEST PUSH2 0x502 PUSH2 0x5F1 JUMP JUMPDEST PUSH20 0xFFFFFFFFFFFFFFFFFFFFFFFFFFFFFFFFFFFFFFFF AND PUSH2 0x520 PUSH2 0x2BF JUMP JUMPDEST PUSH20 0xFFFFFFFFFFFFFFFFFFFFFFFFFFFFFFFFFFFFFFFF AND EQ PUSH2 0x576 JUMPI PUSH1 0x40 MLOAD PUSH32 0x8C379A000000000000000000000000000000000000000000000000000000000 DUP2 MSTORE PUSH1 0x4 ADD PUSH2 0x56D SWAP1 PUSH2 0xB25 JUMP JUMPDEST PUSH1 0x40 MLOAD DUP1 SWAP2 SUB SWAP1 REVERT JUMPDEST PUSH1 0x0 PUSH20 0xFFFFFFFFFFFFFFFFFFFFFFFFFFFFFFFFFFFFFFFF AND DUP2 PUSH20 0xFFFFFFFFFFFFFFFFFFFFFFFFFFFFFFFFFFFFFFFF AND SUB PUSH2 0x5E5 JUMPI PUSH1 0x40 MLOAD PUSH32 0x8C379A000000000000000000000000000000000000000000000000000000000 DUP2 MSTORE PUSH1 0x4 ADD PUSH2 0x5DC SWAP1 PUSH2 0xF36 JUMP JUMPDEST PUSH1 0x40 MLOAD DUP1 SWAP2 SUB SWAP1 REVERT JUMPDEST PUSH2 0x5EE DUP2 PUSH2 0x5F9 JUMP JUMPDEST POP JUMP JUMPDEST PUSH1 0x0 CALLER SWAP1 POP SWAP1 JUMP JUMPDEST PUSH1 0x0 DUP1 PUSH1 0x0 SWAP1 SLOAD SWAP1 PUSH2 0x100 EXP SWAP1 DIV PUSH20 0xFFFFFFFFFFFFFFFFFFFFFFFFFFFFFFFFFFFFFFFF AND SWAP1 POP DUP2 PUSH1 0x0 DUP1 PUSH2 0x100 EXP DUP2 SLOAD DUP2 PUSH20 0xFFFFFFFFFFFFFFFFFFFFFFFFFFFFFFFFFFFFFFFF MUL NOT AND SWAP1 DUP4 PUSH20 0xFFFFFFFFFFFFFFFFFFFFFFFFFFFFFFFFFFFFFFFF AND MUL OR SWAP1 SSTORE POP DUP2 PUSH20 0xFFFFFFFFFFFFFFFFFFFFFFFFFFFFFFFFFFFFFFFF AND DUP2 PUSH20 0xFFFFFFFFFFFFFFFFFFFFFFFFFFFFFFFFFFFFFFFF AND PUSH32 0x8BE0079C531659141344CD1FD0A4F28419497F9722A3DAAFE3B4186F6B6457E0 PUSH1 0x40 MLOAD PUSH1 0x40 MLOAD DUP1 SWAP2 SUB SWAP1 LOG3 POP POP JUMP JUMPDEST PUSH1 0x40 MLOAD DUP1 PUSH1 0x60 ADD PUSH1 0x40 MSTORE DUP1 PUSH1 0x60 DUP2 MSTORE PUSH1 0x20 ADD PUSH1 0x0 DUP2 MSTORE PUSH1 0x20 ADD PUSH1 0x0 PUSH4 0xFFFFFFFF AND DUP2 MSTORE POP SWAP1 JUMP JUMPDEST PUSH1 0x0 PUSH20 0xFFFFFFFFFFFFFFFFFFFFFFFFFFFFFFFFFFFFFFFF DUP3 AND SWAP1 POP SWAP2 SWAP1 POP JUMP JUMPDEST PUSH1 0x0 PUSH2 0x70F DUP3 PUSH2 0x6E4 JUMP JUMPDEST SWAP1 POP SWAP2 SWAP1 POP JUMP JUMPDEST PUSH2 0x71F DUP2 PUSH2 0x704 JUMP JUMPDEST DUP3 MSTORE POP POP JUMP JUMPDEST PUSH1 0x0 PUSH1 0x20 DUP3 ADD SWAP1 POP PUSH2 0x73A PUSH1 0x0 DUP4 ADD DUP5 PUSH2 0x716 JUMP JUMPDEST SWAP3 SWAP2 POP POP JUMP JUMPDEST PUSH1 0x0 PUSH1 0x40 MLOAD SWAP1 POP SWAP1 JUMP JUMPDEST PUSH1 0x0 DUP1 REVERT JUMPDEST PUSH1 0x0 DUP1 REVERT JUMPDEST PUSH1 0x0 DUP2 SWAP1 POP SWAP2 SWAP1 POP JUMP JUMPDEST PUSH2 0x767 DUP2 PUSH2 0x754 JUMP JUMPDEST DUP2 EQ PUSH2 0x772 JUMPI PUSH1 0x0 DUP1 REVERT JUMPDEST POP JUMP JUMPDEST PUSH1 0x0 DUP2 CALLDATALOAD SWAP1 POP PUSH2 0x784 DUP2 PUSH2 0x75E JUMP JUMPDEST SWAP3 SWAP2 POP POP JUMP JUMPDEST PUSH1 0x0 DUP1 PUSH1 0x40 DUP4 DUP6 SUB SLT ISZERO PUSH2 0x7A1 JUMPI PUSH2 0x7A0 PUSH2 0x74A JUMP JUMPDEST JUMPDEST PUSH1 0x0 PUSH2 0x7AF DUP6 DUP3 DUP7 ADD PUSH2 0x775 JUMP JUMPDEST SWAP3 POP POP PUSH1 0x20 PUSH2 0x7C0 DUP6 DUP3 DUP7 ADD PUSH2 0x775 JUMP JUMPDEST SWAP2 POP POP SWAP3 POP SWAP3 SWAP1 POP JUMP JUMPDEST PUSH2 0x7D3 DUP2 PUSH2 0x754 JUMP JUMPDEST DUP3 MSTORE POP POP JUMP JUMPDEST PUSH1 0x0 PUSH1 0x20 DUP3 ADD SWAP1 POP PUSH2 0x7EE PUSH1 0x0 DUP4 ADD DUP5 PUSH2 0x7CA JUMP JUMPDEST SWAP3 SWAP2 POP POP JUMP JUMPDEST PUSH2 0x7FD DUP2 PUSH2 0x704 JUMP JUMPDEST DUP2 EQ PUSH2 0x808 JUMPI PUSH1 0x0 DUP1 REVERT JUMPDEST POP JUMP JUMPDEST PUSH1 0x0 DUP2 CALLDATALOAD SWAP1 POP PUSH2 0x81A DUP2 PUSH2 0x7F4 JUMP JUMPDEST SWAP3 SWAP2 POP POP JUMP JUMPDEST PUSH1 0x0 DUP1 REVERT JUMPDEST PUSH1 0x0 PUSH1 0x1F NOT PUSH1 0x1F DUP4 ADD AND SWAP1 POP SWAP2 SWAP1 POP JUMP JUMPDEST PUSH32 0x4E487B7100000000000000000000000000000000000000000000000000000000 PUSH1 0x0 MSTORE PUSH1 0x41 PUSH1 0x4 MSTORE PUSH1 0x24 PUSH1 0x0 REVERT JUMPDEST PUSH2 0x86E DUP3 PUSH2 0x825 JUMP JUMPDEST DUP2 ADD DUP2 DUP2 LT PUSH8 0xFFFFFFFFFFFFFFFF DUP3 GT OR ISZERO PUSH2 0x88D JUMPI PUSH2 0x88C PUSH2 0x836 JUMP JUMPDEST JUMPDEST DUP1 PUSH1 0x40 MSTORE POP POP POP JUMP JUMPDEST PUSH1 0x0 PUSH2 0x8A0 PUSH2 0x740 JUMP JUMPDEST SWAP1 POP PUSH2 0x8AC DUP3 DUP3 PUSH2 0x865 JUMP JUMPDEST SWAP2 SWAP1 POP JUMP JUMPDEST PUSH1 0x0 PUSH8 0xFFFFFFFFFFFFFFFF DUP3 GT ISZERO PUSH2 0x8CC JUMPI PUSH2 0x8CB PUSH2 0x836 JUMP JUMPDEST JUMPDEST PUSH1 0x20 DUP3 MUL SWAP1 POP PUSH1 0x20 DUP2 ADD SWAP1 POP SWAP2 SWAP1 POP JUMP JUMPDEST PUSH1 0x0 DUP1 REVERT JUMPDEST PUSH1 0x0 PUSH2 0x8F5 PUSH2 0x8F0 DUP5 PUSH2 0x8B1 JUMP JUMPDEST PUSH2 0x896 JUMP JUMPDEST SWAP1 POP DUP1 DUP4 DUP3 MSTORE PUSH1 0x20 DUP3 ADD SWAP1 POP PUSH1 0x20 DUP5 MUL DUP4 ADD DUP6 DUP2 GT ISZERO PUSH2 0x918 JUMPI PUSH2 0x917 PUSH2 0x8DD JUMP JUMPDEST JUMPDEST DUP4 JUMPDEST DUP2 DUP2 LT ISZERO PUSH2 0x941 JUMPI DUP1 PUSH2 0x92D DUP9 DUP3 PUSH2 0x80B JUMP JUMPDEST DUP5 MSTORE PUSH1 0x20 DUP5 ADD SWAP4 POP POP PUSH1 0x20 DUP2 ADD SWAP1 POP PUSH2 0x91A JUMP JUMPDEST POP POP POP SWAP4 SWAP3 POP POP POP JUMP JUMPDEST PUSH1 0x0 DUP3 PUSH1 0x1F DUP4 ADD SLT PUSH2 0x960 JUMPI PUSH2 0x95F PUSH2 0x820 JUMP JUMPDEST JUMPDEST DUP2 CALLDATALOAD PUSH2 0x970 DUP5 DUP3 PUSH1 0x20 DUP7 ADD PUSH2 0x8E2 JUMP JUMPDEST SWAP2 POP POP SWAP3 SWAP2 POP POP JUMP JUMPDEST PUSH1 0x0 PUSH4 0xFFFFFFFF DUP3 AND SWAP1 POP SWAP2 SWAP1 POP JUMP JUMPDEST PUSH2 0x992 DUP2 PUSH2 0x979 JUMP JUMPDEST DUP2 EQ PUSH2 0x99D JUMPI PUSH1 0x0 DUP1 REVERT JUMPDEST POP JUMP JUMPDEST PUSH1 0x0 DUP2 CALLDATALOAD SWAP1 POP PUSH2 0x9AF DUP2 PUSH2 0x989 JUMP JUMPDEST SWAP3 SWAP2 POP POP JUMP JUMPDEST PUSH1 0x0 DUP1 PUSH1 0x0 DUP1 PUSH1 0x80 DUP6 DUP8 SUB SLT ISZERO PUSH2 0x9CF JUMPI PUSH2 0x9CE PUSH2 0x74A JUMP JUMPDEST JUMPDEST PUSH1 0x0 PUSH2 0x9DD DUP8 DUP3 DUP9 ADD PUSH2 0x80B JUMP JUMPDEST SWAP5 POP POP PUSH1 0x20 DUP6 ADD CALLDATALOAD PUSH8 0xFFFFFFFFFFFFFFFF DUP2 GT ISZERO PUSH2 0x9FE JUMPI PUSH2 0x9FD PUSH2 0x74F JUMP JUMPDEST JUMPDEST PUSH2 0xA0A DUP8 DUP3 DUP9 ADD PUSH2 0x94B JUMP JUMPDEST SWAP4 POP POP PUSH1 0x40 PUSH2 0xA1B DUP8 DUP3 DUP9 ADD PUSH2 0x775 JUMP JUMPDEST SWAP3 POP POP PUSH1 0x60 PUSH2 0xA2C DUP8 DUP3 DUP9 ADD PUSH2 0x9A0 JUMP JUMPDEST SWAP2 POP POP SWAP3 SWAP6 SWAP2 SWAP5 POP SWAP3 POP JUMP JUMPDEST PUSH1 0x0 DUP2 SWAP1 POP SWAP2 SWAP1 POP JUMP JUMPDEST PUSH2 0xA4B DUP2 PUSH2 0xA38 JUMP JUMPDEST DUP2 EQ PUSH2 0xA56 JUMPI PUSH1 0x0 DUP1 REVERT JUMPDEST POP JUMP JUMPDEST PUSH1 0x0 DUP2 CALLDATALOAD SWAP1 POP PUSH2 0xA68 DUP2 PUSH2 0xA42 JUMP JUMPDEST SWAP3 SWAP2 POP POP JUMP JUMPDEST PUSH1 0x0 PUSH1 0x20 DUP3 DUP5 SUB SLT ISZERO PUSH2 0xA84 JUMPI PUSH2 0xA83 PUSH2 0x74A JUMP JUMPDEST JUMPDEST PUSH1 0x0 PUSH2 0xA92 DUP5 DUP3 DUP6 ADD PUSH2 0xA59 JUMP JUMPDEST SWAP2 POP POP SWAP3 SWAP2 POP POP JUMP JUMPDEST PUSH1 0x0 PUSH1 0x20 DUP3 DUP5 SUB SLT ISZERO PUSH2 0xAB1 JUMPI PUSH2 0xAB0 PUSH2 0x74A JUMP JUMPDEST JUMPDEST PUSH1 0x0 PUSH2 0xABF DUP5 DUP3 DUP6 ADD PUSH2 0x80B JUMP JUMPDEST SWAP2 POP POP SWAP3 SWAP2 POP POP JUMP JUMPDEST PUSH1 0x0 DUP3 DUP3 MSTORE PUSH1 0x20 DUP3 ADD SWAP1 POP SWAP3 SWAP2 POP POP JUMP JUMPDEST PUSH32 0x4F776E61626C653A2063616C6C6572206973206E6F7420746865206F776E6572 PUSH1 0x0 DUP3 ADD MSTORE POP JUMP JUMPDEST PUSH1 0x0 PUSH2 0xB0F PUSH1 0x20 DUP4 PUSH2 0xAC8 JUMP JUMPDEST SWAP2 POP PUSH2 0xB1A DUP3 PUSH2 0xAD9 JUMP JUMPDEST PUSH1 0x20 DUP3 ADD SWAP1 POP SWAP2 SWAP1 POP JUMP JUMPDEST PUSH1 0x0 PUSH1 0x20 DUP3 ADD SWAP1 POP DUP2 DUP2 SUB PUSH1 0x0 DUP4 ADD MSTORE PUSH2 0xB3E DUP2 PUSH2 0xB02 JUMP JUMPDEST SWAP1 POP SWAP2 SWAP1 POP JUMP JUMPDEST PUSH32 0x4E487B7100000000000000000000000000000000000000000000000000000000 PUSH1 0x0 MSTORE PUSH1 0x11 PUSH1 0x4 MSTORE PUSH1 0x24 PUSH1 0x0 REVERT JUMPDEST PUSH1 0x0 PUSH2 0xB7F DUP3 PUSH2 0x754 JUMP JUMPDEST SWAP2 POP PUSH2 0xB8A DUP4 PUSH2 0x754 JUMP JUMPDEST SWAP3 POP DUP3 DUP3 SUB SWAP1 POP DUP2 DUP2 GT ISZERO PUSH2 0xBA2 JUMPI PUSH2 0xBA1 PUSH2 0xB45 JUMP JUMPDEST JUMPDEST SWAP3 SWAP2 POP POP JUMP JUMPDEST PUSH32 0x45787069726174696F6E2064617465206D757374206265206C61726765722074 PUSH1 0x0 DUP3 ADD MSTORE PUSH32 0x68616E206E6F7700000000000000000000000000000000000000000000000000 PUSH1 0x20 DUP3 ADD MSTORE POP JUMP JUMPDEST PUSH1 0x0 PUSH2 0xC04 PUSH1 0x27 DUP4 PUSH2 0xAC8 JUMP JUMPDEST SWAP2 POP PUSH2 0xC0F DUP3 PUSH2 0xBA8 JUMP JUMPDEST PUSH1 0x40 DUP3 ADD SWAP1 POP SWAP2 SWAP1 POP JUMP JUMPDEST PUSH1 0x0 PUSH1 0x20 DUP3 ADD SWAP1 POP DUP2 DUP2 SUB PUSH1 0x0 DUP4 ADD MSTORE PUSH2 0xC33 DUP2 PUSH2 0xBF7 JUMP JUMPDEST SWAP1 POP SWAP2 SWAP1 POP JUMP JUMPDEST PUSH32 0x5072696365206D757374206E6F74206265207A65726F00000000000000000000 PUSH1 0x0 DUP3 ADD MSTORE POP JUMP JUMPDEST PUSH1 0x0 PUSH2 0xC70 PUSH1 0x16 DUP4 PUSH2 0xAC8 JUMP JUMPDEST SWAP2 POP PUSH2 0xC7B DUP3 PUSH2 0xC3A JUMP JUMPDEST PUSH1 0x20 DUP3 ADD SWAP1 POP SWAP2 SWAP1 POP JUMP JUMPDEST PUSH1 0x0 PUSH1 0x20 DUP3 ADD SWAP1 POP DUP2 DUP2 SUB PUSH1 0x0 DUP4 ADD MSTORE PUSH2 0xC9F DUP2 PUSH2 0xC63 JUMP JUMPDEST SWAP1 POP SWAP2 SWAP1 POP JUMP JUMPDEST PUSH1 0x0 DUP2 MLOAD SWAP1 POP SWAP2 SWAP1 POP JUMP JUMPDEST PUSH1 0x0 DUP2 SWAP1 POP SWAP3 SWAP2 POP POP JUMP JUMPDEST PUSH1 0x0 DUP2 SWAP1 POP PUSH1 0x20 DUP3 ADD SWAP1 POP SWAP2 SWAP1 POP JUMP JUMPDEST PUSH2 0xCD5 DUP2 PUSH2 0x704 JUMP JUMPDEST DUP3 MSTORE POP POP JUMP JUMPDEST PUSH1 0x0 PUSH2 0xCE7 DUP4 DUP4 PUSH2 0xCCC JUMP JUMPDEST PUSH1 0x20 DUP4 ADD SWAP1 POP SWAP3 SWAP2 POP POP JUMP JUMPDEST PUSH1 0x0 PUSH1 0x20 DUP3 ADD SWAP1 POP SWAP2 SWAP1 POP JUMP JUMPDEST PUSH1 0x0 PUSH2 0xD0B DUP3 PUSH2 0xCA6 JUMP JUMPDEST PUSH2 0xD15 DUP2 DUP6 PUSH2 0xCB1 JUMP JUMPDEST SWAP4 POP PUSH2 0xD20 DUP4 PUSH2 0xCBC JUMP JUMPDEST DUP1 PUSH1 0x0 JUMPDEST DUP4 DUP2 LT ISZERO PUSH2 0xD51 JUMPI DUP2 MLOAD PUSH2 0xD38 DUP9 DUP3 PUSH2 0xCDB JUMP JUMPDEST SWAP8 POP PUSH2 0xD43 DUP4 PUSH2 0xCF3 JUMP JUMPDEST SWAP3 POP POP PUSH1 0x1 DUP2 ADD SWAP1 POP PUSH2 0xD24 JUMP JUMPDEST POP DUP6 SWAP4 POP POP POP POP SWAP3 SWAP2 POP POP JUMP JUMPDEST PUSH1 0x0 DUP2 SWAP1 POP SWAP2 SWAP1 POP JUMP JUMPDEST PUSH2 0xD79 PUSH2 0xD74 DUP3 PUSH2 0x754 JUMP JUMPDEST PUSH2 0xD5E JUMP JUMPDEST DUP3 MSTORE POP POP JUMP JUMPDEST PUSH1 0x0 DUP2 PUSH1 0xE0 SHL SWAP1 POP SWAP2 SWAP1 POP JUMP JUMPDEST PUSH1 0x0 PUSH2 0xD97 DUP3 PUSH2 0xD7F JUMP JUMPDEST SWAP1 POP SWAP2 SWAP1 POP JUMP JUMPDEST PUSH2 0xDAF PUSH2 0xDAA DUP3 PUSH2 0x979 JUMP JUMPDEST PUSH2 0xD8C JUMP JUMPDEST DUP3 MSTORE POP POP JUMP JUMPDEST PUSH1 0x0 PUSH2 0xDC1 DUP3 DUP7 PUSH2 0xD00 JUMP JUMPDEST SWAP2 POP PUSH2 0xDCD DUP3 DUP6 PUSH2 0xD68 JUMP JUMPDEST PUSH1 0x20 DUP3 ADD SWAP2 POP PUSH2 0xDDD DUP3 DUP5 PUSH2 0xD9E JUMP JUMPDEST PUSH1 0x4 DUP3 ADD SWAP2 POP DUP2 SWAP1 POP SWAP5 SWAP4 POP POP POP POP JUMP JUMPDEST PUSH32 0x4E487B7100000000000000000000000000000000000000000000000000000000 PUSH1 0x0 MSTORE PUSH1 0x12 PUSH1 0x4 MSTORE PUSH1 0x24 PUSH1 0x0 REVERT JUMPDEST PUSH1 0x0 PUSH2 0xE28 DUP3 PUSH2 0x754 JUMP JUMPDEST SWAP2 POP PUSH2 0xE33 DUP4 PUSH2 0x754 JUMP JUMPDEST SWAP3 POP DUP3 PUSH2 0xE43 JUMPI PUSH2 0xE42 PUSH2 0xDEE JUMP JUMPDEST JUMPDEST DUP3 DUP3 DIV SWAP1 POP SWAP3 SWAP2 POP POP JUMP JUMPDEST PUSH1 0x0 PUSH2 0xE59 DUP3 PUSH2 0x754 JUMP JUMPDEST SWAP2 POP PUSH2 0xE64 DUP4 PUSH2 0x754 JUMP JUMPDEST SWAP3 POP DUP3 DUP3 MUL PUSH2 0xE72 DUP2 PUSH2 0x754 JUMP JUMPDEST SWAP2 POP DUP3 DUP3 DIV DUP5 EQ DUP4 ISZERO OR PUSH2 0xE89 JUMPI PUSH2 0xE88 PUSH2 0xB45 JUMP JUMPDEST JUMPDEST POP SWAP3 SWAP2 POP POP JUMP JUMPDEST PUSH1 0x0 PUSH2 0xE9B DUP3 PUSH2 0x754 JUMP JUMPDEST SWAP2 POP PUSH2 0xEA6 DUP4 PUSH2 0x754 JUMP JUMPDEST SWAP3 POP DUP3 DUP3 ADD SWAP1 POP DUP1 DUP3 GT ISZERO PUSH2 0xEBE JUMPI PUSH2 0xEBD PUSH2 0xB45 JUMP JUMPDEST JUMPDEST SWAP3 SWAP2 POP POP JUMP JUMPDEST PUSH32 0x4F776E61626C653A206E6577206F776E657220697320746865207A65726F2061 PUSH1 0x0 DUP3 ADD MSTORE PUSH32 0x6464726573730000000000000000000000000000000000000000000000000000 PUSH1 0x20 DUP3 ADD MSTORE POP JUMP JUMPDEST PUSH1 0x0 PUSH2 0xF20 PUSH1 0x26 DUP4 PUSH2 0xAC8 JUMP JUMPDEST SWAP2 POP PUSH2 0xF2B DUP3 PUSH2 0xEC4 JUMP JUMPDEST PUSH1 0x40 DUP3 ADD SWAP1 POP SWAP2 SWAP1 POP JUMP JUMPDEST PUSH1 0x0 PUSH1 0x20 DUP3 ADD SWAP1 POP DUP2 DUP2 SUB PUSH1 0x0 DUP4 ADD MSTORE PUSH2 0xF4F DUP2 PUSH2 0xF13 JUMP JUMPDEST SWAP1 POP SWAP2 SWAP1 POP JUMP INVALID LOG2 PUSH5 0x6970667358 0x22 SLT KECCAK256 SWAP5 0x5E 0x25 0x5E CALLCODE 0xC8 0xD2 SELFBALANCE NUMBER SELFBALANCE SDIV SMOD LOG1 PUSH27 0xACF0A6E5C5423B22AB4BD701298E92ADF30064736F6C6343000812 STOP CALLER "
				},
				"gasEstimates": {
					"creation": {
						"codeDepositCost": "796000",
						"executionCost": "infinite",
						"totalCost": "infinite"
					},
					"external": {
						"CreatePoolOption(address,address[],uint256,uint32)": "infinite",
						"owner()": "2567",
						"pools(bytes32)": "2839",
						"renounceOwnership()": "30375",
						"safeAdd(uint256,uint256)": "infinite",
						"safeDiv(uint256,uint256)": "infinite",
						"safeMul(uint256,uint256)": "infinite",
						"safeSub(uint256,uint256)": "infinite",
						"stakingToken()": "2537",
						"transferOwnership(address)": "30808"
					}
				},
				"methodIdentifiers": {
					"CreatePoolOption(address,address[],uint256,uint32)": "b234994c",
					"owner()": "8da5cb5b",
					"pools(bytes32)": "b5217bb4",
					"renounceOwnership()": "715018a6",
					"safeAdd(uint256,uint256)": "e6cb9013",
					"safeDiv(uint256,uint256)": "b5931f7c",
					"safeMul(uint256,uint256)": "d05c78da",
					"safeSub(uint256,uint256)": "a293d1e8",
					"stakingToken()": "72f702f3",
					"transferOwnership(address)": "f2fde38b"
				}
			},
			"storageLayout": {
				"storage": [
					{
						"astId": 24,
						"contract": "contracts/creator.sol:PIEXCreator",
						"label": "_owner",
						"offset": 0,
						"slot": "0",
						"type": "t_address"
					},
					{
						"astId": 238,
						"contract": "contracts/creator.sol:PIEXCreator",
						"label": "pools",
						"offset": 0,
						"slot": "1",
						"type": "t_mapping(t_bytes32,t_address)"
					},
					{
						"astId": 240,
						"contract": "contracts/creator.sol:PIEXCreator",
						"label": "stakingToken",
						"offset": 0,
						"slot": "2",
						"type": "t_address"
					}
				],
				"types": {
					"t_address": {
						"encoding": "inplace",
						"label": "address",
						"numberOfBytes": "20"
					},
					"t_bytes32": {
						"encoding": "inplace",
						"label": "bytes32",
						"numberOfBytes": "32"
					},
					"t_mapping(t_bytes32,t_address)": {
						"encoding": "mapping",
						"key": "t_bytes32",
						"label": "mapping(bytes32 => address)",
						"numberOfBytes": "32",
						"value": "t_address"
					}
				}
			},
			"userdoc": {
				"kind": "user",
				"methods": {},
				"version": 1
			}
		}
	}
}