{
	"data": {
		"bytecode": {
			"linkReferences": {},
			"object": "60806040525f60085534801562000014575f80fd5b506040518060400160405280601381526020017f50494558506572736f6e616c4f7074696f6e73000000000000000000000000008152506040518060400160405280600781526020017f4f5054494f4e5300000000000000000000000000000000000000000000000000815250815f9081620000919190620003fa565b508060019081620000a39190620003fa565b505050620000c6620000ba620000cc60201b60201c565b620000d360201b60201c565b620004de565b5f33905090565b5f60075f9054906101000a900473ffffffffffffffffffffffffffffffffffffffff1690508160075f6101000a81548173ffffffffffffffffffffffffffffffffffffffff021916908373ffffffffffffffffffffffffffffffffffffffff1602179055508173ffffffffffffffffffffffffffffffffffffffff168173ffffffffffffffffffffffffffffffffffffffff167f8be0079c531659141344cd1fd0a4f28419497f9722a3daafe3b4186f6b6457e060405160405180910390a35050565b5f81519050919050565b7f4e487b71000000000000000000000000000000000000000000000000000000005f52604160045260245ffd5b7f4e487b71000000000000000000000000000000000000000000000000000000005f52602260045260245ffd5b5f60028204905060018216806200021257607f821691505b602082108103620002285762000227620001cd565b5b50919050565b5f819050815f5260205f209050919050565b5f6020601f8301049050919050565b5f82821b905092915050565b5f600883026200028c7fffffffffffffffffffffffffffffffffffffffffffffffffffffffffffffffff826200024f565b6200029886836200024f565b95508019841693508086168417925050509392505050565b5f819050919050565b5f819050919050565b5f620002e2620002dc620002d684620002b0565b620002b9565b620002b0565b9050919050565b5f819050919050565b620002fd83620002c2565b620003156200030c82620002e9565b8484546200025b565b825550505050565b5f90565b6200032b6200031d565b62000338818484620002f2565b505050565b5b818110156200035f57620003535f8262000321565b6001810190506200033e565b5050565b601f821115620003ae5762000378816200022e565b620003838462000240565b8101602085101562000393578190505b620003ab620003a28562000240565b8301826200033d565b50505b505050565b5f82821c905092915050565b5f620003d05f1984600802620003b3565b1980831691505092915050565b5f620003ea8383620003bf565b9150826002028217905092915050565b620004058262000196565b67ffffffffffffffff811115620004215762000420620001a0565b5b6200042d8254620001fa565b6200043a82828562000363565b5f60209050601f83116001811462000470575f84156200045b578287015190505b620004678582620003dd565b865550620004d6565b601f19841662000480866200022e565b5f5b82811015620004a95784890151825560018201915060208501945060208101905062000482565b86831015620004c95784890151620004c5601f891682620003bf565b8355505b6001600288020188555050505b505050505050565b613e0280620004ec5f395ff3fe608060405234801561000f575f80fd5b5060043610610171575f3560e01c80638da5cb5b116100dc578063b5931f7c11610095578063d05c78da1161006f578063d05c78da1461046d578063e6cb90131461049d578063e985e9c5146104cd578063f2fde38b146104fd57610171565b8063b5931f7c146103f1578063b88d4fde14610421578063c87b56dd1461043d57610171565b80638da5cb5b1461031b5780639090c5451461033957806395d89b4114610357578063a22cb46514610375578063a293d1e814610391578063a4e1c3ac146103c157610171565b806323b872dd1161012e57806323b872dd1461025b57806342842e0e146102775780636352211e1461029357806370a08231146102c3578063715018a6146102f357806384c4bd4b146102fd57610171565b806301ffc9a714610175578063032fabfc146101a557806306fdde03146101d5578063081812fc146101f3578063095ea7b314610223578063151743741461023f575b5f80fd5b61018f600480360381019061018a919061260e565b610519565b60405161019c9190612653565b60405180910390f35b6101bf60048036038101906101ba919061269f565b610579565b6040516101cc9190612974565b60405180910390f35b6101dd6107b1565b6040516101ea91906129dc565b60405180910390f35b61020d6004803603810190610208919061269f565b610840565b60405161021a9190612a0b565b60405180910390f35b61023d60048036038101906102389190612a4e565b610882565b005b61025960048036038101906102549190612c92565b610998565b005b61027560048036038101906102709190612cf6565b610c48565b005b610291600480360381019061028c9190612cf6565b610ca8565b005b6102ad60048036038101906102a8919061269f565b610cc7565b6040516102ba9190612a0b565b60405180910390f35b6102dd60048036038101906102d89190612d46565b610d4b565b6040516102ea9190612d80565b60405180910390f35b6102fb610dff565b005b610305610e86565b6040516103129190612d80565b60405180910390f35b610323610e91565b6040516103309190612a0b565b60405180910390f35b610341610eb9565b60405161034e9190612d80565b60405180910390f35b61035f610ec9565b60405161036c91906129dc565b60405180910390f35b61038f600480360381019061038a9190612dc3565b610f59565b005b6103ab60048036038101906103a69190612e01565b610f6f565b6040516103b89190612d80565b60405180910390f35b6103db60048036038101906103d6919061269f565b610f90565b6040516103e89190612653565b60405180910390f35b61040b60048036038101906104069190612e01565b610fd1565b6040516104189190612d80565b60405180910390f35b61043b60048036038101906104369190612eef565b610ff1565b005b6104576004803603810190610452919061269f565b611053565b60405161046491906129dc565b60405180910390f35b61048760048036038101906104829190612e01565b61115d565b6040516104949190612d80565b60405180910390f35b6104b760048036038101906104b29190612e01565b611192565b6040516104c49190612d80565b60405180910390f35b6104e760048036038101906104e29190612f6f565b6111b3565b6040516104f49190612653565b60405180910390f35b61051760048036038101906105129190612d46565b611241565b005b5f634906490660e01b7bffffffffffffffffffffffffffffffffffffffffffffffffffffffff1916827bffffffffffffffffffffffffffffffffffffffffffffffffffffffff19161480610572575061057182611337565b5b9050919050565b61058161242b565b600a5f8381526020019081526020015f206040518060c00160405290815f82015f9054906101000a900473ffffffffffffffffffffffffffffffffffffffff1673ffffffffffffffffffffffffffffffffffffffff1673ffffffffffffffffffffffffffffffffffffffff16815260200160018201805461060190612fda565b80601f016020809104026020016040519081016040528092919081815260200182805461062d90612fda565b80156106785780601f1061064f57610100808354040283529160200191610678565b820191905f5260205f20905b81548152906001019060200180831161065b57829003601f168201915b50505050508152602001600282016002806020026040519081016040528092919082600280156106f2576020028201915b815f9054906101000a900473ffffffffffffffffffffffffffffffffffffffff1673ffffffffffffffffffffffffffffffffffffffff16815260200190600101908083116106a9575b5050505050815260200160048201600280602002604051908101604052809291908260028015610737576020028201915b815481526020019060010190808311610723575b505050505081526020016006820160028060200260405190810160405280929190826002801561077c576020028201915b815481526020019060010190808311610768575b50505050508152602001600882015f9054906101000a900463ffffffff1663ffffffff1663ffffffff16815250509050919050565b60605f80546107bf90612fda565b80601f01602080910402602001604051908101604052809291908181526020018280546107eb90612fda565b80156108365780601f1061080d57610100808354040283529160200191610836565b820191905f5260205f20905b81548152906001019060200180831161081957829003601f168201915b5050505050905090565b5f61084a82611418565b60045f8381526020019081526020015f205f9054906101000a900473ffffffffffffffffffffffffffffffffffffffff169050919050565b5f61088c82610cc7565b90508073ffffffffffffffffffffffffffffffffffffffff168373ffffffffffffffffffffffffffffffffffffffff16036108fc576040517f08c379a00000000000000000000000000000000000000000000000000000000081526004016108f39061307a565b60405180910390fd5b8073ffffffffffffffffffffffffffffffffffffffff1661091b611463565b73ffffffffffffffffffffffffffffffffffffffff16148061094a575061094981610944611463565b6111b3565b5b610989576040517f08c379a000000000000000000000000000000000000000000000000000000000815260040161098090613108565b60405180910390fd5b610993838361146a565b505050565b428163ffffffff16116109e0576040517f08c379a00000000000000000000000000000000000000000000000000000000081526004016109d790613196565b60405180910390fd5b5f825f600281106109f4576109f36131b4565b5b6020020151118015610a1d57505f82600160028110610a1657610a156131b4565b5b6020020151115b610a5c576040517f08c379a0000000000000000000000000000000000000000000000000000000008152600401610a539061322b565b60405180910390fd5b5f610a676009611520565b9050610aa3845f60028110610a7f57610a7e6131b4565b5b60200201513330865f60028110610a9957610a986131b4565b5b602002015161152c565b610aad600961165f565b610ab78582611673565b5f6040518060400160405280855f60028110610ad657610ad56131b4565b5b602002015181526020015f81525090506040518060c001604052803373ffffffffffffffffffffffffffffffffffffffff1681526020016040518060400160405280600381526020017f6e6577000000000000000000000000000000000000000000000000000000000081525081526020018681526020018581526020018281526020018463ffffffff16815250600a5f8481526020019081526020015f205f820151815f015f6101000a81548173ffffffffffffffffffffffffffffffffffffffff021916908373ffffffffffffffffffffffffffffffffffffffff1602179055506020820151816001019081610bce91906133e6565b50604082015181600201906002610be692919061248d565b50606082015181600401906002610bfe929190612509565b50608082015181600601906002610c16929190612509565b5060a0820151816008015f6101000a81548163ffffffff021916908363ffffffff160217905550905050505050505050565b610c59610c53611463565b82611690565b610c98576040517f08c379a0000000000000000000000000000000000000000000000000000000008152600401610c8f90613525565b60405180910390fd5b610ca3838383611724565b505050565b610cc283838360405180602001604052805f815250610ff1565b505050565b5f80610cd283611a10565b90505f73ffffffffffffffffffffffffffffffffffffffff168173ffffffffffffffffffffffffffffffffffffffff1603610d42576040517f08c379a0000000000000000000000000000000000000000000000000000000008152600401610d399061358d565b60405180910390fd5b80915050919050565b5f8073ffffffffffffffffffffffffffffffffffffffff168273ffffffffffffffffffffffffffffffffffffffff1603610dba576040517f08c379a0000000000000000000000000000000000000000000000000000000008152600401610db19061361b565b60405180910390fd5b60035f8373ffffffffffffffffffffffffffffffffffffffff1673ffffffffffffffffffffffffffffffffffffffff1681526020019081526020015f20549050919050565b610e07611463565b73ffffffffffffffffffffffffffffffffffffffff16610e25610e91565b73ffffffffffffffffffffffffffffffffffffffff1614610e7b576040517f08c379a0000000000000000000000000000000000000000000000000000000008152600401610e7290613683565b60405180910390fd5b610e845f611a49565b565b6009805f0154905081565b5f60075f9054906101000a900473ffffffffffffffffffffffffffffffffffffffff16905090565b5f610ec46009611520565b905090565b606060018054610ed890612fda565b80601f0160208091040260200160405190810160405280929190818152602001828054610f0490612fda565b8015610f4f5780601f10610f2657610100808354040283529160200191610f4f565b820191905f5260205f20905b815481529060010190602001808311610f3257829003601f168201915b5050505050905090565b610f6b610f64611463565b8383611b0c565b5050565b5f82821115610f7c575f80fd5b8183610f8891906136ce565b905092915050565b5f80600a5f8481526020019081526020015f206004015f60028110610fb857610fb76131b4565b5b015403610fc85760019050610fcc565b5f90505b919050565b5f808211610fdd575f80fd5b8183610fe9919061372e565b905092915050565b611002610ffc611463565b83611690565b611041576040517f08c379a000000000000000000000000000000000000000000000000000000000815260040161103890613525565b60405180910390fd5b61104d84848484611c73565b50505050565b606061105e82611418565b5f60065f8481526020019081526020015f20805461107b90612fda565b80601f01602080910402602001604051908101604052809291908181526020018280546110a790612fda565b80156110f25780601f106110c9576101008083540402835291602001916110f2565b820191905f5260205f20905b8154815290600101906020018083116110d557829003601f168201915b505050505090505f611102611ccf565b90505f815103611116578192505050611158565b5f8251111561114a578082604051602001611132929190613798565b60405160208183030381529060405292505050611158565b61115384611ce5565b925050505b919050565b5f818361116a91906137bb565b90505f8314806111845750818382611182919061372e565b145b61118c575f80fd5b92915050565b5f818361119f91906137fc565b9050828110156111ad575f80fd5b92915050565b5f60055f8473ffffffffffffffffffffffffffffffffffffffff1673ffffffffffffffffffffffffffffffffffffffff1681526020019081526020015f205f8373ffffffffffffffffffffffffffffffffffffffff1673ffffffffffffffffffffffffffffffffffffffff1681526020019081526020015f205f9054906101000a900460ff16905092915050565b611249611463565b73ffffffffffffffffffffffffffffffffffffffff16611267610e91565b73ffffffffffffffffffffffffffffffffffffffff16146112bd576040517f08c379a00000000000000000000000000000000000000000000000000000000081526004016112b490613683565b60405180910390fd5b5f73ffffffffffffffffffffffffffffffffffffffff168173ffffffffffffffffffffffffffffffffffffffff160361132b576040517f08c379a00000000000000000000000000000000000000000000000000000000081526004016113229061389f565b60405180910390fd5b61133481611a49565b50565b5f7f80ac58cd000000000000000000000000000000000000000000000000000000007bffffffffffffffffffffffffffffffffffffffffffffffffffffffff1916827bffffffffffffffffffffffffffffffffffffffffffffffffffffffff1916148061140157507f5b5e139f000000000000000000000000000000000000000000000000000000007bffffffffffffffffffffffffffffffffffffffffffffffffffffffff1916827bffffffffffffffffffffffffffffffffffffffffffffffffffffffff1916145b80611411575061141082611d4a565b5b9050919050565b61142181611db3565b611460576040517f08c379a00000000000000000000000000000000000000000000000000000000081526004016114579061358d565b60405180910390fd5b50565b5f33905090565b8160045f8381526020019081526020015f205f6101000a81548173ffffffffffffffffffffffffffffffffffffffff021916908373ffffffffffffffffffffffffffffffffffffffff160217905550808273ffffffffffffffffffffffffffffffffffffffff166114da83610cc7565b73ffffffffffffffffffffffffffffffffffffffff167f8c5be1e5ebec7d5bd14f71427d1e84f3dd0314c0f7b2291e5b200ac8c7c3b92560405160405180910390a45050565b5f815f01549050919050565b5f808573ffffffffffffffffffffffffffffffffffffffff166323b872dd86868660405160240161155f939291906138bd565b6040516020818303038152906040529060e01b6020820180517bffffffffffffffffffffffffffffffffffffffffffffffffffffffff83818316178352505050506040516115ad9190613936565b5f604051808303815f865af19150503d805f81146115e6576040519150601f19603f3d011682016040523d82523d5f602084013e6115eb565b606091505b509150915081801561161857505f815114806116175750808060200190518101906116169190613960565b5b5b611657576040517f08c379a000000000000000000000000000000000000000000000000000000000815260040161164e906139fb565b60405180910390fd5b505050505050565b6001815f015f828254019250508190555050565b61168c828260405180602001604052805f815250611df3565b5050565b5f8061169b83610cc7565b90508073ffffffffffffffffffffffffffffffffffffffff168473ffffffffffffffffffffffffffffffffffffffff1614806116dd57506116dc81856111b3565b5b8061171b57508373ffffffffffffffffffffffffffffffffffffffff1661170384610840565b73ffffffffffffffffffffffffffffffffffffffff16145b91505092915050565b8273ffffffffffffffffffffffffffffffffffffffff1661174482610cc7565b73ffffffffffffffffffffffffffffffffffffffff161461179a576040517f08c379a000000000000000000000000000000000000000000000000000000000815260040161179190613a89565b60405180910390fd5b5f73ffffffffffffffffffffffffffffffffffffffff168273ffffffffffffffffffffffffffffffffffffffff1603611808576040517f08c379a00000000000000000000000000000000000000000000000000000000081526004016117ff90613b17565b60405180910390fd5b6118158383836001611e4d565b8273ffffffffffffffffffffffffffffffffffffffff1661183582610cc7565b73ffffffffffffffffffffffffffffffffffffffff161461188b576040517f08c379a000000000000000000000000000000000000000000000000000000000815260040161188290613a89565b60405180910390fd5b60045f8281526020019081526020015f205f6101000a81549073ffffffffffffffffffffffffffffffffffffffff0219169055600160035f8573ffffffffffffffffffffffffffffffffffffffff1673ffffffffffffffffffffffffffffffffffffffff1681526020019081526020015f205f8282540392505081905550600160035f8473ffffffffffffffffffffffffffffffffffffffff1673ffffffffffffffffffffffffffffffffffffffff1681526020019081526020015f205f82825401925050819055508160025f8381526020019081526020015f205f6101000a81548173ffffffffffffffffffffffffffffffffffffffff021916908373ffffffffffffffffffffffffffffffffffffffff160217905550808273ffffffffffffffffffffffffffffffffffffffff168473ffffffffffffffffffffffffffffffffffffffff167fddf252ad1be2c89b69c2b068fc378daa952ba7f163c4a11628f55a4df523b3ef60405160405180910390a4611a0b8383836001611e53565b505050565b5f60025f8381526020019081526020015f205f9054906101000a900473ffffffffffffffffffffffffffffffffffffffff169050919050565b5f60075f9054906101000a900473ffffffffffffffffffffffffffffffffffffffff1690508160075f6101000a81548173ffffffffffffffffffffffffffffffffffffffff021916908373ffffffffffffffffffffffffffffffffffffffff1602179055508173ffffffffffffffffffffffffffffffffffffffff168173ffffffffffffffffffffffffffffffffffffffff167f8be0079c531659141344cd1fd0a4f28419497f9722a3daafe3b4186f6b6457e060405160405180910390a35050565b8173ffffffffffffffffffffffffffffffffffffffff168373ffffffffffffffffffffffffffffffffffffffff1603611b7a576040517f08c379a0000000000000000000000000000000000000000000000000000000008152600401611b7190613b7f565b60405180910390fd5b8060055f8573ffffffffffffffffffffffffffffffffffffffff1673ffffffffffffffffffffffffffffffffffffffff1681526020019081526020015f205f8473ffffffffffffffffffffffffffffffffffffffff1673ffffffffffffffffffffffffffffffffffffffff1681526020019081526020015f205f6101000a81548160ff0219169083151502179055508173ffffffffffffffffffffffffffffffffffffffff168373ffffffffffffffffffffffffffffffffffffffff167f17307eab39ab6107e8899845ad3d59bd9653f200f220920489ca2b5937696c3183604051611c669190612653565b60405180910390a3505050565b611c7e848484611724565b611c8a84848484611e59565b611cc9576040517f08c379a0000000000000000000000000000000000000000000000000000000008152600401611cc090613c0d565b60405180910390fd5b50505050565b606060405180602001604052805f815250905090565b6060611cf082611418565b5f611cf9611ccf565b90505f815111611d175760405180602001604052805f815250611d42565b80611d2184611fdb565b604051602001611d32929190613798565b6040516020818303038152906040525b915050919050565b5f7f01ffc9a7000000000000000000000000000000000000000000000000000000007bffffffffffffffffffffffffffffffffffffffffffffffffffffffff1916827bffffffffffffffffffffffffffffffffffffffffffffffffffffffff1916149050919050565b5f8073ffffffffffffffffffffffffffffffffffffffff16611dd483611a10565b73ffffffffffffffffffffffffffffffffffffffff1614159050919050565b611dfd83836120a5565b611e095f848484611e59565b611e48576040517f08c379a0000000000000000000000000000000000000000000000000000000008152600401611e3f90613c0d565b60405180910390fd5b505050565b50505050565b50505050565b5f611e798473ffffffffffffffffffffffffffffffffffffffff166122b8565b15611fce578373ffffffffffffffffffffffffffffffffffffffff1663150b7a02611ea2611463565b8786866040518563ffffffff1660e01b8152600401611ec49493929190613c73565b6020604051808303815f875af1925050508015611eff57506040513d601f19601f82011682018060405250810190611efc9190613cd1565b60015b611f7e573d805f8114611f2d576040519150601f19603f3d011682016040523d82523d5f602084013e611f32565b606091505b505f815103611f76576040517f08c379a0000000000000000000000000000000000000000000000000000000008152600401611f6d90613c0d565b60405180910390fd5b805181602001fd5b63150b7a0260e01b7bffffffffffffffffffffffffffffffffffffffffffffffffffffffff1916817bffffffffffffffffffffffffffffffffffffffffffffffffffffffff191614915050611fd3565b600190505b949350505050565b60605f6001611fe9846122da565b0190505f8167ffffffffffffffff81111561200757612006612a90565b5b6040519080825280601f01601f1916602001820160405280156120395781602001600182028036833780820191505090505b5090505f82602001820190505b60011561209a578080600190039150507f3031323334353637383961626364656600000000000000000000000000000000600a86061a8153600a858161208f5761208e613701565b5b0494505f8503612046575b819350505050919050565b5f73ffffffffffffffffffffffffffffffffffffffff168273ffffffffffffffffffffffffffffffffffffffff1603612113576040517f08c379a000000000000000000000000000000000000000000000000000000000815260040161210a90613d46565b60405180910390fd5b61211c81611db3565b1561215c576040517f08c379a000000000000000000000000000000000000000000000000000000000815260040161215390613dae565b60405180910390fd5b6121695f83836001611e4d565b61217281611db3565b156121b2576040517f08c379a00000000000000000000000000000000000000000000000000000000081526004016121a990613dae565b60405180910390fd5b600160035f8473ffffffffffffffffffffffffffffffffffffffff1673ffffffffffffffffffffffffffffffffffffffff1681526020019081526020015f205f82825401925050819055508160025f8381526020019081526020015f205f6101000a81548173ffffffffffffffffffffffffffffffffffffffff021916908373ffffffffffffffffffffffffffffffffffffffff160217905550808273ffffffffffffffffffffffffffffffffffffffff165f73ffffffffffffffffffffffffffffffffffffffff167fddf252ad1be2c89b69c2b068fc378daa952ba7f163c4a11628f55a4df523b3ef60405160405180910390a46122b45f83836001611e53565b5050565b5f808273ffffffffffffffffffffffffffffffffffffffff163b119050919050565b5f805f90507a184f03e93ff9f4daa797ed6e38ed64bf6a1f0100000000000000008310612336577a184f03e93ff9f4daa797ed6e38ed64bf6a1f010000000000000000838161232c5761232b613701565b5b0492506040810190505b6d04ee2d6d415b85acef81000000008310612373576d04ee2d6d415b85acef8100000000838161236957612368613701565b5b0492506020810190505b662386f26fc1000083106123a257662386f26fc10000838161239857612397613701565b5b0492506010810190505b6305f5e10083106123cb576305f5e10083816123c1576123c0613701565b5b0492506008810190505b61271083106123f05761271083816123e6576123e5613701565b5b0492506004810190505b60648310612413576064838161240957612408613701565b5b0492506002810190505b600a8310612422576001810190505b80915050919050565b6040518060c001604052805f73ffffffffffffffffffffffffffffffffffffffff16815260200160608152602001612461612549565b815260200161246e61256b565b815260200161247b61256b565b81526020015f63ffffffff1681525090565b82600281019282156124f8579160200282015b828111156124f7578251825f6101000a81548173ffffffffffffffffffffffffffffffffffffffff021916908373ffffffffffffffffffffffffffffffffffffffff160217905550916020019190600101906124a0565b5b509050612505919061258d565b5090565b8260028101928215612538579160200282015b8281111561253757825182559160200191906001019061251c565b5b509050612545919061258d565b5090565b6040518060400160405280600290602082028036833780820191505090505090565b6040518060400160405280600290602082028036833780820191505090505090565b5b808211156125a4575f815f90555060010161258e565b5090565b5f604051905090565b5f80fd5b5f80fd5b5f7fffffffff0000000000000000000000000000000000000000000000000000000082169050919050565b6125ed816125b9565b81146125f7575f80fd5b50565b5f81359050612608816125e4565b92915050565b5f60208284031215612623576126226125b1565b5b5f612630848285016125fa565b91505092915050565b5f8115159050919050565b61264d81612639565b82525050565b5f6020820190506126665f830184612644565b92915050565b5f819050919050565b61267e8161266c565b8114612688575f80fd5b50565b5f8135905061269981612675565b92915050565b5f602082840312156126b4576126b36125b1565b5b5f6126c18482850161268b565b91505092915050565b5f73ffffffffffffffffffffffffffffffffffffffff82169050919050565b5f6126f3826126ca565b9050919050565b612703816126e9565b82525050565b5f81519050919050565b5f82825260208201905092915050565b5f5b83811015612740578082015181840152602081019050612725565b5f8484015250505050565b5f601f19601f8301169050919050565b5f61276582612709565b61276f8185612713565b935061277f818560208601612723565b6127888161274b565b840191505092915050565b5f60029050919050565b5f81905092915050565b5f819050919050565b5f6127bb83836126fa565b60208301905092915050565b5f602082019050919050565b6127dc81612793565b6127e6818461279d565b92506127f1826127a7565b805f5b8381101561282157815161280887826127b0565b9650612813836127c7565b9250506001810190506127f4565b505050505050565b5f60029050919050565b5f81905092915050565b5f819050919050565b61284f8161266c565b82525050565b5f6128608383612846565b60208301905092915050565b5f602082019050919050565b61288181612829565b61288b8184612833565b92506128968261283d565b805f5b838110156128c65781516128ad8782612855565b96506128b88361286c565b925050600181019050612899565b505050505050565b5f63ffffffff82169050919050565b6128e6816128ce565b82525050565b5f61012083015f8301516129025f8601826126fa565b506020830151848203602086015261291a828261275b565b915050604083015161292f60408601826127d3565b5060608301516129426080860182612878565b50608083015161295560c0860182612878565b5060a08301516129696101008601826128dd565b508091505092915050565b5f6020820190508181035f83015261298c81846128ec565b905092915050565b5f82825260208201905092915050565b5f6129ae82612709565b6129b88185612994565b93506129c8818560208601612723565b6129d18161274b565b840191505092915050565b5f6020820190508181035f8301526129f481846129a4565b905092915050565b612a05816126e9565b82525050565b5f602082019050612a1e5f8301846129fc565b92915050565b612a2d816126e9565b8114612a37575f80fd5b50565b5f81359050612a4881612a24565b92915050565b5f8060408385031215612a6457612a636125b1565b5b5f612a7185828601612a3a565b9250506020612a828582860161268b565b9150509250929050565b5f80fd5b7f4e487b71000000000000000000000000000000000000000000000000000000005f52604160045260245ffd5b612ac68261274b565b810181811067ffffffffffffffff82111715612ae557612ae4612a90565b5b80604052505050565b5f612af76125a8565b9050612b038282612abd565b919050565b5f67ffffffffffffffff821115612b2257612b21612a90565b5b602082029050919050565b5f80fd5b5f612b43612b3e84612b08565b612aee565b90508060208402830185811115612b5d57612b5c612b2d565b5b835b81811015612b865780612b728882612a3a565b845260208401935050602081019050612b5f565b5050509392505050565b5f82601f830112612ba457612ba3612a8c565b5b6002612bb1848285612b31565b91505092915050565b5f67ffffffffffffffff821115612bd457612bd3612a90565b5b602082029050919050565b5f612bf1612bec84612bba565b612aee565b90508060208402830185811115612c0b57612c0a612b2d565b5b835b81811015612c345780612c20888261268b565b845260208401935050602081019050612c0d565b5050509392505050565b5f82601f830112612c5257612c51612a8c565b5b6002612c5f848285612bdf565b91505092915050565b612c71816128ce565b8114612c7b575f80fd5b50565b5f81359050612c8c81612c68565b92915050565b5f805f8060c08587031215612caa57612ca96125b1565b5b5f612cb787828801612a3a565b9450506020612cc887828801612b90565b9350506060612cd987828801612c3e565b92505060a0612cea87828801612c7e565b91505092959194509250565b5f805f60608486031215612d0d57612d0c6125b1565b5b5f612d1a86828701612a3a565b9350506020612d2b86828701612a3a565b9250506040612d3c8682870161268b565b9150509250925092565b5f60208284031215612d5b57612d5a6125b1565b5b5f612d6884828501612a3a565b91505092915050565b612d7a8161266c565b82525050565b5f602082019050612d935f830184612d71565b92915050565b612da281612639565b8114612dac575f80fd5b50565b5f81359050612dbd81612d99565b92915050565b5f8060408385031215612dd957612dd86125b1565b5b5f612de685828601612a3a565b9250506020612df785828601612daf565b9150509250929050565b5f8060408385031215612e1757612e166125b1565b5b5f612e248582860161268b565b9250506020612e358582860161268b565b9150509250929050565b5f80fd5b5f67ffffffffffffffff821115612e5d57612e5c612a90565b5b612e668261274b565b9050602081019050919050565b828183375f83830152505050565b5f612e93612e8e84612e43565b612aee565b905082815260208101848484011115612eaf57612eae612e3f565b5b612eba848285612e73565b509392505050565b5f82601f830112612ed657612ed5612a8c565b5b8135612ee6848260208601612e81565b91505092915050565b5f805f8060808587031215612f0757612f066125b1565b5b5f612f1487828801612a3a565b9450506020612f2587828801612a3a565b9350506040612f368782880161268b565b925050606085013567ffffffffffffffff811115612f5757612f566125b5565b5b612f6387828801612ec2565b91505092959194509250565b5f8060408385031215612f8557612f846125b1565b5b5f612f9285828601612a3a565b9250506020612fa385828601612a3a565b9150509250929050565b7f4e487b71000000000000000000000000000000000000000000000000000000005f52602260045260245ffd5b5f6002820490506001821680612ff157607f821691505b60208210810361300457613003612fad565b5b50919050565b7f4552433732313a20617070726f76616c20746f2063757272656e74206f776e655f8201527f7200000000000000000000000000000000000000000000000000000000000000602082015250565b5f613064602183612994565b915061306f8261300a565b604082019050919050565b5f6020820190508181035f83015261309181613058565b9050919050565b7f4552433732313a20617070726f76652063616c6c6572206973206e6f7420746f5f8201527f6b656e206f776e6572206f7220617070726f76656420666f7220616c6c000000602082015250565b5f6130f2603d83612994565b91506130fd82613098565b604082019050919050565b5f6020820190508181035f83015261311f816130e6565b9050919050565b7f45787069726174696f6e2064617465206d757374206265206c617267657220745f8201527f68616e206e6f7700000000000000000000000000000000000000000000000000602082015250565b5f613180602783612994565b915061318b82613126565b604082019050919050565b5f6020820190508181035f8301526131ad81613174565b9050919050565b7f4e487b71000000000000000000000000000000000000000000000000000000005f52603260045260245ffd5b7f56616c7565732063616e206e6f74206265207a65726f000000000000000000005f82015250565b5f613215601683612994565b9150613220826131e1565b602082019050919050565b5f6020820190508181035f83015261324281613209565b9050919050565b5f819050815f5260205f209050919050565b5f6020601f8301049050919050565b5f82821b905092915050565b5f600883026132a57fffffffffffffffffffffffffffffffffffffffffffffffffffffffffffffffff8261326a565b6132af868361326a565b95508019841693508086168417925050509392505050565b5f819050919050565b5f6132ea6132e56132e08461266c565b6132c7565b61266c565b9050919050565b5f819050919050565b613303836132d0565b61331761330f826132f1565b848454613276565b825550505050565b5f90565b61332b61331f565b6133368184846132fa565b505050565b5b818110156133595761334e5f82613323565b60018101905061333c565b5050565b601f82111561339e5761336f81613249565b6133788461325b565b81016020851015613387578190505b61339b6133938561325b565b83018261333b565b50505b505050565b5f82821c905092915050565b5f6133be5f19846008026133a3565b1980831691505092915050565b5f6133d683836133af565b9150826002028217905092915050565b6133ef82612709565b67ffffffffffffffff81111561340857613407612a90565b5b6134128254612fda565b61341d82828561335d565b5f60209050601f83116001811461344e575f841561343c578287015190505b61344685826133cb565b8655506134ad565b601f19841661345c86613249565b5f5b828110156134835784890151825560018201915060208501945060208101905061345e565b868310156134a0578489015161349c601f8916826133af565b8355505b6001600288020188555050505b505050505050565b7f4552433732313a2063616c6c6572206973206e6f7420746f6b656e206f776e655f8201527f72206f7220617070726f76656400000000000000000000000000000000000000602082015250565b5f61350f602d83612994565b915061351a826134b5565b604082019050919050565b5f6020820190508181035f83015261353c81613503565b9050919050565b7f4552433732313a20696e76616c696420746f6b656e20494400000000000000005f82015250565b5f613577601883612994565b915061358282613543565b602082019050919050565b5f6020820190508181035f8301526135a48161356b565b9050919050565b7f4552433732313a2061646472657373207a65726f206973206e6f7420612076615f8201527f6c6964206f776e65720000000000000000000000000000000000000000000000602082015250565b5f613605602983612994565b9150613610826135ab565b604082019050919050565b5f6020820190508181035f830152613632816135f9565b9050919050565b7f4f776e61626c653a2063616c6c6572206973206e6f7420746865206f776e65725f82015250565b5f61366d602083612994565b915061367882613639565b602082019050919050565b5f6020820190508181035f83015261369a81613661565b9050919050565b7f4e487b71000000000000000000000000000000000000000000000000000000005f52601160045260245ffd5b5f6136d88261266c565b91506136e38361266c565b92508282039050818111156136fb576136fa6136a1565b5b92915050565b7f4e487b71000000000000000000000000000000000000000000000000000000005f52601260045260245ffd5b5f6137388261266c565b91506137438361266c565b92508261375357613752613701565b5b828204905092915050565b5f81905092915050565b5f61377282612709565b61377c818561375e565b935061378c818560208601612723565b80840191505092915050565b5f6137a38285613768565b91506137af8284613768565b91508190509392505050565b5f6137c58261266c565b91506137d08361266c565b92508282026137de8161266c565b915082820484148315176137f5576137f46136a1565b5b5092915050565b5f6138068261266c565b91506138118361266c565b9250828201905080821115613829576138286136a1565b5b92915050565b7f4f776e61626c653a206e6577206f776e657220697320746865207a65726f20615f8201527f6464726573730000000000000000000000000000000000000000000000000000602082015250565b5f613889602683612994565b91506138948261382f565b604082019050919050565b5f6020820190508181035f8301526138b68161387d565b9050919050565b5f6060820190506138d05f8301866129fc565b6138dd60208301856129fc565b6138ea6040830184612d71565b949350505050565b5f81519050919050565b5f81905092915050565b5f613910826138f2565b61391a81856138fc565b935061392a818560208601612723565b80840191505092915050565b5f6139418284613906565b915081905092915050565b5f8151905061395a81612d99565b92915050565b5f60208284031215613975576139746125b1565b5b5f6139828482850161394c565b91505092915050565b7f5472616e7366657248656c7065723a205452414e534645525f46524f4d5f46415f8201527f494c454400000000000000000000000000000000000000000000000000000000602082015250565b5f6139e5602483612994565b91506139f08261398b565b604082019050919050565b5f6020820190508181035f830152613a12816139d9565b9050919050565b7f4552433732313a207472616e736665722066726f6d20696e636f7272656374205f8201527f6f776e6572000000000000000000000000000000000000000000000000000000602082015250565b5f613a73602583612994565b9150613a7e82613a19565b604082019050919050565b5f6020820190508181035f830152613aa081613a67565b9050919050565b7f4552433732313a207472616e7366657220746f20746865207a65726f206164645f8201527f7265737300000000000000000000000000000000000000000000000000000000602082015250565b5f613b01602483612994565b9150613b0c82613aa7565b604082019050919050565b5f6020820190508181035f830152613b2e81613af5565b9050919050565b7f4552433732313a20617070726f766520746f2063616c6c6572000000000000005f82015250565b5f613b69601983612994565b9150613b7482613b35565b602082019050919050565b5f6020820190508181035f830152613b9681613b5d565b9050919050565b7f4552433732313a207472616e7366657220746f206e6f6e2045524337323152655f8201527f63656976657220696d706c656d656e7465720000000000000000000000000000602082015250565b5f613bf7603283612994565b9150613c0282613b9d565b604082019050919050565b5f6020820190508181035f830152613c2481613beb565b9050919050565b5f82825260208201905092915050565b5f613c45826138f2565b613c4f8185613c2b565b9350613c5f818560208601612723565b613c688161274b565b840191505092915050565b5f608082019050613c865f8301876129fc565b613c9360208301866129fc565b613ca06040830185612d71565b8181036060830152613cb28184613c3b565b905095945050505050565b5f81519050613ccb816125e4565b92915050565b5f60208284031215613ce657613ce56125b1565b5b5f613cf384828501613cbd565b91505092915050565b7f4552433732313a206d696e7420746f20746865207a65726f20616464726573735f82015250565b5f613d30602083612994565b9150613d3b82613cfc565b602082019050919050565b5f6020820190508181035f830152613d5d81613d24565b9050919050565b7f4552433732313a20746f6b656e20616c7265616479206d696e746564000000005f82015250565b5f613d98601c83612994565b9150613da382613d64565b602082019050919050565b5f6020820190508181035f830152613dc581613d8c565b905091905056fea2646970667358221220cb981d4ddbf01200ac5d6c0c629c70fa4697b6c86410b5774d936ebbcb86ab3e64736f6c63430008140033",
			"opcodes": "PUSH1 0x80 PUSH1 0x40 MSTORE PUSH0 PUSH1 0x8 SSTORE CALLVALUE DUP1 ISZERO PUSH3 0x14 JUMPI PUSH0 DUP1 REVERT JUMPDEST POP PUSH1 0x40 MLOAD DUP1 PUSH1 0x40 ADD PUSH1 0x40 MSTORE DUP1 PUSH1 0x13 DUP2 MSTORE PUSH1 0x20 ADD PUSH32 0x50494558506572736F6E616C4F7074696F6E7300000000000000000000000000 DUP2 MSTORE POP PUSH1 0x40 MLOAD DUP1 PUSH1 0x40 ADD PUSH1 0x40 MSTORE DUP1 PUSH1 0x7 DUP2 MSTORE PUSH1 0x20 ADD PUSH32 0x4F5054494F4E5300000000000000000000000000000000000000000000000000 DUP2 MSTORE POP DUP2 PUSH0 SWAP1 DUP2 PUSH3 0x91 SWAP2 SWAP1 PUSH3 0x3FA JUMP JUMPDEST POP DUP1 PUSH1 0x1 SWAP1 DUP2 PUSH3 0xA3 SWAP2 SWAP1 PUSH3 0x3FA JUMP JUMPDEST POP POP POP PUSH3 0xC6 PUSH3 0xBA PUSH3 0xCC PUSH1 0x20 SHL PUSH1 0x20 SHR JUMP JUMPDEST PUSH3 0xD3 PUSH1 0x20 SHL PUSH1 0x20 SHR JUMP JUMPDEST PUSH3 0x4DE JUMP JUMPDEST PUSH0 CALLER SWAP1 POP SWAP1 JUMP JUMPDEST PUSH0 PUSH1 0x7 PUSH0 SWAP1 SLOAD SWAP1 PUSH2 0x100 EXP SWAP1 DIV PUSH20 0xFFFFFFFFFFFFFFFFFFFFFFFFFFFFFFFFFFFFFFFF AND SWAP1 POP DUP2 PUSH1 0x7 PUSH0 PUSH2 0x100 EXP DUP2 SLOAD DUP2 PUSH20 0xFFFFFFFFFFFFFFFFFFFFFFFFFFFFFFFFFFFFFFFF MUL NOT AND SWAP1 DUP4 PUSH20 0xFFFFFFFFFFFFFFFFFFFFFFFFFFFFFFFFFFFFFFFF AND MUL OR SWAP1 SSTORE POP DUP2 PUSH20 0xFFFFFFFFFFFFFFFFFFFFFFFFFFFFFFFFFFFFFFFF AND DUP2 PUSH20 0xFFFFFFFFFFFFFFFFFFFFFFFFFFFFFFFFFFFFFFFF AND PUSH32 0x8BE0079C531659141344CD1FD0A4F28419497F9722A3DAAFE3B4186F6B6457E0 PUSH1 0x40 MLOAD PUSH1 0x40 MLOAD DUP1 SWAP2 SUB SWAP1 LOG3 POP POP JUMP JUMPDEST PUSH0 DUP2 MLOAD SWAP1 POP SWAP2 SWAP1 POP JUMP JUMPDEST PUSH32 0x4E487B7100000000000000000000000000000000000000000000000000000000 PUSH0 MSTORE PUSH1 0x41 PUSH1 0x4 MSTORE PUSH1 0x24 PUSH0 REVERT JUMPDEST PUSH32 0x4E487B7100000000000000000000000000000000000000000000000000000000 PUSH0 MSTORE PUSH1 0x22 PUSH1 0x4 MSTORE PUSH1 0x24 PUSH0 REVERT JUMPDEST PUSH0 PUSH1 0x2 DUP3 DIV SWAP1 POP PUSH1 0x1 DUP3 AND DUP1 PUSH3 0x212 JUMPI PUSH1 0x7F DUP3 AND SWAP2 POP JUMPDEST PUSH1 0x20 DUP3 LT DUP2 SUB PUSH3 0x228 JUMPI PUSH3 0x227 PUSH3 0x1CD JUMP JUMPDEST JUMPDEST POP SWAP2 SWAP1 POP JUMP JUMPDEST PUSH0 DUP2 SWAP1 POP DUP2 PUSH0 MSTORE PUSH1 0x20 PUSH0 KECCAK256 SWAP1 POP SWAP2 SWAP1 POP JUMP JUMPDEST PUSH0 PUSH1 0x20 PUSH1 0x1F DUP4 ADD DIV SWAP1 POP SWAP2 SWAP1 POP JUMP JUMPDEST PUSH0 DUP3 DUP3 SHL SWAP1 POP SWAP3 SWAP2 POP POP JUMP JUMPDEST PUSH0 PUSH1 0x8 DUP4 MUL PUSH3 0x28C PUSH32 0xFFFFFFFFFFFFFFFFFFFFFFFFFFFFFFFFFFFFFFFFFFFFFFFFFFFFFFFFFFFFFFFF DUP3 PUSH3 0x24F JUMP JUMPDEST PUSH3 0x298 DUP7 DUP4 PUSH3 0x24F JUMP JUMPDEST SWAP6 POP DUP1 NOT DUP5 AND SWAP4 POP DUP1 DUP7 AND DUP5 OR SWAP3 POP POP POP SWAP4 SWAP3 POP POP POP JUMP JUMPDEST PUSH0 DUP2 SWAP1 POP SWAP2 SWAP1 POP JUMP JUMPDEST PUSH0 DUP2 SWAP1 POP SWAP2 SWAP1 POP JUMP JUMPDEST PUSH0 PUSH3 0x2E2 PUSH3 0x2DC PUSH3 0x2D6 DUP5 PUSH3 0x2B0 JUMP JUMPDEST PUSH3 0x2B9 JUMP JUMPDEST PUSH3 0x2B0 JUMP JUMPDEST SWAP1 POP SWAP2 SWAP1 POP JUMP JUMPDEST PUSH0 DUP2 SWAP1 POP SWAP2 SWAP1 POP JUMP JUMPDEST PUSH3 0x2FD DUP4 PUSH3 0x2C2 JUMP JUMPDEST PUSH3 0x315 PUSH3 0x30C DUP3 PUSH3 0x2E9 JUMP JUMPDEST DUP5 DUP5 SLOAD PUSH3 0x25B JUMP JUMPDEST DUP3 SSTORE POP POP POP POP JUMP JUMPDEST PUSH0 SWAP1 JUMP JUMPDEST PUSH3 0x32B PUSH3 0x31D JUMP JUMPDEST PUSH3 0x338 DUP2 DUP5 DUP5 PUSH3 0x2F2 JUMP JUMPDEST POP POP POP JUMP JUMPDEST JUMPDEST DUP2 DUP2 LT ISZERO PUSH3 0x35F JUMPI PUSH3 0x353 PUSH0 DUP3 PUSH3 0x321 JUMP JUMPDEST PUSH1 0x1 DUP2 ADD SWAP1 POP PUSH3 0x33E JUMP JUMPDEST POP POP JUMP JUMPDEST PUSH1 0x1F DUP3 GT ISZERO PUSH3 0x3AE JUMPI PUSH3 0x378 DUP2 PUSH3 0x22E JUMP JUMPDEST PUSH3 0x383 DUP5 PUSH3 0x240 JUMP JUMPDEST DUP2 ADD PUSH1 0x20 DUP6 LT ISZERO PUSH3 0x393 JUMPI DUP2 SWAP1 POP JUMPDEST PUSH3 0x3AB PUSH3 0x3A2 DUP6 PUSH3 0x240 JUMP JUMPDEST DUP4 ADD DUP3 PUSH3 0x33D JUMP JUMPDEST POP POP JUMPDEST POP POP POP JUMP JUMPDEST PUSH0 DUP3 DUP3 SHR SWAP1 POP SWAP3 SWAP2 POP POP JUMP JUMPDEST PUSH0 PUSH3 0x3D0 PUSH0 NOT DUP5 PUSH1 0x8 MUL PUSH3 0x3B3 JUMP JUMPDEST NOT DUP1 DUP4 AND SWAP2 POP POP SWAP3 SWAP2 POP POP JUMP JUMPDEST PUSH0 PUSH3 0x3EA DUP4 DUP4 PUSH3 0x3BF JUMP JUMPDEST SWAP2 POP DUP3 PUSH1 0x2 MUL DUP3 OR SWAP1 POP SWAP3 SWAP2 POP POP JUMP JUMPDEST PUSH3 0x405 DUP3 PUSH3 0x196 JUMP JUMPDEST PUSH8 0xFFFFFFFFFFFFFFFF DUP2 GT ISZERO PUSH3 0x421 JUMPI PUSH3 0x420 PUSH3 0x1A0 JUMP JUMPDEST JUMPDEST PUSH3 0x42D DUP3 SLOAD PUSH3 0x1FA JUMP JUMPDEST PUSH3 0x43A DUP3 DUP3 DUP6 PUSH3 0x363 JUMP JUMPDEST PUSH0 PUSH1 0x20 SWAP1 POP PUSH1 0x1F DUP4 GT PUSH1 0x1 DUP2 EQ PUSH3 0x470 JUMPI PUSH0 DUP5 ISZERO PUSH3 0x45B JUMPI DUP3 DUP8 ADD MLOAD SWAP1 POP JUMPDEST PUSH3 0x467 DUP6 DUP3 PUSH3 0x3DD JUMP JUMPDEST DUP7 SSTORE POP PUSH3 0x4D6 JUMP JUMPDEST PUSH1 0x1F NOT DUP5 AND PUSH3 0x480 DUP7 PUSH3 0x22E JUMP JUMPDEST PUSH0 JUMPDEST DUP3 DUP2 LT ISZERO PUSH3 0x4A9 JUMPI DUP5 DUP10 ADD MLOAD DUP3 SSTORE PUSH1 0x1 DUP3 ADD SWAP2 POP PUSH1 0x20 DUP6 ADD SWAP5 POP PUSH1 0x20 DUP2 ADD SWAP1 POP PUSH3 0x482 JUMP JUMPDEST DUP7 DUP4 LT ISZERO PUSH3 0x4C9 JUMPI DUP5 DUP10 ADD MLOAD PUSH3 0x4C5 PUSH1 0x1F DUP10 AND DUP3 PUSH3 0x3BF JUMP JUMPDEST DUP4 SSTORE POP JUMPDEST PUSH1 0x1 PUSH1 0x2 DUP9 MUL ADD DUP9 SSTORE POP POP POP JUMPDEST POP POP POP POP POP POP JUMP JUMPDEST PUSH2 0x3E02 DUP1 PUSH3 0x4EC PUSH0 CODECOPY PUSH0 RETURN INVALID PUSH1 0x80 PUSH1 0x40 MSTORE CALLVALUE DUP1 ISZERO PUSH2 0xF JUMPI PUSH0 DUP1 REVERT JUMPDEST POP PUSH1 0x4 CALLDATASIZE LT PUSH2 0x171 JUMPI PUSH0 CALLDATALOAD PUSH1 0xE0 SHR DUP1 PUSH4 0x8DA5CB5B GT PUSH2 0xDC JUMPI DUP1 PUSH4 0xB5931F7C GT PUSH2 0x95 JUMPI DUP1 PUSH4 0xD05C78DA GT PUSH2 0x6F JUMPI DUP1 PUSH4 0xD05C78DA EQ PUSH2 0x46D JUMPI DUP1 PUSH4 0xE6CB9013 EQ PUSH2 0x49D JUMPI DUP1 PUSH4 0xE985E9C5 EQ PUSH2 0x4CD JUMPI DUP1 PUSH4 0xF2FDE38B EQ PUSH2 0x4FD JUMPI PUSH2 0x171 JUMP JUMPDEST DUP1 PUSH4 0xB5931F7C EQ PUSH2 0x3F1 JUMPI DUP1 PUSH4 0xB88D4FDE EQ PUSH2 0x421 JUMPI DUP1 PUSH4 0xC87B56DD EQ PUSH2 0x43D JUMPI PUSH2 0x171 JUMP JUMPDEST DUP1 PUSH4 0x8DA5CB5B EQ PUSH2 0x31B JUMPI DUP1 PUSH4 0x9090C545 EQ PUSH2 0x339 JUMPI DUP1 PUSH4 0x95D89B41 EQ PUSH2 0x357 JUMPI DUP1 PUSH4 0xA22CB465 EQ PUSH2 0x375 JUMPI DUP1 PUSH4 0xA293D1E8 EQ PUSH2 0x391 JUMPI DUP1 PUSH4 0xA4E1C3AC EQ PUSH2 0x3C1 JUMPI PUSH2 0x171 JUMP JUMPDEST DUP1 PUSH4 0x23B872DD GT PUSH2 0x12E JUMPI DUP1 PUSH4 0x23B872DD EQ PUSH2 0x25B JUMPI DUP1 PUSH4 0x42842E0E EQ PUSH2 0x277 JUMPI DUP1 PUSH4 0x6352211E EQ PUSH2 0x293 JUMPI DUP1 PUSH4 0x70A08231 EQ PUSH2 0x2C3 JUMPI DUP1 PUSH4 0x715018A6 EQ PUSH2 0x2F3 JUMPI DUP1 PUSH4 0x84C4BD4B EQ PUSH2 0x2FD JUMPI PUSH2 0x171 JUMP JUMPDEST DUP1 PUSH4 0x1FFC9A7 EQ PUSH2 0x175 JUMPI DUP1 PUSH4 0x32FABFC EQ PUSH2 0x1A5 JUMPI DUP1 PUSH4 0x6FDDE03 EQ PUSH2 0x1D5 JUMPI DUP1 PUSH4 0x81812FC EQ PUSH2 0x1F3 JUMPI DUP1 PUSH4 0x95EA7B3 EQ PUSH2 0x223 JUMPI DUP1 PUSH4 0x15174374 EQ PUSH2 0x23F JUMPI JUMPDEST PUSH0 DUP1 REVERT JUMPDEST PUSH2 0x18F PUSH1 0x4 DUP1 CALLDATASIZE SUB DUP2 ADD SWAP1 PUSH2 0x18A SWAP2 SWAP1 PUSH2 0x260E JUMP JUMPDEST PUSH2 0x519 JUMP JUMPDEST PUSH1 0x40 MLOAD PUSH2 0x19C SWAP2 SWAP1 PUSH2 0x2653 JUMP JUMPDEST PUSH1 0x40 MLOAD DUP1 SWAP2 SUB SWAP1 RETURN JUMPDEST PUSH2 0x1BF PUSH1 0x4 DUP1 CALLDATASIZE SUB DUP2 ADD SWAP1 PUSH2 0x1BA SWAP2 SWAP1 PUSH2 0x269F JUMP JUMPDEST PUSH2 0x579 JUMP JUMPDEST PUSH1 0x40 MLOAD PUSH2 0x1CC SWAP2 SWAP1 PUSH2 0x2974 JUMP JUMPDEST PUSH1 0x40 MLOAD DUP1 SWAP2 SUB SWAP1 RETURN JUMPDEST PUSH2 0x1DD PUSH2 0x7B1 JUMP JUMPDEST PUSH1 0x40 MLOAD PUSH2 0x1EA SWAP2 SWAP1 PUSH2 0x29DC JUMP JUMPDEST PUSH1 0x40 MLOAD DUP1 SWAP2 SUB SWAP1 RETURN JUMPDEST PUSH2 0x20D PUSH1 0x4 DUP1 CALLDATASIZE SUB DUP2 ADD SWAP1 PUSH2 0x208 SWAP2 SWAP1 PUSH2 0x269F JUMP JUMPDEST PUSH2 0x840 JUMP JUMPDEST PUSH1 0x40 MLOAD PUSH2 0x21A SWAP2 SWAP1 PUSH2 0x2A0B JUMP JUMPDEST PUSH1 0x40 MLOAD DUP1 SWAP2 SUB SWAP1 RETURN JUMPDEST PUSH2 0x23D PUSH1 0x4 DUP1 CALLDATASIZE SUB DUP2 ADD SWAP1 PUSH2 0x238 SWAP2 SWAP1 PUSH2 0x2A4E JUMP JUMPDEST PUSH2 0x882 JUMP JUMPDEST STOP JUMPDEST PUSH2 0x259 PUSH1 0x4 DUP1 CALLDATASIZE SUB DUP2 ADD SWAP1 PUSH2 0x254 SWAP2 SWAP1 PUSH2 0x2C92 JUMP JUMPDEST PUSH2 0x998 JUMP JUMPDEST STOP JUMPDEST PUSH2 0x275 PUSH1 0x4 DUP1 CALLDATASIZE SUB DUP2 ADD SWAP1 PUSH2 0x270 SWAP2 SWAP1 PUSH2 0x2CF6 JUMP JUMPDEST PUSH2 0xC48 JUMP JUMPDEST STOP JUMPDEST PUSH2 0x291 PUSH1 0x4 DUP1 CALLDATASIZE SUB DUP2 ADD SWAP1 PUSH2 0x28C SWAP2 SWAP1 PUSH2 0x2CF6 JUMP JUMPDEST PUSH2 0xCA8 JUMP JUMPDEST STOP JUMPDEST PUSH2 0x2AD PUSH1 0x4 DUP1 CALLDATASIZE SUB DUP2 ADD SWAP1 PUSH2 0x2A8 SWAP2 SWAP1 PUSH2 0x269F JUMP JUMPDEST PUSH2 0xCC7 JUMP JUMPDEST PUSH1 0x40 MLOAD PUSH2 0x2BA SWAP2 SWAP1 PUSH2 0x2A0B JUMP JUMPDEST PUSH1 0x40 MLOAD DUP1 SWAP2 SUB SWAP1 RETURN JUMPDEST PUSH2 0x2DD PUSH1 0x4 DUP1 CALLDATASIZE SUB DUP2 ADD SWAP1 PUSH2 0x2D8 SWAP2 SWAP1 PUSH2 0x2D46 JUMP JUMPDEST PUSH2 0xD4B JUMP JUMPDEST PUSH1 0x40 MLOAD PUSH2 0x2EA SWAP2 SWAP1 PUSH2 0x2D80 JUMP JUMPDEST PUSH1 0x40 MLOAD DUP1 SWAP2 SUB SWAP1 RETURN JUMPDEST PUSH2 0x2FB PUSH2 0xDFF JUMP JUMPDEST STOP JUMPDEST PUSH2 0x305 PUSH2 0xE86 JUMP JUMPDEST PUSH1 0x40 MLOAD PUSH2 0x312 SWAP2 SWAP1 PUSH2 0x2D80 JUMP JUMPDEST PUSH1 0x40 MLOAD DUP1 SWAP2 SUB SWAP1 RETURN JUMPDEST PUSH2 0x323 PUSH2 0xE91 JUMP JUMPDEST PUSH1 0x40 MLOAD PUSH2 0x330 SWAP2 SWAP1 PUSH2 0x2A0B JUMP JUMPDEST PUSH1 0x40 MLOAD DUP1 SWAP2 SUB SWAP1 RETURN JUMPDEST PUSH2 0x341 PUSH2 0xEB9 JUMP JUMPDEST PUSH1 0x40 MLOAD PUSH2 0x34E SWAP2 SWAP1 PUSH2 0x2D80 JUMP JUMPDEST PUSH1 0x40 MLOAD DUP1 SWAP2 SUB SWAP1 RETURN JUMPDEST PUSH2 0x35F PUSH2 0xEC9 JUMP JUMPDEST PUSH1 0x40 MLOAD PUSH2 0x36C SWAP2 SWAP1 PUSH2 0x29DC JUMP JUMPDEST PUSH1 0x40 MLOAD DUP1 SWAP2 SUB SWAP1 RETURN JUMPDEST PUSH2 0x38F PUSH1 0x4 DUP1 CALLDATASIZE SUB DUP2 ADD SWAP1 PUSH2 0x38A SWAP2 SWAP1 PUSH2 0x2DC3 JUMP JUMPDEST PUSH2 0xF59 JUMP JUMPDEST STOP JUMPDEST PUSH2 0x3AB PUSH1 0x4 DUP1 CALLDATASIZE SUB DUP2 ADD SWAP1 PUSH2 0x3A6 SWAP2 SWAP1 PUSH2 0x2E01 JUMP JUMPDEST PUSH2 0xF6F JUMP JUMPDEST PUSH1 0x40 MLOAD PUSH2 0x3B8 SWAP2 SWAP1 PUSH2 0x2D80 JUMP JUMPDEST PUSH1 0x40 MLOAD DUP1 SWAP2 SUB SWAP1 RETURN JUMPDEST PUSH2 0x3DB PUSH1 0x4 DUP1 CALLDATASIZE SUB DUP2 ADD SWAP1 PUSH2 0x3D6 SWAP2 SWAP1 PUSH2 0x269F JUMP JUMPDEST PUSH2 0xF90 JUMP JUMPDEST PUSH1 0x40 MLOAD PUSH2 0x3E8 SWAP2 SWAP1 PUSH2 0x2653 JUMP JUMPDEST PUSH1 0x40 MLOAD DUP1 SWAP2 SUB SWAP1 RETURN JUMPDEST PUSH2 0x40B PUSH1 0x4 DUP1 CALLDATASIZE SUB DUP2 ADD SWAP1 PUSH2 0x406 SWAP2 SWAP1 PUSH2 0x2E01 JUMP JUMPDEST PUSH2 0xFD1 JUMP JUMPDEST PUSH1 0x40 MLOAD PUSH2 0x418 SWAP2 SWAP1 PUSH2 0x2D80 JUMP JUMPDEST PUSH1 0x40 MLOAD DUP1 SWAP2 SUB SWAP1 RETURN JUMPDEST PUSH2 0x43B PUSH1 0x4 DUP1 CALLDATASIZE SUB DUP2 ADD SWAP1 PUSH2 0x436 SWAP2 SWAP1 PUSH2 0x2EEF JUMP JUMPDEST PUSH2 0xFF1 JUMP JUMPDEST STOP JUMPDEST PUSH2 0x457 PUSH1 0x4 DUP1 CALLDATASIZE SUB DUP2 ADD SWAP1 PUSH2 0x452 SWAP2 SWAP1 PUSH2 0x269F JUMP JUMPDEST PUSH2 0x1053 JUMP JUMPDEST PUSH1 0x40 MLOAD PUSH2 0x464 SWAP2 SWAP1 PUSH2 0x29DC JUMP JUMPDEST PUSH1 0x40 MLOAD DUP1 SWAP2 SUB SWAP1 RETURN JUMPDEST PUSH2 0x487 PUSH1 0x4 DUP1 CALLDATASIZE SUB DUP2 ADD SWAP1 PUSH2 0x482 SWAP2 SWAP1 PUSH2 0x2E01 JUMP JUMPDEST PUSH2 0x115D JUMP JUMPDEST PUSH1 0x40 MLOAD PUSH2 0x494 SWAP2 SWAP1 PUSH2 0x2D80 JUMP JUMPDEST PUSH1 0x40 MLOAD DUP1 SWAP2 SUB SWAP1 RETURN JUMPDEST PUSH2 0x4B7 PUSH1 0x4 DUP1 CALLDATASIZE SUB DUP2 ADD SWAP1 PUSH2 0x4B2 SWAP2 SWAP1 PUSH2 0x2E01 JUMP JUMPDEST PUSH2 0x1192 JUMP JUMPDEST PUSH1 0x40 MLOAD PUSH2 0x4C4 SWAP2 SWAP1 PUSH2 0x2D80 JUMP JUMPDEST PUSH1 0x40 MLOAD DUP1 SWAP2 SUB SWAP1 RETURN JUMPDEST PUSH2 0x4E7 PUSH1 0x4 DUP1 CALLDATASIZE SUB DUP2 ADD SWAP1 PUSH2 0x4E2 SWAP2 SWAP1 PUSH2 0x2F6F JUMP JUMPDEST PUSH2 0x11B3 JUMP JUMPDEST PUSH1 0x40 MLOAD PUSH2 0x4F4 SWAP2 SWAP1 PUSH2 0x2653 JUMP JUMPDEST PUSH1 0x40 MLOAD DUP1 SWAP2 SUB SWAP1 RETURN JUMPDEST PUSH2 0x517 PUSH1 0x4 DUP1 CALLDATASIZE SUB DUP2 ADD SWAP1 PUSH2 0x512 SWAP2 SWAP1 PUSH2 0x2D46 JUMP JUMPDEST PUSH2 0x1241 JUMP JUMPDEST STOP JUMPDEST PUSH0 PUSH4 0x49064906 PUSH1 0xE0 SHL PUSH28 0xFFFFFFFFFFFFFFFFFFFFFFFFFFFFFFFFFFFFFFFFFFFFFFFFFFFFFFFF NOT AND DUP3 PUSH28 0xFFFFFFFFFFFFFFFFFFFFFFFFFFFFFFFFFFFFFFFFFFFFFFFFFFFFFFFF NOT AND EQ DUP1 PUSH2 0x572 JUMPI POP PUSH2 0x571 DUP3 PUSH2 0x1337 JUMP JUMPDEST JUMPDEST SWAP1 POP SWAP2 SWAP1 POP JUMP JUMPDEST PUSH2 0x581 PUSH2 0x242B JUMP JUMPDEST PUSH1 0xA PUSH0 DUP4 DUP2 MSTORE PUSH1 0x20 ADD SWAP1 DUP2 MSTORE PUSH1 0x20 ADD PUSH0 KECCAK256 PUSH1 0x40 MLOAD DUP1 PUSH1 0xC0 ADD PUSH1 0x40 MSTORE SWAP1 DUP2 PUSH0 DUP3 ADD PUSH0 SWAP1 SLOAD SWAP1 PUSH2 0x100 EXP SWAP1 DIV PUSH20 0xFFFFFFFFFFFFFFFFFFFFFFFFFFFFFFFFFFFFFFFF AND PUSH20 0xFFFFFFFFFFFFFFFFFFFFFFFFFFFFFFFFFFFFFFFF AND PUSH20 0xFFFFFFFFFFFFFFFFFFFFFFFFFFFFFFFFFFFFFFFF AND DUP2 MSTORE PUSH1 0x20 ADD PUSH1 0x1 DUP3 ADD DUP1 SLOAD PUSH2 0x601 SWAP1 PUSH2 0x2FDA JUMP JUMPDEST DUP1 PUSH1 0x1F ADD PUSH1 0x20 DUP1 SWAP2 DIV MUL PUSH1 0x20 ADD PUSH1 0x40 MLOAD SWAP1 DUP2 ADD PUSH1 0x40 MSTORE DUP1 SWAP3 SWAP2 SWAP1 DUP2 DUP2 MSTORE PUSH1 0x20 ADD DUP3 DUP1 SLOAD PUSH2 0x62D SWAP1 PUSH2 0x2FDA JUMP JUMPDEST DUP1 ISZERO PUSH2 0x678 JUMPI DUP1 PUSH1 0x1F LT PUSH2 0x64F JUMPI PUSH2 0x100 DUP1 DUP4 SLOAD DIV MUL DUP4 MSTORE SWAP2 PUSH1 0x20 ADD SWAP2 PUSH2 0x678 JUMP JUMPDEST DUP3 ADD SWAP2 SWAP1 PUSH0 MSTORE PUSH1 0x20 PUSH0 KECCAK256 SWAP1 JUMPDEST DUP2 SLOAD DUP2 MSTORE SWAP1 PUSH1 0x1 ADD SWAP1 PUSH1 0x20 ADD DUP1 DUP4 GT PUSH2 0x65B JUMPI DUP3 SWAP1 SUB PUSH1 0x1F AND DUP3 ADD SWAP2 JUMPDEST POP POP POP POP POP DUP2 MSTORE PUSH1 0x20 ADD PUSH1 0x2 DUP3 ADD PUSH1 0x2 DUP1 PUSH1 0x20 MUL PUSH1 0x40 MLOAD SWAP1 DUP2 ADD PUSH1 0x40 MSTORE DUP1 SWAP3 SWAP2 SWAP1 DUP3 PUSH1 0x2 DUP1 ISZERO PUSH2 0x6F2 JUMPI PUSH1 0x20 MUL DUP3 ADD SWAP2 JUMPDEST DUP2 PUSH0 SWAP1 SLOAD SWAP1 PUSH2 0x100 EXP SWAP1 DIV PUSH20 0xFFFFFFFFFFFFFFFFFFFFFFFFFFFFFFFFFFFFFFFF AND PUSH20 0xFFFFFFFFFFFFFFFFFFFFFFFFFFFFFFFFFFFFFFFF AND DUP2 MSTORE PUSH1 0x20 ADD SWAP1 PUSH1 0x1 ADD SWAP1 DUP1 DUP4 GT PUSH2 0x6A9 JUMPI JUMPDEST POP POP POP POP POP DUP2 MSTORE PUSH1 0x20 ADD PUSH1 0x4 DUP3 ADD PUSH1 0x2 DUP1 PUSH1 0x20 MUL PUSH1 0x40 MLOAD SWAP1 DUP2 ADD PUSH1 0x40 MSTORE DUP1 SWAP3 SWAP2 SWAP1 DUP3 PUSH1 0x2 DUP1 ISZERO PUSH2 0x737 JUMPI PUSH1 0x20 MUL DUP3 ADD SWAP2 JUMPDEST DUP2 SLOAD DUP2 MSTORE PUSH1 0x20 ADD SWAP1 PUSH1 0x1 ADD SWAP1 DUP1 DUP4 GT PUSH2 0x723 JUMPI JUMPDEST POP POP POP POP POP DUP2 MSTORE PUSH1 0x20 ADD PUSH1 0x6 DUP3 ADD PUSH1 0x2 DUP1 PUSH1 0x20 MUL PUSH1 0x40 MLOAD SWAP1 DUP2 ADD PUSH1 0x40 MSTORE DUP1 SWAP3 SWAP2 SWAP1 DUP3 PUSH1 0x2 DUP1 ISZERO PUSH2 0x77C JUMPI PUSH1 0x20 MUL DUP3 ADD SWAP2 JUMPDEST DUP2 SLOAD DUP2 MSTORE PUSH1 0x20 ADD SWAP1 PUSH1 0x1 ADD SWAP1 DUP1 DUP4 GT PUSH2 0x768 JUMPI JUMPDEST POP POP POP POP POP DUP2 MSTORE PUSH1 0x20 ADD PUSH1 0x8 DUP3 ADD PUSH0 SWAP1 SLOAD SWAP1 PUSH2 0x100 EXP SWAP1 DIV PUSH4 0xFFFFFFFF AND PUSH4 0xFFFFFFFF AND PUSH4 0xFFFFFFFF AND DUP2 MSTORE POP POP SWAP1 POP SWAP2 SWAP1 POP JUMP JUMPDEST PUSH1 0x60 PUSH0 DUP1 SLOAD PUSH2 0x7BF SWAP1 PUSH2 0x2FDA JUMP JUMPDEST DUP1 PUSH1 0x1F ADD PUSH1 0x20 DUP1 SWAP2 DIV MUL PUSH1 0x20 ADD PUSH1 0x40 MLOAD SWAP1 DUP2 ADD PUSH1 0x40 MSTORE DUP1 SWAP3 SWAP2 SWAP1 DUP2 DUP2 MSTORE PUSH1 0x20 ADD DUP3 DUP1 SLOAD PUSH2 0x7EB SWAP1 PUSH2 0x2FDA JUMP JUMPDEST DUP1 ISZERO PUSH2 0x836 JUMPI DUP1 PUSH1 0x1F LT PUSH2 0x80D JUMPI PUSH2 0x100 DUP1 DUP4 SLOAD DIV MUL DUP4 MSTORE SWAP2 PUSH1 0x20 ADD SWAP2 PUSH2 0x836 JUMP JUMPDEST DUP3 ADD SWAP2 SWAP1 PUSH0 MSTORE PUSH1 0x20 PUSH0 KECCAK256 SWAP1 JUMPDEST DUP2 SLOAD DUP2 MSTORE SWAP1 PUSH1 0x1 ADD SWAP1 PUSH1 0x20 ADD DUP1 DUP4 GT PUSH2 0x819 JUMPI DUP3 SWAP1 SUB PUSH1 0x1F AND DUP3 ADD SWAP2 JUMPDEST POP POP POP POP POP SWAP1 POP SWAP1 JUMP JUMPDEST PUSH0 PUSH2 0x84A DUP3 PUSH2 0x1418 JUMP JUMPDEST PUSH1 0x4 PUSH0 DUP4 DUP2 MSTORE PUSH1 0x20 ADD SWAP1 DUP2 MSTORE PUSH1 0x20 ADD PUSH0 KECCAK256 PUSH0 SWAP1 SLOAD SWAP1 PUSH2 0x100 EXP SWAP1 DIV PUSH20 0xFFFFFFFFFFFFFFFFFFFFFFFFFFFFFFFFFFFFFFFF AND SWAP1 POP SWAP2 SWAP1 POP JUMP JUMPDEST PUSH0 PUSH2 0x88C DUP3 PUSH2 0xCC7 JUMP JUMPDEST SWAP1 POP DUP1 PUSH20 0xFFFFFFFFFFFFFFFFFFFFFFFFFFFFFFFFFFFFFFFF AND DUP4 PUSH20 0xFFFFFFFFFFFFFFFFFFFFFFFFFFFFFFFFFFFFFFFF AND SUB PUSH2 0x8FC JUMPI PUSH1 0x40 MLOAD PUSH32 0x8C379A000000000000000000000000000000000000000000000000000000000 DUP2 MSTORE PUSH1 0x4 ADD PUSH2 0x8F3 SWAP1 PUSH2 0x307A JUMP JUMPDEST PUSH1 0x40 MLOAD DUP1 SWAP2 SUB SWAP1 REVERT JUMPDEST DUP1 PUSH20 0xFFFFFFFFFFFFFFFFFFFFFFFFFFFFFFFFFFFFFFFF AND PUSH2 0x91B PUSH2 0x1463 JUMP JUMPDEST PUSH20 0xFFFFFFFFFFFFFFFFFFFFFFFFFFFFFFFFFFFFFFFF AND EQ DUP1 PUSH2 0x94A JUMPI POP PUSH2 0x949 DUP2 PUSH2 0x944 PUSH2 0x1463 JUMP JUMPDEST PUSH2 0x11B3 JUMP JUMPDEST JUMPDEST PUSH2 0x989 JUMPI PUSH1 0x40 MLOAD PUSH32 0x8C379A000000000000000000000000000000000000000000000000000000000 DUP2 MSTORE PUSH1 0x4 ADD PUSH2 0x980 SWAP1 PUSH2 0x3108 JUMP JUMPDEST PUSH1 0x40 MLOAD DUP1 SWAP2 SUB SWAP1 REVERT JUMPDEST PUSH2 0x993 DUP4 DUP4 PUSH2 0x146A JUMP JUMPDEST POP POP POP JUMP JUMPDEST TIMESTAMP DUP2 PUSH4 0xFFFFFFFF AND GT PUSH2 0x9E0 JUMPI PUSH1 0x40 MLOAD PUSH32 0x8C379A000000000000000000000000000000000000000000000000000000000 DUP2 MSTORE PUSH1 0x4 ADD PUSH2 0x9D7 SWAP1 PUSH2 0x3196 JUMP JUMPDEST PUSH1 0x40 MLOAD DUP1 SWAP2 SUB SWAP1 REVERT JUMPDEST PUSH0 DUP3 PUSH0 PUSH1 0x2 DUP2 LT PUSH2 0x9F4 JUMPI PUSH2 0x9F3 PUSH2 0x31B4 JUMP JUMPDEST JUMPDEST PUSH1 0x20 MUL ADD MLOAD GT DUP1 ISZERO PUSH2 0xA1D JUMPI POP PUSH0 DUP3 PUSH1 0x1 PUSH1 0x2 DUP2 LT PUSH2 0xA16 JUMPI PUSH2 0xA15 PUSH2 0x31B4 JUMP JUMPDEST JUMPDEST PUSH1 0x20 MUL ADD MLOAD GT JUMPDEST PUSH2 0xA5C JUMPI PUSH1 0x40 MLOAD PUSH32 0x8C379A000000000000000000000000000000000000000000000000000000000 DUP2 MSTORE PUSH1 0x4 ADD PUSH2 0xA53 SWAP1 PUSH2 0x322B JUMP JUMPDEST PUSH1 0x40 MLOAD DUP1 SWAP2 SUB SWAP1 REVERT JUMPDEST PUSH0 PUSH2 0xA67 PUSH1 0x9 PUSH2 0x1520 JUMP JUMPDEST SWAP1 POP PUSH2 0xAA3 DUP5 PUSH0 PUSH1 0x2 DUP2 LT PUSH2 0xA7F JUMPI PUSH2 0xA7E PUSH2 0x31B4 JUMP JUMPDEST JUMPDEST PUSH1 0x20 MUL ADD MLOAD CALLER ADDRESS DUP7 PUSH0 PUSH1 0x2 DUP2 LT PUSH2 0xA99 JUMPI PUSH2 0xA98 PUSH2 0x31B4 JUMP JUMPDEST JUMPDEST PUSH1 0x20 MUL ADD MLOAD PUSH2 0x152C JUMP JUMPDEST PUSH2 0xAAD PUSH1 0x9 PUSH2 0x165F JUMP JUMPDEST PUSH2 0xAB7 DUP6 DUP3 PUSH2 0x1673 JUMP JUMPDEST PUSH0 PUSH1 0x40 MLOAD DUP1 PUSH1 0x40 ADD PUSH1 0x40 MSTORE DUP1 DUP6 PUSH0 PUSH1 0x2 DUP2 LT PUSH2 0xAD6 JUMPI PUSH2 0xAD5 PUSH2 0x31B4 JUMP JUMPDEST JUMPDEST PUSH1 0x20 MUL ADD MLOAD DUP2 MSTORE PUSH1 0x20 ADD PUSH0 DUP2 MSTORE POP SWAP1 POP PUSH1 0x40 MLOAD DUP1 PUSH1 0xC0 ADD PUSH1 0x40 MSTORE DUP1 CALLER PUSH20 0xFFFFFFFFFFFFFFFFFFFFFFFFFFFFFFFFFFFFFFFF AND DUP2 MSTORE PUSH1 0x20 ADD PUSH1 0x40 MLOAD DUP1 PUSH1 0x40 ADD PUSH1 0x40 MSTORE DUP1 PUSH1 0x3 DUP2 MSTORE PUSH1 0x20 ADD PUSH32 0x6E65770000000000000000000000000000000000000000000000000000000000 DUP2 MSTORE POP DUP2 MSTORE PUSH1 0x20 ADD DUP7 DUP2 MSTORE PUSH1 0x20 ADD DUP6 DUP2 MSTORE PUSH1 0x20 ADD DUP3 DUP2 MSTORE PUSH1 0x20 ADD DUP5 PUSH4 0xFFFFFFFF AND DUP2 MSTORE POP PUSH1 0xA PUSH0 DUP5 DUP2 MSTORE PUSH1 0x20 ADD SWAP1 DUP2 MSTORE PUSH1 0x20 ADD PUSH0 KECCAK256 PUSH0 DUP3 ADD MLOAD DUP2 PUSH0 ADD PUSH0 PUSH2 0x100 EXP DUP2 SLOAD DUP2 PUSH20 0xFFFFFFFFFFFFFFFFFFFFFFFFFFFFFFFFFFFFFFFF MUL NOT AND SWAP1 DUP4 PUSH20 0xFFFFFFFFFFFFFFFFFFFFFFFFFFFFFFFFFFFFFFFF AND MUL OR SWAP1 SSTORE POP PUSH1 0x20 DUP3 ADD MLOAD DUP2 PUSH1 0x1 ADD SWAP1 DUP2 PUSH2 0xBCE SWAP2 SWAP1 PUSH2 0x33E6 JUMP JUMPDEST POP PUSH1 0x40 DUP3 ADD MLOAD DUP2 PUSH1 0x2 ADD SWAP1 PUSH1 0x2 PUSH2 0xBE6 SWAP3 SWAP2 SWAP1 PUSH2 0x248D JUMP JUMPDEST POP PUSH1 0x60 DUP3 ADD MLOAD DUP2 PUSH1 0x4 ADD SWAP1 PUSH1 0x2 PUSH2 0xBFE SWAP3 SWAP2 SWAP1 PUSH2 0x2509 JUMP JUMPDEST POP PUSH1 0x80 DUP3 ADD MLOAD DUP2 PUSH1 0x6 ADD SWAP1 PUSH1 0x2 PUSH2 0xC16 SWAP3 SWAP2 SWAP1 PUSH2 0x2509 JUMP JUMPDEST POP PUSH1 0xA0 DUP3 ADD MLOAD DUP2 PUSH1 0x8 ADD PUSH0 PUSH2 0x100 EXP DUP2 SLOAD DUP2 PUSH4 0xFFFFFFFF MUL NOT AND SWAP1 DUP4 PUSH4 0xFFFFFFFF AND MUL OR SWAP1 SSTORE POP SWAP1 POP POP POP POP POP POP POP POP JUMP JUMPDEST PUSH2 0xC59 PUSH2 0xC53 PUSH2 0x1463 JUMP JUMPDEST DUP3 PUSH2 0x1690 JUMP JUMPDEST PUSH2 0xC98 JUMPI PUSH1 0x40 MLOAD PUSH32 0x8C379A000000000000000000000000000000000000000000000000000000000 DUP2 MSTORE PUSH1 0x4 ADD PUSH2 0xC8F SWAP1 PUSH2 0x3525 JUMP JUMPDEST PUSH1 0x40 MLOAD DUP1 SWAP2 SUB SWAP1 REVERT JUMPDEST PUSH2 0xCA3 DUP4 DUP4 DUP4 PUSH2 0x1724 JUMP JUMPDEST POP POP POP JUMP JUMPDEST PUSH2 0xCC2 DUP4 DUP4 DUP4 PUSH1 0x40 MLOAD DUP1 PUSH1 0x20 ADD PUSH1 0x40 MSTORE DUP1 PUSH0 DUP2 MSTORE POP PUSH2 0xFF1 JUMP JUMPDEST POP POP POP JUMP JUMPDEST PUSH0 DUP1 PUSH2 0xCD2 DUP4 PUSH2 0x1A10 JUMP JUMPDEST SWAP1 POP PUSH0 PUSH20 0xFFFFFFFFFFFFFFFFFFFFFFFFFFFFFFFFFFFFFFFF AND DUP2 PUSH20 0xFFFFFFFFFFFFFFFFFFFFFFFFFFFFFFFFFFFFFFFF AND SUB PUSH2 0xD42 JUMPI PUSH1 0x40 MLOAD PUSH32 0x8C379A000000000000000000000000000000000000000000000000000000000 DUP2 MSTORE PUSH1 0x4 ADD PUSH2 0xD39 SWAP1 PUSH2 0x358D JUMP JUMPDEST PUSH1 0x40 MLOAD DUP1 SWAP2 SUB SWAP1 REVERT JUMPDEST DUP1 SWAP2 POP POP SWAP2 SWAP1 POP JUMP JUMPDEST PUSH0 DUP1 PUSH20 0xFFFFFFFFFFFFFFFFFFFFFFFFFFFFFFFFFFFFFFFF AND DUP3 PUSH20 0xFFFFFFFFFFFFFFFFFFFFFFFFFFFFFFFFFFFFFFFF AND SUB PUSH2 0xDBA JUMPI PUSH1 0x40 MLOAD PUSH32 0x8C379A000000000000000000000000000000000000000000000000000000000 DUP2 MSTORE PUSH1 0x4 ADD PUSH2 0xDB1 SWAP1 PUSH2 0x361B JUMP JUMPDEST PUSH1 0x40 MLOAD DUP1 SWAP2 SUB SWAP1 REVERT JUMPDEST PUSH1 0x3 PUSH0 DUP4 PUSH20 0xFFFFFFFFFFFFFFFFFFFFFFFFFFFFFFFFFFFFFFFF AND PUSH20 0xFFFFFFFFFFFFFFFFFFFFFFFFFFFFFFFFFFFFFFFF AND DUP2 MSTORE PUSH1 0x20 ADD SWAP1 DUP2 MSTORE PUSH1 0x20 ADD PUSH0 KECCAK256 SLOAD SWAP1 POP SWAP2 SWAP1 POP JUMP JUMPDEST PUSH2 0xE07 PUSH2 0x1463 JUMP JUMPDEST PUSH20 0xFFFFFFFFFFFFFFFFFFFFFFFFFFFFFFFFFFFFFFFF AND PUSH2 0xE25 PUSH2 0xE91 JUMP JUMPDEST PUSH20 0xFFFFFFFFFFFFFFFFFFFFFFFFFFFFFFFFFFFFFFFF AND EQ PUSH2 0xE7B JUMPI PUSH1 0x40 MLOAD PUSH32 0x8C379A000000000000000000000000000000000000000000000000000000000 DUP2 MSTORE PUSH1 0x4 ADD PUSH2 0xE72 SWAP1 PUSH2 0x3683 JUMP JUMPDEST PUSH1 0x40 MLOAD DUP1 SWAP2 SUB SWAP1 REVERT JUMPDEST PUSH2 0xE84 PUSH0 PUSH2 0x1A49 JUMP JUMPDEST JUMP JUMPDEST PUSH1 0x9 DUP1 PUSH0 ADD SLOAD SWAP1 POP DUP2 JUMP JUMPDEST PUSH0 PUSH1 0x7 PUSH0 SWAP1 SLOAD SWAP1 PUSH2 0x100 EXP SWAP1 DIV PUSH20 0xFFFFFFFFFFFFFFFFFFFFFFFFFFFFFFFFFFFFFFFF AND SWAP1 POP SWAP1 JUMP JUMPDEST PUSH0 PUSH2 0xEC4 PUSH1 0x9 PUSH2 0x1520 JUMP JUMPDEST SWAP1 POP SWAP1 JUMP JUMPDEST PUSH1 0x60 PUSH1 0x1 DUP1 SLOAD PUSH2 0xED8 SWAP1 PUSH2 0x2FDA JUMP JUMPDEST DUP1 PUSH1 0x1F ADD PUSH1 0x20 DUP1 SWAP2 DIV MUL PUSH1 0x20 ADD PUSH1 0x40 MLOAD SWAP1 DUP2 ADD PUSH1 0x40 MSTORE DUP1 SWAP3 SWAP2 SWAP1 DUP2 DUP2 MSTORE PUSH1 0x20 ADD DUP3 DUP1 SLOAD PUSH2 0xF04 SWAP1 PUSH2 0x2FDA JUMP JUMPDEST DUP1 ISZERO PUSH2 0xF4F JUMPI DUP1 PUSH1 0x1F LT PUSH2 0xF26 JUMPI PUSH2 0x100 DUP1 DUP4 SLOAD DIV MUL DUP4 MSTORE SWAP2 PUSH1 0x20 ADD SWAP2 PUSH2 0xF4F JUMP JUMPDEST DUP3 ADD SWAP2 SWAP1 PUSH0 MSTORE PUSH1 0x20 PUSH0 KECCAK256 SWAP1 JUMPDEST DUP2 SLOAD DUP2 MSTORE SWAP1 PUSH1 0x1 ADD SWAP1 PUSH1 0x20 ADD DUP1 DUP4 GT PUSH2 0xF32 JUMPI DUP3 SWAP1 SUB PUSH1 0x1F AND DUP3 ADD SWAP2 JUMPDEST POP POP POP POP POP SWAP1 POP SWAP1 JUMP JUMPDEST PUSH2 0xF6B PUSH2 0xF64 PUSH2 0x1463 JUMP JUMPDEST DUP4 DUP4 PUSH2 0x1B0C JUMP JUMPDEST POP POP JUMP JUMPDEST PUSH0 DUP3 DUP3 GT ISZERO PUSH2 0xF7C JUMPI PUSH0 DUP1 REVERT JUMPDEST DUP2 DUP4 PUSH2 0xF88 SWAP2 SWAP1 PUSH2 0x36CE JUMP JUMPDEST SWAP1 POP SWAP3 SWAP2 POP POP JUMP JUMPDEST PUSH0 DUP1 PUSH1 0xA PUSH0 DUP5 DUP2 MSTORE PUSH1 0x20 ADD SWAP1 DUP2 MSTORE PUSH1 0x20 ADD PUSH0 KECCAK256 PUSH1 0x4 ADD PUSH0 PUSH1 0x2 DUP2 LT PUSH2 0xFB8 JUMPI PUSH2 0xFB7 PUSH2 0x31B4 JUMP JUMPDEST JUMPDEST ADD SLOAD SUB PUSH2 0xFC8 JUMPI PUSH1 0x1 SWAP1 POP PUSH2 0xFCC JUMP JUMPDEST PUSH0 SWAP1 POP JUMPDEST SWAP2 SWAP1 POP JUMP JUMPDEST PUSH0 DUP1 DUP3 GT PUSH2 0xFDD JUMPI PUSH0 DUP1 REVERT JUMPDEST DUP2 DUP4 PUSH2 0xFE9 SWAP2 SWAP1 PUSH2 0x372E JUMP JUMPDEST SWAP1 POP SWAP3 SWAP2 POP POP JUMP JUMPDEST PUSH2 0x1002 PUSH2 0xFFC PUSH2 0x1463 JUMP JUMPDEST DUP4 PUSH2 0x1690 JUMP JUMPDEST PUSH2 0x1041 JUMPI PUSH1 0x40 MLOAD PUSH32 0x8C379A000000000000000000000000000000000000000000000000000000000 DUP2 MSTORE PUSH1 0x4 ADD PUSH2 0x1038 SWAP1 PUSH2 0x3525 JUMP JUMPDEST PUSH1 0x40 MLOAD DUP1 SWAP2 SUB SWAP1 REVERT JUMPDEST PUSH2 0x104D DUP5 DUP5 DUP5 DUP5 PUSH2 0x1C73 JUMP JUMPDEST POP POP POP POP JUMP JUMPDEST PUSH1 0x60 PUSH2 0x105E DUP3 PUSH2 0x1418 JUMP JUMPDEST PUSH0 PUSH1 0x6 PUSH0 DUP5 DUP2 MSTORE PUSH1 0x20 ADD SWAP1 DUP2 MSTORE PUSH1 0x20 ADD PUSH0 KECCAK256 DUP1 SLOAD PUSH2 0x107B SWAP1 PUSH2 0x2FDA JUMP JUMPDEST DUP1 PUSH1 0x1F ADD PUSH1 0x20 DUP1 SWAP2 DIV MUL PUSH1 0x20 ADD PUSH1 0x40 MLOAD SWAP1 DUP2 ADD PUSH1 0x40 MSTORE DUP1 SWAP3 SWAP2 SWAP1 DUP2 DUP2 MSTORE PUSH1 0x20 ADD DUP3 DUP1 SLOAD PUSH2 0x10A7 SWAP1 PUSH2 0x2FDA JUMP JUMPDEST DUP1 ISZERO PUSH2 0x10F2 JUMPI DUP1 PUSH1 0x1F LT PUSH2 0x10C9 JUMPI PUSH2 0x100 DUP1 DUP4 SLOAD DIV MUL DUP4 MSTORE SWAP2 PUSH1 0x20 ADD SWAP2 PUSH2 0x10F2 JUMP JUMPDEST DUP3 ADD SWAP2 SWAP1 PUSH0 MSTORE PUSH1 0x20 PUSH0 KECCAK256 SWAP1 JUMPDEST DUP2 SLOAD DUP2 MSTORE SWAP1 PUSH1 0x1 ADD SWAP1 PUSH1 0x20 ADD DUP1 DUP4 GT PUSH2 0x10D5 JUMPI DUP3 SWAP1 SUB PUSH1 0x1F AND DUP3 ADD SWAP2 JUMPDEST POP POP POP POP POP SWAP1 POP PUSH0 PUSH2 0x1102 PUSH2 0x1CCF JUMP JUMPDEST SWAP1 POP PUSH0 DUP2 MLOAD SUB PUSH2 0x1116 JUMPI DUP2 SWAP3 POP POP POP PUSH2 0x1158 JUMP JUMPDEST PUSH0 DUP3 MLOAD GT ISZERO PUSH2 0x114A JUMPI DUP1 DUP3 PUSH1 0x40 MLOAD PUSH1 0x20 ADD PUSH2 0x1132 SWAP3 SWAP2 SWAP1 PUSH2 0x3798 JUMP JUMPDEST PUSH1 0x40 MLOAD PUSH1 0x20 DUP2 DUP4 SUB SUB DUP2 MSTORE SWAP1 PUSH1 0x40 MSTORE SWAP3 POP POP POP PUSH2 0x1158 JUMP JUMPDEST PUSH2 0x1153 DUP5 PUSH2 0x1CE5 JUMP JUMPDEST SWAP3 POP POP POP JUMPDEST SWAP2 SWAP1 POP JUMP JUMPDEST PUSH0 DUP2 DUP4 PUSH2 0x116A SWAP2 SWAP1 PUSH2 0x37BB JUMP JUMPDEST SWAP1 POP PUSH0 DUP4 EQ DUP1 PUSH2 0x1184 JUMPI POP DUP2 DUP4 DUP3 PUSH2 0x1182 SWAP2 SWAP1 PUSH2 0x372E JUMP JUMPDEST EQ JUMPDEST PUSH2 0x118C JUMPI PUSH0 DUP1 REVERT JUMPDEST SWAP3 SWAP2 POP POP JUMP JUMPDEST PUSH0 DUP2 DUP4 PUSH2 0x119F SWAP2 SWAP1 PUSH2 0x37FC JUMP JUMPDEST SWAP1 POP DUP3 DUP2 LT ISZERO PUSH2 0x11AD JUMPI PUSH0 DUP1 REVERT JUMPDEST SWAP3 SWAP2 POP POP JUMP JUMPDEST PUSH0 PUSH1 0x5 PUSH0 DUP5 PUSH20 0xFFFFFFFFFFFFFFFFFFFFFFFFFFFFFFFFFFFFFFFF AND PUSH20 0xFFFFFFFFFFFFFFFFFFFFFFFFFFFFFFFFFFFFFFFF AND DUP2 MSTORE PUSH1 0x20 ADD SWAP1 DUP2 MSTORE PUSH1 0x20 ADD PUSH0 KECCAK256 PUSH0 DUP4 PUSH20 0xFFFFFFFFFFFFFFFFFFFFFFFFFFFFFFFFFFFFFFFF AND PUSH20 0xFFFFFFFFFFFFFFFFFFFFFFFFFFFFFFFFFFFFFFFF AND DUP2 MSTORE PUSH1 0x20 ADD SWAP1 DUP2 MSTORE PUSH1 0x20 ADD PUSH0 KECCAK256 PUSH0 SWAP1 SLOAD SWAP1 PUSH2 0x100 EXP SWAP1 DIV PUSH1 0xFF AND SWAP1 POP SWAP3 SWAP2 POP POP JUMP JUMPDEST PUSH2 0x1249 PUSH2 0x1463 JUMP JUMPDEST PUSH20 0xFFFFFFFFFFFFFFFFFFFFFFFFFFFFFFFFFFFFFFFF AND PUSH2 0x1267 PUSH2 0xE91 JUMP JUMPDEST PUSH20 0xFFFFFFFFFFFFFFFFFFFFFFFFFFFFFFFFFFFFFFFF AND EQ PUSH2 0x12BD JUMPI PUSH1 0x40 MLOAD PUSH32 0x8C379A000000000000000000000000000000000000000000000000000000000 DUP2 MSTORE PUSH1 0x4 ADD PUSH2 0x12B4 SWAP1 PUSH2 0x3683 JUMP JUMPDEST PUSH1 0x40 MLOAD DUP1 SWAP2 SUB SWAP1 REVERT JUMPDEST PUSH0 PUSH20 0xFFFFFFFFFFFFFFFFFFFFFFFFFFFFFFFFFFFFFFFF AND DUP2 PUSH20 0xFFFFFFFFFFFFFFFFFFFFFFFFFFFFFFFFFFFFFFFF AND SUB PUSH2 0x132B JUMPI PUSH1 0x40 MLOAD PUSH32 0x8C379A000000000000000000000000000000000000000000000000000000000 DUP2 MSTORE PUSH1 0x4 ADD PUSH2 0x1322 SWAP1 PUSH2 0x389F JUMP JUMPDEST PUSH1 0x40 MLOAD DUP1 SWAP2 SUB SWAP1 REVERT JUMPDEST PUSH2 0x1334 DUP2 PUSH2 0x1A49 JUMP JUMPDEST POP JUMP JUMPDEST PUSH0 PUSH32 0x80AC58CD00000000000000000000000000000000000000000000000000000000 PUSH28 0xFFFFFFFFFFFFFFFFFFFFFFFFFFFFFFFFFFFFFFFFFFFFFFFFFFFFFFFF NOT AND DUP3 PUSH28 0xFFFFFFFFFFFFFFFFFFFFFFFFFFFFFFFFFFFFFFFFFFFFFFFFFFFFFFFF NOT AND EQ DUP1 PUSH2 0x1401 JUMPI POP PUSH32 0x5B5E139F00000000000000000000000000000000000000000000000000000000 PUSH28 0xFFFFFFFFFFFFFFFFFFFFFFFFFFFFFFFFFFFFFFFFFFFFFFFFFFFFFFFF NOT AND DUP3 PUSH28 0xFFFFFFFFFFFFFFFFFFFFFFFFFFFFFFFFFFFFFFFFFFFFFFFFFFFFFFFF NOT AND EQ JUMPDEST DUP1 PUSH2 0x1411 JUMPI POP PUSH2 0x1410 DUP3 PUSH2 0x1D4A JUMP JUMPDEST JUMPDEST SWAP1 POP SWAP2 SWAP1 POP JUMP JUMPDEST PUSH2 0x1421 DUP2 PUSH2 0x1DB3 JUMP JUMPDEST PUSH2 0x1460 JUMPI PUSH1 0x40 MLOAD PUSH32 0x8C379A000000000000000000000000000000000000000000000000000000000 DUP2 MSTORE PUSH1 0x4 ADD PUSH2 0x1457 SWAP1 PUSH2 0x358D JUMP JUMPDEST PUSH1 0x40 MLOAD DUP1 SWAP2 SUB SWAP1 REVERT JUMPDEST POP JUMP JUMPDEST PUSH0 CALLER SWAP1 POP SWAP1 JUMP JUMPDEST DUP2 PUSH1 0x4 PUSH0 DUP4 DUP2 MSTORE PUSH1 0x20 ADD SWAP1 DUP2 MSTORE PUSH1 0x20 ADD PUSH0 KECCAK256 PUSH0 PUSH2 0x100 EXP DUP2 SLOAD DUP2 PUSH20 0xFFFFFFFFFFFFFFFFFFFFFFFFFFFFFFFFFFFFFFFF MUL NOT AND SWAP1 DUP4 PUSH20 0xFFFFFFFFFFFFFFFFFFFFFFFFFFFFFFFFFFFFFFFF AND MUL OR SWAP1 SSTORE POP DUP1 DUP3 PUSH20 0xFFFFFFFFFFFFFFFFFFFFFFFFFFFFFFFFFFFFFFFF AND PUSH2 0x14DA DUP4 PUSH2 0xCC7 JUMP JUMPDEST PUSH20 0xFFFFFFFFFFFFFFFFFFFFFFFFFFFFFFFFFFFFFFFF AND PUSH32 0x8C5BE1E5EBEC7D5BD14F71427D1E84F3DD0314C0F7B2291E5B200AC8C7C3B925 PUSH1 0x40 MLOAD PUSH1 0x40 MLOAD DUP1 SWAP2 SUB SWAP1 LOG4 POP POP JUMP JUMPDEST PUSH0 DUP2 PUSH0 ADD SLOAD SWAP1 POP SWAP2 SWAP1 POP JUMP JUMPDEST PUSH0 DUP1 DUP6 PUSH20 0xFFFFFFFFFFFFFFFFFFFFFFFFFFFFFFFFFFFFFFFF AND PUSH4 0x23B872DD DUP7 DUP7 DUP7 PUSH1 0x40 MLOAD PUSH1 0x24 ADD PUSH2 0x155F SWAP4 SWAP3 SWAP2 SWAP1 PUSH2 0x38BD JUMP JUMPDEST PUSH1 0x40 MLOAD PUSH1 0x20 DUP2 DUP4 SUB SUB DUP2 MSTORE SWAP1 PUSH1 0x40 MSTORE SWAP1 PUSH1 0xE0 SHL PUSH1 0x20 DUP3 ADD DUP1 MLOAD PUSH28 0xFFFFFFFFFFFFFFFFFFFFFFFFFFFFFFFFFFFFFFFFFFFFFFFFFFFFFFFF DUP4 DUP2 DUP4 AND OR DUP4 MSTORE POP POP POP POP PUSH1 0x40 MLOAD PUSH2 0x15AD SWAP2 SWAP1 PUSH2 0x3936 JUMP JUMPDEST PUSH0 PUSH1 0x40 MLOAD DUP1 DUP4 SUB DUP2 PUSH0 DUP7 GAS CALL SWAP2 POP POP RETURNDATASIZE DUP1 PUSH0 DUP2 EQ PUSH2 0x15E6 JUMPI PUSH1 0x40 MLOAD SWAP2 POP PUSH1 0x1F NOT PUSH1 0x3F RETURNDATASIZE ADD AND DUP3 ADD PUSH1 0x40 MSTORE RETURNDATASIZE DUP3 MSTORE RETURNDATASIZE PUSH0 PUSH1 0x20 DUP5 ADD RETURNDATACOPY PUSH2 0x15EB JUMP JUMPDEST PUSH1 0x60 SWAP2 POP JUMPDEST POP SWAP2 POP SWAP2 POP DUP2 DUP1 ISZERO PUSH2 0x1618 JUMPI POP PUSH0 DUP2 MLOAD EQ DUP1 PUSH2 0x1617 JUMPI POP DUP1 DUP1 PUSH1 0x20 ADD SWAP1 MLOAD DUP2 ADD SWAP1 PUSH2 0x1616 SWAP2 SWAP1 PUSH2 0x3960 JUMP JUMPDEST JUMPDEST JUMPDEST PUSH2 0x1657 JUMPI PUSH1 0x40 MLOAD PUSH32 0x8C379A000000000000000000000000000000000000000000000000000000000 DUP2 MSTORE PUSH1 0x4 ADD PUSH2 0x164E SWAP1 PUSH2 0x39FB JUMP JUMPDEST PUSH1 0x40 MLOAD DUP1 SWAP2 SUB SWAP1 REVERT JUMPDEST POP POP POP POP POP POP JUMP JUMPDEST PUSH1 0x1 DUP2 PUSH0 ADD PUSH0 DUP3 DUP3 SLOAD ADD SWAP3 POP POP DUP2 SWAP1 SSTORE POP POP JUMP JUMPDEST PUSH2 0x168C DUP3 DUP3 PUSH1 0x40 MLOAD DUP1 PUSH1 0x20 ADD PUSH1 0x40 MSTORE DUP1 PUSH0 DUP2 MSTORE POP PUSH2 0x1DF3 JUMP JUMPDEST POP POP JUMP JUMPDEST PUSH0 DUP1 PUSH2 0x169B DUP4 PUSH2 0xCC7 JUMP JUMPDEST SWAP1 POP DUP1 PUSH20 0xFFFFFFFFFFFFFFFFFFFFFFFFFFFFFFFFFFFFFFFF AND DUP5 PUSH20 0xFFFFFFFFFFFFFFFFFFFFFFFFFFFFFFFFFFFFFFFF AND EQ DUP1 PUSH2 0x16DD JUMPI POP PUSH2 0x16DC DUP2 DUP6 PUSH2 0x11B3 JUMP JUMPDEST JUMPDEST DUP1 PUSH2 0x171B JUMPI POP DUP4 PUSH20 0xFFFFFFFFFFFFFFFFFFFFFFFFFFFFFFFFFFFFFFFF AND PUSH2 0x1703 DUP5 PUSH2 0x840 JUMP JUMPDEST PUSH20 0xFFFFFFFFFFFFFFFFFFFFFFFFFFFFFFFFFFFFFFFF AND EQ JUMPDEST SWAP2 POP POP SWAP3 SWAP2 POP POP JUMP JUMPDEST DUP3 PUSH20 0xFFFFFFFFFFFFFFFFFFFFFFFFFFFFFFFFFFFFFFFF AND PUSH2 0x1744 DUP3 PUSH2 0xCC7 JUMP JUMPDEST PUSH20 0xFFFFFFFFFFFFFFFFFFFFFFFFFFFFFFFFFFFFFFFF AND EQ PUSH2 0x179A JUMPI PUSH1 0x40 MLOAD PUSH32 0x8C379A000000000000000000000000000000000000000000000000000000000 DUP2 MSTORE PUSH1 0x4 ADD PUSH2 0x1791 SWAP1 PUSH2 0x3A89 JUMP JUMPDEST PUSH1 0x40 MLOAD DUP1 SWAP2 SUB SWAP1 REVERT JUMPDEST PUSH0 PUSH20 0xFFFFFFFFFFFFFFFFFFFFFFFFFFFFFFFFFFFFFFFF AND DUP3 PUSH20 0xFFFFFFFFFFFFFFFFFFFFFFFFFFFFFFFFFFFFFFFF AND SUB PUSH2 0x1808 JUMPI PUSH1 0x40 MLOAD PUSH32 0x8C379A000000000000000000000000000000000000000000000000000000000 DUP2 MSTORE PUSH1 0x4 ADD PUSH2 0x17FF SWAP1 PUSH2 0x3B17 JUMP JUMPDEST PUSH1 0x40 MLOAD DUP1 SWAP2 SUB SWAP1 REVERT JUMPDEST PUSH2 0x1815 DUP4 DUP4 DUP4 PUSH1 0x1 PUSH2 0x1E4D JUMP JUMPDEST DUP3 PUSH20 0xFFFFFFFFFFFFFFFFFFFFFFFFFFFFFFFFFFFFFFFF AND PUSH2 0x1835 DUP3 PUSH2 0xCC7 JUMP JUMPDEST PUSH20 0xFFFFFFFFFFFFFFFFFFFFFFFFFFFFFFFFFFFFFFFF AND EQ PUSH2 0x188B JUMPI PUSH1 0x40 MLOAD PUSH32 0x8C379A000000000000000000000000000000000000000000000000000000000 DUP2 MSTORE PUSH1 0x4 ADD PUSH2 0x1882 SWAP1 PUSH2 0x3A89 JUMP JUMPDEST PUSH1 0x40 MLOAD DUP1 SWAP2 SUB SWAP1 REVERT JUMPDEST PUSH1 0x4 PUSH0 DUP3 DUP2 MSTORE PUSH1 0x20 ADD SWAP1 DUP2 MSTORE PUSH1 0x20 ADD PUSH0 KECCAK256 PUSH0 PUSH2 0x100 EXP DUP2 SLOAD SWAP1 PUSH20 0xFFFFFFFFFFFFFFFFFFFFFFFFFFFFFFFFFFFFFFFF MUL NOT AND SWAP1 SSTORE PUSH1 0x1 PUSH1 0x3 PUSH0 DUP6 PUSH20 0xFFFFFFFFFFFFFFFFFFFFFFFFFFFFFFFFFFFFFFFF AND PUSH20 0xFFFFFFFFFFFFFFFFFFFFFFFFFFFFFFFFFFFFFFFF AND DUP2 MSTORE PUSH1 0x20 ADD SWAP1 DUP2 MSTORE PUSH1 0x20 ADD PUSH0 KECCAK256 PUSH0 DUP3 DUP3 SLOAD SUB SWAP3 POP POP DUP2 SWAP1 SSTORE POP PUSH1 0x1 PUSH1 0x3 PUSH0 DUP5 PUSH20 0xFFFFFFFFFFFFFFFFFFFFFFFFFFFFFFFFFFFFFFFF AND PUSH20 0xFFFFFFFFFFFFFFFFFFFFFFFFFFFFFFFFFFFFFFFF AND DUP2 MSTORE PUSH1 0x20 ADD SWAP1 DUP2 MSTORE PUSH1 0x20 ADD PUSH0 KECCAK256 PUSH0 DUP3 DUP3 SLOAD ADD SWAP3 POP POP DUP2 SWAP1 SSTORE POP DUP2 PUSH1 0x2 PUSH0 DUP4 DUP2 MSTORE PUSH1 0x20 ADD SWAP1 DUP2 MSTORE PUSH1 0x20 ADD PUSH0 KECCAK256 PUSH0 PUSH2 0x100 EXP DUP2 SLOAD DUP2 PUSH20 0xFFFFFFFFFFFFFFFFFFFFFFFFFFFFFFFFFFFFFFFF MUL NOT AND SWAP1 DUP4 PUSH20 0xFFFFFFFFFFFFFFFFFFFFFFFFFFFFFFFFFFFFFFFF AND MUL OR SWAP1 SSTORE POP DUP1 DUP3 PUSH20 0xFFFFFFFFFFFFFFFFFFFFFFFFFFFFFFFFFFFFFFFF AND DUP5 PUSH20 0xFFFFFFFFFFFFFFFFFFFFFFFFFFFFFFFFFFFFFFFF AND PUSH32 0xDDF252AD1BE2C89B69C2B068FC378DAA952BA7F163C4A11628F55A4DF523B3EF PUSH1 0x40 MLOAD PUSH1 0x40 MLOAD DUP1 SWAP2 SUB SWAP1 LOG4 PUSH2 0x1A0B DUP4 DUP4 DUP4 PUSH1 0x1 PUSH2 0x1E53 JUMP JUMPDEST POP POP POP JUMP JUMPDEST PUSH0 PUSH1 0x2 PUSH0 DUP4 DUP2 MSTORE PUSH1 0x20 ADD SWAP1 DUP2 MSTORE PUSH1 0x20 ADD PUSH0 KECCAK256 PUSH0 SWAP1 SLOAD SWAP1 PUSH2 0x100 EXP SWAP1 DIV PUSH20 0xFFFFFFFFFFFFFFFFFFFFFFFFFFFFFFFFFFFFFFFF AND SWAP1 POP SWAP2 SWAP1 POP JUMP JUMPDEST PUSH0 PUSH1 0x7 PUSH0 SWAP1 SLOAD SWAP1 PUSH2 0x100 EXP SWAP1 DIV PUSH20 0xFFFFFFFFFFFFFFFFFFFFFFFFFFFFFFFFFFFFFFFF AND SWAP1 POP DUP2 PUSH1 0x7 PUSH0 PUSH2 0x100 EXP DUP2 SLOAD DUP2 PUSH20 0xFFFFFFFFFFFFFFFFFFFFFFFFFFFFFFFFFFFFFFFF MUL NOT AND SWAP1 DUP4 PUSH20 0xFFFFFFFFFFFFFFFFFFFFFFFFFFFFFFFFFFFFFFFF AND MUL OR SWAP1 SSTORE POP DUP2 PUSH20 0xFFFFFFFFFFFFFFFFFFFFFFFFFFFFFFFFFFFFFFFF AND DUP2 PUSH20 0xFFFFFFFFFFFFFFFFFFFFFFFFFFFFFFFFFFFFFFFF AND PUSH32 0x8BE0079C531659141344CD1FD0A4F28419497F9722A3DAAFE3B4186F6B6457E0 PUSH1 0x40 MLOAD PUSH1 0x40 MLOAD DUP1 SWAP2 SUB SWAP1 LOG3 POP POP JUMP JUMPDEST DUP2 PUSH20 0xFFFFFFFFFFFFFFFFFFFFFFFFFFFFFFFFFFFFFFFF AND DUP4 PUSH20 0xFFFFFFFFFFFFFFFFFFFFFFFFFFFFFFFFFFFFFFFF AND SUB PUSH2 0x1B7A JUMPI PUSH1 0x40 MLOAD PUSH32 0x8C379A000000000000000000000000000000000000000000000000000000000 DUP2 MSTORE PUSH1 0x4 ADD PUSH2 0x1B71 SWAP1 PUSH2 0x3B7F JUMP JUMPDEST PUSH1 0x40 MLOAD DUP1 SWAP2 SUB SWAP1 REVERT JUMPDEST DUP1 PUSH1 0x5 PUSH0 DUP6 PUSH20 0xFFFFFFFFFFFFFFFFFFFFFFFFFFFFFFFFFFFFFFFF AND PUSH20 0xFFFFFFFFFFFFFFFFFFFFFFFFFFFFFFFFFFFFFFFF AND DUP2 MSTORE PUSH1 0x20 ADD SWAP1 DUP2 MSTORE PUSH1 0x20 ADD PUSH0 KECCAK256 PUSH0 DUP5 PUSH20 0xFFFFFFFFFFFFFFFFFFFFFFFFFFFFFFFFFFFFFFFF AND PUSH20 0xFFFFFFFFFFFFFFFFFFFFFFFFFFFFFFFFFFFFFFFF AND DUP2 MSTORE PUSH1 0x20 ADD SWAP1 DUP2 MSTORE PUSH1 0x20 ADD PUSH0 KECCAK256 PUSH0 PUSH2 0x100 EXP DUP2 SLOAD DUP2 PUSH1 0xFF MUL NOT AND SWAP1 DUP4 ISZERO ISZERO MUL OR SWAP1 SSTORE POP DUP2 PUSH20 0xFFFFFFFFFFFFFFFFFFFFFFFFFFFFFFFFFFFFFFFF AND DUP4 PUSH20 0xFFFFFFFFFFFFFFFFFFFFFFFFFFFFFFFFFFFFFFFF AND PUSH32 0x17307EAB39AB6107E8899845AD3D59BD9653F200F220920489CA2B5937696C31 DUP4 PUSH1 0x40 MLOAD PUSH2 0x1C66 SWAP2 SWAP1 PUSH2 0x2653 JUMP JUMPDEST PUSH1 0x40 MLOAD DUP1 SWAP2 SUB SWAP1 LOG3 POP POP POP JUMP JUMPDEST PUSH2 0x1C7E DUP5 DUP5 DUP5 PUSH2 0x1724 JUMP JUMPDEST PUSH2 0x1C8A DUP5 DUP5 DUP5 DUP5 PUSH2 0x1E59 JUMP JUMPDEST PUSH2 0x1CC9 JUMPI PUSH1 0x40 MLOAD PUSH32 0x8C379A000000000000000000000000000000000000000000000000000000000 DUP2 MSTORE PUSH1 0x4 ADD PUSH2 0x1CC0 SWAP1 PUSH2 0x3C0D JUMP JUMPDEST PUSH1 0x40 MLOAD DUP1 SWAP2 SUB SWAP1 REVERT JUMPDEST POP POP POP POP JUMP JUMPDEST PUSH1 0x60 PUSH1 0x40 MLOAD DUP1 PUSH1 0x20 ADD PUSH1 0x40 MSTORE DUP1 PUSH0 DUP2 MSTORE POP SWAP1 POP SWAP1 JUMP JUMPDEST PUSH1 0x60 PUSH2 0x1CF0 DUP3 PUSH2 0x1418 JUMP JUMPDEST PUSH0 PUSH2 0x1CF9 PUSH2 0x1CCF JUMP JUMPDEST SWAP1 POP PUSH0 DUP2 MLOAD GT PUSH2 0x1D17 JUMPI PUSH1 0x40 MLOAD DUP1 PUSH1 0x20 ADD PUSH1 0x40 MSTORE DUP1 PUSH0 DUP2 MSTORE POP PUSH2 0x1D42 JUMP JUMPDEST DUP1 PUSH2 0x1D21 DUP5 PUSH2 0x1FDB JUMP JUMPDEST PUSH1 0x40 MLOAD PUSH1 0x20 ADD PUSH2 0x1D32 SWAP3 SWAP2 SWAP1 PUSH2 0x3798 JUMP JUMPDEST PUSH1 0x40 MLOAD PUSH1 0x20 DUP2 DUP4 SUB SUB DUP2 MSTORE SWAP1 PUSH1 0x40 MSTORE JUMPDEST SWAP2 POP POP SWAP2 SWAP1 POP JUMP JUMPDEST PUSH0 PUSH32 0x1FFC9A700000000000000000000000000000000000000000000000000000000 PUSH28 0xFFFFFFFFFFFFFFFFFFFFFFFFFFFFFFFFFFFFFFFFFFFFFFFFFFFFFFFF NOT AND DUP3 PUSH28 0xFFFFFFFFFFFFFFFFFFFFFFFFFFFFFFFFFFFFFFFFFFFFFFFFFFFFFFFF NOT AND EQ SWAP1 POP SWAP2 SWAP1 POP JUMP JUMPDEST PUSH0 DUP1 PUSH20 0xFFFFFFFFFFFFFFFFFFFFFFFFFFFFFFFFFFFFFFFF AND PUSH2 0x1DD4 DUP4 PUSH2 0x1A10 JUMP JUMPDEST PUSH20 0xFFFFFFFFFFFFFFFFFFFFFFFFFFFFFFFFFFFFFFFF AND EQ ISZERO SWAP1 POP SWAP2 SWAP1 POP JUMP JUMPDEST PUSH2 0x1DFD DUP4 DUP4 PUSH2 0x20A5 JUMP JUMPDEST PUSH2 0x1E09 PUSH0 DUP5 DUP5 DUP5 PUSH2 0x1E59 JUMP JUMPDEST PUSH2 0x1E48 JUMPI PUSH1 0x40 MLOAD PUSH32 0x8C379A000000000000000000000000000000000000000000000000000000000 DUP2 MSTORE PUSH1 0x4 ADD PUSH2 0x1E3F SWAP1 PUSH2 0x3C0D JUMP JUMPDEST PUSH1 0x40 MLOAD DUP1 SWAP2 SUB SWAP1 REVERT JUMPDEST POP POP POP JUMP JUMPDEST POP POP POP POP JUMP JUMPDEST POP POP POP POP JUMP JUMPDEST PUSH0 PUSH2 0x1E79 DUP5 PUSH20 0xFFFFFFFFFFFFFFFFFFFFFFFFFFFFFFFFFFFFFFFF AND PUSH2 0x22B8 JUMP JUMPDEST ISZERO PUSH2 0x1FCE JUMPI DUP4 PUSH20 0xFFFFFFFFFFFFFFFFFFFFFFFFFFFFFFFFFFFFFFFF AND PUSH4 0x150B7A02 PUSH2 0x1EA2 PUSH2 0x1463 JUMP JUMPDEST DUP8 DUP7 DUP7 PUSH1 0x40 MLOAD DUP6 PUSH4 0xFFFFFFFF AND PUSH1 0xE0 SHL DUP2 MSTORE PUSH1 0x4 ADD PUSH2 0x1EC4 SWAP5 SWAP4 SWAP3 SWAP2 SWAP1 PUSH2 0x3C73 JUMP JUMPDEST PUSH1 0x20 PUSH1 0x40 MLOAD DUP1 DUP4 SUB DUP2 PUSH0 DUP8 GAS CALL SWAP3 POP POP POP DUP1 ISZERO PUSH2 0x1EFF JUMPI POP PUSH1 0x40 MLOAD RETURNDATASIZE PUSH1 0x1F NOT PUSH1 0x1F DUP3 ADD AND DUP3 ADD DUP1 PUSH1 0x40 MSTORE POP DUP2 ADD SWAP1 PUSH2 0x1EFC SWAP2 SWAP1 PUSH2 0x3CD1 JUMP JUMPDEST PUSH1 0x1 JUMPDEST PUSH2 0x1F7E JUMPI RETURNDATASIZE DUP1 PUSH0 DUP2 EQ PUSH2 0x1F2D JUMPI PUSH1 0x40 MLOAD SWAP2 POP PUSH1 0x1F NOT PUSH1 0x3F RETURNDATASIZE ADD AND DUP3 ADD PUSH1 0x40 MSTORE RETURNDATASIZE DUP3 MSTORE RETURNDATASIZE PUSH0 PUSH1 0x20 DUP5 ADD RETURNDATACOPY PUSH2 0x1F32 JUMP JUMPDEST PUSH1 0x60 SWAP2 POP JUMPDEST POP PUSH0 DUP2 MLOAD SUB PUSH2 0x1F76 JUMPI PUSH1 0x40 MLOAD PUSH32 0x8C379A000000000000000000000000000000000000000000000000000000000 DUP2 MSTORE PUSH1 0x4 ADD PUSH2 0x1F6D SWAP1 PUSH2 0x3C0D JUMP JUMPDEST PUSH1 0x40 MLOAD DUP1 SWAP2 SUB SWAP1 REVERT JUMPDEST DUP1 MLOAD DUP2 PUSH1 0x20 ADD REVERT JUMPDEST PUSH4 0x150B7A02 PUSH1 0xE0 SHL PUSH28 0xFFFFFFFFFFFFFFFFFFFFFFFFFFFFFFFFFFFFFFFFFFFFFFFFFFFFFFFF NOT AND DUP2 PUSH28 0xFFFFFFFFFFFFFFFFFFFFFFFFFFFFFFFFFFFFFFFFFFFFFFFFFFFFFFFF NOT AND EQ SWAP2 POP POP PUSH2 0x1FD3 JUMP JUMPDEST PUSH1 0x1 SWAP1 POP JUMPDEST SWAP5 SWAP4 POP POP POP POP JUMP JUMPDEST PUSH1 0x60 PUSH0 PUSH1 0x1 PUSH2 0x1FE9 DUP5 PUSH2 0x22DA JUMP JUMPDEST ADD SWAP1 POP PUSH0 DUP2 PUSH8 0xFFFFFFFFFFFFFFFF DUP2 GT ISZERO PUSH2 0x2007 JUMPI PUSH2 0x2006 PUSH2 0x2A90 JUMP JUMPDEST JUMPDEST PUSH1 0x40 MLOAD SWAP1 DUP1 DUP3 MSTORE DUP1 PUSH1 0x1F ADD PUSH1 0x1F NOT AND PUSH1 0x20 ADD DUP3 ADD PUSH1 0x40 MSTORE DUP1 ISZERO PUSH2 0x2039 JUMPI DUP2 PUSH1 0x20 ADD PUSH1 0x1 DUP3 MUL DUP1 CALLDATASIZE DUP4 CALLDATACOPY DUP1 DUP3 ADD SWAP2 POP POP SWAP1 POP JUMPDEST POP SWAP1 POP PUSH0 DUP3 PUSH1 0x20 ADD DUP3 ADD SWAP1 POP JUMPDEST PUSH1 0x1 ISZERO PUSH2 0x209A JUMPI DUP1 DUP1 PUSH1 0x1 SWAP1 SUB SWAP2 POP POP PUSH32 0x3031323334353637383961626364656600000000000000000000000000000000 PUSH1 0xA DUP7 MOD BYTE DUP2 MSTORE8 PUSH1 0xA DUP6 DUP2 PUSH2 0x208F JUMPI PUSH2 0x208E PUSH2 0x3701 JUMP JUMPDEST JUMPDEST DIV SWAP5 POP PUSH0 DUP6 SUB PUSH2 0x2046 JUMPI JUMPDEST DUP2 SWAP4 POP POP POP POP SWAP2 SWAP1 POP JUMP JUMPDEST PUSH0 PUSH20 0xFFFFFFFFFFFFFFFFFFFFFFFFFFFFFFFFFFFFFFFF AND DUP3 PUSH20 0xFFFFFFFFFFFFFFFFFFFFFFFFFFFFFFFFFFFFFFFF AND SUB PUSH2 0x2113 JUMPI PUSH1 0x40 MLOAD PUSH32 0x8C379A000000000000000000000000000000000000000000000000000000000 DUP2 MSTORE PUSH1 0x4 ADD PUSH2 0x210A SWAP1 PUSH2 0x3D46 JUMP JUMPDEST PUSH1 0x40 MLOAD DUP1 SWAP2 SUB SWAP1 REVERT JUMPDEST PUSH2 0x211C DUP2 PUSH2 0x1DB3 JUMP JUMPDEST ISZERO PUSH2 0x215C JUMPI PUSH1 0x40 MLOAD PUSH32 0x8C379A000000000000000000000000000000000000000000000000000000000 DUP2 MSTORE PUSH1 0x4 ADD PUSH2 0x2153 SWAP1 PUSH2 0x3DAE JUMP JUMPDEST PUSH1 0x40 MLOAD DUP1 SWAP2 SUB SWAP1 REVERT JUMPDEST PUSH2 0x2169 PUSH0 DUP4 DUP4 PUSH1 0x1 PUSH2 0x1E4D JUMP JUMPDEST PUSH2 0x2172 DUP2 PUSH2 0x1DB3 JUMP JUMPDEST ISZERO PUSH2 0x21B2 JUMPI PUSH1 0x40 MLOAD PUSH32 0x8C379A000000000000000000000000000000000000000000000000000000000 DUP2 MSTORE PUSH1 0x4 ADD PUSH2 0x21A9 SWAP1 PUSH2 0x3DAE JUMP JUMPDEST PUSH1 0x40 MLOAD DUP1 SWAP2 SUB SWAP1 REVERT JUMPDEST PUSH1 0x1 PUSH1 0x3 PUSH0 DUP5 PUSH20 0xFFFFFFFFFFFFFFFFFFFFFFFFFFFFFFFFFFFFFFFF AND PUSH20 0xFFFFFFFFFFFFFFFFFFFFFFFFFFFFFFFFFFFFFFFF AND DUP2 MSTORE PUSH1 0x20 ADD SWAP1 DUP2 MSTORE PUSH1 0x20 ADD PUSH0 KECCAK256 PUSH0 DUP3 DUP3 SLOAD ADD SWAP3 POP POP DUP2 SWAP1 SSTORE POP DUP2 PUSH1 0x2 PUSH0 DUP4 DUP2 MSTORE PUSH1 0x20 ADD SWAP1 DUP2 MSTORE PUSH1 0x20 ADD PUSH0 KECCAK256 PUSH0 PUSH2 0x100 EXP DUP2 SLOAD DUP2 PUSH20 0xFFFFFFFFFFFFFFFFFFFFFFFFFFFFFFFFFFFFFFFF MUL NOT AND SWAP1 DUP4 PUSH20 0xFFFFFFFFFFFFFFFFFFFFFFFFFFFFFFFFFFFFFFFF AND MUL OR SWAP1 SSTORE POP DUP1 DUP3 PUSH20 0xFFFFFFFFFFFFFFFFFFFFFFFFFFFFFFFFFFFFFFFF AND PUSH0 PUSH20 0xFFFFFFFFFFFFFFFFFFFFFFFFFFFFFFFFFFFFFFFF AND PUSH32 0xDDF252AD1BE2C89B69C2B068FC378DAA952BA7F163C4A11628F55A4DF523B3EF PUSH1 0x40 MLOAD PUSH1 0x40 MLOAD DUP1 SWAP2 SUB SWAP1 LOG4 PUSH2 0x22B4 PUSH0 DUP4 DUP4 PUSH1 0x1 PUSH2 0x1E53 JUMP JUMPDEST POP POP JUMP JUMPDEST PUSH0 DUP1 DUP3 PUSH20 0xFFFFFFFFFFFFFFFFFFFFFFFFFFFFFFFFFFFFFFFF AND EXTCODESIZE GT SWAP1 POP SWAP2 SWAP1 POP JUMP JUMPDEST PUSH0 DUP1 PUSH0 SWAP1 POP PUSH27 0x184F03E93FF9F4DAA797ED6E38ED64BF6A1F010000000000000000 DUP4 LT PUSH2 0x2336 JUMPI PUSH27 0x184F03E93FF9F4DAA797ED6E38ED64BF6A1F010000000000000000 DUP4 DUP2 PUSH2 0x232C JUMPI PUSH2 0x232B PUSH2 0x3701 JUMP JUMPDEST JUMPDEST DIV SWAP3 POP PUSH1 0x40 DUP2 ADD SWAP1 POP JUMPDEST PUSH14 0x4EE2D6D415B85ACEF8100000000 DUP4 LT PUSH2 0x2373 JUMPI PUSH14 0x4EE2D6D415B85ACEF8100000000 DUP4 DUP2 PUSH2 0x2369 JUMPI PUSH2 0x2368 PUSH2 0x3701 JUMP JUMPDEST JUMPDEST DIV SWAP3 POP PUSH1 0x20 DUP2 ADD SWAP1 POP JUMPDEST PUSH7 0x2386F26FC10000 DUP4 LT PUSH2 0x23A2 JUMPI PUSH7 0x2386F26FC10000 DUP4 DUP2 PUSH2 0x2398 JUMPI PUSH2 0x2397 PUSH2 0x3701 JUMP JUMPDEST JUMPDEST DIV SWAP3 POP PUSH1 0x10 DUP2 ADD SWAP1 POP JUMPDEST PUSH4 0x5F5E100 DUP4 LT PUSH2 0x23CB JUMPI PUSH4 0x5F5E100 DUP4 DUP2 PUSH2 0x23C1 JUMPI PUSH2 0x23C0 PUSH2 0x3701 JUMP JUMPDEST JUMPDEST DIV SWAP3 POP PUSH1 0x8 DUP2 ADD SWAP1 POP JUMPDEST PUSH2 0x2710 DUP4 LT PUSH2 0x23F0 JUMPI PUSH2 0x2710 DUP4 DUP2 PUSH2 0x23E6 JUMPI PUSH2 0x23E5 PUSH2 0x3701 JUMP JUMPDEST JUMPDEST DIV SWAP3 POP PUSH1 0x4 DUP2 ADD SWAP1 POP JUMPDEST PUSH1 0x64 DUP4 LT PUSH2 0x2413 JUMPI PUSH1 0x64 DUP4 DUP2 PUSH2 0x2409 JUMPI PUSH2 0x2408 PUSH2 0x3701 JUMP JUMPDEST JUMPDEST DIV SWAP3 POP PUSH1 0x2 DUP2 ADD SWAP1 POP JUMPDEST PUSH1 0xA DUP4 LT PUSH2 0x2422 JUMPI PUSH1 0x1 DUP2 ADD SWAP1 POP JUMPDEST DUP1 SWAP2 POP POP SWAP2 SWAP1 POP JUMP JUMPDEST PUSH1 0x40 MLOAD DUP1 PUSH1 0xC0 ADD PUSH1 0x40 MSTORE DUP1 PUSH0 PUSH20 0xFFFFFFFFFFFFFFFFFFFFFFFFFFFFFFFFFFFFFFFF AND DUP2 MSTORE PUSH1 0x20 ADD PUSH1 0x60 DUP2 MSTORE PUSH1 0x20 ADD PUSH2 0x2461 PUSH2 0x2549 JUMP JUMPDEST DUP2 MSTORE PUSH1 0x20 ADD PUSH2 0x246E PUSH2 0x256B JUMP JUMPDEST DUP2 MSTORE PUSH1 0x20 ADD PUSH2 0x247B PUSH2 0x256B JUMP JUMPDEST DUP2 MSTORE PUSH1 0x20 ADD PUSH0 PUSH4 0xFFFFFFFF AND DUP2 MSTORE POP SWAP1 JUMP JUMPDEST DUP3 PUSH1 0x2 DUP2 ADD SWAP3 DUP3 ISZERO PUSH2 0x24F8 JUMPI SWAP2 PUSH1 0x20 MUL DUP3 ADD JUMPDEST DUP3 DUP2 GT ISZERO PUSH2 0x24F7 JUMPI DUP3 MLOAD DUP3 PUSH0 PUSH2 0x100 EXP DUP2 SLOAD DUP2 PUSH20 0xFFFFFFFFFFFFFFFFFFFFFFFFFFFFFFFFFFFFFFFF MUL NOT AND SWAP1 DUP4 PUSH20 0xFFFFFFFFFFFFFFFFFFFFFFFFFFFFFFFFFFFFFFFF AND MUL OR SWAP1 SSTORE POP SWAP2 PUSH1 0x20 ADD SWAP2 SWAP1 PUSH1 0x1 ADD SWAP1 PUSH2 0x24A0 JUMP JUMPDEST JUMPDEST POP SWAP1 POP PUSH2 0x2505 SWAP2 SWAP1 PUSH2 0x258D JUMP JUMPDEST POP SWAP1 JUMP JUMPDEST DUP3 PUSH1 0x2 DUP2 ADD SWAP3 DUP3 ISZERO PUSH2 0x2538 JUMPI SWAP2 PUSH1 0x20 MUL DUP3 ADD JUMPDEST DUP3 DUP2 GT ISZERO PUSH2 0x2537 JUMPI DUP3 MLOAD DUP3 SSTORE SWAP2 PUSH1 0x20 ADD SWAP2 SWAP1 PUSH1 0x1 ADD SWAP1 PUSH2 0x251C JUMP JUMPDEST JUMPDEST POP SWAP1 POP PUSH2 0x2545 SWAP2 SWAP1 PUSH2 0x258D JUMP JUMPDEST POP SWAP1 JUMP JUMPDEST PUSH1 0x40 MLOAD DUP1 PUSH1 0x40 ADD PUSH1 0x40 MSTORE DUP1 PUSH1 0x2 SWAP1 PUSH1 0x20 DUP3 MUL DUP1 CALLDATASIZE DUP4 CALLDATACOPY DUP1 DUP3 ADD SWAP2 POP POP SWAP1 POP POP SWAP1 JUMP JUMPDEST PUSH1 0x40 MLOAD DUP1 PUSH1 0x40 ADD PUSH1 0x40 MSTORE DUP1 PUSH1 0x2 SWAP1 PUSH1 0x20 DUP3 MUL DUP1 CALLDATASIZE DUP4 CALLDATACOPY DUP1 DUP3 ADD SWAP2 POP POP SWAP1 POP POP SWAP1 JUMP JUMPDEST JUMPDEST DUP1 DUP3 GT ISZERO PUSH2 0x25A4 JUMPI PUSH0 DUP2 PUSH0 SWAP1 SSTORE POP PUSH1 0x1 ADD PUSH2 0x258E JUMP JUMPDEST POP SWAP1 JUMP JUMPDEST PUSH0 PUSH1 0x40 MLOAD SWAP1 POP SWAP1 JUMP JUMPDEST PUSH0 DUP1 REVERT JUMPDEST PUSH0 DUP1 REVERT JUMPDEST PUSH0 PUSH32 0xFFFFFFFF00000000000000000000000000000000000000000000000000000000 DUP3 AND SWAP1 POP SWAP2 SWAP1 POP JUMP JUMPDEST PUSH2 0x25ED DUP2 PUSH2 0x25B9 JUMP JUMPDEST DUP2 EQ PUSH2 0x25F7 JUMPI PUSH0 DUP1 REVERT JUMPDEST POP JUMP JUMPDEST PUSH0 DUP2 CALLDATALOAD SWAP1 POP PUSH2 0x2608 DUP2 PUSH2 0x25E4 JUMP JUMPDEST SWAP3 SWAP2 POP POP JUMP JUMPDEST PUSH0 PUSH1 0x20 DUP3 DUP5 SUB SLT ISZERO PUSH2 0x2623 JUMPI PUSH2 0x2622 PUSH2 0x25B1 JUMP JUMPDEST JUMPDEST PUSH0 PUSH2 0x2630 DUP5 DUP3 DUP6 ADD PUSH2 0x25FA JUMP JUMPDEST SWAP2 POP POP SWAP3 SWAP2 POP POP JUMP JUMPDEST PUSH0 DUP2 ISZERO ISZERO SWAP1 POP SWAP2 SWAP1 POP JUMP JUMPDEST PUSH2 0x264D DUP2 PUSH2 0x2639 JUMP JUMPDEST DUP3 MSTORE POP POP JUMP JUMPDEST PUSH0 PUSH1 0x20 DUP3 ADD SWAP1 POP PUSH2 0x2666 PUSH0 DUP4 ADD DUP5 PUSH2 0x2644 JUMP JUMPDEST SWAP3 SWAP2 POP POP JUMP JUMPDEST PUSH0 DUP2 SWAP1 POP SWAP2 SWAP1 POP JUMP JUMPDEST PUSH2 0x267E DUP2 PUSH2 0x266C JUMP JUMPDEST DUP2 EQ PUSH2 0x2688 JUMPI PUSH0 DUP1 REVERT JUMPDEST POP JUMP JUMPDEST PUSH0 DUP2 CALLDATALOAD SWAP1 POP PUSH2 0x2699 DUP2 PUSH2 0x2675 JUMP JUMPDEST SWAP3 SWAP2 POP POP JUMP JUMPDEST PUSH0 PUSH1 0x20 DUP3 DUP5 SUB SLT ISZERO PUSH2 0x26B4 JUMPI PUSH2 0x26B3 PUSH2 0x25B1 JUMP JUMPDEST JUMPDEST PUSH0 PUSH2 0x26C1 DUP5 DUP3 DUP6 ADD PUSH2 0x268B JUMP JUMPDEST SWAP2 POP POP SWAP3 SWAP2 POP POP JUMP JUMPDEST PUSH0 PUSH20 0xFFFFFFFFFFFFFFFFFFFFFFFFFFFFFFFFFFFFFFFF DUP3 AND SWAP1 POP SWAP2 SWAP1 POP JUMP JUMPDEST PUSH0 PUSH2 0x26F3 DUP3 PUSH2 0x26CA JUMP JUMPDEST SWAP1 POP SWAP2 SWAP1 POP JUMP JUMPDEST PUSH2 0x2703 DUP2 PUSH2 0x26E9 JUMP JUMPDEST DUP3 MSTORE POP POP JUMP JUMPDEST PUSH0 DUP2 MLOAD SWAP1 POP SWAP2 SWAP1 POP JUMP JUMPDEST PUSH0 DUP3 DUP3 MSTORE PUSH1 0x20 DUP3 ADD SWAP1 POP SWAP3 SWAP2 POP POP JUMP JUMPDEST PUSH0 JUMPDEST DUP4 DUP2 LT ISZERO PUSH2 0x2740 JUMPI DUP1 DUP3 ADD MLOAD DUP2 DUP5 ADD MSTORE PUSH1 0x20 DUP2 ADD SWAP1 POP PUSH2 0x2725 JUMP JUMPDEST PUSH0 DUP5 DUP5 ADD MSTORE POP POP POP POP JUMP JUMPDEST PUSH0 PUSH1 0x1F NOT PUSH1 0x1F DUP4 ADD AND SWAP1 POP SWAP2 SWAP1 POP JUMP JUMPDEST PUSH0 PUSH2 0x2765 DUP3 PUSH2 0x2709 JUMP JUMPDEST PUSH2 0x276F DUP2 DUP6 PUSH2 0x2713 JUMP JUMPDEST SWAP4 POP PUSH2 0x277F DUP2 DUP6 PUSH1 0x20 DUP7 ADD PUSH2 0x2723 JUMP JUMPDEST PUSH2 0x2788 DUP2 PUSH2 0x274B JUMP JUMPDEST DUP5 ADD SWAP2 POP POP SWAP3 SWAP2 POP POP JUMP JUMPDEST PUSH0 PUSH1 0x2 SWAP1 POP SWAP2 SWAP1 POP JUMP JUMPDEST PUSH0 DUP2 SWAP1 POP SWAP3 SWAP2 POP POP JUMP JUMPDEST PUSH0 DUP2 SWAP1 POP SWAP2 SWAP1 POP JUMP JUMPDEST PUSH0 PUSH2 0x27BB DUP4 DUP4 PUSH2 0x26FA JUMP JUMPDEST PUSH1 0x20 DUP4 ADD SWAP1 POP SWAP3 SWAP2 POP POP JUMP JUMPDEST PUSH0 PUSH1 0x20 DUP3 ADD SWAP1 POP SWAP2 SWAP1 POP JUMP JUMPDEST PUSH2 0x27DC DUP2 PUSH2 0x2793 JUMP JUMPDEST PUSH2 0x27E6 DUP2 DUP5 PUSH2 0x279D JUMP JUMPDEST SWAP3 POP PUSH2 0x27F1 DUP3 PUSH2 0x27A7 JUMP JUMPDEST DUP1 PUSH0 JUMPDEST DUP4 DUP2 LT ISZERO PUSH2 0x2821 JUMPI DUP2 MLOAD PUSH2 0x2808 DUP8 DUP3 PUSH2 0x27B0 JUMP JUMPDEST SWAP7 POP PUSH2 0x2813 DUP4 PUSH2 0x27C7 JUMP JUMPDEST SWAP3 POP POP PUSH1 0x1 DUP2 ADD SWAP1 POP PUSH2 0x27F4 JUMP JUMPDEST POP POP POP POP POP POP JUMP JUMPDEST PUSH0 PUSH1 0x2 SWAP1 POP SWAP2 SWAP1 POP JUMP JUMPDEST PUSH0 DUP2 SWAP1 POP SWAP3 SWAP2 POP POP JUMP JUMPDEST PUSH0 DUP2 SWAP1 POP SWAP2 SWAP1 POP JUMP JUMPDEST PUSH2 0x284F DUP2 PUSH2 0x266C JUMP JUMPDEST DUP3 MSTORE POP POP JUMP JUMPDEST PUSH0 PUSH2 0x2860 DUP4 DUP4 PUSH2 0x2846 JUMP JUMPDEST PUSH1 0x20 DUP4 ADD SWAP1 POP SWAP3 SWAP2 POP POP JUMP JUMPDEST PUSH0 PUSH1 0x20 DUP3 ADD SWAP1 POP SWAP2 SWAP1 POP JUMP JUMPDEST PUSH2 0x2881 DUP2 PUSH2 0x2829 JUMP JUMPDEST PUSH2 0x288B DUP2 DUP5 PUSH2 0x2833 JUMP JUMPDEST SWAP3 POP PUSH2 0x2896 DUP3 PUSH2 0x283D JUMP JUMPDEST DUP1 PUSH0 JUMPDEST DUP4 DUP2 LT ISZERO PUSH2 0x28C6 JUMPI DUP2 MLOAD PUSH2 0x28AD DUP8 DUP3 PUSH2 0x2855 JUMP JUMPDEST SWAP7 POP PUSH2 0x28B8 DUP4 PUSH2 0x286C JUMP JUMPDEST SWAP3 POP POP PUSH1 0x1 DUP2 ADD SWAP1 POP PUSH2 0x2899 JUMP JUMPDEST POP POP POP POP POP POP JUMP JUMPDEST PUSH0 PUSH4 0xFFFFFFFF DUP3 AND SWAP1 POP SWAP2 SWAP1 POP JUMP JUMPDEST PUSH2 0x28E6 DUP2 PUSH2 0x28CE JUMP JUMPDEST DUP3 MSTORE POP POP JUMP JUMPDEST PUSH0 PUSH2 0x120 DUP4 ADD PUSH0 DUP4 ADD MLOAD PUSH2 0x2902 PUSH0 DUP7 ADD DUP3 PUSH2 0x26FA JUMP JUMPDEST POP PUSH1 0x20 DUP4 ADD MLOAD DUP5 DUP3 SUB PUSH1 0x20 DUP7 ADD MSTORE PUSH2 0x291A DUP3 DUP3 PUSH2 0x275B JUMP JUMPDEST SWAP2 POP POP PUSH1 0x40 DUP4 ADD MLOAD PUSH2 0x292F PUSH1 0x40 DUP7 ADD DUP3 PUSH2 0x27D3 JUMP JUMPDEST POP PUSH1 0x60 DUP4 ADD MLOAD PUSH2 0x2942 PUSH1 0x80 DUP7 ADD DUP3 PUSH2 0x2878 JUMP JUMPDEST POP PUSH1 0x80 DUP4 ADD MLOAD PUSH2 0x2955 PUSH1 0xC0 DUP7 ADD DUP3 PUSH2 0x2878 JUMP JUMPDEST POP PUSH1 0xA0 DUP4 ADD MLOAD PUSH2 0x2969 PUSH2 0x100 DUP7 ADD DUP3 PUSH2 0x28DD JUMP JUMPDEST POP DUP1 SWAP2 POP POP SWAP3 SWAP2 POP POP JUMP JUMPDEST PUSH0 PUSH1 0x20 DUP3 ADD SWAP1 POP DUP2 DUP2 SUB PUSH0 DUP4 ADD MSTORE PUSH2 0x298C DUP2 DUP5 PUSH2 0x28EC JUMP JUMPDEST SWAP1 POP SWAP3 SWAP2 POP POP JUMP JUMPDEST PUSH0 DUP3 DUP3 MSTORE PUSH1 0x20 DUP3 ADD SWAP1 POP SWAP3 SWAP2 POP POP JUMP JUMPDEST PUSH0 PUSH2 0x29AE DUP3 PUSH2 0x2709 JUMP JUMPDEST PUSH2 0x29B8 DUP2 DUP6 PUSH2 0x2994 JUMP JUMPDEST SWAP4 POP PUSH2 0x29C8 DUP2 DUP6 PUSH1 0x20 DUP7 ADD PUSH2 0x2723 JUMP JUMPDEST PUSH2 0x29D1 DUP2 PUSH2 0x274B JUMP JUMPDEST DUP5 ADD SWAP2 POP POP SWAP3 SWAP2 POP POP JUMP JUMPDEST PUSH0 PUSH1 0x20 DUP3 ADD SWAP1 POP DUP2 DUP2 SUB PUSH0 DUP4 ADD MSTORE PUSH2 0x29F4 DUP2 DUP5 PUSH2 0x29A4 JUMP JUMPDEST SWAP1 POP SWAP3 SWAP2 POP POP JUMP JUMPDEST PUSH2 0x2A05 DUP2 PUSH2 0x26E9 JUMP JUMPDEST DUP3 MSTORE POP POP JUMP JUMPDEST PUSH0 PUSH1 0x20 DUP3 ADD SWAP1 POP PUSH2 0x2A1E PUSH0 DUP4 ADD DUP5 PUSH2 0x29FC JUMP JUMPDEST SWAP3 SWAP2 POP POP JUMP JUMPDEST PUSH2 0x2A2D DUP2 PUSH2 0x26E9 JUMP JUMPDEST DUP2 EQ PUSH2 0x2A37 JUMPI PUSH0 DUP1 REVERT JUMPDEST POP JUMP JUMPDEST PUSH0 DUP2 CALLDATALOAD SWAP1 POP PUSH2 0x2A48 DUP2 PUSH2 0x2A24 JUMP JUMPDEST SWAP3 SWAP2 POP POP JUMP JUMPDEST PUSH0 DUP1 PUSH1 0x40 DUP4 DUP6 SUB SLT ISZERO PUSH2 0x2A64 JUMPI PUSH2 0x2A63 PUSH2 0x25B1 JUMP JUMPDEST JUMPDEST PUSH0 PUSH2 0x2A71 DUP6 DUP3 DUP7 ADD PUSH2 0x2A3A JUMP JUMPDEST SWAP3 POP POP PUSH1 0x20 PUSH2 0x2A82 DUP6 DUP3 DUP7 ADD PUSH2 0x268B JUMP JUMPDEST SWAP2 POP POP SWAP3 POP SWAP3 SWAP1 POP JUMP JUMPDEST PUSH0 DUP1 REVERT JUMPDEST PUSH32 0x4E487B7100000000000000000000000000000000000000000000000000000000 PUSH0 MSTORE PUSH1 0x41 PUSH1 0x4 MSTORE PUSH1 0x24 PUSH0 REVERT JUMPDEST PUSH2 0x2AC6 DUP3 PUSH2 0x274B JUMP JUMPDEST DUP2 ADD DUP2 DUP2 LT PUSH8 0xFFFFFFFFFFFFFFFF DUP3 GT OR ISZERO PUSH2 0x2AE5 JUMPI PUSH2 0x2AE4 PUSH2 0x2A90 JUMP JUMPDEST JUMPDEST DUP1 PUSH1 0x40 MSTORE POP POP POP JUMP JUMPDEST PUSH0 PUSH2 0x2AF7 PUSH2 0x25A8 JUMP JUMPDEST SWAP1 POP PUSH2 0x2B03 DUP3 DUP3 PUSH2 0x2ABD JUMP JUMPDEST SWAP2 SWAP1 POP JUMP JUMPDEST PUSH0 PUSH8 0xFFFFFFFFFFFFFFFF DUP3 GT ISZERO PUSH2 0x2B22 JUMPI PUSH2 0x2B21 PUSH2 0x2A90 JUMP JUMPDEST JUMPDEST PUSH1 0x20 DUP3 MUL SWAP1 POP SWAP2 SWAP1 POP JUMP JUMPDEST PUSH0 DUP1 REVERT JUMPDEST PUSH0 PUSH2 0x2B43 PUSH2 0x2B3E DUP5 PUSH2 0x2B08 JUMP JUMPDEST PUSH2 0x2AEE JUMP JUMPDEST SWAP1 POP DUP1 PUSH1 0x20 DUP5 MUL DUP4 ADD DUP6 DUP2 GT ISZERO PUSH2 0x2B5D JUMPI PUSH2 0x2B5C PUSH2 0x2B2D JUMP JUMPDEST JUMPDEST DUP4 JUMPDEST DUP2 DUP2 LT ISZERO PUSH2 0x2B86 JUMPI DUP1 PUSH2 0x2B72 DUP9 DUP3 PUSH2 0x2A3A JUMP JUMPDEST DUP5 MSTORE PUSH1 0x20 DUP5 ADD SWAP4 POP POP PUSH1 0x20 DUP2 ADD SWAP1 POP PUSH2 0x2B5F JUMP JUMPDEST POP POP POP SWAP4 SWAP3 POP POP POP JUMP JUMPDEST PUSH0 DUP3 PUSH1 0x1F DUP4 ADD SLT PUSH2 0x2BA4 JUMPI PUSH2 0x2BA3 PUSH2 0x2A8C JUMP JUMPDEST JUMPDEST PUSH1 0x2 PUSH2 0x2BB1 DUP5 DUP3 DUP6 PUSH2 0x2B31 JUMP JUMPDEST SWAP2 POP POP SWAP3 SWAP2 POP POP JUMP JUMPDEST PUSH0 PUSH8 0xFFFFFFFFFFFFFFFF DUP3 GT ISZERO PUSH2 0x2BD4 JUMPI PUSH2 0x2BD3 PUSH2 0x2A90 JUMP JUMPDEST JUMPDEST PUSH1 0x20 DUP3 MUL SWAP1 POP SWAP2 SWAP1 POP JUMP JUMPDEST PUSH0 PUSH2 0x2BF1 PUSH2 0x2BEC DUP5 PUSH2 0x2BBA JUMP JUMPDEST PUSH2 0x2AEE JUMP JUMPDEST SWAP1 POP DUP1 PUSH1 0x20 DUP5 MUL DUP4 ADD DUP6 DUP2 GT ISZERO PUSH2 0x2C0B JUMPI PUSH2 0x2C0A PUSH2 0x2B2D JUMP JUMPDEST JUMPDEST DUP4 JUMPDEST DUP2 DUP2 LT ISZERO PUSH2 0x2C34 JUMPI DUP1 PUSH2 0x2C20 DUP9 DUP3 PUSH2 0x268B JUMP JUMPDEST DUP5 MSTORE PUSH1 0x20 DUP5 ADD SWAP4 POP POP PUSH1 0x20 DUP2 ADD SWAP1 POP PUSH2 0x2C0D JUMP JUMPDEST POP POP POP SWAP4 SWAP3 POP POP POP JUMP JUMPDEST PUSH0 DUP3 PUSH1 0x1F DUP4 ADD SLT PUSH2 0x2C52 JUMPI PUSH2 0x2C51 PUSH2 0x2A8C JUMP JUMPDEST JUMPDEST PUSH1 0x2 PUSH2 0x2C5F DUP5 DUP3 DUP6 PUSH2 0x2BDF JUMP JUMPDEST SWAP2 POP POP SWAP3 SWAP2 POP POP JUMP JUMPDEST PUSH2 0x2C71 DUP2 PUSH2 0x28CE JUMP JUMPDEST DUP2 EQ PUSH2 0x2C7B JUMPI PUSH0 DUP1 REVERT JUMPDEST POP JUMP JUMPDEST PUSH0 DUP2 CALLDATALOAD SWAP1 POP PUSH2 0x2C8C DUP2 PUSH2 0x2C68 JUMP JUMPDEST SWAP3 SWAP2 POP POP JUMP JUMPDEST PUSH0 DUP1 PUSH0 DUP1 PUSH1 0xC0 DUP6 DUP8 SUB SLT ISZERO PUSH2 0x2CAA JUMPI PUSH2 0x2CA9 PUSH2 0x25B1 JUMP JUMPDEST JUMPDEST PUSH0 PUSH2 0x2CB7 DUP8 DUP3 DUP9 ADD PUSH2 0x2A3A JUMP JUMPDEST SWAP5 POP POP PUSH1 0x20 PUSH2 0x2CC8 DUP8 DUP3 DUP9 ADD PUSH2 0x2B90 JUMP JUMPDEST SWAP4 POP POP PUSH1 0x60 PUSH2 0x2CD9 DUP8 DUP3 DUP9 ADD PUSH2 0x2C3E JUMP JUMPDEST SWAP3 POP POP PUSH1 0xA0 PUSH2 0x2CEA DUP8 DUP3 DUP9 ADD PUSH2 0x2C7E JUMP JUMPDEST SWAP2 POP POP SWAP3 SWAP6 SWAP2 SWAP5 POP SWAP3 POP JUMP JUMPDEST PUSH0 DUP1 PUSH0 PUSH1 0x60 DUP5 DUP7 SUB SLT ISZERO PUSH2 0x2D0D JUMPI PUSH2 0x2D0C PUSH2 0x25B1 JUMP JUMPDEST JUMPDEST PUSH0 PUSH2 0x2D1A DUP7 DUP3 DUP8 ADD PUSH2 0x2A3A JUMP JUMPDEST SWAP4 POP POP PUSH1 0x20 PUSH2 0x2D2B DUP7 DUP3 DUP8 ADD PUSH2 0x2A3A JUMP JUMPDEST SWAP3 POP POP PUSH1 0x40 PUSH2 0x2D3C DUP7 DUP3 DUP8 ADD PUSH2 0x268B JUMP JUMPDEST SWAP2 POP POP SWAP3 POP SWAP3 POP SWAP3 JUMP JUMPDEST PUSH0 PUSH1 0x20 DUP3 DUP5 SUB SLT ISZERO PUSH2 0x2D5B JUMPI PUSH2 0x2D5A PUSH2 0x25B1 JUMP JUMPDEST JUMPDEST PUSH0 PUSH2 0x2D68 DUP5 DUP3 DUP6 ADD PUSH2 0x2A3A JUMP JUMPDEST SWAP2 POP POP SWAP3 SWAP2 POP POP JUMP JUMPDEST PUSH2 0x2D7A DUP2 PUSH2 0x266C JUMP JUMPDEST DUP3 MSTORE POP POP JUMP JUMPDEST PUSH0 PUSH1 0x20 DUP3 ADD SWAP1 POP PUSH2 0x2D93 PUSH0 DUP4 ADD DUP5 PUSH2 0x2D71 JUMP JUMPDEST SWAP3 SWAP2 POP POP JUMP JUMPDEST PUSH2 0x2DA2 DUP2 PUSH2 0x2639 JUMP JUMPDEST DUP2 EQ PUSH2 0x2DAC JUMPI PUSH0 DUP1 REVERT JUMPDEST POP JUMP JUMPDEST PUSH0 DUP2 CALLDATALOAD SWAP1 POP PUSH2 0x2DBD DUP2 PUSH2 0x2D99 JUMP JUMPDEST SWAP3 SWAP2 POP POP JUMP JUMPDEST PUSH0 DUP1 PUSH1 0x40 DUP4 DUP6 SUB SLT ISZERO PUSH2 0x2DD9 JUMPI PUSH2 0x2DD8 PUSH2 0x25B1 JUMP JUMPDEST JUMPDEST PUSH0 PUSH2 0x2DE6 DUP6 DUP3 DUP7 ADD PUSH2 0x2A3A JUMP JUMPDEST SWAP3 POP POP PUSH1 0x20 PUSH2 0x2DF7 DUP6 DUP3 DUP7 ADD PUSH2 0x2DAF JUMP JUMPDEST SWAP2 POP POP SWAP3 POP SWAP3 SWAP1 POP JUMP JUMPDEST PUSH0 DUP1 PUSH1 0x40 DUP4 DUP6 SUB SLT ISZERO PUSH2 0x2E17 JUMPI PUSH2 0x2E16 PUSH2 0x25B1 JUMP JUMPDEST JUMPDEST PUSH0 PUSH2 0x2E24 DUP6 DUP3 DUP7 ADD PUSH2 0x268B JUMP JUMPDEST SWAP3 POP POP PUSH1 0x20 PUSH2 0x2E35 DUP6 DUP3 DUP7 ADD PUSH2 0x268B JUMP JUMPDEST SWAP2 POP POP SWAP3 POP SWAP3 SWAP1 POP JUMP JUMPDEST PUSH0 DUP1 REVERT JUMPDEST PUSH0 PUSH8 0xFFFFFFFFFFFFFFFF DUP3 GT ISZERO PUSH2 0x2E5D JUMPI PUSH2 0x2E5C PUSH2 0x2A90 JUMP JUMPDEST JUMPDEST PUSH2 0x2E66 DUP3 PUSH2 0x274B JUMP JUMPDEST SWAP1 POP PUSH1 0x20 DUP2 ADD SWAP1 POP SWAP2 SWAP1 POP JUMP JUMPDEST DUP3 DUP2 DUP4 CALLDATACOPY PUSH0 DUP4 DUP4 ADD MSTORE POP POP POP JUMP JUMPDEST PUSH0 PUSH2 0x2E93 PUSH2 0x2E8E DUP5 PUSH2 0x2E43 JUMP JUMPDEST PUSH2 0x2AEE JUMP JUMPDEST SWAP1 POP DUP3 DUP2 MSTORE PUSH1 0x20 DUP2 ADD DUP5 DUP5 DUP5 ADD GT ISZERO PUSH2 0x2EAF JUMPI PUSH2 0x2EAE PUSH2 0x2E3F JUMP JUMPDEST JUMPDEST PUSH2 0x2EBA DUP5 DUP3 DUP6 PUSH2 0x2E73 JUMP JUMPDEST POP SWAP4 SWAP3 POP POP POP JUMP JUMPDEST PUSH0 DUP3 PUSH1 0x1F DUP4 ADD SLT PUSH2 0x2ED6 JUMPI PUSH2 0x2ED5 PUSH2 0x2A8C JUMP JUMPDEST JUMPDEST DUP2 CALLDATALOAD PUSH2 0x2EE6 DUP5 DUP3 PUSH1 0x20 DUP7 ADD PUSH2 0x2E81 JUMP JUMPDEST SWAP2 POP POP SWAP3 SWAP2 POP POP JUMP JUMPDEST PUSH0 DUP1 PUSH0 DUP1 PUSH1 0x80 DUP6 DUP8 SUB SLT ISZERO PUSH2 0x2F07 JUMPI PUSH2 0x2F06 PUSH2 0x25B1 JUMP JUMPDEST JUMPDEST PUSH0 PUSH2 0x2F14 DUP8 DUP3 DUP9 ADD PUSH2 0x2A3A JUMP JUMPDEST SWAP5 POP POP PUSH1 0x20 PUSH2 0x2F25 DUP8 DUP3 DUP9 ADD PUSH2 0x2A3A JUMP JUMPDEST SWAP4 POP POP PUSH1 0x40 PUSH2 0x2F36 DUP8 DUP3 DUP9 ADD PUSH2 0x268B JUMP JUMPDEST SWAP3 POP POP PUSH1 0x60 DUP6 ADD CALLDATALOAD PUSH8 0xFFFFFFFFFFFFFFFF DUP2 GT ISZERO PUSH2 0x2F57 JUMPI PUSH2 0x2F56 PUSH2 0x25B5 JUMP JUMPDEST JUMPDEST PUSH2 0x2F63 DUP8 DUP3 DUP9 ADD PUSH2 0x2EC2 JUMP JUMPDEST SWAP2 POP POP SWAP3 SWAP6 SWAP2 SWAP5 POP SWAP3 POP JUMP JUMPDEST PUSH0 DUP1 PUSH1 0x40 DUP4 DUP6 SUB SLT ISZERO PUSH2 0x2F85 JUMPI PUSH2 0x2F84 PUSH2 0x25B1 JUMP JUMPDEST JUMPDEST PUSH0 PUSH2 0x2F92 DUP6 DUP3 DUP7 ADD PUSH2 0x2A3A JUMP JUMPDEST SWAP3 POP POP PUSH1 0x20 PUSH2 0x2FA3 DUP6 DUP3 DUP7 ADD PUSH2 0x2A3A JUMP JUMPDEST SWAP2 POP POP SWAP3 POP SWAP3 SWAP1 POP JUMP JUMPDEST PUSH32 0x4E487B7100000000000000000000000000000000000000000000000000000000 PUSH0 MSTORE PUSH1 0x22 PUSH1 0x4 MSTORE PUSH1 0x24 PUSH0 REVERT JUMPDEST PUSH0 PUSH1 0x2 DUP3 DIV SWAP1 POP PUSH1 0x1 DUP3 AND DUP1 PUSH2 0x2FF1 JUMPI PUSH1 0x7F DUP3 AND SWAP2 POP JUMPDEST PUSH1 0x20 DUP3 LT DUP2 SUB PUSH2 0x3004 JUMPI PUSH2 0x3003 PUSH2 0x2FAD JUMP JUMPDEST JUMPDEST POP SWAP2 SWAP1 POP JUMP JUMPDEST PUSH32 0x4552433732313A20617070726F76616C20746F2063757272656E74206F776E65 PUSH0 DUP3 ADD MSTORE PUSH32 0x7200000000000000000000000000000000000000000000000000000000000000 PUSH1 0x20 DUP3 ADD MSTORE POP JUMP JUMPDEST PUSH0 PUSH2 0x3064 PUSH1 0x21 DUP4 PUSH2 0x2994 JUMP JUMPDEST SWAP2 POP PUSH2 0x306F DUP3 PUSH2 0x300A JUMP JUMPDEST PUSH1 0x40 DUP3 ADD SWAP1 POP SWAP2 SWAP1 POP JUMP JUMPDEST PUSH0 PUSH1 0x20 DUP3 ADD SWAP1 POP DUP2 DUP2 SUB PUSH0 DUP4 ADD MSTORE PUSH2 0x3091 DUP2 PUSH2 0x3058 JUMP JUMPDEST SWAP1 POP SWAP2 SWAP1 POP JUMP JUMPDEST PUSH32 0x4552433732313A20617070726F76652063616C6C6572206973206E6F7420746F PUSH0 DUP3 ADD MSTORE PUSH32 0x6B656E206F776E6572206F7220617070726F76656420666F7220616C6C000000 PUSH1 0x20 DUP3 ADD MSTORE POP JUMP JUMPDEST PUSH0 PUSH2 0x30F2 PUSH1 0x3D DUP4 PUSH2 0x2994 JUMP JUMPDEST SWAP2 POP PUSH2 0x30FD DUP3 PUSH2 0x3098 JUMP JUMPDEST PUSH1 0x40 DUP3 ADD SWAP1 POP SWAP2 SWAP1 POP JUMP JUMPDEST PUSH0 PUSH1 0x20 DUP3 ADD SWAP1 POP DUP2 DUP2 SUB PUSH0 DUP4 ADD MSTORE PUSH2 0x311F DUP2 PUSH2 0x30E6 JUMP JUMPDEST SWAP1 POP SWAP2 SWAP1 POP JUMP JUMPDEST PUSH32 0x45787069726174696F6E2064617465206D757374206265206C61726765722074 PUSH0 DUP3 ADD MSTORE PUSH32 0x68616E206E6F7700000000000000000000000000000000000000000000000000 PUSH1 0x20 DUP3 ADD MSTORE POP JUMP JUMPDEST PUSH0 PUSH2 0x3180 PUSH1 0x27 DUP4 PUSH2 0x2994 JUMP JUMPDEST SWAP2 POP PUSH2 0x318B DUP3 PUSH2 0x3126 JUMP JUMPDEST PUSH1 0x40 DUP3 ADD SWAP1 POP SWAP2 SWAP1 POP JUMP JUMPDEST PUSH0 PUSH1 0x20 DUP3 ADD SWAP1 POP DUP2 DUP2 SUB PUSH0 DUP4 ADD MSTORE PUSH2 0x31AD DUP2 PUSH2 0x3174 JUMP JUMPDEST SWAP1 POP SWAP2 SWAP1 POP JUMP JUMPDEST PUSH32 0x4E487B7100000000000000000000000000000000000000000000000000000000 PUSH0 MSTORE PUSH1 0x32 PUSH1 0x4 MSTORE PUSH1 0x24 PUSH0 REVERT JUMPDEST PUSH32 0x56616C7565732063616E206E6F74206265207A65726F00000000000000000000 PUSH0 DUP3 ADD MSTORE POP JUMP JUMPDEST PUSH0 PUSH2 0x3215 PUSH1 0x16 DUP4 PUSH2 0x2994 JUMP JUMPDEST SWAP2 POP PUSH2 0x3220 DUP3 PUSH2 0x31E1 JUMP JUMPDEST PUSH1 0x20 DUP3 ADD SWAP1 POP SWAP2 SWAP1 POP JUMP JUMPDEST PUSH0 PUSH1 0x20 DUP3 ADD SWAP1 POP DUP2 DUP2 SUB PUSH0 DUP4 ADD MSTORE PUSH2 0x3242 DUP2 PUSH2 0x3209 JUMP JUMPDEST SWAP1 POP SWAP2 SWAP1 POP JUMP JUMPDEST PUSH0 DUP2 SWAP1 POP DUP2 PUSH0 MSTORE PUSH1 0x20 PUSH0 KECCAK256 SWAP1 POP SWAP2 SWAP1 POP JUMP JUMPDEST PUSH0 PUSH1 0x20 PUSH1 0x1F DUP4 ADD DIV SWAP1 POP SWAP2 SWAP1 POP JUMP JUMPDEST PUSH0 DUP3 DUP3 SHL SWAP1 POP SWAP3 SWAP2 POP POP JUMP JUMPDEST PUSH0 PUSH1 0x8 DUP4 MUL PUSH2 0x32A5 PUSH32 0xFFFFFFFFFFFFFFFFFFFFFFFFFFFFFFFFFFFFFFFFFFFFFFFFFFFFFFFFFFFFFFFF DUP3 PUSH2 0x326A JUMP JUMPDEST PUSH2 0x32AF DUP7 DUP4 PUSH2 0x326A JUMP JUMPDEST SWAP6 POP DUP1 NOT DUP5 AND SWAP4 POP DUP1 DUP7 AND DUP5 OR SWAP3 POP POP POP SWAP4 SWAP3 POP POP POP JUMP JUMPDEST PUSH0 DUP2 SWAP1 POP SWAP2 SWAP1 POP JUMP JUMPDEST PUSH0 PUSH2 0x32EA PUSH2 0x32E5 PUSH2 0x32E0 DUP5 PUSH2 0x266C JUMP JUMPDEST PUSH2 0x32C7 JUMP JUMPDEST PUSH2 0x266C JUMP JUMPDEST SWAP1 POP SWAP2 SWAP1 POP JUMP JUMPDEST PUSH0 DUP2 SWAP1 POP SWAP2 SWAP1 POP JUMP JUMPDEST PUSH2 0x3303 DUP4 PUSH2 0x32D0 JUMP JUMPDEST PUSH2 0x3317 PUSH2 0x330F DUP3 PUSH2 0x32F1 JUMP JUMPDEST DUP5 DUP5 SLOAD PUSH2 0x3276 JUMP JUMPDEST DUP3 SSTORE POP POP POP POP JUMP JUMPDEST PUSH0 SWAP1 JUMP JUMPDEST PUSH2 0x332B PUSH2 0x331F JUMP JUMPDEST PUSH2 0x3336 DUP2 DUP5 DUP5 PUSH2 0x32FA JUMP JUMPDEST POP POP POP JUMP JUMPDEST JUMPDEST DUP2 DUP2 LT ISZERO PUSH2 0x3359 JUMPI PUSH2 0x334E PUSH0 DUP3 PUSH2 0x3323 JUMP JUMPDEST PUSH1 0x1 DUP2 ADD SWAP1 POP PUSH2 0x333C JUMP JUMPDEST POP POP JUMP JUMPDEST PUSH1 0x1F DUP3 GT ISZERO PUSH2 0x339E JUMPI PUSH2 0x336F DUP2 PUSH2 0x3249 JUMP JUMPDEST PUSH2 0x3378 DUP5 PUSH2 0x325B JUMP JUMPDEST DUP2 ADD PUSH1 0x20 DUP6 LT ISZERO PUSH2 0x3387 JUMPI DUP2 SWAP1 POP JUMPDEST PUSH2 0x339B PUSH2 0x3393 DUP6 PUSH2 0x325B JUMP JUMPDEST DUP4 ADD DUP3 PUSH2 0x333B JUMP JUMPDEST POP POP JUMPDEST POP POP POP JUMP JUMPDEST PUSH0 DUP3 DUP3 SHR SWAP1 POP SWAP3 SWAP2 POP POP JUMP JUMPDEST PUSH0 PUSH2 0x33BE PUSH0 NOT DUP5 PUSH1 0x8 MUL PUSH2 0x33A3 JUMP JUMPDEST NOT DUP1 DUP4 AND SWAP2 POP POP SWAP3 SWAP2 POP POP JUMP JUMPDEST PUSH0 PUSH2 0x33D6 DUP4 DUP4 PUSH2 0x33AF JUMP JUMPDEST SWAP2 POP DUP3 PUSH1 0x2 MUL DUP3 OR SWAP1 POP SWAP3 SWAP2 POP POP JUMP JUMPDEST PUSH2 0x33EF DUP3 PUSH2 0x2709 JUMP JUMPDEST PUSH8 0xFFFFFFFFFFFFFFFF DUP2 GT ISZERO PUSH2 0x3408 JUMPI PUSH2 0x3407 PUSH2 0x2A90 JUMP JUMPDEST JUMPDEST PUSH2 0x3412 DUP3 SLOAD PUSH2 0x2FDA JUMP JUMPDEST PUSH2 0x341D DUP3 DUP3 DUP6 PUSH2 0x335D JUMP JUMPDEST PUSH0 PUSH1 0x20 SWAP1 POP PUSH1 0x1F DUP4 GT PUSH1 0x1 DUP2 EQ PUSH2 0x344E JUMPI PUSH0 DUP5 ISZERO PUSH2 0x343C JUMPI DUP3 DUP8 ADD MLOAD SWAP1 POP JUMPDEST PUSH2 0x3446 DUP6 DUP3 PUSH2 0x33CB JUMP JUMPDEST DUP7 SSTORE POP PUSH2 0x34AD JUMP JUMPDEST PUSH1 0x1F NOT DUP5 AND PUSH2 0x345C DUP7 PUSH2 0x3249 JUMP JUMPDEST PUSH0 JUMPDEST DUP3 DUP2 LT ISZERO PUSH2 0x3483 JUMPI DUP5 DUP10 ADD MLOAD DUP3 SSTORE PUSH1 0x1 DUP3 ADD SWAP2 POP PUSH1 0x20 DUP6 ADD SWAP5 POP PUSH1 0x20 DUP2 ADD SWAP1 POP PUSH2 0x345E JUMP JUMPDEST DUP7 DUP4 LT ISZERO PUSH2 0x34A0 JUMPI DUP5 DUP10 ADD MLOAD PUSH2 0x349C PUSH1 0x1F DUP10 AND DUP3 PUSH2 0x33AF JUMP JUMPDEST DUP4 SSTORE POP JUMPDEST PUSH1 0x1 PUSH1 0x2 DUP9 MUL ADD DUP9 SSTORE POP POP POP JUMPDEST POP POP POP POP POP POP JUMP JUMPDEST PUSH32 0x4552433732313A2063616C6C6572206973206E6F7420746F6B656E206F776E65 PUSH0 DUP3 ADD MSTORE PUSH32 0x72206F7220617070726F76656400000000000000000000000000000000000000 PUSH1 0x20 DUP3 ADD MSTORE POP JUMP JUMPDEST PUSH0 PUSH2 0x350F PUSH1 0x2D DUP4 PUSH2 0x2994 JUMP JUMPDEST SWAP2 POP PUSH2 0x351A DUP3 PUSH2 0x34B5 JUMP JUMPDEST PUSH1 0x40 DUP3 ADD SWAP1 POP SWAP2 SWAP1 POP JUMP JUMPDEST PUSH0 PUSH1 0x20 DUP3 ADD SWAP1 POP DUP2 DUP2 SUB PUSH0 DUP4 ADD MSTORE PUSH2 0x353C DUP2 PUSH2 0x3503 JUMP JUMPDEST SWAP1 POP SWAP2 SWAP1 POP JUMP JUMPDEST PUSH32 0x4552433732313A20696E76616C696420746F6B656E2049440000000000000000 PUSH0 DUP3 ADD MSTORE POP JUMP JUMPDEST PUSH0 PUSH2 0x3577 PUSH1 0x18 DUP4 PUSH2 0x2994 JUMP JUMPDEST SWAP2 POP PUSH2 0x3582 DUP3 PUSH2 0x3543 JUMP JUMPDEST PUSH1 0x20 DUP3 ADD SWAP1 POP SWAP2 SWAP1 POP JUMP JUMPDEST PUSH0 PUSH1 0x20 DUP3 ADD SWAP1 POP DUP2 DUP2 SUB PUSH0 DUP4 ADD MSTORE PUSH2 0x35A4 DUP2 PUSH2 0x356B JUMP JUMPDEST SWAP1 POP SWAP2 SWAP1 POP JUMP JUMPDEST PUSH32 0x4552433732313A2061646472657373207A65726F206973206E6F742061207661 PUSH0 DUP3 ADD MSTORE PUSH32 0x6C6964206F776E65720000000000000000000000000000000000000000000000 PUSH1 0x20 DUP3 ADD MSTORE POP JUMP JUMPDEST PUSH0 PUSH2 0x3605 PUSH1 0x29 DUP4 PUSH2 0x2994 JUMP JUMPDEST SWAP2 POP PUSH2 0x3610 DUP3 PUSH2 0x35AB JUMP JUMPDEST PUSH1 0x40 DUP3 ADD SWAP1 POP SWAP2 SWAP1 POP JUMP JUMPDEST PUSH0 PUSH1 0x20 DUP3 ADD SWAP1 POP DUP2 DUP2 SUB PUSH0 DUP4 ADD MSTORE PUSH2 0x3632 DUP2 PUSH2 0x35F9 JUMP JUMPDEST SWAP1 POP SWAP2 SWAP1 POP JUMP JUMPDEST PUSH32 0x4F776E61626C653A2063616C6C6572206973206E6F7420746865206F776E6572 PUSH0 DUP3 ADD MSTORE POP JUMP JUMPDEST PUSH0 PUSH2 0x366D PUSH1 0x20 DUP4 PUSH2 0x2994 JUMP JUMPDEST SWAP2 POP PUSH2 0x3678 DUP3 PUSH2 0x3639 JUMP JUMPDEST PUSH1 0x20 DUP3 ADD SWAP1 POP SWAP2 SWAP1 POP JUMP JUMPDEST PUSH0 PUSH1 0x20 DUP3 ADD SWAP1 POP DUP2 DUP2 SUB PUSH0 DUP4 ADD MSTORE PUSH2 0x369A DUP2 PUSH2 0x3661 JUMP JUMPDEST SWAP1 POP SWAP2 SWAP1 POP JUMP JUMPDEST PUSH32 0x4E487B7100000000000000000000000000000000000000000000000000000000 PUSH0 MSTORE PUSH1 0x11 PUSH1 0x4 MSTORE PUSH1 0x24 PUSH0 REVERT JUMPDEST PUSH0 PUSH2 0x36D8 DUP3 PUSH2 0x266C JUMP JUMPDEST SWAP2 POP PUSH2 0x36E3 DUP4 PUSH2 0x266C JUMP JUMPDEST SWAP3 POP DUP3 DUP3 SUB SWAP1 POP DUP2 DUP2 GT ISZERO PUSH2 0x36FB JUMPI PUSH2 0x36FA PUSH2 0x36A1 JUMP JUMPDEST JUMPDEST SWAP3 SWAP2 POP POP JUMP JUMPDEST PUSH32 0x4E487B7100000000000000000000000000000000000000000000000000000000 PUSH0 MSTORE PUSH1 0x12 PUSH1 0x4 MSTORE PUSH1 0x24 PUSH0 REVERT JUMPDEST PUSH0 PUSH2 0x3738 DUP3 PUSH2 0x266C JUMP JUMPDEST SWAP2 POP PUSH2 0x3743 DUP4 PUSH2 0x266C JUMP JUMPDEST SWAP3 POP DUP3 PUSH2 0x3753 JUMPI PUSH2 0x3752 PUSH2 0x3701 JUMP JUMPDEST JUMPDEST DUP3 DUP3 DIV SWAP1 POP SWAP3 SWAP2 POP POP JUMP JUMPDEST PUSH0 DUP2 SWAP1 POP SWAP3 SWAP2 POP POP JUMP JUMPDEST PUSH0 PUSH2 0x3772 DUP3 PUSH2 0x2709 JUMP JUMPDEST PUSH2 0x377C DUP2 DUP6 PUSH2 0x375E JUMP JUMPDEST SWAP4 POP PUSH2 0x378C DUP2 DUP6 PUSH1 0x20 DUP7 ADD PUSH2 0x2723 JUMP JUMPDEST DUP1 DUP5 ADD SWAP2 POP POP SWAP3 SWAP2 POP POP JUMP JUMPDEST PUSH0 PUSH2 0x37A3 DUP3 DUP6 PUSH2 0x3768 JUMP JUMPDEST SWAP2 POP PUSH2 0x37AF DUP3 DUP5 PUSH2 0x3768 JUMP JUMPDEST SWAP2 POP DUP2 SWAP1 POP SWAP4 SWAP3 POP POP POP JUMP JUMPDEST PUSH0 PUSH2 0x37C5 DUP3 PUSH2 0x266C JUMP JUMPDEST SWAP2 POP PUSH2 0x37D0 DUP4 PUSH2 0x266C JUMP JUMPDEST SWAP3 POP DUP3 DUP3 MUL PUSH2 0x37DE DUP2 PUSH2 0x266C JUMP JUMPDEST SWAP2 POP DUP3 DUP3 DIV DUP5 EQ DUP4 ISZERO OR PUSH2 0x37F5 JUMPI PUSH2 0x37F4 PUSH2 0x36A1 JUMP JUMPDEST JUMPDEST POP SWAP3 SWAP2 POP POP JUMP JUMPDEST PUSH0 PUSH2 0x3806 DUP3 PUSH2 0x266C JUMP JUMPDEST SWAP2 POP PUSH2 0x3811 DUP4 PUSH2 0x266C JUMP JUMPDEST SWAP3 POP DUP3 DUP3 ADD SWAP1 POP DUP1 DUP3 GT ISZERO PUSH2 0x3829 JUMPI PUSH2 0x3828 PUSH2 0x36A1 JUMP JUMPDEST JUMPDEST SWAP3 SWAP2 POP POP JUMP JUMPDEST PUSH32 0x4F776E61626C653A206E6577206F776E657220697320746865207A65726F2061 PUSH0 DUP3 ADD MSTORE PUSH32 0x6464726573730000000000000000000000000000000000000000000000000000 PUSH1 0x20 DUP3 ADD MSTORE POP JUMP JUMPDEST PUSH0 PUSH2 0x3889 PUSH1 0x26 DUP4 PUSH2 0x2994 JUMP JUMPDEST SWAP2 POP PUSH2 0x3894 DUP3 PUSH2 0x382F JUMP JUMPDEST PUSH1 0x40 DUP3 ADD SWAP1 POP SWAP2 SWAP1 POP JUMP JUMPDEST PUSH0 PUSH1 0x20 DUP3 ADD SWAP1 POP DUP2 DUP2 SUB PUSH0 DUP4 ADD MSTORE PUSH2 0x38B6 DUP2 PUSH2 0x387D JUMP JUMPDEST SWAP1 POP SWAP2 SWAP1 POP JUMP JUMPDEST PUSH0 PUSH1 0x60 DUP3 ADD SWAP1 POP PUSH2 0x38D0 PUSH0 DUP4 ADD DUP7 PUSH2 0x29FC JUMP JUMPDEST PUSH2 0x38DD PUSH1 0x20 DUP4 ADD DUP6 PUSH2 0x29FC JUMP JUMPDEST PUSH2 0x38EA PUSH1 0x40 DUP4 ADD DUP5 PUSH2 0x2D71 JUMP JUMPDEST SWAP5 SWAP4 POP POP POP POP JUMP JUMPDEST PUSH0 DUP2 MLOAD SWAP1 POP SWAP2 SWAP1 POP JUMP JUMPDEST PUSH0 DUP2 SWAP1 POP SWAP3 SWAP2 POP POP JUMP JUMPDEST PUSH0 PUSH2 0x3910 DUP3 PUSH2 0x38F2 JUMP JUMPDEST PUSH2 0x391A DUP2 DUP6 PUSH2 0x38FC JUMP JUMPDEST SWAP4 POP PUSH2 0x392A DUP2 DUP6 PUSH1 0x20 DUP7 ADD PUSH2 0x2723 JUMP JUMPDEST DUP1 DUP5 ADD SWAP2 POP POP SWAP3 SWAP2 POP POP JUMP JUMPDEST PUSH0 PUSH2 0x3941 DUP3 DUP5 PUSH2 0x3906 JUMP JUMPDEST SWAP2 POP DUP2 SWAP1 POP SWAP3 SWAP2 POP POP JUMP JUMPDEST PUSH0 DUP2 MLOAD SWAP1 POP PUSH2 0x395A DUP2 PUSH2 0x2D99 JUMP JUMPDEST SWAP3 SWAP2 POP POP JUMP JUMPDEST PUSH0 PUSH1 0x20 DUP3 DUP5 SUB SLT ISZERO PUSH2 0x3975 JUMPI PUSH2 0x3974 PUSH2 0x25B1 JUMP JUMPDEST JUMPDEST PUSH0 PUSH2 0x3982 DUP5 DUP3 DUP6 ADD PUSH2 0x394C JUMP JUMPDEST SWAP2 POP POP SWAP3 SWAP2 POP POP JUMP JUMPDEST PUSH32 0x5472616E7366657248656C7065723A205452414E534645525F46524F4D5F4641 PUSH0 DUP3 ADD MSTORE PUSH32 0x494C454400000000000000000000000000000000000000000000000000000000 PUSH1 0x20 DUP3 ADD MSTORE POP JUMP JUMPDEST PUSH0 PUSH2 0x39E5 PUSH1 0x24 DUP4 PUSH2 0x2994 JUMP JUMPDEST SWAP2 POP PUSH2 0x39F0 DUP3 PUSH2 0x398B JUMP JUMPDEST PUSH1 0x40 DUP3 ADD SWAP1 POP SWAP2 SWAP1 POP JUMP JUMPDEST PUSH0 PUSH1 0x20 DUP3 ADD SWAP1 POP DUP2 DUP2 SUB PUSH0 DUP4 ADD MSTORE PUSH2 0x3A12 DUP2 PUSH2 0x39D9 JUMP JUMPDEST SWAP1 POP SWAP2 SWAP1 POP JUMP JUMPDEST PUSH32 0x4552433732313A207472616E736665722066726F6D20696E636F727265637420 PUSH0 DUP3 ADD MSTORE PUSH32 0x6F776E6572000000000000000000000000000000000000000000000000000000 PUSH1 0x20 DUP3 ADD MSTORE POP JUMP JUMPDEST PUSH0 PUSH2 0x3A73 PUSH1 0x25 DUP4 PUSH2 0x2994 JUMP JUMPDEST SWAP2 POP PUSH2 0x3A7E DUP3 PUSH2 0x3A19 JUMP JUMPDEST PUSH1 0x40 DUP3 ADD SWAP1 POP SWAP2 SWAP1 POP JUMP JUMPDEST PUSH0 PUSH1 0x20 DUP3 ADD SWAP1 POP DUP2 DUP2 SUB PUSH0 DUP4 ADD MSTORE PUSH2 0x3AA0 DUP2 PUSH2 0x3A67 JUMP JUMPDEST SWAP1 POP SWAP2 SWAP1 POP JUMP JUMPDEST PUSH32 0x4552433732313A207472616E7366657220746F20746865207A65726F20616464 PUSH0 DUP3 ADD MSTORE PUSH32 0x7265737300000000000000000000000000000000000000000000000000000000 PUSH1 0x20 DUP3 ADD MSTORE POP JUMP JUMPDEST PUSH0 PUSH2 0x3B01 PUSH1 0x24 DUP4 PUSH2 0x2994 JUMP JUMPDEST SWAP2 POP PUSH2 0x3B0C DUP3 PUSH2 0x3AA7 JUMP JUMPDEST PUSH1 0x40 DUP3 ADD SWAP1 POP SWAP2 SWAP1 POP JUMP JUMPDEST PUSH0 PUSH1 0x20 DUP3 ADD SWAP1 POP DUP2 DUP2 SUB PUSH0 DUP4 ADD MSTORE PUSH2 0x3B2E DUP2 PUSH2 0x3AF5 JUMP JUMPDEST SWAP1 POP SWAP2 SWAP1 POP JUMP JUMPDEST PUSH32 0x4552433732313A20617070726F766520746F2063616C6C657200000000000000 PUSH0 DUP3 ADD MSTORE POP JUMP JUMPDEST PUSH0 PUSH2 0x3B69 PUSH1 0x19 DUP4 PUSH2 0x2994 JUMP JUMPDEST SWAP2 POP PUSH2 0x3B74 DUP3 PUSH2 0x3B35 JUMP JUMPDEST PUSH1 0x20 DUP3 ADD SWAP1 POP SWAP2 SWAP1 POP JUMP JUMPDEST PUSH0 PUSH1 0x20 DUP3 ADD SWAP1 POP DUP2 DUP2 SUB PUSH0 DUP4 ADD MSTORE PUSH2 0x3B96 DUP2 PUSH2 0x3B5D JUMP JUMPDEST SWAP1 POP SWAP2 SWAP1 POP JUMP JUMPDEST PUSH32 0x4552433732313A207472616E7366657220746F206E6F6E204552433732315265 PUSH0 DUP3 ADD MSTORE PUSH32 0x63656976657220696D706C656D656E7465720000000000000000000000000000 PUSH1 0x20 DUP3 ADD MSTORE POP JUMP JUMPDEST PUSH0 PUSH2 0x3BF7 PUSH1 0x32 DUP4 PUSH2 0x2994 JUMP JUMPDEST SWAP2 POP PUSH2 0x3C02 DUP3 PUSH2 0x3B9D JUMP JUMPDEST PUSH1 0x40 DUP3 ADD SWAP1 POP SWAP2 SWAP1 POP JUMP JUMPDEST PUSH0 PUSH1 0x20 DUP3 ADD SWAP1 POP DUP2 DUP2 SUB PUSH0 DUP4 ADD MSTORE PUSH2 0x3C24 DUP2 PUSH2 0x3BEB JUMP JUMPDEST SWAP1 POP SWAP2 SWAP1 POP JUMP JUMPDEST PUSH0 DUP3 DUP3 MSTORE PUSH1 0x20 DUP3 ADD SWAP1 POP SWAP3 SWAP2 POP POP JUMP JUMPDEST PUSH0 PUSH2 0x3C45 DUP3 PUSH2 0x38F2 JUMP JUMPDEST PUSH2 0x3C4F DUP2 DUP6 PUSH2 0x3C2B JUMP JUMPDEST SWAP4 POP PUSH2 0x3C5F DUP2 DUP6 PUSH1 0x20 DUP7 ADD PUSH2 0x2723 JUMP JUMPDEST PUSH2 0x3C68 DUP2 PUSH2 0x274B JUMP JUMPDEST DUP5 ADD SWAP2 POP POP SWAP3 SWAP2 POP POP JUMP JUMPDEST PUSH0 PUSH1 0x80 DUP3 ADD SWAP1 POP PUSH2 0x3C86 PUSH0 DUP4 ADD DUP8 PUSH2 0x29FC JUMP JUMPDEST PUSH2 0x3C93 PUSH1 0x20 DUP4 ADD DUP7 PUSH2 0x29FC JUMP JUMPDEST PUSH2 0x3CA0 PUSH1 0x40 DUP4 ADD DUP6 PUSH2 0x2D71 JUMP JUMPDEST DUP2 DUP2 SUB PUSH1 0x60 DUP4 ADD MSTORE PUSH2 0x3CB2 DUP2 DUP5 PUSH2 0x3C3B JUMP JUMPDEST SWAP1 POP SWAP6 SWAP5 POP POP POP POP POP JUMP JUMPDEST PUSH0 DUP2 MLOAD SWAP1 POP PUSH2 0x3CCB DUP2 PUSH2 0x25E4 JUMP JUMPDEST SWAP3 SWAP2 POP POP JUMP JUMPDEST PUSH0 PUSH1 0x20 DUP3 DUP5 SUB SLT ISZERO PUSH2 0x3CE6 JUMPI PUSH2 0x3CE5 PUSH2 0x25B1 JUMP JUMPDEST JUMPDEST PUSH0 PUSH2 0x3CF3 DUP5 DUP3 DUP6 ADD PUSH2 0x3CBD JUMP JUMPDEST SWAP2 POP POP SWAP3 SWAP2 POP POP JUMP JUMPDEST PUSH32 0x4552433732313A206D696E7420746F20746865207A65726F2061646472657373 PUSH0 DUP3 ADD MSTORE POP JUMP JUMPDEST PUSH0 PUSH2 0x3D30 PUSH1 0x20 DUP4 PUSH2 0x2994 JUMP JUMPDEST SWAP2 POP PUSH2 0x3D3B DUP3 PUSH2 0x3CFC JUMP JUMPDEST PUSH1 0x20 DUP3 ADD SWAP1 POP SWAP2 SWAP1 POP JUMP JUMPDEST PUSH0 PUSH1 0x20 DUP3 ADD SWAP1 POP DUP2 DUP2 SUB PUSH0 DUP4 ADD MSTORE PUSH2 0x3D5D DUP2 PUSH2 0x3D24 JUMP JUMPDEST SWAP1 POP SWAP2 SWAP1 POP JUMP JUMPDEST PUSH32 0x4552433732313A20746F6B656E20616C7265616479206D696E74656400000000 PUSH0 DUP3 ADD MSTORE POP JUMP JUMPDEST PUSH0 PUSH2 0x3D98 PUSH1 0x1C DUP4 PUSH2 0x2994 JUMP JUMPDEST SWAP2 POP PUSH2 0x3DA3 DUP3 PUSH2 0x3D64 JUMP JUMPDEST PUSH1 0x20 DUP3 ADD SWAP1 POP SWAP2 SWAP1 POP JUMP JUMPDEST PUSH0 PUSH1 0x20 DUP3 ADD SWAP1 POP DUP2 DUP2 SUB PUSH0 DUP4 ADD MSTORE PUSH2 0x3DC5 DUP2 PUSH2 0x3D8C JUMP JUMPDEST SWAP1 POP SWAP2 SWAP1 POP JUMP INVALID LOG2 PUSH5 0x6970667358 0x22 SLT KECCAK256 0xCB SWAP9 SAR 0x4D 0xDB CREATE SLT STOP 0xAC 0x5D PUSH13 0xC629C70FA4697B6C86410B577 0x4D SWAP4 PUSH15 0xBBCB86AB3E64736F6C634300081400 CALLER "
		},
		"gasEstimates": {
			"creation": {
				"codeDepositCost": "3174800",
				"executionCost": "infinite",
				"totalCost": "infinite"
			},
			"external": {
				"GetOptionData(uint256)": "infinite",
				"GetTotalOptionCount()": "2524",
				"IsOptionExecuted(uint256)": "2976",
				"_tokenIdCounter()": "2571",
				"approve(address,uint256)": "infinite",
				"balanceOf(address)": "2953",
				"getApproved(uint256)": "5304",
				"isApprovedForAll(address,address)": "infinite",
				"name()": "infinite",
				"owner()": "2538",
				"ownerOf(uint256)": "3050",
				"renounceOwnership()": "30477",
				"safeAdd(uint256,uint256)": "infinite",
				"safeDiv(uint256,uint256)": "infinite",
				"safeMint(address,address[2],uint256[2],uint32)": "infinite",
				"safeMul(uint256,uint256)": "infinite",
				"safeSub(uint256,uint256)": "infinite",
				"safeTransferFrom(address,address,uint256)": "infinite",
				"safeTransferFrom(address,address,uint256,bytes)": "infinite",
				"setApprovalForAll(address,bool)": "infinite",
				"supportsInterface(bytes4)": "881",
				"symbol()": "infinite",
				"tokenURI(uint256)": "infinite",
				"transferFrom(address,address,uint256)": "infinite",
				"transferOwnership(address)": "30817"
			}
		},
		"methodIdentifiers": {
			"GetOptionData(uint256)": "032fabfc",
			"GetTotalOptionCount()": "9090c545",
			"IsOptionExecuted(uint256)": "a4e1c3ac",
			"_tokenIdCounter()": "84c4bd4b",
			"approve(address,uint256)": "095ea7b3",
			"balanceOf(address)": "70a08231",
			"getApproved(uint256)": "081812fc",
			"isApprovedForAll(address,address)": "e985e9c5",
			"name()": "06fdde03",
			"owner()": "8da5cb5b",
			"ownerOf(uint256)": "6352211e",
			"renounceOwnership()": "715018a6",
			"safeAdd(uint256,uint256)": "e6cb9013",
			"safeDiv(uint256,uint256)": "b5931f7c",
			"safeMint(address,address[2],uint256[2],uint32)": "15174374",
			"safeMul(uint256,uint256)": "d05c78da",
			"safeSub(uint256,uint256)": "a293d1e8",
			"safeTransferFrom(address,address,uint256)": "42842e0e",
			"safeTransferFrom(address,address,uint256,bytes)": "b88d4fde",
			"setApprovalForAll(address,bool)": "a22cb465",
			"supportsInterface(bytes4)": "01ffc9a7",
			"symbol()": "95d89b41",
			"tokenURI(uint256)": "c87b56dd",
			"transferFrom(address,address,uint256)": "23b872dd",
			"transferOwnership(address)": "f2fde38b"
		}
	},
	"abi": [
		{
			"inputs": [],
			"stateMutability": "nonpayable",
			"type": "constructor"
		},
		{
			"anonymous": false,
			"inputs": [
				{
					"indexed": true,
					"internalType": "address",
					"name": "owner",
					"type": "address"
				},
				{
					"indexed": true,
					"internalType": "address",
					"name": "approved",
					"type": "address"
				},
				{
					"indexed": true,
					"internalType": "uint256",
					"name": "tokenId",
					"type": "uint256"
				}
			],
			"name": "Approval",
			"type": "event"
		},
		{
			"anonymous": false,
			"inputs": [
				{
					"indexed": true,
					"internalType": "address",
					"name": "owner",
					"type": "address"
				},
				{
					"indexed": true,
					"internalType": "address",
					"name": "operator",
					"type": "address"
				},
				{
					"indexed": false,
					"internalType": "bool",
					"name": "approved",
					"type": "bool"
				}
			],
			"name": "ApprovalForAll",
			"type": "event"
		},
		{
			"anonymous": false,
			"inputs": [
				{
					"indexed": false,
					"internalType": "uint256",
					"name": "_fromTokenId",
					"type": "uint256"
				},
				{
					"indexed": false,
					"internalType": "uint256",
					"name": "_toTokenId",
					"type": "uint256"
				}
			],
			"name": "BatchMetadataUpdate",
			"type": "event"
		},
		{
			"anonymous": false,
			"inputs": [
				{
					"indexed": false,
					"internalType": "uint256",
					"name": "_tokenId",
					"type": "uint256"
				}
			],
			"name": "MetadataUpdate",
			"type": "event"
		},
		{
			"anonymous": false,
			"inputs": [
				{
					"indexed": true,
					"internalType": "address",
					"name": "previousOwner",
					"type": "address"
				},
				{
					"indexed": true,
					"internalType": "address",
					"name": "newOwner",
					"type": "address"
				}
			],
			"name": "OwnershipTransferred",
			"type": "event"
		},
		{
			"anonymous": false,
			"inputs": [
				{
					"indexed": true,
					"internalType": "address",
					"name": "from",
					"type": "address"
				},
				{
					"indexed": true,
					"internalType": "address",
					"name": "to",
					"type": "address"
				},
				{
					"indexed": true,
					"internalType": "uint256",
					"name": "tokenId",
					"type": "uint256"
				}
			],
			"name": "Transfer",
			"type": "event"
		},
		{
			"inputs": [
				{
					"internalType": "uint256",
					"name": "_tokenId",
					"type": "uint256"
				}
			],
			"name": "GetOptionData",
			"outputs": [
				{
					"components": [
						{
							"internalType": "address",
							"name": "creator",
							"type": "address"
						},
						{
							"internalType": "string",
							"name": "pairName",
							"type": "string"
						},
						{
							"internalType": "address[2]",
							"name": "path",
							"type": "address[2]"
						},
						{
							"internalType": "uint256[2]",
							"name": "ratio",
							"type": "uint256[2]"
						},
						{
							"internalType": "uint256[2]",
							"name": "balances",
							"type": "uint256[2]"
						},
						{
							"internalType": "uint32",
							"name": "expiration",
							"type": "uint32"
						}
					],
					"internalType": "struct PIEXCreator.OptionParams",
					"name": "",
					"type": "tuple"
				}
			],
			"stateMutability": "view",
			"type": "function"
		},
		{
			"inputs": [],
			"name": "GetTotalOptionCount",
			"outputs": [
				{
					"internalType": "uint256",
					"name": "",
					"type": "uint256"
				}
			],
			"stateMutability": "view",
			"type": "function"
		},
		{
			"inputs": [
				{
					"internalType": "uint256",
					"name": "_tokenId",
					"type": "uint256"
				}
			],
			"name": "IsOptionExecuted",
			"outputs": [
				{
					"internalType": "bool",
					"name": "",
					"type": "bool"
				}
			],
			"stateMutability": "view",
			"type": "function"
		},
		{
			"inputs": [],
			"name": "_tokenIdCounter",
			"outputs": [
				{
					"internalType": "uint256",
					"name": "_value",
					"type": "uint256"
				}
			],
			"stateMutability": "view",
			"type": "function"
		},
		{
			"inputs": [
				{
					"internalType": "address",
					"name": "to",
					"type": "address"
				},
				{
					"internalType": "uint256",
					"name": "tokenId",
					"type": "uint256"
				}
			],
			"name": "approve",
			"outputs": [],
			"stateMutability": "nonpayable",
			"type": "function"
		},
		{
			"inputs": [
				{
					"internalType": "address",
					"name": "owner",
					"type": "address"
				}
			],
			"name": "balanceOf",
			"outputs": [
				{
					"internalType": "uint256",
					"name": "",
					"type": "uint256"
				}
			],
			"stateMutability": "view",
			"type": "function"
		},
		{
			"inputs": [
				{
					"internalType": "uint256",
					"name": "tokenId",
					"type": "uint256"
				}
			],
			"name": "getApproved",
			"outputs": [
				{
					"internalType": "address",
					"name": "",
					"type": "address"
				}
			],
			"stateMutability": "view",
			"type": "function"
		},
		{
			"inputs": [
				{
					"internalType": "address",
					"name": "owner",
					"type": "address"
				},
				{
					"internalType": "address",
					"name": "operator",
					"type": "address"
				}
			],
			"name": "isApprovedForAll",
			"outputs": [
				{
					"internalType": "bool",
					"name": "",
					"type": "bool"
				}
			],
			"stateMutability": "view",
			"type": "function"
		},
		{
			"inputs": [],
			"name": "name",
			"outputs": [
				{
					"internalType": "string",
					"name": "",
					"type": "string"
				}
			],
			"stateMutability": "view",
			"type": "function"
		},
		{
			"inputs": [],
			"name": "owner",
			"outputs": [
				{
					"internalType": "address",
					"name": "",
					"type": "address"
				}
			],
			"stateMutability": "view",
			"type": "function"
		},
		{
			"inputs": [
				{
					"internalType": "uint256",
					"name": "tokenId",
					"type": "uint256"
				}
			],
			"name": "ownerOf",
			"outputs": [
				{
					"internalType": "address",
					"name": "",
					"type": "address"
				}
			],
			"stateMutability": "view",
			"type": "function"
		},
		{
			"inputs": [],
			"name": "renounceOwnership",
			"outputs": [],
			"stateMutability": "nonpayable",
			"type": "function"
		},
		{
			"inputs": [
				{
					"internalType": "uint256",
					"name": "a",
					"type": "uint256"
				},
				{
					"internalType": "uint256",
					"name": "b",
					"type": "uint256"
				}
			],
			"name": "safeAdd",
			"outputs": [
				{
					"internalType": "uint256",
					"name": "c",
					"type": "uint256"
				}
			],
			"stateMutability": "pure",
			"type": "function"
		},
		{
			"inputs": [
				{
					"internalType": "uint256",
					"name": "a",
					"type": "uint256"
				},
				{
					"internalType": "uint256",
					"name": "b",
					"type": "uint256"
				}
			],
			"name": "safeDiv",
			"outputs": [
				{
					"internalType": "uint256",
					"name": "c",
					"type": "uint256"
				}
			],
			"stateMutability": "pure",
			"type": "function"
		},
		{
			"inputs": [
				{
					"internalType": "address",
					"name": "to",
					"type": "address"
				},
				{
					"internalType": "address[2]",
					"name": "_path",
					"type": "address[2]"
				},
				{
					"internalType": "uint256[2]",
					"name": "_ratio",
					"type": "uint256[2]"
				},
				{
					"internalType": "uint32",
					"name": "expiration",
					"type": "uint32"
				}
			],
			"name": "safeMint",
			"outputs": [],
			"stateMutability": "nonpayable",
			"type": "function"
		},
		{
			"inputs": [
				{
					"internalType": "uint256",
					"name": "a",
					"type": "uint256"
				},
				{
					"internalType": "uint256",
					"name": "b",
					"type": "uint256"
				}
			],
			"name": "safeMul",
			"outputs": [
				{
					"internalType": "uint256",
					"name": "c",
					"type": "uint256"
				}
			],
			"stateMutability": "pure",
			"type": "function"
		},
		{
			"inputs": [
				{
					"internalType": "uint256",
					"name": "a",
					"type": "uint256"
				},
				{
					"internalType": "uint256",
					"name": "b",
					"type": "uint256"
				}
			],
			"name": "safeSub",
			"outputs": [
				{
					"internalType": "uint256",
					"name": "c",
					"type": "uint256"
				}
			],
			"stateMutability": "pure",
			"type": "function"
		},
		{
			"inputs": [
				{
					"internalType": "address",
					"name": "from",
					"type": "address"
				},
				{
					"internalType": "address",
					"name": "to",
					"type": "address"
				},
				{
					"internalType": "uint256",
					"name": "tokenId",
					"type": "uint256"
				}
			],
			"name": "safeTransferFrom",
			"outputs": [],
			"stateMutability": "nonpayable",
			"type": "function"
		},
		{
			"inputs": [
				{
					"internalType": "address",
					"name": "from",
					"type": "address"
				},
				{
					"internalType": "address",
					"name": "to",
					"type": "address"
				},
				{
					"internalType": "uint256",
					"name": "tokenId",
					"type": "uint256"
				},
				{
					"internalType": "bytes",
					"name": "data",
					"type": "bytes"
				}
			],
			"name": "safeTransferFrom",
			"outputs": [],
			"stateMutability": "nonpayable",
			"type": "function"
		},
		{
			"inputs": [
				{
					"internalType": "address",
					"name": "operator",
					"type": "address"
				},
				{
					"internalType": "bool",
					"name": "approved",
					"type": "bool"
				}
			],
			"name": "setApprovalForAll",
			"outputs": [],
			"stateMutability": "nonpayable",
			"type": "function"
		},
		{
			"inputs": [
				{
					"internalType": "bytes4",
					"name": "interfaceId",
					"type": "bytes4"
				}
			],
			"name": "supportsInterface",
			"outputs": [
				{
					"internalType": "bool",
					"name": "",
					"type": "bool"
				}
			],
			"stateMutability": "view",
			"type": "function"
		},
		{
			"inputs": [],
			"name": "symbol",
			"outputs": [
				{
					"internalType": "string",
					"name": "",
					"type": "string"
				}
			],
			"stateMutability": "view",
			"type": "function"
		},
		{
			"inputs": [
				{
					"internalType": "uint256",
					"name": "tokenId",
					"type": "uint256"
				}
			],
			"name": "tokenURI",
			"outputs": [
				{
					"internalType": "string",
					"name": "",
					"type": "string"
				}
			],
			"stateMutability": "view",
			"type": "function"
		},
		{
			"inputs": [
				{
					"internalType": "address",
					"name": "from",
					"type": "address"
				},
				{
					"internalType": "address",
					"name": "to",
					"type": "address"
				},
				{
					"internalType": "uint256",
					"name": "tokenId",
					"type": "uint256"
				}
			],
			"name": "transferFrom",
			"outputs": [],
			"stateMutability": "nonpayable",
			"type": "function"
		},
		{
			"inputs": [
				{
					"internalType": "address",
					"name": "newOwner",
					"type": "address"
				}
			],
			"name": "transferOwnership",
			"outputs": [],
			"stateMutability": "nonpayable",
			"type": "function"
		}
	]
}